{
  "_format": "hh-sol-artifact-1",
  "contractName": "ProgressNFT",
  "sourceName": "contracts/ProgressNFT.sol",
  "abi": [
    {
      "inputs": [],
      "stateMutability": "nonpayable",
      "type": "constructor"
    },
    {
      "anonymous": false,
      "inputs": [
        {
          "indexed": true,
          "internalType": "address",
          "name": "owner",
          "type": "address"
        },
        {
          "indexed": true,
          "internalType": "address",
          "name": "approved",
          "type": "address"
        },
        {
          "indexed": true,
          "internalType": "uint256",
          "name": "tokenId",
          "type": "uint256"
        }
      ],
      "name": "Approval",
      "type": "event"
    },
    {
      "anonymous": false,
      "inputs": [
        {
          "indexed": true,
          "internalType": "address",
          "name": "owner",
          "type": "address"
        },
        {
          "indexed": true,
          "internalType": "address",
          "name": "operator",
          "type": "address"
        },
        {
          "indexed": false,
          "internalType": "bool",
          "name": "approved",
          "type": "bool"
        }
      ],
      "name": "ApprovalForAll",
      "type": "event"
    },
    {
      "anonymous": false,
      "inputs": [
        {
          "indexed": true,
          "internalType": "address",
          "name": "from",
          "type": "address"
        },
        {
          "indexed": true,
          "internalType": "address",
          "name": "to",
          "type": "address"
        },
        {
          "indexed": true,
          "internalType": "uint256",
          "name": "tokenId",
          "type": "uint256"
        }
      ],
      "name": "Transfer",
      "type": "event"
    },
    {
      "inputs": [
        {
          "internalType": "address",
          "name": "to",
          "type": "address"
        },
        {
          "internalType": "uint256",
          "name": "tokenId",
          "type": "uint256"
        }
      ],
      "name": "approve",
      "outputs": [],
      "stateMutability": "nonpayable",
      "type": "function"
    },
    {
      "inputs": [
        {
          "internalType": "address",
          "name": "owner",
          "type": "address"
        }
      ],
      "name": "balanceOf",
      "outputs": [
        {
          "internalType": "uint256",
          "name": "",
          "type": "uint256"
        }
      ],
      "stateMutability": "view",
      "type": "function"
    },
    {
      "inputs": [],
      "name": "batmon",
      "outputs": [
        {
          "internalType": "address",
          "name": "",
          "type": "address"
        }
      ],
      "stateMutability": "view",
      "type": "function"
    },
    {
      "inputs": [
        {
          "internalType": "uint256",
          "name": "tokenId",
          "type": "uint256"
        }
      ],
      "name": "getApproved",
      "outputs": [
        {
          "internalType": "address",
          "name": "",
          "type": "address"
        }
      ],
      "stateMutability": "view",
      "type": "function"
    },
    {
      "inputs": [
        {
          "internalType": "address",
          "name": "owner",
          "type": "address"
        },
        {
          "internalType": "address",
          "name": "operator",
          "type": "address"
        }
      ],
      "name": "isApprovedForAll",
      "outputs": [
        {
          "internalType": "bool",
          "name": "",
          "type": "bool"
        }
      ],
      "stateMutability": "view",
      "type": "function"
    },
    {
      "inputs": [
        {
          "internalType": "uint256",
          "name": "tokenId",
          "type": "uint256"
        }
      ],
      "name": "levelUp",
      "outputs": [
        {
          "internalType": "bool",
          "name": "success",
          "type": "bool"
        }
      ],
      "stateMutability": "nonpayable",
      "type": "function"
    },
    {
      "inputs": [
        {
          "internalType": "address",
          "name": "player",
          "type": "address"
        }
      ],
      "name": "mint",
      "outputs": [
        {
          "internalType": "uint256",
          "name": "tokenId",
          "type": "uint256"
        }
      ],
      "stateMutability": "nonpayable",
      "type": "function"
    },
    {
      "inputs": [],
      "name": "name",
      "outputs": [
        {
          "internalType": "string",
          "name": "",
          "type": "string"
        }
      ],
      "stateMutability": "view",
      "type": "function"
    },
    {
      "inputs": [],
      "name": "owner",
      "outputs": [
        {
          "internalType": "address",
          "name": "",
          "type": "address"
        }
      ],
      "stateMutability": "view",
      "type": "function"
    },
    {
      "inputs": [
        {
          "internalType": "uint256",
          "name": "tokenId",
          "type": "uint256"
        }
      ],
      "name": "ownerOf",
      "outputs": [
        {
          "internalType": "address",
          "name": "",
          "type": "address"
        }
      ],
      "stateMutability": "view",
      "type": "function"
    },
    {
      "inputs": [
        {
          "internalType": "address",
          "name": "from",
          "type": "address"
        },
        {
          "internalType": "address",
          "name": "to",
          "type": "address"
        },
        {
          "internalType": "uint256",
          "name": "tokenId",
          "type": "uint256"
        }
      ],
      "name": "safeTransferFrom",
      "outputs": [],
      "stateMutability": "nonpayable",
      "type": "function"
    },
    {
      "inputs": [
        {
          "internalType": "address",
          "name": "from",
          "type": "address"
        },
        {
          "internalType": "address",
          "name": "to",
          "type": "address"
        },
        {
          "internalType": "uint256",
          "name": "tokenId",
          "type": "uint256"
        },
        {
          "internalType": "bytes",
          "name": "data",
          "type": "bytes"
        }
      ],
      "name": "safeTransferFrom",
      "outputs": [],
      "stateMutability": "nonpayable",
      "type": "function"
    },
    {
      "inputs": [
        {
          "internalType": "address",
          "name": "operator",
          "type": "address"
        },
        {
          "internalType": "bool",
          "name": "approved",
          "type": "bool"
        }
      ],
      "name": "setApprovalForAll",
      "outputs": [],
      "stateMutability": "nonpayable",
      "type": "function"
    },
    {
      "inputs": [
        {
          "internalType": "address",
          "name": "_batmon",
          "type": "address"
        }
      ],
      "name": "setBatmon",
      "outputs": [
        {
          "internalType": "bool",
          "name": "success",
          "type": "bool"
        }
      ],
      "stateMutability": "nonpayable",
      "type": "function"
    },
    {
      "inputs": [
        {
          "internalType": "bytes4",
          "name": "interfaceId",
          "type": "bytes4"
        }
      ],
      "name": "supportsInterface",
      "outputs": [
        {
          "internalType": "bool",
          "name": "",
          "type": "bool"
        }
      ],
      "stateMutability": "view",
      "type": "function"
    },
    {
      "inputs": [],
      "name": "symbol",
      "outputs": [
        {
          "internalType": "string",
          "name": "",
          "type": "string"
        }
      ],
      "stateMutability": "view",
      "type": "function"
    },
    {
      "inputs": [],
      "name": "tokenCounter",
      "outputs": [
        {
          "internalType": "uint256",
          "name": "",
          "type": "uint256"
        }
      ],
      "stateMutability": "view",
      "type": "function"
    },
    {
      "inputs": [
        {
          "internalType": "uint256",
          "name": "",
          "type": "uint256"
        }
      ],
      "name": "tokenIdToLevel",
      "outputs": [
        {
          "internalType": "uint256",
          "name": "",
          "type": "uint256"
        }
      ],
      "stateMutability": "view",
      "type": "function"
    },
    {
      "inputs": [
        {
          "internalType": "uint256",
          "name": "tokenId",
          "type": "uint256"
        }
      ],
      "name": "tokenURI",
      "outputs": [
        {
          "internalType": "string",
          "name": "",
          "type": "string"
        }
      ],
      "stateMutability": "view",
      "type": "function"
    },
    {
      "inputs": [
        {
          "internalType": "address",
          "name": "from",
          "type": "address"
        },
        {
          "internalType": "address",
          "name": "to",
          "type": "address"
        },
        {
          "internalType": "uint256",
          "name": "tokenId",
          "type": "uint256"
        }
      ],
      "name": "transferFrom",
      "outputs": [],
      "stateMutability": "nonpayable",
      "type": "function"
    }
  ],
  "bytecode": "0x60806040523480156200001157600080fd5b50604080518082018252600b81526a141c9bd9dc995cdcd3919560aa1b6020808301918252835180850190945260048452631413919560e21b908401528151919291620000619160009162000092565b5080516200007790600190602084019062000092565b5050600780546001600160a01b031916331790555062000175565b828054620000a09062000138565b90600052602060002090601f016020900481019282620000c457600085556200010f565b82601f10620000df57805160ff19168380011785556200010f565b828001600101855582156200010f579182015b828111156200010f578251825591602001919060010190620000f2565b506200011d92915062000121565b5090565b5b808211156200011d576000815560010162000122565b600181811c908216806200014d57607f821691505b602082108114156200016f57634e487b7160e01b600052602260045260246000fd5b50919050565b61159980620001856000396000f3fe608060405234801561001057600080fd5b506004361061012c5760003560e01c80637502a211116100ad578063b88d4fde11610071578063b88d4fde146102a2578063bb86e8cd146102b5578063c87b56dd146102d5578063d082e381146102e8578063e985e9c5146102f157600080fd5b80637502a2111461022e57806381103c55146102415780638da5cb5b1461027457806395d89b4114610287578063a22cb4651461028f57600080fd5b806323b872dd116100f457806323b872dd146101c157806342842e0e146101d45780636352211e146101e75780636a627842146101fa57806370a082311461021b57600080fd5b806301ffc9a71461013157806306fdde0314610159578063081812fc1461016e578063095ea7b3146101995780630ce90ec2146101ae575b600080fd5b61014461013f36600461108b565b61032d565b60405190151581526020015b60405180910390f35b61016161037f565b6040516101509190611100565b61018161017c366004611113565b610411565b6040516001600160a01b039091168152602001610150565b6101ac6101a7366004611148565b610438565b005b6101446101bc366004611113565b610553565b6101ac6101cf366004611172565b6105ac565b6101ac6101e2366004611172565b6105dd565b6101816101f5366004611113565b6105f8565b61020d6102083660046111ae565b610658565b604051908152602001610150565b61020d6102293660046111ae565b6106c0565b600854610181906001600160a01b031681565b61014461024f3660046111ae565b600880546001600160a01b0319166001600160a01b0392909216919091179055600190565b600754610181906001600160a01b031681565b610161610746565b6101ac61029d3660046111c9565b610755565b6101ac6102b036600461121b565b610764565b61020d6102c3366004611113565b60066020526000908152604090205481565b6101616102e3366004611113565b61079c565b61020d60095481565b6101446102ff3660046112f7565b6001600160a01b03918216600090815260056020908152604080832093909416825291909152205460ff1690565b60006001600160e01b031982166380ac58cd60e01b148061035e57506001600160e01b03198216635b5e139f60e01b145b8061037957506301ffc9a760e01b6001600160e01b03198316145b92915050565b60606000805461038e9061132a565b80601f01602080910402602001604051908101604052809291908181526020018280546103ba9061132a565b80156104075780601f106103dc57610100808354040283529160200191610407565b820191906000526020600020905b8154815290600101906020018083116103ea57829003601f168201915b5050505050905090565b600061041c82610810565b506000908152600460205260409020546001600160a01b031690565b6000610443826105f8565b9050806001600160a01b0316836001600160a01b031614156104b65760405162461bcd60e51b815260206004820152602160248201527f4552433732313a20617070726f76616c20746f2063757272656e74206f776e656044820152603960f91b60648201526084015b60405180910390fd5b336001600160a01b03821614806104d257506104d281336102ff565b6105445760405162461bcd60e51b815260206004820152603d60248201527f4552433732313a20617070726f76652063616c6c6572206973206e6f7420746f60448201527f6b656e206f776e6572206f7220617070726f76656420666f7220616c6c00000060648201526084016104ad565b61054e8383610872565b505050565b6008546000906001600160a01b031633146105805760405162461bcd60e51b81526004016104ad90611365565b600082815260066020526040812080546001929061059f9084906113c7565b9091555060019392505050565b6105b633826108e0565b6105d25760405162461bcd60e51b81526004016104ad906113df565b61054e83838361095f565b61054e83838360405180602001604052806000815250610764565b6000818152600260205260408120546001600160a01b0316806103795760405162461bcd60e51b8152602060048201526018602482015277115490cdcc8c4e881a5b9d985b1a59081d1bdad95b88125160421b60448201526064016104ad565b6008546000906001600160a01b031633146106855760405162461bcd60e51b81526004016104ad90611365565b506009546000818152600660205260408120556106a28282610ad0565b6001600960008282546106b591906113c7565b909155509092915050565b60006001600160a01b03821661072a5760405162461bcd60e51b815260206004820152602960248201527f4552433732313a2061646472657373207a65726f206973206e6f7420612076616044820152683634b21037bbb732b960b91b60648201526084016104ad565b506001600160a01b031660009081526003602052604090205490565b60606001805461038e9061132a565b610760338383610c69565b5050565b61076e33836108e0565b61078a5760405162461bcd60e51b81526004016104ad906113df565b61079684848484610d38565b50505050565b60606107a782610810565b60006107be60408051602081019091526000815290565b905060008151116107de5760405180602001604052806000815250610809565b806107e884610d6b565b6040516020016107f992919061142c565b6040516020818303038152906040525b9392505050565b6000818152600260205260409020546001600160a01b031661086f5760405162461bcd60e51b8152602060048201526018602482015277115490cdcc8c4e881a5b9d985b1a59081d1bdad95b88125160421b60448201526064016104ad565b50565b600081815260046020526040902080546001600160a01b0319166001600160a01b03841690811790915581906108a7826105f8565b6001600160a01b03167f8c5be1e5ebec7d5bd14f71427d1e84f3dd0314c0f7b2291e5b200ac8c7c3b92560405160405180910390a45050565b6000806108ec836105f8565b9050806001600160a01b0316846001600160a01b0316148061093357506001600160a01b0380821660009081526005602090815260408083209388168352929052205460ff165b806109575750836001600160a01b031661094c84610411565b6001600160a01b0316145b949350505050565b826001600160a01b0316610972826105f8565b6001600160a01b0316146109985760405162461bcd60e51b81526004016104ad9061145b565b6001600160a01b0382166109fa5760405162461bcd60e51b8152602060048201526024808201527f4552433732313a207472616e7366657220746f20746865207a65726f206164646044820152637265737360e01b60648201526084016104ad565b610a078383836001610e08565b826001600160a01b0316610a1a826105f8565b6001600160a01b031614610a405760405162461bcd60e51b81526004016104ad9061145b565b600081815260046020908152604080832080546001600160a01b03199081169091556001600160a01b0387811680865260038552838620805460001901905590871680865283862080546001019055868652600290945282852080549092168417909155905184937fddf252ad1be2c89b69c2b068fc378daa952ba7f163c4a11628f55a4df523b3ef91a4505050565b6001600160a01b038216610b265760405162461bcd60e51b815260206004820181905260248201527f4552433732313a206d696e7420746f20746865207a65726f206164647265737360448201526064016104ad565b6000818152600260205260409020546001600160a01b031615610b8b5760405162461bcd60e51b815260206004820152601c60248201527f4552433732313a20746f6b656e20616c7265616479206d696e7465640000000060448201526064016104ad565b610b99600083836001610e08565b6000818152600260205260409020546001600160a01b031615610bfe5760405162461bcd60e51b815260206004820152601c60248201527f4552433732313a20746f6b656e20616c7265616479206d696e7465640000000060448201526064016104ad565b6001600160a01b038216600081815260036020908152604080832080546001019055848352600290915280822080546001600160a01b0319168417905551839291907fddf252ad1be2c89b69c2b068fc378daa952ba7f163c4a11628f55a4df523b3ef908290a45050565b816001600160a01b0316836001600160a01b03161415610ccb5760405162461bcd60e51b815260206004820152601960248201527f4552433732313a20617070726f766520746f2063616c6c65720000000000000060448201526064016104ad565b6001600160a01b03838116600081815260056020908152604080832094871680845294825291829020805460ff191686151590811790915591519182527f17307eab39ab6107e8899845ad3d59bd9653f200f220920489ca2b5937696c31910160405180910390a3505050565b610d4384848461095f565b610d4f84848484610e90565b6107965760405162461bcd60e51b81526004016104ad906114a0565b60606000610d7883610f9d565b600101905060008167ffffffffffffffff811115610d9857610d98611205565b6040519080825280601f01601f191660200182016040528015610dc2576020820181803683370190505b5090508181016020015b600019016f181899199a1a9b1b9c1cb0b131b232b360811b600a86061a8153600a8504945084610dfb57610e00565b610dcc565b509392505050565b6001811115610796576001600160a01b03841615610e4e576001600160a01b03841660009081526003602052604081208054839290610e489084906114f2565b90915550505b6001600160a01b03831615610796576001600160a01b03831660009081526003602052604081208054839290610e859084906113c7565b909155505050505050565b60006001600160a01b0384163b15610f9257604051630a85bd0160e11b81526001600160a01b0385169063150b7a0290610ed4903390899088908890600401611509565b602060405180830381600087803b158015610eee57600080fd5b505af1925050508015610f1e575060408051601f3d908101601f19168201909252610f1b91810190611546565b60015b610f78573d808015610f4c576040519150601f19603f3d011682016040523d82523d6000602084013e610f51565b606091505b508051610f705760405162461bcd60e51b81526004016104ad906114a0565b805181602001fd5b6001600160e01b031916630a85bd0160e11b149050610957565b506001949350505050565b60008072184f03e93ff9f4daa797ed6e38ed64bf6a1f0160401b8310610fdc5772184f03e93ff9f4daa797ed6e38ed64bf6a1f0160401b830492506040015b6d04ee2d6d415b85acef81000000008310611008576d04ee2d6d415b85acef8100000000830492506020015b662386f26fc10000831061102657662386f26fc10000830492506010015b6305f5e100831061103e576305f5e100830492506008015b612710831061105257612710830492506004015b60648310611064576064830492506002015b600a83106103795760010192915050565b6001600160e01b03198116811461086f57600080fd5b60006020828403121561109d57600080fd5b813561080981611075565b60005b838110156110c35781810151838201526020016110ab565b838111156107965750506000910152565b600081518084526110ec8160208601602086016110a8565b601f01601f19169290920160200192915050565b60208152600061080960208301846110d4565b60006020828403121561112557600080fd5b5035919050565b80356001600160a01b038116811461114357600080fd5b919050565b6000806040838503121561115b57600080fd5b6111648361112c565b946020939093013593505050565b60008060006060848603121561118757600080fd5b6111908461112c565b925061119e6020850161112c565b9150604084013590509250925092565b6000602082840312156111c057600080fd5b6108098261112c565b600080604083850312156111dc57600080fd5b6111e58361112c565b9150602083013580151581146111fa57600080fd5b809150509250929050565b634e487b7160e01b600052604160045260246000fd5b6000806000806080858703121561123157600080fd5b61123a8561112c565b93506112486020860161112c565b925060408501359150606085013567ffffffffffffffff8082111561126c57600080fd5b818701915087601f83011261128057600080fd5b81358181111561129257611292611205565b604051601f8201601f19908116603f011681019083821181831017156112ba576112ba611205565b816040528281528a60208487010111156112d357600080fd5b82602086016020830137600060208483010152809550505050505092959194509250565b6000806040838503121561130a57600080fd5b6113138361112c565b91506113216020840161112c565b90509250929050565b600181811c9082168061133e57607f821691505b6020821081141561135f57634e487b7160e01b600052602260045260246000fd5b50919050565b6020808252602c908201527f4f6e6c79206261746d6f6e20636f6e74726163742063616e2063616c6c20746860408201526b6973206d6574686f6421212160a01b606082015260800190565b634e487b7160e01b600052601160045260246000fd5b600082198211156113da576113da6113b1565b500190565b6020808252602d908201527f4552433732313a2063616c6c6572206973206e6f7420746f6b656e206f776e6560408201526c1c881bdc88185c1c1c9bdd9959609a1b606082015260800190565b6000835161143e8184602088016110a8565b8351908301906114528183602088016110a8565b01949350505050565b60208082526025908201527f4552433732313a207472616e736665722066726f6d20696e636f72726563742060408201526437bbb732b960d91b606082015260800190565b60208082526032908201527f4552433732313a207472616e7366657220746f206e6f6e20455243373231526560408201527131b2b4bb32b91034b6b83632b6b2b73a32b960711b606082015260800190565b600082821015611504576115046113b1565b500390565b6001600160a01b038581168252841660208201526040810183905260806060820181905260009061153c908301846110d4565b9695505050505050565b60006020828403121561155857600080fd5b81516108098161107556fea2646970667358221220188e7365e06d9e25c02c42e6d4c61cb7802056adabbdf048de8b62b601c077be64736f6c63430008090033",
  "linkReferences": {},
  "deployedLinkReferences": {}
}