{
  "_format": "hh-sol-artifact-1",
  "contractName": "BatMon",
  "sourceName": "contracts/BatMon.sol",
  "abi": [
    {
      "inputs": [],
      "stateMutability": "nonpayable",
      "type": "constructor"
    },
    {
      "inputs": [
        {
          "internalType": "address",
          "name": "have",
          "type": "address"
        },
        {
          "internalType": "address",
          "name": "want",
          "type": "address"
        }
      ],
      "name": "OnlyCoordinatorCanFulfill",
      "type": "error"
    },
    {
      "anonymous": false,
      "inputs": [
        {
          "indexed": true,
          "internalType": "address",
          "name": "from",
          "type": "address"
        },
        {
          "indexed": true,
          "internalType": "address",
          "name": "to",
          "type": "address"
        }
      ],
      "name": "OwnershipTransferRequested",
      "type": "event"
    },
    {
      "anonymous": false,
      "inputs": [
        {
          "indexed": true,
          "internalType": "address",
          "name": "from",
          "type": "address"
        },
        {
          "indexed": true,
          "internalType": "address",
          "name": "to",
          "type": "address"
        }
      ],
      "name": "OwnershipTransferred",
      "type": "event"
    },
    {
      "anonymous": false,
      "inputs": [
        {
          "indexed": false,
          "internalType": "uint256",
          "name": "requestId",
          "type": "uint256"
        },
        {
          "indexed": false,
          "internalType": "uint256[]",
          "name": "randomWords",
          "type": "uint256[]"
        }
      ],
      "name": "RequestFulfilled",
      "type": "event"
    },
    {
      "anonymous": false,
      "inputs": [
        {
          "indexed": false,
          "internalType": "uint256",
          "name": "requestId",
          "type": "uint256"
        },
        {
          "indexed": false,
          "internalType": "uint32",
          "name": "numWords",
          "type": "uint32"
        }
      ],
      "name": "RequestSent",
      "type": "event"
    },
    {
      "inputs": [],
      "name": "N_MAX_MOVES",
      "outputs": [
        {
          "internalType": "uint256",
          "name": "",
          "type": "uint256"
        }
      ],
      "stateMutability": "view",
      "type": "function"
    },
    {
      "inputs": [],
      "name": "N_MONSTER_SKEW",
      "outputs": [
        {
          "internalType": "uint256",
          "name": "",
          "type": "uint256"
        }
      ],
      "stateMutability": "view",
      "type": "function"
    },
    {
      "inputs": [],
      "name": "STAMINA_REGENERATION_RATE",
      "outputs": [
        {
          "internalType": "uint256",
          "name": "",
          "type": "uint256"
        }
      ],
      "stateMutability": "view",
      "type": "function"
    },
    {
      "inputs": [],
      "name": "UNUSED_SKILL",
      "outputs": [
        {
          "internalType": "uint256",
          "name": "",
          "type": "uint256"
        }
      ],
      "stateMutability": "view",
      "type": "function"
    },
    {
      "inputs": [],
      "name": "acceptOwnership",
      "outputs": [],
      "stateMutability": "nonpayable",
      "type": "function"
    },
    {
      "inputs": [
        {
          "internalType": "string",
          "name": "_name",
          "type": "string"
        },
        {
          "internalType": "uint256",
          "name": "_health",
          "type": "uint256"
        },
        {
          "internalType": "uint256",
          "name": "_speed",
          "type": "uint256"
        },
        {
          "internalType": "uint256",
          "name": "_stamina",
          "type": "uint256"
        },
        {
          "internalType": "uint256[5]",
          "name": "_skillsIds",
          "type": "uint256[5]"
        }
      ],
      "name": "addMonster",
      "outputs": [],
      "stateMutability": "nonpayable",
      "type": "function"
    },
    {
      "inputs": [
        {
          "internalType": "string",
          "name": "_name",
          "type": "string"
        },
        {
          "internalType": "uint256",
          "name": "_damage",
          "type": "uint256"
        },
        {
          "internalType": "uint256",
          "name": "_staminaRequirement",
          "type": "uint256"
        }
      ],
      "name": "addSkill",
      "outputs": [],
      "stateMutability": "nonpayable",
      "type": "function"
    },
    {
      "inputs": [
        {
          "internalType": "uint256",
          "name": "_progressNFT_Id",
          "type": "uint256"
        },
        {
          "internalType": "uint256",
          "name": "_monsterId",
          "type": "uint256"
        },
        {
          "internalType": "uint256[3][5]",
          "name": "_sequences",
          "type": "uint256[3][5]"
        }
      ],
      "name": "battle",
      "outputs": [
        {
          "internalType": "uint256",
          "name": "matchId",
          "type": "uint256"
        }
      ],
      "stateMutability": "nonpayable",
      "type": "function"
    },
    {
      "inputs": [
        {
          "internalType": "uint256",
          "name": "_matchId",
          "type": "uint256"
        }
      ],
      "name": "claim",
      "outputs": [
        {
          "internalType": "bool",
          "name": "",
          "type": "bool"
        }
      ],
      "stateMutability": "nonpayable",
      "type": "function"
    },
    {
      "inputs": [
        {
          "internalType": "uint256",
          "name": "_requestId",
          "type": "uint256"
        }
      ],
      "name": "getRequestStatus",
      "outputs": [
        {
          "internalType": "bool",
          "name": "fulfilled",
          "type": "bool"
        },
        {
          "internalType": "uint256[]",
          "name": "randomWords",
          "type": "uint256[]"
        }
      ],
      "stateMutability": "view",
      "type": "function"
    },
    {
      "inputs": [],
      "name": "lastRequestId",
      "outputs": [
        {
          "internalType": "uint256",
          "name": "",
          "type": "uint256"
        }
      ],
      "stateMutability": "view",
      "type": "function"
    },
    {
      "inputs": [],
      "name": "matchCounter",
      "outputs": [
        {
          "internalType": "uint256",
          "name": "",
          "type": "uint256"
        }
      ],
      "stateMutability": "view",
      "type": "function"
    },
    {
      "inputs": [
        {
          "internalType": "uint256",
          "name": "",
          "type": "uint256"
        },
        {
          "internalType": "uint256",
          "name": "",
          "type": "uint256"
        },
        {
          "internalType": "uint256",
          "name": "",
          "type": "uint256"
        }
      ],
      "name": "matchIdToMonster1Sequences",
      "outputs": [
        {
          "internalType": "uint256",
          "name": "",
          "type": "uint256"
        }
      ],
      "stateMutability": "view",
      "type": "function"
    },
    {
      "inputs": [
        {
          "internalType": "uint256",
          "name": "",
          "type": "uint256"
        }
      ],
      "name": "matchIdToRandomnessRequestId",
      "outputs": [
        {
          "internalType": "uint256",
          "name": "",
          "type": "uint256"
        }
      ],
      "stateMutability": "view",
      "type": "function"
    },
    {
      "inputs": [
        {
          "internalType": "uint256",
          "name": "",
          "type": "uint256"
        }
      ],
      "name": "matches",
      "outputs": [
        {
          "internalType": "uint256",
          "name": "progressNFT_Id",
          "type": "uint256"
        },
        {
          "internalType": "uint256",
          "name": "monster0_Id",
          "type": "uint256"
        },
        {
          "internalType": "uint256",
          "name": "monster1_Id",
          "type": "uint256"
        }
      ],
      "stateMutability": "view",
      "type": "function"
    },
    {
      "inputs": [],
      "name": "monsterCount",
      "outputs": [
        {
          "internalType": "uint256",
          "name": "",
          "type": "uint256"
        }
      ],
      "stateMutability": "view",
      "type": "function"
    },
    {
      "inputs": [
        {
          "internalType": "uint256",
          "name": "",
          "type": "uint256"
        }
      ],
      "name": "monsterIdToSkillCount",
      "outputs": [
        {
          "internalType": "uint256",
          "name": "",
          "type": "uint256"
        }
      ],
      "stateMutability": "view",
      "type": "function"
    },
    {
      "inputs": [
        {
          "internalType": "uint256",
          "name": "",
          "type": "uint256"
        },
        {
          "internalType": "uint256",
          "name": "",
          "type": "uint256"
        }
      ],
      "name": "monsterIdToSkillIds",
      "outputs": [
        {
          "internalType": "uint256",
          "name": "",
          "type": "uint256"
        }
      ],
      "stateMutability": "view",
      "type": "function"
    },
    {
      "inputs": [
        {
          "internalType": "uint256",
          "name": "",
          "type": "uint256"
        }
      ],
      "name": "monsters",
      "outputs": [
        {
          "internalType": "string",
          "name": "name",
          "type": "string"
        },
        {
          "internalType": "uint256",
          "name": "health",
          "type": "uint256"
        },
        {
          "internalType": "uint256",
          "name": "speed",
          "type": "uint256"
        },
        {
          "internalType": "uint256",
          "name": "stamina",
          "type": "uint256"
        },
        {
          "internalType": "uint256",
          "name": "skillCount",
          "type": "uint256"
        }
      ],
      "stateMutability": "view",
      "type": "function"
    },
    {
      "inputs": [],
      "name": "owner",
      "outputs": [
        {
          "internalType": "address",
          "name": "",
          "type": "address"
        }
      ],
      "stateMutability": "view",
      "type": "function"
    },
    {
      "inputs": [],
      "name": "progressNFT",
      "outputs": [
        {
          "internalType": "address",
          "name": "",
          "type": "address"
        }
      ],
      "stateMutability": "view",
      "type": "function"
    },
    {
      "inputs": [
        {
          "internalType": "uint256",
          "name": "",
          "type": "uint256"
        }
      ],
      "name": "randomnessRequestIdToRNG",
      "outputs": [
        {
          "internalType": "uint256",
          "name": "",
          "type": "uint256"
        }
      ],
      "stateMutability": "view",
      "type": "function"
    },
    {
      "inputs": [
        {
          "internalType": "uint256",
          "name": "requestId",
          "type": "uint256"
        },
        {
          "internalType": "uint256[]",
          "name": "randomWords",
          "type": "uint256[]"
        }
      ],
      "name": "rawFulfillRandomWords",
      "outputs": [],
      "stateMutability": "nonpayable",
      "type": "function"
    },
    {
      "inputs": [],
      "name": "register",
      "outputs": [],
      "stateMutability": "nonpayable",
      "type": "function"
    },
    {
      "inputs": [
        {
          "internalType": "uint256",
          "name": "",
          "type": "uint256"
        }
      ],
      "name": "requestIds",
      "outputs": [
        {
          "internalType": "uint256",
          "name": "",
          "type": "uint256"
        }
      ],
      "stateMutability": "view",
      "type": "function"
    },
    {
      "inputs": [
        {
          "internalType": "uint256",
          "name": "",
          "type": "uint256"
        }
      ],
      "name": "s_requests",
      "outputs": [
        {
          "internalType": "bool",
          "name": "fulfilled",
          "type": "bool"
        },
        {
          "internalType": "bool",
          "name": "exists",
          "type": "bool"
        }
      ],
      "stateMutability": "view",
      "type": "function"
    },
    {
      "inputs": [
        {
          "internalType": "address",
          "name": "_progressNFT",
          "type": "address"
        }
      ],
      "name": "setProgressNFT",
      "outputs": [],
      "stateMutability": "nonpayable",
      "type": "function"
    },
    {
      "inputs": [],
      "name": "skillCount",
      "outputs": [
        {
          "internalType": "uint256",
          "name": "",
          "type": "uint256"
        }
      ],
      "stateMutability": "view",
      "type": "function"
    },
    {
      "inputs": [
        {
          "internalType": "uint256",
          "name": "",
          "type": "uint256"
        }
      ],
      "name": "skills",
      "outputs": [
        {
          "internalType": "string",
          "name": "name",
          "type": "string"
        },
        {
          "internalType": "uint256",
          "name": "damage",
          "type": "uint256"
        },
        {
          "internalType": "uint256",
          "name": "staminaRequirement",
          "type": "uint256"
        }
      ],
      "stateMutability": "view",
      "type": "function"
    },
    {
      "inputs": [
        {
          "internalType": "address",
          "name": "to",
          "type": "address"
        }
      ],
      "name": "transferOwnership",
      "outputs": [],
      "stateMutability": "nonpayable",
      "type": "function"
    },
    {
      "inputs": [
        {
          "internalType": "uint256",
          "name": "matchId",
          "type": "uint256"
        }
      ],
      "name": "viewPlayOut",
      "outputs": [
        {
          "internalType": "bool",
          "name": "randomnessFullfiled",
          "type": "bool"
        },
        {
          "internalType": "bool",
          "name": "canClaim",
          "type": "bool"
        },
        {
          "internalType": "uint256",
          "name": "RNG",
          "type": "uint256"
        },
        {
          "internalType": "bool[100]",
          "name": "isFinal",
          "type": "bool[100]"
        },
        {
          "internalType": "uint256[100]",
          "name": "turn",
          "type": "uint256[100]"
        },
        {
          "internalType": "uint256[100]",
          "name": "skillId",
          "type": "uint256[100]"
        },
        {
          "internalType": "uint256[]",
          "name": "monster0_health",
          "type": "uint256[]"
        },
        {
          "internalType": "uint256[]",
          "name": "monster1_health",
          "type": "uint256[]"
        }
      ],
      "stateMutability": "view",
      "type": "function"
    }
  ],
  "bytecode": "0x60a06040527f4b09e658ed251bcafeebbc69400383d49f344ace09b9576fe248bb02c003fe9f600655600780546001600160501b03191666010003000186a01790553480156200004e57600080fd5b50737a1bac17ccc5b313516c5e16fb24f7659aa5ebed608052610a423380600081620000c15760405162461bcd60e51b815260206004820152601860248201527f43616e6e6f7420736574206f776e657220746f207a65726f000000000000000060448201526064015b60405180910390fd5b600080546001600160a01b0319166001600160a01b0384811691909117909155811615620000f457620000f48162000385565b5050600380546001600160401b03909316600160a01b026001600160e01b031990931692909217737a1bac17ccc5b313516c5e16fb24f7659aa5ebed17909155506040805180820190915260048152636669726560e01b60208201526200015f906002600a62000431565b62000191604051806040016040528060058152602001643630b9b2b960d91b815250600560086200043160201b60201c565b6040805180820190915260078152663a343ab73232b960c91b6020820152620001be906008600362000431565b60006040518060a00160405280600081526020016001815260200160028152602001610fff8152602001610fff81525090506200022860405180604001604052806008815260200167283937ba32bd30b960c11b81525060c8601e600a85620004b060201b60201c565b610fff6040808301919091528051808201909152600581526414985c995d60da1b6020820152620002609060dc6028601485620004b0565b610fff816001602002018181525050620002a7604051806040016040528060088152602001672a3930b83732b0b960c11b81525060966014600a85620004b060201b60201c565b600081526002602080830191909152610fff60408084019190915280518082019091526006815265556e7572616b60d01b91810191909152620002f19060b4601e600185620004b0565b600281526001602080830191909152610fff604080840191909152805180820190915260078152662bb0b93bb2b0b960c91b918101919091526200033c9060fa6028600385620004b0565b60028152610fff60208083019190915260408051808201909152600681526515da5e9ad95d60d21b918101919091526200037e906101c26014600585620004b0565b50620008ec565b6001600160a01b038116331415620003e05760405162461bcd60e51b815260206004820152601760248201527f43616e6e6f74207472616e7366657220746f2073656c660000000000000000006044820152606401620000b8565b600180546001600160a01b0319166001600160a01b0383811691821790925560008054604051929316917fed8889f560326eb138920d842192f0eb3dd22b4f139c87a2c57538e05bae12789190a350565b6200043b62000716565b6040805160608101825284815260208082018590528183018490526009546000908152600b82529290922081518051929391926200047d928492019062000774565b506020820151600182015560409091015160029091015560098054906000620004a68362000876565b9190505550505050565b620004ba62000716565b6000805b6005811015620005c657600954838260058110620004e057620004e06200084a565b602002015110806200050c5750610fff8382600581106200050557620005056200084a565b6020020151145b620005735760405162461bcd60e51b815260206004820152603060248201527f536b696c6c2068617320656974686572206e6f74206265656e2063726561746560448201526f19081bdc881a5cc81b9bdd081d5cd95960821b6064820152608401620000b8565b610fff8382600581106200058b576200058b6200084a565b602002015114156200059f576000620005a2565b60015b620005b19060ff168362000894565b9150620005be8162000876565b9050620004be565b5060008111620006255760405162461bcd60e51b815260206004820152602360248201527f4d6f6e73746572206d75737420757365206174206c65617374206f6e6520736b6044820152621a5b1b60ea1b6064820152608401620000b8565b6040805160c0810182528781526020808201889052818301879052606082018690526080820185905260a082018490526008546000908152600c82529290922081518051929384936200067c928492019062000774565b506020820151600182015560408201516002820155606082015160038201556080820151620006b2906004830190600562000803565b5060a0919091015160099091015560808101516008546000908152600e60205260409020620006e391600562000803565b50600880546000908152600f6020526040812084905581549190620007088362000876565b919050555050505050505050565b6000546001600160a01b03163314620007725760405162461bcd60e51b815260206004820152601660248201527f4f6e6c792063616c6c61626c65206279206f776e6572000000000000000000006044820152606401620000b8565b565b8280546200078290620008af565b90600052602060002090601f016020900481019282620007a65760008555620007f1565b82601f10620007c157805160ff1916838001178555620007f1565b82800160010185558215620007f1579182015b82811115620007f1578251825591602001919060010190620007d4565b50620007ff92915062000833565b5090565b8260058101928215620007f15791602002820182811115620007f1578251825591602001919060010190620007d4565b5b80821115620007ff576000815560010162000834565b634e487b7160e01b600052603260045260246000fd5b634e487b7160e01b600052601160045260246000fd5b60006000198214156200088d576200088d62000860565b5060010190565b60008219821115620008aa57620008aa62000860565b500190565b600181811c90821680620008c457607f821691505b60208210811415620008e657634e487b7160e01b600052602260045260246000fd5b50919050565b60805161266d6200090f6000396000818161059201526105d4015261266d6000f3fe608060405234801561001057600080fd5b50600436106101e55760003560e01c80637c7c984b1161010f578063b693bff8116100a2578063cdc773ef11610071578063cdc773ef14610497578063d8a4676f1461049f578063f2fde38b146104c0578063fc2a88c3146104d357600080fd5b8063b693bff814610447578063b82c1b4a14610450578063bc0d27a014610459578063c0576b731461047357600080fd5b80639b1fec3f116100de5780639b1fec3f146103be578063a168fa89146103de578063a4482de514610421578063b5b662af1461043457600080fd5b80637c7c984b1461034c57806385c748891461035f5780638796ba8c146103865780638da5cb5b1461039957600080fd5b8063316990c1116101875780634768d4ef116101565780634768d4ef146102c557806350d15fbe1461030f578063539dc37e1461033157806379ba50971461034457600080fd5b8063316990c114610259578063379607f5146102795780633e26f96f1461029c578063444f2ec5146102a557600080fd5b8063136deb12116101c3578063136deb12146102165780631aa3a008146102295780631fe543e31461023357806320f9eb3c1461024657600080fd5b806301fd1951146101ea5780630a45af25146102065780630ff566931461020e575b600080fd5b6101f3600a5481565b6040519081526020015b60405180910390f35b6101f3600a81565b6101f3600281565b6101f3610224366004611ec8565b6104dc565b610231610501565b005b610231610241366004611f5a565b610587565b61023161025436600461207c565b610614565b6101f36102673660046120ca565b60116020526000908152604090205481565b61028c6102873660046120ca565b61068d565b60405190151581526020016101fd565b6101f3610fff81565b6101f36102b33660046120ca565b60126020526000908152604090205481565b6102f46102d33660046120ca565b600d6020526000908152604090208054600182015460119092015490919083565b604080519384526020840192909252908201526060016101fd565b61032261031d3660046120ca565b610840565b6040516101fd93929190612130565b6101f361033f366004612155565b6108ea565b610231610928565b61023161035a366004612196565b6109d2565b61037261036d3660046120ca565b610a1b565b6040516101fd98979695949392919061221e565b6101f36103943660046120ca565b611184565b6000546001600160a01b03165b6040516001600160a01b0390911681526020016101fd565b6101f36103cc3660046120ca565b600f6020526000908152604090205481565b61040a6103ec3660046120ca565b60026020526000908152604090205460ff8082169161010090041682565b6040805192151583529015156020830152016101fd565b6101f361042f366004612314565b6111a5565b6102316104423660046123a4565b611538565b6101f360085481565b6101f360095481565b6007546103a690600160501b90046001600160a01b031681565b6104866104813660046120ca565b61177e565b6040516101fd959493929190612451565b6101f3603281565b6104b26104ad3660046120ca565b611834565b6040516101fd929190612488565b6102316104ce366004612196565b611928565b6101f360055481565b600e60205281600052604060002081600581106104f857600080fd5b01549150829050565b6007546040516335313c2160e11b8152336004820152600160501b9091046001600160a01b031690636a62784290602401602060405180830381600087803b15801561054c57600080fd5b505af1158015610560573d6000803e3d6000fd5b505050506040513d601f19601f8201168201806040525081019061058491906124ab565b50565b336001600160a01b037f000000000000000000000000000000000000000000000000000000000000000016146106065760405163073e64fd60e21b81523360048201526001600160a01b037f00000000000000000000000000000000000000000000000000000000000000001660248201526044015b60405180910390fd5b6106108282611939565b5050565b61061c6119ff565b6040805160608101825284815260208082018590528183018490526009546000908152600b825292909220815180519293919261065c9284920190611cc9565b506020820151600182015560409091015160029091015560098054906000610683836124da565b9190505550505050565b6000818152600d60205260408082205460075491516331a9108f60e11b815290913391600160501b9091046001600160a01b031690636352211e906106da90859060040190815260200190565b60206040518083038186803b1580156106f257600080fd5b505afa158015610706573d6000803e3d6000fd5b505050506040513d601f19601f8201168201806040525081019061072a91906124f5565b6001600160a01b0316146107505760405162461bcd60e51b81526004016105fd90612512565b600061075b84610a1b565b505050505050915050806107b15760405162461bcd60e51b815260206004820152601d60248201527f596f752063616e6e6f7420636c61696d2074686973206d6f6e7374657200000060448201526064016105fd565b600754604051630674876160e11b815260048101849052600160501b9091046001600160a01b031690630ce90ec290602401602060405180830381600087803b1580156107fd57600080fd5b505af1158015610811573d6000803e3d6000fd5b505050506040513d601f19601f82011682018060405250810190610835919061255a565b506001949350505050565b600b6020526000908152604090208054819061085b9061257c565b80601f01602080910402602001604051908101604052809291908181526020018280546108879061257c565b80156108d45780601f106108a9576101008083540402835291602001916108d4565b820191906000526020600020905b8154815290600101906020018083116108b757829003601f168201915b5050505050908060010154908060020154905083565b6010602052826000526040600020602052816000526040600020818154811061091257600080fd5b9060005260206000200160009250925050505481565b6001546001600160a01b0316331461097b5760405162461bcd60e51b815260206004820152601660248201527526bab9ba10313290383937b837b9b2b21037bbb732b960511b60448201526064016105fd565b60008054336001600160a01b0319808316821784556001805490911690556040516001600160a01b0390921692909183917f8be0079c531659141344cd1fd0a4f28419497f9722a3daafe3b4186f6b6457e091a350565b6109da6119ff565b600780546001600160a01b03909216600160501b027fffff0000000000000000000000000000000000000000ffffffffffffffffffff909216919091179055565b6000806000610a28611d4d565b610a30611d4d565b610a38611d4d565b600087815260116020908152604080832054835260029091529020546060908190610100900460ff16610aa15760405162461bcd60e51b815260206004820152601160248201527013585d18da081b9bdd0818dc99585d1959607a1b60448201526064016105fd565b6000898152601160209081526040808320548352600290915290205460ff16610b0c5760405162461bcd60e51b815260206004820152601e60248201527f4d617463682072616e646f6d6e657373206e6f742066756c6c66696c6564000060448201526064016105fd565b6000898152601160209081526040808320548352600290915281206001018054909190610b3b57610b3b6125b7565b60009182526020808320909101548b8352600d825260408084206001908101548552600c9093528320600901548115159b50909850600a91610b7c916125cd565b604080516064808252610ca082019092529190921b600590811793509160208201610c80803683375050604080516064808252610ca08201909252929650905060208201610c808036833750505060008c8152600d602090815260408083206001908101548452600c90925282200154865192955091869190610c0157610c016125b7565b60209081029190910181019190915260008c8152600d82526040808220601101548252600c90925290812060010154845190918591610c4257610c426125b7565b602002602001018181525050610c56611d6c565b60008082528c8152600d602090815260408083206001908101548452600f83529281902054908401528201525b6020810151603211156110db57602081015160018a821c1690889060648110610cae57610cae6125b7565b602002015286816001602002015160648110610ccc57610ccc6125b7565b6020020151610d1b5760408101516020820151610cea9060016125e4565b8a901c610cf791906125fc565b868260015b602002015160648110610d1157610d116125b7565b6020020152610eb3565b60008c815260106020908152604080832083805290915281208054909190610d4557610d456125b7565b60009182526020909120015486826001602002015160648110610d6a57610d6a6125b7565b60200201526005821415610de05760038160015b6020020151610d8e9060026125e4565b8a901c610d9b91906125fc565b60008d815260106020908152604080832084845290915281208054929550909350908390610dcb57610dcb6125b7565b60009182526020909120015486826001610cfc565b610deb6001836125e4565b60008d815260106020908152604080832087845290915290205490925082101580610e4e575060008c815260106020908152604080832086845290915290208054610fff919084908110610e4157610e416125b7565b9060005260206000200154145b15610e5d576003816001610d7e565b60008c81526010602090815260408083208684529091529020805483908110610e8857610e886125b7565b60009182526020909120015486826001602002015160648110610ead57610ead6125b7565b60200201525b6001858183816020020151610ec891906125cd565b81518110610ed857610ed86125b7565b60200260200101518683600160038110610ef457610ef46125b7565b602002015181518110610f0957610f096125b7565b602090810291909101015284600183816020020151610f2891906125cd565b81518110610f3857610f386125b7565b60200260200101518583600160038110610f5457610f546125b7565b602002015181518110610f6957610f696125b7565b602090810291909101015287826001602002015160648110610f8d57610f8d6125b7565b6020020151611026578085836001602002015181518110610fb057610fb06125b7565b602002602001015111610ff0576001808352600090869084905b602002015181518110610fdf57610fdf6125b7565b602002602001018181525050611090565b808583600160200201518151811061100a5761100a6125b7565b6020026020010181815161101e91906125cd565b905250611090565b8086836001602002015181518110611040576110406125b7565b60200260200101511161105e57600180835260009087908490610fca565b8086836001602002015181518110611078576110786125b7565b6020026020010181815161108c91906125cd565b9052505b8151600114156110c45760018983826020020151606481106110b4576110b46125b7565b91151560209092020152506110db565b506020810180516110d4906124da565b9052610c83565b6020810151603211611121576001886110f58260326125cd565b60648110611105576111056125b7565b9115156020909202015261111b600160326125cd565b60208201525b8381600160200201518151811061113a5761113a6125b7565b60200260200101518582600160038110611156576111566125b7565b60200201518151811061116b5761116b6125b7565b6020026020010151109950505050919395975091939597565b6004818154811061119457600080fd5b600091825260209091200154905081565b6007546040516331a9108f60e11b81526000913391600160501b9091046001600160a01b031690636352211e906111e490889060040190815260200190565b60206040518083038186803b1580156111fc57600080fd5b505afa158015611210573d6000803e3d6000fd5b505050506040513d601f19601f8201168201806040525081019061123491906124f5565b6001600160a01b03161461125a5760405162461bcd60e51b81526004016105fd90612512565b60075460405163bb86e8cd60e01b815260048101869052600091600291600160501b9091046001600160a01b03169063bb86e8cd9060240160206040518083038186803b1580156112aa57600080fd5b505afa1580156112be573d6000803e3d6000fd5b505050506040513d601f19601f820116820180604052508101906112e291906124ab565b6112ec91906125e4565b9050600854811061134f5760405162461bcd60e51b815260206004820152602760248201527f54686174206c6576656c20686173206e6f7420796574206265656e20637265616044820152667465642021212160c81b60648201526084016105fd565b600854841080156113605750808411155b6113ac5760405162461bcd60e51b815260206004820181905260248201527f596f752063616e6e6f74207573652074686174206d6f6e73746572202121212060448201526064016105fd565b6113b4611d8a565b600a546040805160a0810182528881526020808201868152828401868152606084018b9052608084018a90526000868152600d90935293909120825181559051600182015591519295509161140f9060028301906005611db7565b5060608201516011820155608082015161142f9060128301906005611db7565b5090505060005b60038110156114fb57604080516000808252602080830180855288835260108252848320868452909152929020905161146f9290611dfe565b5060005b60058110156114ea57600085815260106020908152604080832085845290915290208682600581106114a7576114a76125b7565b602002015183600381106114bd576114bd6125b7565b60209081029190910151825460018101845560009384529190922001556114e3816124da565b9050611473565b506114f4816124da565b9050611436565b50611504611a54565b600084815260116020526040812091909155600a8054600192906115299084906125e4565b90915550929695505050505050565b6115406119ff565b6000805b600581101561163857600954838260058110611562576115626125b7565b6020020151108061158a5750610fff838260058110611583576115836125b7565b6020020151145b6115ef5760405162461bcd60e51b815260206004820152603060248201527f536b696c6c2068617320656974686572206e6f74206265656e2063726561746560448201526f19081bdc881a5cc81b9bdd081d5cd95960821b60648201526084016105fd565b610fff838260058110611604576116046125b7565b60200201511415611616576000611619565b60015b6116269060ff16836125e4565b9150611631816124da565b9050611544565b50600081116116955760405162461bcd60e51b815260206004820152602360248201527f4d6f6e73746572206d75737420757365206174206c65617374206f6e6520736b6044820152621a5b1b60ea1b60648201526084016105fd565b6040805160c0810182528781526020808201889052818301879052606082018690526080820185905260a082018490526008546000908152600c82529290922081518051929384936116ea9284920190611cc9565b50602082015160018201556040820151600282015560608201516003820155608082015161171e9060048301906005611e38565b5060a0919091015160099091015560808101516008546000908152600e6020526040902061174d916005611e38565b50600880546000908152600f6020526040812084905581549190611770836124da565b919050555050505050505050565b600c602052600090815260409020805481906117999061257c565b80601f01602080910402602001604051908101604052809291908181526020018280546117c59061257c565b80156118125780601f106117e757610100808354040283529160200191611812565b820191906000526020600020905b8154815290600101906020018083116117f557829003601f168201915b5050505050908060010154908060020154908060030154908060090154905085565b600081815260026020526040812054606090610100900460ff1661188e5760405162461bcd60e51b81526020600482015260116024820152701c995c5d595cdd081b9bdd08199bdd5b99607a1b60448201526064016105fd565b60008381526002602090815260408083208151606081018352815460ff808216151583526101009091041615158185015260018201805484518187028101870186528181529295939486019383018282801561190957602002820191906000526020600020905b8154815260200190600101908083116118f5575b5050505050815250509050806000015181604001519250925050915091565b6119306119ff565b61058481611c1f565b600082815260026020526040902054610100900460ff166119905760405162461bcd60e51b81526020600482015260116024820152701c995c5d595cdd081b9bdd08199bdd5b99607a1b60448201526064016105fd565b6000828152600260209081526040909120805460ff19166001908117825583516119c1939290910191840190611dfe565b507ffe2e2d779dba245964d4e3ef9b994be63856fd568bf7d3ca9e224755cb1bd54d82826040516119f392919061261e565b60405180910390a15050565b6000546001600160a01b03163314611a525760405162461bcd60e51b815260206004820152601660248201527527b7363c9031b0b63630b1363290313c9037bbb732b960511b60448201526064016105fd565b565b6003546006546007546040516305d3b1d360e41b81526004810192909252600160a01b830467ffffffffffffffff166024830152640100000000810461ffff16604483015263ffffffff808216606484015266010000000000009091041660848201526000916001600160a01b031690635d3b1d309060a401602060405180830381600087803b158015611ae757600080fd5b505af1158015611afb573d6000803e3d6000fd5b505050506040513d601f19601f82011682018060405250810190611b1f91906124ab565b6040805160608101825260008082526001602080840182815285518481528083018752858701908152878552600283529590932084518154945161ffff1990951690151561ff00191617610100941515949094029390931783559351805195965092949193611b949391850192910190611dfe565b5050600480546001810182556000919091527f8a35acfbc15ff81a39ae7d344fd709f28e8600b4aa8c65c6b64bfe7fe36bd19b0182905550600581905560075460408051838152660100000000000090920463ffffffff1660208301527fcc58b13ad3eab50626c6a6300b1d139cd6ebb1688a7cced9461c2f7e762665ee910160405180910390a190565b6001600160a01b038116331415611c785760405162461bcd60e51b815260206004820152601760248201527f43616e6e6f74207472616e7366657220746f2073656c6600000000000000000060448201526064016105fd565b600180546001600160a01b0319166001600160a01b0383811691821790925560008054604051929316917fed8889f560326eb138920d842192f0eb3dd22b4f139c87a2c57538e05bae12789190a350565b828054611cd59061257c565b90600052602060002090601f016020900481019282611cf75760008555611d3d565b82601f10611d1057805160ff1916838001178555611d3d565b82800160010185558215611d3d579182015b82811115611d3d578251825591602001919060010190611d22565b50611d49929150611e65565b5090565b60405180610c8001604052806064906020820280368337509192915050565b60405180606001604052806003906020820280368337509192915050565b6040518060a001604052806005905b611da1611d6c565b815260200190600190039081611d995790505090565b600f83019183908215611df2579160200282015b82811115611df2578251611de29083906003611e7a565b5091602001919060030190611dcb565b50611d49929150611ea7565b828054828255906000526020600020908101928215611d3d5791602002820182811115611d3d578251825591602001919060010190611d22565b8260058101928215611d3d5791602002820182811115611d3d578251825591602001919060010190611d22565b5b80821115611d495760008155600101611e66565b8260038101928215611d3d5791602002820182811115611d3d578251825591602001919060010190611d22565b80821115611d49576000808255600182018190556002820155600301611ea7565b60008060408385031215611edb57600080fd5b50508035926020909101359150565b634e487b7160e01b600052604160045260246000fd5b60405160a0810167ffffffffffffffff81118282101715611f2357611f23611eea565b60405290565b604051601f8201601f1916810167ffffffffffffffff81118282101715611f5257611f52611eea565b604052919050565b60008060408385031215611f6d57600080fd5b8235915060208084013567ffffffffffffffff80821115611f8d57600080fd5b818601915086601f830112611fa157600080fd5b813581811115611fb357611fb3611eea565b8060051b9150611fc4848301611f29565b8181529183018401918481019089841115611fde57600080fd5b938501935b83851015611ffc57843582529385019390850190611fe3565b8096505050505050509250929050565b600082601f83011261201d57600080fd5b813567ffffffffffffffff81111561203757612037611eea565b61204a601f8201601f1916602001611f29565b81815284602083860101111561205f57600080fd5b816020850160208301376000918101602001919091529392505050565b60008060006060848603121561209157600080fd5b833567ffffffffffffffff8111156120a857600080fd5b6120b48682870161200c565b9660208601359650604090950135949350505050565b6000602082840312156120dc57600080fd5b5035919050565b6000815180845260005b81811015612109576020818501810151868301820152016120ed565b8181111561211b576000602083870101525b50601f01601f19169290920160200192915050565b60608152600061214360608301866120e3565b60208301949094525060400152919050565b60008060006060848603121561216a57600080fd5b505081359360208301359350604090920135919050565b6001600160a01b038116811461058457600080fd5b6000602082840312156121a857600080fd5b81356121b381612181565b9392505050565b8060005b60648110156121dd5781518452602093840193909101906001016121be565b50505050565b600081518084526020808501945080840160005b83811015612213578151875295820195908201906001016121f7565b509495945050505050565b60006126208a1515835260208a151581850152896040850152606084018960005b606481101561225e57815115158352918301919083019060010161223f565b50505050612270610ce08401886121ba565b61227e6119608401876121ba565b806125e0840152612291818401866121e3565b90508281036126008401526122a681856121e3565b9b9a5050505050505050505050565b60006040516060810181811067ffffffffffffffff821117156122da576122da611eea565b60405290508060608301848111156122f157600080fd5b835b8181101561230b5780358352602092830192016122f3565b50505092915050565b600080600061022080858703121561232b57600080fd5b84359350602080860135935086605f87011261234657600080fd5b61234e611f00565b91860191808884111561236057600080fd5b604088015b848110156123955789601f82011261237d5760008081fd5b6123878a826122b5565b835291830191606001612365565b50809450505050509250925092565b60008060008060006101208087890312156123be57600080fd5b863567ffffffffffffffff8111156123d557600080fd5b6123e189828a0161200c565b9650506020808801359550604088013594506060880135935088609f89011261240957600080fd5b612411611f00565b91880191808a84111561242357600080fd5b60808a015b8481101561243f5780358352918301918301612428565b50809450505050509295509295909350565b60a08152600061246460a08301886120e3565b90508560208301528460408301528360608301528260808301529695505050505050565b82151581526040602082015260006124a360408301846121e3565b949350505050565b6000602082840312156124bd57600080fd5b5051919050565b634e487b7160e01b600052601160045260246000fd5b60006000198214156124ee576124ee6124c4565b5060010190565b60006020828403121561250757600080fd5b81516121b381612181565b60208082526028908201527f4f6e6c7920746f6b656e206f776e65722063616e2063616c6c2074686973206d6040820152676574686f6421212160c01b606082015260800190565b60006020828403121561256c57600080fd5b815180151581146121b357600080fd5b600181811c9082168061259057607f821691505b602082108114156125b157634e487b7160e01b600052602260045260246000fd5b50919050565b634e487b7160e01b600052603260045260246000fd5b6000828210156125df576125df6124c4565b500390565b600082198211156125f7576125f76124c4565b500190565b60008261261957634e487b7160e01b600052601260045260246000fd5b500690565b8281526040602082015260006124a360408301846121e356fea264697066735822122006c782703df507e39adc9e46f365600cda30e0945e9bfed8c9e2c94bfbf9ede664736f6c63430008090033",
  "linkReferences": {},
  "deployedLinkReferences": {}
}