{
  "_format": "hh-sol-artifact-1",
  "contractName": "VRFv2Consumer",
  "sourceName": "contracts/VRFv2Consumer.sol",
  "abi": [
    {
      "inputs": [
        {
          "internalType": "uint64",
          "name": "subscriptionId",
          "type": "uint64"
        }
      ],
      "stateMutability": "nonpayable",
      "type": "constructor"
    },
    {
      "inputs": [
        {
          "internalType": "address",
          "name": "have",
          "type": "address"
        },
        {
          "internalType": "address",
          "name": "want",
          "type": "address"
        }
      ],
      "name": "OnlyCoordinatorCanFulfill",
      "type": "error"
    },
    {
      "anonymous": false,
      "inputs": [
        {
          "indexed": true,
          "internalType": "address",
          "name": "from",
          "type": "address"
        },
        {
          "indexed": true,
          "internalType": "address",
          "name": "to",
          "type": "address"
        }
      ],
      "name": "OwnershipTransferRequested",
      "type": "event"
    },
    {
      "anonymous": false,
      "inputs": [
        {
          "indexed": true,
          "internalType": "address",
          "name": "from",
          "type": "address"
        },
        {
          "indexed": true,
          "internalType": "address",
          "name": "to",
          "type": "address"
        }
      ],
      "name": "OwnershipTransferred",
      "type": "event"
    },
    {
      "anonymous": false,
      "inputs": [
        {
          "indexed": false,
          "internalType": "uint256",
          "name": "requestId",
          "type": "uint256"
        },
        {
          "indexed": false,
          "internalType": "uint256[]",
          "name": "randomWords",
          "type": "uint256[]"
        }
      ],
      "name": "RequestFulfilled",
      "type": "event"
    },
    {
      "anonymous": false,
      "inputs": [
        {
          "indexed": false,
          "internalType": "uint256",
          "name": "requestId",
          "type": "uint256"
        },
        {
          "indexed": false,
          "internalType": "uint32",
          "name": "numWords",
          "type": "uint32"
        }
      ],
      "name": "RequestSent",
      "type": "event"
    },
    {
      "inputs": [],
      "name": "acceptOwnership",
      "outputs": [],
      "stateMutability": "nonpayable",
      "type": "function"
    },
    {
      "inputs": [
        {
          "internalType": "uint256",
          "name": "_requestId",
          "type": "uint256"
        }
      ],
      "name": "getRequestStatus",
      "outputs": [
        {
          "internalType": "bool",
          "name": "fulfilled",
          "type": "bool"
        },
        {
          "internalType": "uint256[]",
          "name": "randomWords",
          "type": "uint256[]"
        }
      ],
      "stateMutability": "view",
      "type": "function"
    },
    {
      "inputs": [],
      "name": "lastRequestId",
      "outputs": [
        {
          "internalType": "uint256",
          "name": "",
          "type": "uint256"
        }
      ],
      "stateMutability": "view",
      "type": "function"
    },
    {
      "inputs": [],
      "name": "owner",
      "outputs": [
        {
          "internalType": "address",
          "name": "",
          "type": "address"
        }
      ],
      "stateMutability": "view",
      "type": "function"
    },
    {
      "inputs": [
        {
          "internalType": "uint256",
          "name": "requestId",
          "type": "uint256"
        },
        {
          "internalType": "uint256[]",
          "name": "randomWords",
          "type": "uint256[]"
        }
      ],
      "name": "rawFulfillRandomWords",
      "outputs": [],
      "stateMutability": "nonpayable",
      "type": "function"
    },
    {
      "inputs": [
        {
          "internalType": "uint256",
          "name": "",
          "type": "uint256"
        }
      ],
      "name": "requestIds",
      "outputs": [
        {
          "internalType": "uint256",
          "name": "",
          "type": "uint256"
        }
      ],
      "stateMutability": "view",
      "type": "function"
    },
    {
      "inputs": [
        {
          "internalType": "uint256",
          "name": "",
          "type": "uint256"
        }
      ],
      "name": "s_requests",
      "outputs": [
        {
          "internalType": "bool",
          "name": "fulfilled",
          "type": "bool"
        },
        {
          "internalType": "bool",
          "name": "exists",
          "type": "bool"
        }
      ],
      "stateMutability": "view",
      "type": "function"
    },
    {
      "inputs": [
        {
          "internalType": "address",
          "name": "to",
          "type": "address"
        }
      ],
      "name": "transferOwnership",
      "outputs": [],
      "stateMutability": "nonpayable",
      "type": "function"
    }
  ],
  "bytecode": "0x60a06040527f4b09e658ed251bcafeebbc69400383d49f344ace09b9576fe248bb02c003fe9f600655600780546001600160501b03191666010003000186a017905534801561004d57600080fd5b50604051610a12380380610a1283398101604081905261006c916101fa565b737a1bac17ccc5b313516c5e16fb24f7659aa5ebed60805233806000816100da5760405162461bcd60e51b815260206004820152601860248201527f43616e6e6f7420736574206f776e657220746f207a65726f000000000000000060448201526064015b60405180910390fd5b600080546001600160a01b0319166001600160a01b038481169190911790915581161561010a5761010a81610150565b5050600380546001600160401b03909316600160a01b026001600160e01b031990931692909217737a1bac17ccc5b313516c5e16fb24f7659aa5ebed179091555061022a565b6001600160a01b0381163314156101a95760405162461bcd60e51b815260206004820152601760248201527f43616e6e6f74207472616e7366657220746f2073656c6600000000000000000060448201526064016100d1565b600180546001600160a01b0319166001600160a01b0383811691821790925560008054604051929316917fed8889f560326eb138920d842192f0eb3dd22b4f139c87a2c57538e05bae12789190a350565b60006020828403121561020c57600080fd5b81516001600160401b038116811461022357600080fd5b9392505050565b6080516107c661024c6000396000818161017601526101b801526107c66000f3fe608060405234801561001057600080fd5b50600436106100885760003560e01c8063a168fa891161005b578063a168fa89146100eb578063d8a4676f1461012e578063f2fde38b1461014f578063fc2a88c31461016257600080fd5b80631fe543e31461008d57806379ba5097146100a25780638796ba8c146100aa5780638da5cb5b146100d0575b600080fd5b6100a061009b366004610606565b61016b565b005b6100a06101f8565b6100bd6100b83660046106d0565b6102a2565b6040519081526020015b60405180910390f35b6000546040516001600160a01b0390911681526020016100c7565b6101176100f93660046106d0565b60026020526000908152604090205460ff8082169161010090041682565b6040805192151583529015156020830152016100c7565b61014161013c3660046106d0565b6102c3565b6040516100c7929190610724565b6100a061015d366004610747565b6103b7565b6100bd60055481565b336001600160a01b037f000000000000000000000000000000000000000000000000000000000000000016146101ea5760405163073e64fd60e21b81523360048201526001600160a01b037f00000000000000000000000000000000000000000000000000000000000000001660248201526044015b60405180910390fd5b6101f482826103cb565b5050565b6001546001600160a01b0316331461024b5760405162461bcd60e51b815260206004820152601660248201527526bab9ba10313290383937b837b9b2b21037bbb732b960511b60448201526064016101e1565b60008054336001600160a01b0319808316821784556001805490911690556040516001600160a01b0390921692909183917f8be0079c531659141344cd1fd0a4f28419497f9722a3daafe3b4186f6b6457e091a350565b600481815481106102b257600080fd5b600091825260209091200154905081565b600081815260026020526040812054606090610100900460ff1661031d5760405162461bcd60e51b81526020600482015260116024820152701c995c5d595cdd081b9bdd08199bdd5b99607a1b60448201526064016101e1565b60008381526002602090815260408083208151606081018352815460ff808216151583526101009091041615158185015260018201805484518187028101870186528181529295939486019383018282801561039857602002820191906000526020600020905b815481526020019060010190808311610384575b5050505050815250509050806000015181604001519250925050915091565b6103bf610491565b6103c8816104e6565b50565b600082815260026020526040902054610100900460ff166104225760405162461bcd60e51b81526020600482015260116024820152701c995c5d595cdd081b9bdd08199bdd5b99607a1b60448201526064016101e1565b6000828152600260209081526040909120805460ff1916600190811782558351610453939290910191840190610590565b507ffe2e2d779dba245964d4e3ef9b994be63856fd568bf7d3ca9e224755cb1bd54d8282604051610485929190610777565b60405180910390a15050565b6000546001600160a01b031633146104e45760405162461bcd60e51b815260206004820152601660248201527527b7363c9031b0b63630b1363290313c9037bbb732b960511b60448201526064016101e1565b565b6001600160a01b03811633141561053f5760405162461bcd60e51b815260206004820152601760248201527f43616e6e6f74207472616e7366657220746f2073656c6600000000000000000060448201526064016101e1565b600180546001600160a01b0319166001600160a01b0383811691821790925560008054604051929316917fed8889f560326eb138920d842192f0eb3dd22b4f139c87a2c57538e05bae12789190a350565b8280548282559060005260206000209081019282156105cb579160200282015b828111156105cb5782518255916020019190600101906105b0565b506105d79291506105db565b5090565b5b808211156105d757600081556001016105dc565b634e487b7160e01b600052604160045260246000fd5b6000806040838503121561061957600080fd5b8235915060208084013567ffffffffffffffff8082111561063957600080fd5b818601915086601f83011261064d57600080fd5b81358181111561065f5761065f6105f0565b8060051b604051601f19603f83011681018181108582111715610684576106846105f0565b6040529182528482019250838101850191898311156106a257600080fd5b938501935b828510156106c0578435845293850193928501926106a7565b8096505050505050509250929050565b6000602082840312156106e257600080fd5b5035919050565b600081518084526020808501945080840160005b83811015610719578151875295820195908201906001016106fd565b509495945050505050565b821515815260406020820152600061073f60408301846106e9565b949350505050565b60006020828403121561075957600080fd5b81356001600160a01b038116811461077057600080fd5b9392505050565b82815260406020820152600061073f60408301846106e956fea2646970667358221220411be7c7cb47da9dc5b3936e8e805ce204310c84f63005ac935d3e3a359f07a064736f6c63430008090033",
  "linkReferences": {},
  "deployedLinkReferences": {}
}