{"contracts/BatMon.sol":{"BatMon":{"abi":[{"inputs":[],"stateMutability":"nonpayable","type":"constructor"},{"inputs":[],"name":"N_MAX_MOVES","outputs":[{"internalType":"uint256","name":"","type":"uint256"}],"stateMutability":"view","type":"function"},{"inputs":[],"name":"N_MONSTER_SKEW","outputs":[{"internalType":"uint256","name":"","type":"uint256"}],"stateMutability":"view","type":"function"},{"inputs":[],"name":"STAMINA_REGENERATION_RATE","outputs":[{"internalType":"uint256","name":"","type":"uint256"}],"stateMutability":"view","type":"function"},{"inputs":[],"name":"UNUSED_SKILL","outputs":[{"internalType":"uint256","name":"","type":"uint256"}],"stateMutability":"view","type":"function"},{"inputs":[{"internalType":"string","name":"_name","type":"string"},{"internalType":"uint256","name":"_health","type":"uint256"},{"internalType":"uint256","name":"_speed","type":"uint256"},{"internalType":"uint256","name":"_stamina","type":"uint256"},{"internalType":"uint256[5]","name":"_skillsIds","type":"uint256[5]"}],"name":"addMonster","outputs":[],"stateMutability":"nonpayable","type":"function"},{"inputs":[{"internalType":"string","name":"_name","type":"string"},{"internalType":"uint256","name":"_damage","type":"uint256"},{"internalType":"uint256","name":"_staminaRequirement","type":"uint256"}],"name":"addSkill","outputs":[],"stateMutability":"nonpayable","type":"function"},{"inputs":[{"internalType":"uint256","name":"_progressNFT_Id","type":"uint256"},{"internalType":"uint256","name":"_monsterId","type":"uint256"},{"internalType":"uint256[3][5]","name":"_sequences","type":"uint256[3][5]"}],"name":"battle","outputs":[{"internalType":"uint256","name":"matchId","type":"uint256"}],"stateMutability":"nonpayable","type":"function"},{"inputs":[],"name":"matchCounter","outputs":[{"internalType":"uint256","name":"","type":"uint256"}],"stateMutability":"view","type":"function"},{"inputs":[{"internalType":"uint256","name":"","type":"uint256"},{"internalType":"uint256","name":"","type":"uint256"},{"internalType":"uint256","name":"","type":"uint256"}],"name":"matchIdToMonster1Sequences","outputs":[{"internalType":"uint256","name":"","type":"uint256"}],"stateMutability":"view","type":"function"},{"inputs":[{"internalType":"uint256","name":"","type":"uint256"}],"name":"matchIdToRandomnessRequestId","outputs":[{"internalType":"uint256","name":"","type":"uint256"}],"stateMutability":"view","type":"function"},{"inputs":[{"internalType":"uint256","name":"","type":"uint256"}],"name":"matches","outputs":[{"internalType":"uint256","name":"progressNFT_Id","type":"uint256"},{"internalType":"uint256","name":"monster0_Id","type":"uint256"},{"internalType":"uint256","name":"monster1_Id","type":"uint256"}],"stateMutability":"view","type":"function"},{"inputs":[],"name":"monsterCount","outputs":[{"internalType":"uint256","name":"","type":"uint256"}],"stateMutability":"view","type":"function"},{"inputs":[{"internalType":"uint256","name":"","type":"uint256"}],"name":"monsterIdToSkillCount","outputs":[{"internalType":"uint256","name":"","type":"uint256"}],"stateMutability":"view","type":"function"},{"inputs":[{"internalType":"uint256","name":"","type":"uint256"},{"internalType":"uint256","name":"","type":"uint256"}],"name":"monsterIdToSkillIds","outputs":[{"internalType":"uint256","name":"","type":"uint256"}],"stateMutability":"view","type":"function"},{"inputs":[{"internalType":"uint256","name":"","type":"uint256"}],"name":"monsters","outputs":[{"internalType":"string","name":"name","type":"string"},{"internalType":"uint256","name":"health","type":"uint256"},{"internalType":"uint256","name":"speed","type":"uint256"},{"internalType":"uint256","name":"stamina","type":"uint256"},{"internalType":"uint256","name":"skillCount","type":"uint256"}],"stateMutability":"view","type":"function"},{"inputs":[],"name":"owner","outputs":[{"internalType":"address","name":"","type":"address"}],"stateMutability":"view","type":"function"},{"inputs":[],"name":"progressNFT","outputs":[{"internalType":"address","name":"","type":"address"}],"stateMutability":"view","type":"function"},{"inputs":[{"internalType":"uint256","name":"","type":"uint256"}],"name":"randomnessRequestIdToRNG","outputs":[{"internalType":"uint256","name":"","type":"uint256"}],"stateMutability":"view","type":"function"},{"inputs":[],"name":"register","outputs":[],"stateMutability":"nonpayable","type":"function"},{"inputs":[{"internalType":"address","name":"_progressNFT","type":"address"}],"name":"setProgressNFT","outputs":[],"stateMutability":"nonpayable","type":"function"},{"inputs":[],"name":"skillCount","outputs":[{"internalType":"uint256","name":"","type":"uint256"}],"stateMutability":"view","type":"function"},{"inputs":[{"internalType":"uint256","name":"","type":"uint256"}],"name":"skills","outputs":[{"internalType":"string","name":"name","type":"string"},{"internalType":"uint256","name":"damage","type":"uint256"},{"internalType":"uint256","name":"staminaRequirement","type":"uint256"}],"stateMutability":"view","type":"function"},{"inputs":[{"internalType":"uint256","name":"matchId","type":"uint256"}],"name":"viewPlayOut","outputs":[{"internalType":"bool","name":"randomnessFullfiled","type":"bool"},{"internalType":"bool","name":"canClaim","type":"bool"},{"internalType":"uint256","name":"RNG","type":"uint256"},{"internalType":"bool[100]","name":"isFinal","type":"bool[100]"},{"internalType":"uint256[100]","name":"turn","type":"uint256[100]"},{"internalType":"uint256[100]","name":"skillId","type":"uint256[100]"},{"internalType":"uint256[]","name":"monster0_health","type":"uint256[]"},{"internalType":"uint256[]","name":"monster1_health","type":"uint256[]"}],"stateMutability":"view","type":"function"}],"evm":{"bytecode":{"linkReferences":{},"object":"60806040523480156200001157600080fd5b50600080546001600160a01b031916331790556040805180820190915260048152636669726560e01b60208201526200004e906002600a62000274565b62000080604051806040016040528060058152602001643630b9b2b960d91b815250600560086200027460201b60201c565b6040805180820190915260078152663a343ab73232b960c91b6020820152620000ad906008600362000274565b60006040518060a00160405280600081526020016001815260200160028152602001610fff8152602001610fff81525090506200011760405180604001604052806008815260200167283937ba32bd30b960c11b81525060c8601e600a856200033860201b60201c565b610fff6040808301919091528051808201909152600581526414985c995d60da1b60208201526200014f9060dc602860148562000338565b610fff81600160200201818152505062000196604051806040016040528060088152602001672a3930b83732b0b960c11b81525060966014600a856200033860201b60201c565b600081526002602080830191909152610fff60408084019190915280518082019091526006815265556e7572616b60d01b91810191909152620001e09060b4601e60018562000338565b600281526001602080830191909152610fff604080840191909152805180820190915260078152662bb0b93bb2b0b960c91b918101919091526200022b9060fa602860038562000338565b60028152610fff60208083019190915260408051808201909152600681526515da5e9ad95d60d21b918101919091526200026d906101c2601460058562000338565b5062000757565b6000546001600160a01b03163314620002c35760405162461bcd60e51b815260206004820181905260248201526000805160206200246283398151915260448201526064015b60405180910390fd5b604080516060810182528481526020808201859052818301849052600354600090815260058252929092208151805192939192620003059284920190620005df565b5060208201516001820155604090910151600290910155600380549060006200032e83620006e1565b9190505550505050565b6000546001600160a01b03163314620003835760405162461bcd60e51b81526020600482018190526024820152600080516020620024628339815191526044820152606401620002ba565b6000805b60058110156200048f57600354838260058110620003a957620003a9620006b5565b60200201511080620003d55750610fff838260058110620003ce57620003ce620006b5565b6020020151145b6200043c5760405162461bcd60e51b815260206004820152603060248201527f536b696c6c2068617320656974686572206e6f74206265656e2063726561746560448201526f19081bdc881a5cc81b9bdd081d5cd95960821b6064820152608401620002ba565b610fff838260058110620004545762000454620006b5565b60200201511415620004685760006200046b565b60015b6200047a9060ff1683620006ff565b91506200048781620006e1565b905062000387565b5060008111620004ee5760405162461bcd60e51b815260206004820152602360248201527f4d6f6e73746572206d75737420757365206174206c65617374206f6e6520736b6044820152621a5b1b60ea1b6064820152608401620002ba565b6040805160c0810182528781526020808201889052818301879052606082018690526080820185905260a08201849052600254600090815260068252929092208151805192938493620005459284920190620005df565b5060208201516001820155604082015160028201556060820151600382015560808201516200057b90600483019060056200066e565b5060a0919091015160099091015560808101516002546000908152600860205260409020620005ac9160056200066e565b5060028054600090815260096020526040812084905581549190620005d183620006e1565b919050555050505050505050565b828054620005ed906200071a565b90600052602060002090601f0160209004810192826200061157600085556200065c565b82601f106200062c57805160ff19168380011785556200065c565b828001600101855582156200065c579182015b828111156200065c5782518255916020019190600101906200063f565b506200066a9291506200069e565b5090565b82600581019282156200065c57916020028201828111156200065c5782518255916020019190600101906200063f565b5b808211156200066a57600081556001016200069f565b634e487b7160e01b600052603260045260246000fd5b634e487b7160e01b600052601160045260246000fd5b6000600019821415620006f857620006f8620006cb565b5060010190565b60008219821115620007155762000715620006cb565b500190565b600181811c908216806200072f57607f821691505b602082108114156200075157634e487b7160e01b600052602260045260246000fd5b50919050565b611cfb80620007676000396000f3fe608060405234801561001057600080fd5b506004361061014d5760003560e01c8063539dc37e116100c3578063b5b662af1161007c578063b5b662af1461030e578063b693bff814610321578063b82c1b4a1461032a578063bc0d27a014610333578063c0576b7314610346578063cdc773ef1461036a57600080fd5b8063539dc37e146102635780637c7c984b1461027657806385c74889146102895780638da5cb5b146102b05780639b1fec3f146102db578063a4482de5146102fb57600080fd5b806320f9eb3c1161011557806320f9eb3c1461019b578063316990c1146101ae5780633e26f96f146101ce578063444f2ec5146101d75780634768d4ef146101f757806350d15fbe1461024157600080fd5b806301fd1951146101525780630a45af251461016e5780630ff5669314610176578063136deb121461017e5780631aa3a00814610191575b600080fd5b61015b60045481565b6040519081526020015b60405180910390f35b61015b600a81565b61015b600281565b61015b61018c36600461164c565b610372565b610199610397565b005b6101996101a936600461173a565b610417565b61015b6101bc366004611788565b600b6020526000908152604090205481565b61015b610fff81565b61015b6101e5366004611788565b600c6020526000908152604090205481565b610226610205366004611788565b60076020526000908152604090208054600182015460119092015490919083565b60408051938452602084019290925290820152606001610165565b61025461024f366004611788565b6104bb565b604051610165939291906117ee565b61015b610271366004611813565b610565565b610199610284366004611854565b6105a3565b61029c610297366004611788565b6105ef565b6040516101659897969594939291906118dc565b6000546102c3906001600160a01b031681565b6040516001600160a01b039091168152602001610165565b61015b6102e9366004611788565b60096020526000908152604090205481565b61015b6103093660046119d2565b610c69565b61019961031c366004611a62565b61104e565b61015b60025481565b61015b60035481565b6001546102c3906001600160a01b031681565b610359610354366004611788565b6112b6565b604051610165959493929190611b0f565b61015b603281565b6008602052816000526040600020816005811061038e57600080fd5b01549150829050565b6001546040516335313c2160e11b81523360048201526001600160a01b0390911690636a62784290602401602060405180830381600087803b1580156103dc57600080fd5b505af11580156103f0573d6000803e3d6000fd5b505050506040513d601f19601f820116820180604052508101906104149190611b46565b50565b6000546001600160a01b0316331461044a5760405162461bcd60e51b815260040161044190611b5f565b60405180910390fd5b60408051606081018252848152602080820185905281830184905260035460009081526005825292909220815180519293919261048a928492019061144d565b5060208201516001820155604090910151600290910155600380549060006104b183611baa565b9190505550505050565b6005602052600090815260409020805481906104d690611bc5565b80601f016020809104026020016040519081016040528092919081815260200182805461050290611bc5565b801561054f5780601f106105245761010080835404028352916020019161054f565b820191906000526020600020905b81548152906001019060200180831161053257829003601f168201915b5050505050908060010154908060020154905083565b600a602052826000526040600020602052816000526040600020818154811061058d57600080fd5b9060005260206000200160009250925050505481565b6000546001600160a01b031633146105cd5760405162461bcd60e51b815260040161044190611b5f565b600180546001600160a01b0319166001600160a01b0392909216919091179055565b60008060006105fc6114d1565b6106046114d1565b61060c6114d1565b6000878152600b60209081526040808320548352600c8252808320548a8452600783528184206001908101548552600690935290832060090154811515995090965060609283929091600a9161066191611c00565b604080516064808252610ca082019092529190921b600590811793509160208201610c80803683375050604080516064808252610ca08201909252929650905060208201610c808036833750505060008c815260076020908152604080832060019081015484526006909252822001548651929550918691906106e6576106e6611c17565b60209081029190910181019190915260008c815260078252604080822060110154825260069092529081206001015484519091859161072757610727611c17565b60200260200101818152505061073b6114f0565b60008082528c81526007602090815260408083206001908101548452600983529281902054908401528201525b602081015160321115610bc057602081015160018a821c169088906064811061079357610793611c17565b6020020152868160016020020151606481106107b1576107b1611c17565b602002015161080057604081015160208201516107cf906001611c2d565b8a901c6107dc9190611c45565b868260015b6020020151606481106107f6576107f6611c17565b6020020152610998565b60008c8152600a602090815260408083208380529091528120805490919061082a5761082a611c17565b6000918252602090912001548682600160200201516064811061084f5761084f611c17565b602002015260058214156108c55760038160015b6020020151610873906002611c2d565b8a901c6108809190611c45565b60008d8152600a60209081526040808320848452909152812080549295509093509083906108b0576108b0611c17565b600091825260209091200154868260016107e1565b6108d0600183611c2d565b60008d8152600a6020908152604080832087845290915290205490925082101580610933575060008c8152600a6020908152604080832086845290915290208054610fff91908490811061092657610926611c17565b9060005260206000200154145b15610942576003816001610863565b60008c8152600a60209081526040808320868452909152902080548390811061096d5761096d611c17565b6000918252602090912001548682600160200201516064811061099257610992611c17565b60200201525b60018581838160200201516109ad9190611c00565b815181106109bd576109bd611c17565b602002602001015186836001600381106109d9576109d9611c17565b6020020151815181106109ee576109ee611c17565b602090810291909101015284600183816020020151610a0d9190611c00565b81518110610a1d57610a1d611c17565b60200260200101518583600160038110610a3957610a39611c17565b602002015181518110610a4e57610a4e611c17565b602090810291909101015287826001602002015160648110610a7257610a72611c17565b6020020151610b0b578085836001602002015181518110610a9557610a95611c17565b602002602001015111610ad5576001808352600090869084905b602002015181518110610ac457610ac4611c17565b602002602001018181525050610b75565b8085836001602002015181518110610aef57610aef611c17565b60200260200101818151610b039190611c00565b905250610b75565b8086836001602002015181518110610b2557610b25611c17565b602002602001015111610b4357600180835260009087908490610aaf565b8086836001602002015181518110610b5d57610b5d611c17565b60200260200101818151610b719190611c00565b9052505b815160011415610ba9576001898382602002015160648110610b9957610b99611c17565b9115156020909202015250610bc0565b50602081018051610bb990611baa565b9052610768565b6020810151603211610c0657600188610bda826032611c00565b60648110610bea57610bea611c17565b91151560209092020152610c0060016032611c00565b60208201525b83816001602002015181518110610c1f57610c1f611c17565b60200260200101518582600160038110610c3b57610c3b611c17565b602002015181518110610c5057610c50611c17565b6020026020010151109950505050919395975091939597565b6001546040516331a9108f60e11b81526004810185905260009133916001600160a01b0390911690636352211e9060240160206040518083038186803b158015610cb257600080fd5b505afa158015610cc6573d6000803e3d6000fd5b505050506040513d601f19601f82011682018060405250810190610cea9190611c67565b6001600160a01b031614610d515760405162461bcd60e51b815260206004820152602860248201527f4f6e6c7920746f6b656e206f776e65722063616e2063616c6c2074686973206d6044820152676574686f6421212160c01b6064820152608401610441565b60015460405163bb86e8cd60e01b8152600481018690526000916002916001600160a01b039091169063bb86e8cd9060240160206040518083038186803b158015610d9b57600080fd5b505afa158015610daf573d6000803e3d6000fd5b505050506040513d601f19601f82011682018060405250810190610dd39190611b46565b610ddd9190611c2d565b90506002548110610e405760405162461bcd60e51b815260206004820152602760248201527f54686174206c6576656c20686173206e6f7420796574206265656e20637265616044820152667465642021212160c81b6064820152608401610441565b60025484108015610e515750808411155b610e9d5760405162461bcd60e51b815260206004820181905260248201527f596f752063616e6e6f74207573652074686174206d6f6e7374657220212121206044820152606401610441565b610ea561150e565b6004546040805160a0810182528881526020808201868152828401868152606084018b9052608084018a905260008681526007909352939091208251815590516001820155915192955091610f00906002830190600561153b565b50606082015160118201556080820151610f20906012830190600561153b565b5090505060005b6003811015610fec576040805160008082526020808301808552888352600a82528483208684529091529290209051610f609290611582565b5060005b6005811015610fdb576000858152600a602090815260408083208584529091529020868260058110610f9857610f98611c17565b60200201518360038110610fae57610fae611c17565b6020908102919091015182546001810184556000938452919092200155610fd481611baa565b9050610f64565b50610fe581611baa565b9050610f27565b506004546000848152600b60205260409020556110088361136c565b6000611013846105ef565b505050505050915050801561102b5761102b876113cb565b60016004600082825461103e9190611c2d565b9091555093979650505050505050565b6000546001600160a01b031633146110785760405162461bcd60e51b815260040161044190611b5f565b6000805b60058110156111705760035483826005811061109a5761109a611c17565b602002015110806110c25750610fff8382600581106110bb576110bb611c17565b6020020151145b6111275760405162461bcd60e51b815260206004820152603060248201527f536b696c6c2068617320656974686572206e6f74206265656e2063726561746560448201526f19081bdc881a5cc81b9bdd081d5cd95960821b6064820152608401610441565b610fff83826005811061113c5761113c611c17565b6020020151141561114e576000611151565b60015b61115e9060ff1683611c2d565b915061116981611baa565b905061107c565b50600081116111cd5760405162461bcd60e51b815260206004820152602360248201527f4d6f6e73746572206d75737420757365206174206c65617374206f6e6520736b6044820152621a5b1b60ea1b6064820152608401610441565b6040805160c0810182528781526020808201889052818301879052606082018690526080820185905260a08201849052600254600090815260068252929092208151805192938493611222928492019061144d565b50602082015160018201556040820151600282015560608201516003820155608082015161125690600483019060056115bc565b5060a09190910151600990910155608081015160025460009081526008602052604090206112859160056115bc565b50600280546000908152600960205260408120849055815491906112a883611baa565b919050555050505050505050565b6006602052600090815260409020805481906112d190611bc5565b80601f01602080910402602001604051908101604052809291908181526020018280546112fd90611bc5565b801561134a5780601f1061131f5761010080835404028352916020019161134a565b820191906000526020600020905b81548152906001019060200180831161132d57829003601f168201915b5050505050908060010154908060020154908060030154908060090154905085565b600061137982600d611c84565b6040805143406020820152016040516020818303038152906040528051906020012060001c6113a89190611c2d565b6000928352600b60209081526040808520548552600c9091529092209190915550565b600154604051630674876160e11b8152600481018390526001600160a01b0390911690630ce90ec290602401602060405180830381600087803b15801561141157600080fd5b505af1158015611425573d6000803e3d6000fd5b505050506040513d601f19601f820116820180604052508101906114499190611ca3565b5050565b82805461145990611bc5565b90600052602060002090601f01602090048101928261147b57600085556114c1565b82601f1061149457805160ff19168380011785556114c1565b828001600101855582156114c1579182015b828111156114c15782518255916020019190600101906114a6565b506114cd9291506115e9565b5090565b60405180610c8001604052806064906020820280368337509192915050565b60405180606001604052806003906020820280368337509192915050565b6040518060a001604052806005905b6115256114f0565b81526020019060019003908161151d5790505090565b600f83019183908215611576579160200282015b8281111561157657825161156690839060036115fe565b509160200191906003019061154f565b506114cd92915061162b565b8280548282559060005260206000209081019282156114c157916020028201828111156114c15782518255916020019190600101906114a6565b82600581019282156114c157916020028201828111156114c15782518255916020019190600101906114a6565b5b808211156114cd57600081556001016115ea565b82600381019282156114c157916020028201828111156114c15782518255916020019190600101906114a6565b808211156114cd57600080825560018201819055600282015560030161162b565b6000806040838503121561165f57600080fd5b50508035926020909101359150565b634e487b7160e01b600052604160045260246000fd5b60405160a0810167ffffffffffffffff811182821017156116a7576116a761166e565b60405290565b600082601f8301126116be57600080fd5b813567ffffffffffffffff808211156116d9576116d961166e565b604051601f8301601f19908116603f011681019082821181831017156117015761170161166e565b8160405283815286602085880101111561171a57600080fd5b836020870160208301376000602085830101528094505050505092915050565b60008060006060848603121561174f57600080fd5b833567ffffffffffffffff81111561176657600080fd5b611772868287016116ad565b9660208601359650604090950135949350505050565b60006020828403121561179a57600080fd5b5035919050565b6000815180845260005b818110156117c7576020818501810151868301820152016117ab565b818111156117d9576000602083870101525b50601f01601f19169290920160200192915050565b60608152600061180160608301866117a1565b60208301949094525060400152919050565b60008060006060848603121561182857600080fd5b505081359360208301359350604090920135919050565b6001600160a01b038116811461041457600080fd5b60006020828403121561186657600080fd5b81356118718161183f565b9392505050565b8060005b606481101561189b57815184526020938401939091019060010161187c565b50505050565b600081518084526020808501945080840160005b838110156118d1578151875295820195908201906001016118b5565b509495945050505050565b60006126208a1515835260208a151581850152896040850152606084018960005b606481101561191c5781511515835291830191908301906001016118fd565b5050505061192e610ce0840188611878565b61193c611960840187611878565b806125e084015261194f818401866118a1565b905082810361260084015261196481856118a1565b9b9a5050505050505050505050565b60006040516060810181811067ffffffffffffffff821117156119985761199861166e565b60405290508060608301848111156119af57600080fd5b835b818110156119c95780358352602092830192016119b1565b50505092915050565b60008060006102208085870312156119e957600080fd5b84359350602080860135935086605f870112611a0457600080fd5b611a0c611684565b918601918088841115611a1e57600080fd5b604088015b84811015611a535789601f820112611a3b5760008081fd5b611a458a82611973565b835291830191606001611a23565b50809450505050509250925092565b6000806000806000610120808789031215611a7c57600080fd5b863567ffffffffffffffff811115611a9357600080fd5b611a9f89828a016116ad565b9650506020808801359550604088013594506060880135935088609f890112611ac757600080fd5b611acf611684565b91880191808a841115611ae157600080fd5b60808a015b84811015611afd5780358352918301918301611ae6565b50809450505050509295509295909350565b60a081526000611b2260a08301886117a1565b90508560208301528460408301528360608301528260808301529695505050505050565b600060208284031215611b5857600080fd5b5051919050565b6020808252818101527f4f6e6c79206f776e65722063616e2063616c6c2074686973206d6574686f6421604082015260600190565b634e487b7160e01b600052601160045260246000fd5b6000600019821415611bbe57611bbe611b94565b5060010190565b600181811c90821680611bd957607f821691505b60208210811415611bfa57634e487b7160e01b600052602260045260246000fd5b50919050565b600082821015611c1257611c12611b94565b500390565b634e487b7160e01b600052603260045260246000fd5b60008219821115611c4057611c40611b94565b500190565b600082611c6257634e487b7160e01b600052601260045260246000fd5b500690565b600060208284031215611c7957600080fd5b81516118718161183f565b6000816000190483118215151615611c9e57611c9e611b94565b500290565b600060208284031215611cb557600080fd5b8151801515811461187157600080fdfea2646970667358221220a02a1512c0d6056ba02173c30f028c7ca9709bd450878cdef09c13813470a31864736f6c634300080900334f6e6c79206f776e65722063616e2063616c6c2074686973206d6574686f6421","opcodes":"PUSH1 0x80 PUSH1 0x40 MSTORE CALLVALUE DUP1 ISZERO PUSH3 0x11 JUMPI PUSH1 0x0 DUP1 REVERT JUMPDEST POP PUSH1 0x0 DUP1 SLOAD PUSH1 0x1 PUSH1 0x1 PUSH1 0xA0 SHL SUB NOT AND CALLER OR SWAP1 SSTORE PUSH1 0x40 DUP1 MLOAD DUP1 DUP3 ADD SWAP1 SWAP2 MSTORE PUSH1 0x4 DUP2 MSTORE PUSH4 0x66697265 PUSH1 0xE0 SHL PUSH1 0x20 DUP3 ADD MSTORE PUSH3 0x4E SWAP1 PUSH1 0x2 PUSH1 0xA PUSH3 0x274 JUMP JUMPDEST PUSH3 0x80 PUSH1 0x40 MLOAD DUP1 PUSH1 0x40 ADD PUSH1 0x40 MSTORE DUP1 PUSH1 0x5 DUP2 MSTORE PUSH1 0x20 ADD PUSH5 0x3630B9B2B9 PUSH1 0xD9 SHL DUP2 MSTORE POP PUSH1 0x5 PUSH1 0x8 PUSH3 0x274 PUSH1 0x20 SHL PUSH1 0x20 SHR JUMP JUMPDEST PUSH1 0x40 DUP1 MLOAD DUP1 DUP3 ADD SWAP1 SWAP2 MSTORE PUSH1 0x7 DUP2 MSTORE PUSH7 0x3A343AB73232B9 PUSH1 0xC9 SHL PUSH1 0x20 DUP3 ADD MSTORE PUSH3 0xAD SWAP1 PUSH1 0x8 PUSH1 0x3 PUSH3 0x274 JUMP JUMPDEST PUSH1 0x0 PUSH1 0x40 MLOAD DUP1 PUSH1 0xA0 ADD PUSH1 0x40 MSTORE DUP1 PUSH1 0x0 DUP2 MSTORE PUSH1 0x20 ADD PUSH1 0x1 DUP2 MSTORE PUSH1 0x20 ADD PUSH1 0x2 DUP2 MSTORE PUSH1 0x20 ADD PUSH2 0xFFF DUP2 MSTORE PUSH1 0x20 ADD PUSH2 0xFFF DUP2 MSTORE POP SWAP1 POP PUSH3 0x117 PUSH1 0x40 MLOAD DUP1 PUSH1 0x40 ADD PUSH1 0x40 MSTORE DUP1 PUSH1 0x8 DUP2 MSTORE PUSH1 0x20 ADD PUSH8 0x283937BA32BD30B9 PUSH1 0xC1 SHL DUP2 MSTORE POP PUSH1 0xC8 PUSH1 0x1E PUSH1 0xA DUP6 PUSH3 0x338 PUSH1 0x20 SHL PUSH1 0x20 SHR JUMP JUMPDEST PUSH2 0xFFF PUSH1 0x40 DUP1 DUP4 ADD SWAP2 SWAP1 SWAP2 MSTORE DUP1 MLOAD DUP1 DUP3 ADD SWAP1 SWAP2 MSTORE PUSH1 0x5 DUP2 MSTORE PUSH5 0x14985C995D PUSH1 0xDA SHL PUSH1 0x20 DUP3 ADD MSTORE PUSH3 0x14F SWAP1 PUSH1 0xDC PUSH1 0x28 PUSH1 0x14 DUP6 PUSH3 0x338 JUMP JUMPDEST PUSH2 0xFFF DUP2 PUSH1 0x1 PUSH1 0x20 MUL ADD DUP2 DUP2 MSTORE POP POP PUSH3 0x196 PUSH1 0x40 MLOAD DUP1 PUSH1 0x40 ADD PUSH1 0x40 MSTORE DUP1 PUSH1 0x8 DUP2 MSTORE PUSH1 0x20 ADD PUSH8 0x2A3930B83732B0B9 PUSH1 0xC1 SHL DUP2 MSTORE POP PUSH1 0x96 PUSH1 0x14 PUSH1 0xA DUP6 PUSH3 0x338 PUSH1 0x20 SHL PUSH1 0x20 SHR JUMP JUMPDEST PUSH1 0x0 DUP2 MSTORE PUSH1 0x2 PUSH1 0x20 DUP1 DUP4 ADD SWAP2 SWAP1 SWAP2 MSTORE PUSH2 0xFFF PUSH1 0x40 DUP1 DUP5 ADD SWAP2 SWAP1 SWAP2 MSTORE DUP1 MLOAD DUP1 DUP3 ADD SWAP1 SWAP2 MSTORE PUSH1 0x6 DUP2 MSTORE PUSH6 0x556E7572616B PUSH1 0xD0 SHL SWAP2 DUP2 ADD SWAP2 SWAP1 SWAP2 MSTORE PUSH3 0x1E0 SWAP1 PUSH1 0xB4 PUSH1 0x1E PUSH1 0x1 DUP6 PUSH3 0x338 JUMP JUMPDEST PUSH1 0x2 DUP2 MSTORE PUSH1 0x1 PUSH1 0x20 DUP1 DUP4 ADD SWAP2 SWAP1 SWAP2 MSTORE PUSH2 0xFFF PUSH1 0x40 DUP1 DUP5 ADD SWAP2 SWAP1 SWAP2 MSTORE DUP1 MLOAD DUP1 DUP3 ADD SWAP1 SWAP2 MSTORE PUSH1 0x7 DUP2 MSTORE PUSH7 0x2BB0B93BB2B0B9 PUSH1 0xC9 SHL SWAP2 DUP2 ADD SWAP2 SWAP1 SWAP2 MSTORE PUSH3 0x22B SWAP1 PUSH1 0xFA PUSH1 0x28 PUSH1 0x3 DUP6 PUSH3 0x338 JUMP JUMPDEST PUSH1 0x2 DUP2 MSTORE PUSH2 0xFFF PUSH1 0x20 DUP1 DUP4 ADD SWAP2 SWAP1 SWAP2 MSTORE PUSH1 0x40 DUP1 MLOAD DUP1 DUP3 ADD SWAP1 SWAP2 MSTORE PUSH1 0x6 DUP2 MSTORE PUSH6 0x15DA5E9AD95D PUSH1 0xD2 SHL SWAP2 DUP2 ADD SWAP2 SWAP1 SWAP2 MSTORE PUSH3 0x26D SWAP1 PUSH2 0x1C2 PUSH1 0x14 PUSH1 0x5 DUP6 PUSH3 0x338 JUMP JUMPDEST POP PUSH3 0x757 JUMP JUMPDEST PUSH1 0x0 SLOAD PUSH1 0x1 PUSH1 0x1 PUSH1 0xA0 SHL SUB AND CALLER EQ PUSH3 0x2C3 JUMPI PUSH1 0x40 MLOAD PUSH3 0x461BCD PUSH1 0xE5 SHL DUP2 MSTORE PUSH1 0x20 PUSH1 0x4 DUP3 ADD DUP2 SWAP1 MSTORE PUSH1 0x24 DUP3 ADD MSTORE PUSH1 0x0 DUP1 MLOAD PUSH1 0x20 PUSH3 0x2462 DUP4 CODECOPY DUP2 MLOAD SWAP2 MSTORE PUSH1 0x44 DUP3 ADD MSTORE PUSH1 0x64 ADD JUMPDEST PUSH1 0x40 MLOAD DUP1 SWAP2 SUB SWAP1 REVERT JUMPDEST PUSH1 0x40 DUP1 MLOAD PUSH1 0x60 DUP2 ADD DUP3 MSTORE DUP5 DUP2 MSTORE PUSH1 0x20 DUP1 DUP3 ADD DUP6 SWAP1 MSTORE DUP2 DUP4 ADD DUP5 SWAP1 MSTORE PUSH1 0x3 SLOAD PUSH1 0x0 SWAP1 DUP2 MSTORE PUSH1 0x5 DUP3 MSTORE SWAP3 SWAP1 SWAP3 KECCAK256 DUP2 MLOAD DUP1 MLOAD SWAP3 SWAP4 SWAP2 SWAP3 PUSH3 0x305 SWAP3 DUP5 SWAP3 ADD SWAP1 PUSH3 0x5DF JUMP JUMPDEST POP PUSH1 0x20 DUP3 ADD MLOAD PUSH1 0x1 DUP3 ADD SSTORE PUSH1 0x40 SWAP1 SWAP2 ADD MLOAD PUSH1 0x2 SWAP1 SWAP2 ADD SSTORE PUSH1 0x3 DUP1 SLOAD SWAP1 PUSH1 0x0 PUSH3 0x32E DUP4 PUSH3 0x6E1 JUMP JUMPDEST SWAP2 SWAP1 POP SSTORE POP POP POP POP JUMP JUMPDEST PUSH1 0x0 SLOAD PUSH1 0x1 PUSH1 0x1 PUSH1 0xA0 SHL SUB AND CALLER EQ PUSH3 0x383 JUMPI PUSH1 0x40 MLOAD PUSH3 0x461BCD PUSH1 0xE5 SHL DUP2 MSTORE PUSH1 0x20 PUSH1 0x4 DUP3 ADD DUP2 SWAP1 MSTORE PUSH1 0x24 DUP3 ADD MSTORE PUSH1 0x0 DUP1 MLOAD PUSH1 0x20 PUSH3 0x2462 DUP4 CODECOPY DUP2 MLOAD SWAP2 MSTORE PUSH1 0x44 DUP3 ADD MSTORE PUSH1 0x64 ADD PUSH3 0x2BA JUMP JUMPDEST PUSH1 0x0 DUP1 JUMPDEST PUSH1 0x5 DUP2 LT ISZERO PUSH3 0x48F JUMPI PUSH1 0x3 SLOAD DUP4 DUP3 PUSH1 0x5 DUP2 LT PUSH3 0x3A9 JUMPI PUSH3 0x3A9 PUSH3 0x6B5 JUMP JUMPDEST PUSH1 0x20 MUL ADD MLOAD LT DUP1 PUSH3 0x3D5 JUMPI POP PUSH2 0xFFF DUP4 DUP3 PUSH1 0x5 DUP2 LT PUSH3 0x3CE JUMPI PUSH3 0x3CE PUSH3 0x6B5 JUMP JUMPDEST PUSH1 0x20 MUL ADD MLOAD EQ JUMPDEST PUSH3 0x43C JUMPI PUSH1 0x40 MLOAD PUSH3 0x461BCD PUSH1 0xE5 SHL DUP2 MSTORE PUSH1 0x20 PUSH1 0x4 DUP3 ADD MSTORE PUSH1 0x30 PUSH1 0x24 DUP3 ADD MSTORE PUSH32 0x536B696C6C2068617320656974686572206E6F74206265656E20637265617465 PUSH1 0x44 DUP3 ADD MSTORE PUSH16 0x19081BDC881A5CC81B9BDD081D5CD959 PUSH1 0x82 SHL PUSH1 0x64 DUP3 ADD MSTORE PUSH1 0x84 ADD PUSH3 0x2BA JUMP JUMPDEST PUSH2 0xFFF DUP4 DUP3 PUSH1 0x5 DUP2 LT PUSH3 0x454 JUMPI PUSH3 0x454 PUSH3 0x6B5 JUMP JUMPDEST PUSH1 0x20 MUL ADD MLOAD EQ ISZERO PUSH3 0x468 JUMPI PUSH1 0x0 PUSH3 0x46B JUMP JUMPDEST PUSH1 0x1 JUMPDEST PUSH3 0x47A SWAP1 PUSH1 0xFF AND DUP4 PUSH3 0x6FF JUMP JUMPDEST SWAP2 POP PUSH3 0x487 DUP2 PUSH3 0x6E1 JUMP JUMPDEST SWAP1 POP PUSH3 0x387 JUMP JUMPDEST POP PUSH1 0x0 DUP2 GT PUSH3 0x4EE JUMPI PUSH1 0x40 MLOAD PUSH3 0x461BCD PUSH1 0xE5 SHL DUP2 MSTORE PUSH1 0x20 PUSH1 0x4 DUP3 ADD MSTORE PUSH1 0x23 PUSH1 0x24 DUP3 ADD MSTORE PUSH32 0x4D6F6E73746572206D75737420757365206174206C65617374206F6E6520736B PUSH1 0x44 DUP3 ADD MSTORE PUSH3 0x1A5B1B PUSH1 0xEA SHL PUSH1 0x64 DUP3 ADD MSTORE PUSH1 0x84 ADD PUSH3 0x2BA JUMP JUMPDEST PUSH1 0x40 DUP1 MLOAD PUSH1 0xC0 DUP2 ADD DUP3 MSTORE DUP8 DUP2 MSTORE PUSH1 0x20 DUP1 DUP3 ADD DUP9 SWAP1 MSTORE DUP2 DUP4 ADD DUP8 SWAP1 MSTORE PUSH1 0x60 DUP3 ADD DUP7 SWAP1 MSTORE PUSH1 0x80 DUP3 ADD DUP6 SWAP1 MSTORE PUSH1 0xA0 DUP3 ADD DUP5 SWAP1 MSTORE PUSH1 0x2 SLOAD PUSH1 0x0 SWAP1 DUP2 MSTORE PUSH1 0x6 DUP3 MSTORE SWAP3 SWAP1 SWAP3 KECCAK256 DUP2 MLOAD DUP1 MLOAD SWAP3 SWAP4 DUP5 SWAP4 PUSH3 0x545 SWAP3 DUP5 SWAP3 ADD SWAP1 PUSH3 0x5DF JUMP JUMPDEST POP PUSH1 0x20 DUP3 ADD MLOAD PUSH1 0x1 DUP3 ADD SSTORE PUSH1 0x40 DUP3 ADD MLOAD PUSH1 0x2 DUP3 ADD SSTORE PUSH1 0x60 DUP3 ADD MLOAD PUSH1 0x3 DUP3 ADD SSTORE PUSH1 0x80 DUP3 ADD MLOAD PUSH3 0x57B SWAP1 PUSH1 0x4 DUP4 ADD SWAP1 PUSH1 0x5 PUSH3 0x66E JUMP JUMPDEST POP PUSH1 0xA0 SWAP2 SWAP1 SWAP2 ADD MLOAD PUSH1 0x9 SWAP1 SWAP2 ADD SSTORE PUSH1 0x80 DUP2 ADD MLOAD PUSH1 0x2 SLOAD PUSH1 0x0 SWAP1 DUP2 MSTORE PUSH1 0x8 PUSH1 0x20 MSTORE PUSH1 0x40 SWAP1 KECCAK256 PUSH3 0x5AC SWAP2 PUSH1 0x5 PUSH3 0x66E JUMP JUMPDEST POP PUSH1 0x2 DUP1 SLOAD PUSH1 0x0 SWAP1 DUP2 MSTORE PUSH1 0x9 PUSH1 0x20 MSTORE PUSH1 0x40 DUP2 KECCAK256 DUP5 SWAP1 SSTORE DUP2 SLOAD SWAP2 SWAP1 PUSH3 0x5D1 DUP4 PUSH3 0x6E1 JUMP JUMPDEST SWAP2 SWAP1 POP SSTORE POP POP POP POP POP POP POP POP JUMP JUMPDEST DUP3 DUP1 SLOAD PUSH3 0x5ED SWAP1 PUSH3 0x71A JUMP JUMPDEST SWAP1 PUSH1 0x0 MSTORE PUSH1 0x20 PUSH1 0x0 KECCAK256 SWAP1 PUSH1 0x1F ADD PUSH1 0x20 SWAP1 DIV DUP2 ADD SWAP3 DUP3 PUSH3 0x611 JUMPI PUSH1 0x0 DUP6 SSTORE PUSH3 0x65C JUMP JUMPDEST DUP3 PUSH1 0x1F LT PUSH3 0x62C JUMPI DUP1 MLOAD PUSH1 0xFF NOT AND DUP4 DUP1 ADD OR DUP6 SSTORE PUSH3 0x65C JUMP JUMPDEST DUP3 DUP1 ADD PUSH1 0x1 ADD DUP6 SSTORE DUP3 ISZERO PUSH3 0x65C JUMPI SWAP2 DUP3 ADD JUMPDEST DUP3 DUP2 GT ISZERO PUSH3 0x65C JUMPI DUP3 MLOAD DUP3 SSTORE SWAP2 PUSH1 0x20 ADD SWAP2 SWAP1 PUSH1 0x1 ADD SWAP1 PUSH3 0x63F JUMP JUMPDEST POP PUSH3 0x66A SWAP3 SWAP2 POP PUSH3 0x69E JUMP JUMPDEST POP SWAP1 JUMP JUMPDEST DUP3 PUSH1 0x5 DUP2 ADD SWAP3 DUP3 ISZERO PUSH3 0x65C JUMPI SWAP2 PUSH1 0x20 MUL DUP3 ADD DUP3 DUP2 GT ISZERO PUSH3 0x65C JUMPI DUP3 MLOAD DUP3 SSTORE SWAP2 PUSH1 0x20 ADD SWAP2 SWAP1 PUSH1 0x1 ADD SWAP1 PUSH3 0x63F JUMP JUMPDEST JUMPDEST DUP1 DUP3 GT ISZERO PUSH3 0x66A JUMPI PUSH1 0x0 DUP2 SSTORE PUSH1 0x1 ADD PUSH3 0x69F JUMP JUMPDEST PUSH4 0x4E487B71 PUSH1 0xE0 SHL PUSH1 0x0 MSTORE PUSH1 0x32 PUSH1 0x4 MSTORE PUSH1 0x24 PUSH1 0x0 REVERT JUMPDEST PUSH4 0x4E487B71 PUSH1 0xE0 SHL PUSH1 0x0 MSTORE PUSH1 0x11 PUSH1 0x4 MSTORE PUSH1 0x24 PUSH1 0x0 REVERT JUMPDEST PUSH1 0x0 PUSH1 0x0 NOT DUP3 EQ ISZERO PUSH3 0x6F8 JUMPI PUSH3 0x6F8 PUSH3 0x6CB JUMP JUMPDEST POP PUSH1 0x1 ADD SWAP1 JUMP JUMPDEST PUSH1 0x0 DUP3 NOT DUP3 GT ISZERO PUSH3 0x715 JUMPI PUSH3 0x715 PUSH3 0x6CB JUMP JUMPDEST POP ADD SWAP1 JUMP JUMPDEST PUSH1 0x1 DUP2 DUP2 SHR SWAP1 DUP3 AND DUP1 PUSH3 0x72F JUMPI PUSH1 0x7F DUP3 AND SWAP2 POP JUMPDEST PUSH1 0x20 DUP3 LT DUP2 EQ ISZERO PUSH3 0x751 JUMPI PUSH4 0x4E487B71 PUSH1 0xE0 SHL PUSH1 0x0 MSTORE PUSH1 0x22 PUSH1 0x4 MSTORE PUSH1 0x24 PUSH1 0x0 REVERT JUMPDEST POP SWAP2 SWAP1 POP JUMP JUMPDEST PUSH2 0x1CFB DUP1 PUSH3 0x767 PUSH1 0x0 CODECOPY PUSH1 0x0 RETURN INVALID PUSH1 0x80 PUSH1 0x40 MSTORE CALLVALUE DUP1 ISZERO PUSH2 0x10 JUMPI PUSH1 0x0 DUP1 REVERT JUMPDEST POP PUSH1 0x4 CALLDATASIZE LT PUSH2 0x14D JUMPI PUSH1 0x0 CALLDATALOAD PUSH1 0xE0 SHR DUP1 PUSH4 0x539DC37E GT PUSH2 0xC3 JUMPI DUP1 PUSH4 0xB5B662AF GT PUSH2 0x7C JUMPI DUP1 PUSH4 0xB5B662AF EQ PUSH2 0x30E JUMPI DUP1 PUSH4 0xB693BFF8 EQ PUSH2 0x321 JUMPI DUP1 PUSH4 0xB82C1B4A EQ PUSH2 0x32A JUMPI DUP1 PUSH4 0xBC0D27A0 EQ PUSH2 0x333 JUMPI DUP1 PUSH4 0xC0576B73 EQ PUSH2 0x346 JUMPI DUP1 PUSH4 0xCDC773EF EQ PUSH2 0x36A JUMPI PUSH1 0x0 DUP1 REVERT JUMPDEST DUP1 PUSH4 0x539DC37E EQ PUSH2 0x263 JUMPI DUP1 PUSH4 0x7C7C984B EQ PUSH2 0x276 JUMPI DUP1 PUSH4 0x85C74889 EQ PUSH2 0x289 JUMPI DUP1 PUSH4 0x8DA5CB5B EQ PUSH2 0x2B0 JUMPI DUP1 PUSH4 0x9B1FEC3F EQ PUSH2 0x2DB JUMPI DUP1 PUSH4 0xA4482DE5 EQ PUSH2 0x2FB JUMPI PUSH1 0x0 DUP1 REVERT JUMPDEST DUP1 PUSH4 0x20F9EB3C GT PUSH2 0x115 JUMPI DUP1 PUSH4 0x20F9EB3C EQ PUSH2 0x19B JUMPI DUP1 PUSH4 0x316990C1 EQ PUSH2 0x1AE JUMPI DUP1 PUSH4 0x3E26F96F EQ PUSH2 0x1CE JUMPI DUP1 PUSH4 0x444F2EC5 EQ PUSH2 0x1D7 JUMPI DUP1 PUSH4 0x4768D4EF EQ PUSH2 0x1F7 JUMPI DUP1 PUSH4 0x50D15FBE EQ PUSH2 0x241 JUMPI PUSH1 0x0 DUP1 REVERT JUMPDEST DUP1 PUSH4 0x1FD1951 EQ PUSH2 0x152 JUMPI DUP1 PUSH4 0xA45AF25 EQ PUSH2 0x16E JUMPI DUP1 PUSH4 0xFF56693 EQ PUSH2 0x176 JUMPI DUP1 PUSH4 0x136DEB12 EQ PUSH2 0x17E JUMPI DUP1 PUSH4 0x1AA3A008 EQ PUSH2 0x191 JUMPI JUMPDEST PUSH1 0x0 DUP1 REVERT JUMPDEST PUSH2 0x15B PUSH1 0x4 SLOAD DUP2 JUMP JUMPDEST PUSH1 0x40 MLOAD SWAP1 DUP2 MSTORE PUSH1 0x20 ADD JUMPDEST PUSH1 0x40 MLOAD DUP1 SWAP2 SUB SWAP1 RETURN JUMPDEST PUSH2 0x15B PUSH1 0xA DUP2 JUMP JUMPDEST PUSH2 0x15B PUSH1 0x2 DUP2 JUMP JUMPDEST PUSH2 0x15B PUSH2 0x18C CALLDATASIZE PUSH1 0x4 PUSH2 0x164C JUMP JUMPDEST PUSH2 0x372 JUMP JUMPDEST PUSH2 0x199 PUSH2 0x397 JUMP JUMPDEST STOP JUMPDEST PUSH2 0x199 PUSH2 0x1A9 CALLDATASIZE PUSH1 0x4 PUSH2 0x173A JUMP JUMPDEST PUSH2 0x417 JUMP JUMPDEST PUSH2 0x15B PUSH2 0x1BC CALLDATASIZE PUSH1 0x4 PUSH2 0x1788 JUMP JUMPDEST PUSH1 0xB PUSH1 0x20 MSTORE PUSH1 0x0 SWAP1 DUP2 MSTORE PUSH1 0x40 SWAP1 KECCAK256 SLOAD DUP2 JUMP JUMPDEST PUSH2 0x15B PUSH2 0xFFF DUP2 JUMP JUMPDEST PUSH2 0x15B PUSH2 0x1E5 CALLDATASIZE PUSH1 0x4 PUSH2 0x1788 JUMP JUMPDEST PUSH1 0xC PUSH1 0x20 MSTORE PUSH1 0x0 SWAP1 DUP2 MSTORE PUSH1 0x40 SWAP1 KECCAK256 SLOAD DUP2 JUMP JUMPDEST PUSH2 0x226 PUSH2 0x205 CALLDATASIZE PUSH1 0x4 PUSH2 0x1788 JUMP JUMPDEST PUSH1 0x7 PUSH1 0x20 MSTORE PUSH1 0x0 SWAP1 DUP2 MSTORE PUSH1 0x40 SWAP1 KECCAK256 DUP1 SLOAD PUSH1 0x1 DUP3 ADD SLOAD PUSH1 0x11 SWAP1 SWAP3 ADD SLOAD SWAP1 SWAP2 SWAP1 DUP4 JUMP JUMPDEST PUSH1 0x40 DUP1 MLOAD SWAP4 DUP5 MSTORE PUSH1 0x20 DUP5 ADD SWAP3 SWAP1 SWAP3 MSTORE SWAP1 DUP3 ADD MSTORE PUSH1 0x60 ADD PUSH2 0x165 JUMP JUMPDEST PUSH2 0x254 PUSH2 0x24F CALLDATASIZE PUSH1 0x4 PUSH2 0x1788 JUMP JUMPDEST PUSH2 0x4BB JUMP JUMPDEST PUSH1 0x40 MLOAD PUSH2 0x165 SWAP4 SWAP3 SWAP2 SWAP1 PUSH2 0x17EE JUMP JUMPDEST PUSH2 0x15B PUSH2 0x271 CALLDATASIZE PUSH1 0x4 PUSH2 0x1813 JUMP JUMPDEST PUSH2 0x565 JUMP JUMPDEST PUSH2 0x199 PUSH2 0x284 CALLDATASIZE PUSH1 0x4 PUSH2 0x1854 JUMP JUMPDEST PUSH2 0x5A3 JUMP JUMPDEST PUSH2 0x29C PUSH2 0x297 CALLDATASIZE PUSH1 0x4 PUSH2 0x1788 JUMP JUMPDEST PUSH2 0x5EF JUMP JUMPDEST PUSH1 0x40 MLOAD PUSH2 0x165 SWAP9 SWAP8 SWAP7 SWAP6 SWAP5 SWAP4 SWAP3 SWAP2 SWAP1 PUSH2 0x18DC JUMP JUMPDEST PUSH1 0x0 SLOAD PUSH2 0x2C3 SWAP1 PUSH1 0x1 PUSH1 0x1 PUSH1 0xA0 SHL SUB AND DUP2 JUMP JUMPDEST PUSH1 0x40 MLOAD PUSH1 0x1 PUSH1 0x1 PUSH1 0xA0 SHL SUB SWAP1 SWAP2 AND DUP2 MSTORE PUSH1 0x20 ADD PUSH2 0x165 JUMP JUMPDEST PUSH2 0x15B PUSH2 0x2E9 CALLDATASIZE PUSH1 0x4 PUSH2 0x1788 JUMP JUMPDEST PUSH1 0x9 PUSH1 0x20 MSTORE PUSH1 0x0 SWAP1 DUP2 MSTORE PUSH1 0x40 SWAP1 KECCAK256 SLOAD DUP2 JUMP JUMPDEST PUSH2 0x15B PUSH2 0x309 CALLDATASIZE PUSH1 0x4 PUSH2 0x19D2 JUMP JUMPDEST PUSH2 0xC69 JUMP JUMPDEST PUSH2 0x199 PUSH2 0x31C CALLDATASIZE PUSH1 0x4 PUSH2 0x1A62 JUMP JUMPDEST PUSH2 0x104E JUMP JUMPDEST PUSH2 0x15B PUSH1 0x2 SLOAD DUP2 JUMP JUMPDEST PUSH2 0x15B PUSH1 0x3 SLOAD DUP2 JUMP JUMPDEST PUSH1 0x1 SLOAD PUSH2 0x2C3 SWAP1 PUSH1 0x1 PUSH1 0x1 PUSH1 0xA0 SHL SUB AND DUP2 JUMP JUMPDEST PUSH2 0x359 PUSH2 0x354 CALLDATASIZE PUSH1 0x4 PUSH2 0x1788 JUMP JUMPDEST PUSH2 0x12B6 JUMP JUMPDEST PUSH1 0x40 MLOAD PUSH2 0x165 SWAP6 SWAP5 SWAP4 SWAP3 SWAP2 SWAP1 PUSH2 0x1B0F JUMP JUMPDEST PUSH2 0x15B PUSH1 0x32 DUP2 JUMP JUMPDEST PUSH1 0x8 PUSH1 0x20 MSTORE DUP2 PUSH1 0x0 MSTORE PUSH1 0x40 PUSH1 0x0 KECCAK256 DUP2 PUSH1 0x5 DUP2 LT PUSH2 0x38E JUMPI PUSH1 0x0 DUP1 REVERT JUMPDEST ADD SLOAD SWAP2 POP DUP3 SWAP1 POP JUMP JUMPDEST PUSH1 0x1 SLOAD PUSH1 0x40 MLOAD PUSH4 0x35313C21 PUSH1 0xE1 SHL DUP2 MSTORE CALLER PUSH1 0x4 DUP3 ADD MSTORE PUSH1 0x1 PUSH1 0x1 PUSH1 0xA0 SHL SUB SWAP1 SWAP2 AND SWAP1 PUSH4 0x6A627842 SWAP1 PUSH1 0x24 ADD PUSH1 0x20 PUSH1 0x40 MLOAD DUP1 DUP4 SUB DUP2 PUSH1 0x0 DUP8 DUP1 EXTCODESIZE ISZERO DUP1 ISZERO PUSH2 0x3DC JUMPI PUSH1 0x0 DUP1 REVERT JUMPDEST POP GAS CALL ISZERO DUP1 ISZERO PUSH2 0x3F0 JUMPI RETURNDATASIZE PUSH1 0x0 DUP1 RETURNDATACOPY RETURNDATASIZE PUSH1 0x0 REVERT JUMPDEST POP POP POP POP PUSH1 0x40 MLOAD RETURNDATASIZE PUSH1 0x1F NOT PUSH1 0x1F DUP3 ADD AND DUP3 ADD DUP1 PUSH1 0x40 MSTORE POP DUP2 ADD SWAP1 PUSH2 0x414 SWAP2 SWAP1 PUSH2 0x1B46 JUMP JUMPDEST POP JUMP JUMPDEST PUSH1 0x0 SLOAD PUSH1 0x1 PUSH1 0x1 PUSH1 0xA0 SHL SUB AND CALLER EQ PUSH2 0x44A JUMPI PUSH1 0x40 MLOAD PUSH3 0x461BCD PUSH1 0xE5 SHL DUP2 MSTORE PUSH1 0x4 ADD PUSH2 0x441 SWAP1 PUSH2 0x1B5F JUMP JUMPDEST PUSH1 0x40 MLOAD DUP1 SWAP2 SUB SWAP1 REVERT JUMPDEST PUSH1 0x40 DUP1 MLOAD PUSH1 0x60 DUP2 ADD DUP3 MSTORE DUP5 DUP2 MSTORE PUSH1 0x20 DUP1 DUP3 ADD DUP6 SWAP1 MSTORE DUP2 DUP4 ADD DUP5 SWAP1 MSTORE PUSH1 0x3 SLOAD PUSH1 0x0 SWAP1 DUP2 MSTORE PUSH1 0x5 DUP3 MSTORE SWAP3 SWAP1 SWAP3 KECCAK256 DUP2 MLOAD DUP1 MLOAD SWAP3 SWAP4 SWAP2 SWAP3 PUSH2 0x48A SWAP3 DUP5 SWAP3 ADD SWAP1 PUSH2 0x144D JUMP JUMPDEST POP PUSH1 0x20 DUP3 ADD MLOAD PUSH1 0x1 DUP3 ADD SSTORE PUSH1 0x40 SWAP1 SWAP2 ADD MLOAD PUSH1 0x2 SWAP1 SWAP2 ADD SSTORE PUSH1 0x3 DUP1 SLOAD SWAP1 PUSH1 0x0 PUSH2 0x4B1 DUP4 PUSH2 0x1BAA JUMP JUMPDEST SWAP2 SWAP1 POP SSTORE POP POP POP POP JUMP JUMPDEST PUSH1 0x5 PUSH1 0x20 MSTORE PUSH1 0x0 SWAP1 DUP2 MSTORE PUSH1 0x40 SWAP1 KECCAK256 DUP1 SLOAD DUP2 SWAP1 PUSH2 0x4D6 SWAP1 PUSH2 0x1BC5 JUMP JUMPDEST DUP1 PUSH1 0x1F ADD PUSH1 0x20 DUP1 SWAP2 DIV MUL PUSH1 0x20 ADD PUSH1 0x40 MLOAD SWAP1 DUP2 ADD PUSH1 0x40 MSTORE DUP1 SWAP3 SWAP2 SWAP1 DUP2 DUP2 MSTORE PUSH1 0x20 ADD DUP3 DUP1 SLOAD PUSH2 0x502 SWAP1 PUSH2 0x1BC5 JUMP JUMPDEST DUP1 ISZERO PUSH2 0x54F JUMPI DUP1 PUSH1 0x1F LT PUSH2 0x524 JUMPI PUSH2 0x100 DUP1 DUP4 SLOAD DIV MUL DUP4 MSTORE SWAP2 PUSH1 0x20 ADD SWAP2 PUSH2 0x54F JUMP JUMPDEST DUP3 ADD SWAP2 SWAP1 PUSH1 0x0 MSTORE PUSH1 0x20 PUSH1 0x0 KECCAK256 SWAP1 JUMPDEST DUP2 SLOAD DUP2 MSTORE SWAP1 PUSH1 0x1 ADD SWAP1 PUSH1 0x20 ADD DUP1 DUP4 GT PUSH2 0x532 JUMPI DUP3 SWAP1 SUB PUSH1 0x1F AND DUP3 ADD SWAP2 JUMPDEST POP POP POP POP POP SWAP1 DUP1 PUSH1 0x1 ADD SLOAD SWAP1 DUP1 PUSH1 0x2 ADD SLOAD SWAP1 POP DUP4 JUMP JUMPDEST PUSH1 0xA PUSH1 0x20 MSTORE DUP3 PUSH1 0x0 MSTORE PUSH1 0x40 PUSH1 0x0 KECCAK256 PUSH1 0x20 MSTORE DUP2 PUSH1 0x0 MSTORE PUSH1 0x40 PUSH1 0x0 KECCAK256 DUP2 DUP2 SLOAD DUP2 LT PUSH2 0x58D JUMPI PUSH1 0x0 DUP1 REVERT JUMPDEST SWAP1 PUSH1 0x0 MSTORE PUSH1 0x20 PUSH1 0x0 KECCAK256 ADD PUSH1 0x0 SWAP3 POP SWAP3 POP POP POP SLOAD DUP2 JUMP JUMPDEST PUSH1 0x0 SLOAD PUSH1 0x1 PUSH1 0x1 PUSH1 0xA0 SHL SUB AND CALLER EQ PUSH2 0x5CD JUMPI PUSH1 0x40 MLOAD PUSH3 0x461BCD PUSH1 0xE5 SHL DUP2 MSTORE PUSH1 0x4 ADD PUSH2 0x441 SWAP1 PUSH2 0x1B5F JUMP JUMPDEST PUSH1 0x1 DUP1 SLOAD PUSH1 0x1 PUSH1 0x1 PUSH1 0xA0 SHL SUB NOT AND PUSH1 0x1 PUSH1 0x1 PUSH1 0xA0 SHL SUB SWAP3 SWAP1 SWAP3 AND SWAP2 SWAP1 SWAP2 OR SWAP1 SSTORE JUMP JUMPDEST PUSH1 0x0 DUP1 PUSH1 0x0 PUSH2 0x5FC PUSH2 0x14D1 JUMP JUMPDEST PUSH2 0x604 PUSH2 0x14D1 JUMP JUMPDEST PUSH2 0x60C PUSH2 0x14D1 JUMP JUMPDEST PUSH1 0x0 DUP8 DUP2 MSTORE PUSH1 0xB PUSH1 0x20 SWAP1 DUP2 MSTORE PUSH1 0x40 DUP1 DUP4 KECCAK256 SLOAD DUP4 MSTORE PUSH1 0xC DUP3 MSTORE DUP1 DUP4 KECCAK256 SLOAD DUP11 DUP5 MSTORE PUSH1 0x7 DUP4 MSTORE DUP2 DUP5 KECCAK256 PUSH1 0x1 SWAP1 DUP2 ADD SLOAD DUP6 MSTORE PUSH1 0x6 SWAP1 SWAP4 MSTORE SWAP1 DUP4 KECCAK256 PUSH1 0x9 ADD SLOAD DUP2 ISZERO ISZERO SWAP10 POP SWAP1 SWAP7 POP PUSH1 0x60 SWAP3 DUP4 SWAP3 SWAP1 SWAP2 PUSH1 0xA SWAP2 PUSH2 0x661 SWAP2 PUSH2 0x1C00 JUMP JUMPDEST PUSH1 0x40 DUP1 MLOAD PUSH1 0x64 DUP1 DUP3 MSTORE PUSH2 0xCA0 DUP3 ADD SWAP1 SWAP3 MSTORE SWAP2 SWAP1 SWAP3 SHL PUSH1 0x5 SWAP1 DUP2 OR SWAP4 POP SWAP2 PUSH1 0x20 DUP3 ADD PUSH2 0xC80 DUP1 CALLDATASIZE DUP4 CALLDATACOPY POP POP PUSH1 0x40 DUP1 MLOAD PUSH1 0x64 DUP1 DUP3 MSTORE PUSH2 0xCA0 DUP3 ADD SWAP1 SWAP3 MSTORE SWAP3 SWAP7 POP SWAP1 POP PUSH1 0x20 DUP3 ADD PUSH2 0xC80 DUP1 CALLDATASIZE DUP4 CALLDATACOPY POP POP POP PUSH1 0x0 DUP13 DUP2 MSTORE PUSH1 0x7 PUSH1 0x20 SWAP1 DUP2 MSTORE PUSH1 0x40 DUP1 DUP4 KECCAK256 PUSH1 0x1 SWAP1 DUP2 ADD SLOAD DUP5 MSTORE PUSH1 0x6 SWAP1 SWAP3 MSTORE DUP3 KECCAK256 ADD SLOAD DUP7 MLOAD SWAP3 SWAP6 POP SWAP2 DUP7 SWAP2 SWAP1 PUSH2 0x6E6 JUMPI PUSH2 0x6E6 PUSH2 0x1C17 JUMP JUMPDEST PUSH1 0x20 SWAP1 DUP2 MUL SWAP2 SWAP1 SWAP2 ADD DUP2 ADD SWAP2 SWAP1 SWAP2 MSTORE PUSH1 0x0 DUP13 DUP2 MSTORE PUSH1 0x7 DUP3 MSTORE PUSH1 0x40 DUP1 DUP3 KECCAK256 PUSH1 0x11 ADD SLOAD DUP3 MSTORE PUSH1 0x6 SWAP1 SWAP3 MSTORE SWAP1 DUP2 KECCAK256 PUSH1 0x1 ADD SLOAD DUP5 MLOAD SWAP1 SWAP2 DUP6 SWAP2 PUSH2 0x727 JUMPI PUSH2 0x727 PUSH2 0x1C17 JUMP JUMPDEST PUSH1 0x20 MUL PUSH1 0x20 ADD ADD DUP2 DUP2 MSTORE POP POP PUSH2 0x73B PUSH2 0x14F0 JUMP JUMPDEST PUSH1 0x0 DUP1 DUP3 MSTORE DUP13 DUP2 MSTORE PUSH1 0x7 PUSH1 0x20 SWAP1 DUP2 MSTORE PUSH1 0x40 DUP1 DUP4 KECCAK256 PUSH1 0x1 SWAP1 DUP2 ADD SLOAD DUP5 MSTORE PUSH1 0x9 DUP4 MSTORE SWAP3 DUP2 SWAP1 KECCAK256 SLOAD SWAP1 DUP5 ADD MSTORE DUP3 ADD MSTORE JUMPDEST PUSH1 0x20 DUP2 ADD MLOAD PUSH1 0x32 GT ISZERO PUSH2 0xBC0 JUMPI PUSH1 0x20 DUP2 ADD MLOAD PUSH1 0x1 DUP11 DUP3 SHR AND SWAP1 DUP9 SWAP1 PUSH1 0x64 DUP2 LT PUSH2 0x793 JUMPI PUSH2 0x793 PUSH2 0x1C17 JUMP JUMPDEST PUSH1 0x20 MUL ADD MSTORE DUP7 DUP2 PUSH1 0x1 PUSH1 0x20 MUL ADD MLOAD PUSH1 0x64 DUP2 LT PUSH2 0x7B1 JUMPI PUSH2 0x7B1 PUSH2 0x1C17 JUMP JUMPDEST PUSH1 0x20 MUL ADD MLOAD PUSH2 0x800 JUMPI PUSH1 0x40 DUP2 ADD MLOAD PUSH1 0x20 DUP3 ADD MLOAD PUSH2 0x7CF SWAP1 PUSH1 0x1 PUSH2 0x1C2D JUMP JUMPDEST DUP11 SWAP1 SHR PUSH2 0x7DC SWAP2 SWAP1 PUSH2 0x1C45 JUMP JUMPDEST DUP7 DUP3 PUSH1 0x1 JUMPDEST PUSH1 0x20 MUL ADD MLOAD PUSH1 0x64 DUP2 LT PUSH2 0x7F6 JUMPI PUSH2 0x7F6 PUSH2 0x1C17 JUMP JUMPDEST PUSH1 0x20 MUL ADD MSTORE PUSH2 0x998 JUMP JUMPDEST PUSH1 0x0 DUP13 DUP2 MSTORE PUSH1 0xA PUSH1 0x20 SWAP1 DUP2 MSTORE PUSH1 0x40 DUP1 DUP4 KECCAK256 DUP4 DUP1 MSTORE SWAP1 SWAP2 MSTORE DUP2 KECCAK256 DUP1 SLOAD SWAP1 SWAP2 SWAP1 PUSH2 0x82A JUMPI PUSH2 0x82A PUSH2 0x1C17 JUMP JUMPDEST PUSH1 0x0 SWAP2 DUP3 MSTORE PUSH1 0x20 SWAP1 SWAP2 KECCAK256 ADD SLOAD DUP7 DUP3 PUSH1 0x1 PUSH1 0x20 MUL ADD MLOAD PUSH1 0x64 DUP2 LT PUSH2 0x84F JUMPI PUSH2 0x84F PUSH2 0x1C17 JUMP JUMPDEST PUSH1 0x20 MUL ADD MSTORE PUSH1 0x5 DUP3 EQ ISZERO PUSH2 0x8C5 JUMPI PUSH1 0x3 DUP2 PUSH1 0x1 JUMPDEST PUSH1 0x20 MUL ADD MLOAD PUSH2 0x873 SWAP1 PUSH1 0x2 PUSH2 0x1C2D JUMP JUMPDEST DUP11 SWAP1 SHR PUSH2 0x880 SWAP2 SWAP1 PUSH2 0x1C45 JUMP JUMPDEST PUSH1 0x0 DUP14 DUP2 MSTORE PUSH1 0xA PUSH1 0x20 SWAP1 DUP2 MSTORE PUSH1 0x40 DUP1 DUP4 KECCAK256 DUP5 DUP5 MSTORE SWAP1 SWAP2 MSTORE DUP2 KECCAK256 DUP1 SLOAD SWAP3 SWAP6 POP SWAP1 SWAP4 POP SWAP1 DUP4 SWAP1 PUSH2 0x8B0 JUMPI PUSH2 0x8B0 PUSH2 0x1C17 JUMP JUMPDEST PUSH1 0x0 SWAP2 DUP3 MSTORE PUSH1 0x20 SWAP1 SWAP2 KECCAK256 ADD SLOAD DUP7 DUP3 PUSH1 0x1 PUSH2 0x7E1 JUMP JUMPDEST PUSH2 0x8D0 PUSH1 0x1 DUP4 PUSH2 0x1C2D JUMP JUMPDEST PUSH1 0x0 DUP14 DUP2 MSTORE PUSH1 0xA PUSH1 0x20 SWAP1 DUP2 MSTORE PUSH1 0x40 DUP1 DUP4 KECCAK256 DUP8 DUP5 MSTORE SWAP1 SWAP2 MSTORE SWAP1 KECCAK256 SLOAD SWAP1 SWAP3 POP DUP3 LT ISZERO DUP1 PUSH2 0x933 JUMPI POP PUSH1 0x0 DUP13 DUP2 MSTORE PUSH1 0xA PUSH1 0x20 SWAP1 DUP2 MSTORE PUSH1 0x40 DUP1 DUP4 KECCAK256 DUP7 DUP5 MSTORE SWAP1 SWAP2 MSTORE SWAP1 KECCAK256 DUP1 SLOAD PUSH2 0xFFF SWAP2 SWAP1 DUP5 SWAP1 DUP2 LT PUSH2 0x926 JUMPI PUSH2 0x926 PUSH2 0x1C17 JUMP JUMPDEST SWAP1 PUSH1 0x0 MSTORE PUSH1 0x20 PUSH1 0x0 KECCAK256 ADD SLOAD EQ JUMPDEST ISZERO PUSH2 0x942 JUMPI PUSH1 0x3 DUP2 PUSH1 0x1 PUSH2 0x863 JUMP JUMPDEST PUSH1 0x0 DUP13 DUP2 MSTORE PUSH1 0xA PUSH1 0x20 SWAP1 DUP2 MSTORE PUSH1 0x40 DUP1 DUP4 KECCAK256 DUP7 DUP5 MSTORE SWAP1 SWAP2 MSTORE SWAP1 KECCAK256 DUP1 SLOAD DUP4 SWAP1 DUP2 LT PUSH2 0x96D JUMPI PUSH2 0x96D PUSH2 0x1C17 JUMP JUMPDEST PUSH1 0x0 SWAP2 DUP3 MSTORE PUSH1 0x20 SWAP1 SWAP2 KECCAK256 ADD SLOAD DUP7 DUP3 PUSH1 0x1 PUSH1 0x20 MUL ADD MLOAD PUSH1 0x64 DUP2 LT PUSH2 0x992 JUMPI PUSH2 0x992 PUSH2 0x1C17 JUMP JUMPDEST PUSH1 0x20 MUL ADD MSTORE JUMPDEST PUSH1 0x1 DUP6 DUP2 DUP4 DUP2 PUSH1 0x20 MUL ADD MLOAD PUSH2 0x9AD SWAP2 SWAP1 PUSH2 0x1C00 JUMP JUMPDEST DUP2 MLOAD DUP2 LT PUSH2 0x9BD JUMPI PUSH2 0x9BD PUSH2 0x1C17 JUMP JUMPDEST PUSH1 0x20 MUL PUSH1 0x20 ADD ADD MLOAD DUP7 DUP4 PUSH1 0x1 PUSH1 0x3 DUP2 LT PUSH2 0x9D9 JUMPI PUSH2 0x9D9 PUSH2 0x1C17 JUMP JUMPDEST PUSH1 0x20 MUL ADD MLOAD DUP2 MLOAD DUP2 LT PUSH2 0x9EE JUMPI PUSH2 0x9EE PUSH2 0x1C17 JUMP JUMPDEST PUSH1 0x20 SWAP1 DUP2 MUL SWAP2 SWAP1 SWAP2 ADD ADD MSTORE DUP5 PUSH1 0x1 DUP4 DUP2 PUSH1 0x20 MUL ADD MLOAD PUSH2 0xA0D SWAP2 SWAP1 PUSH2 0x1C00 JUMP JUMPDEST DUP2 MLOAD DUP2 LT PUSH2 0xA1D JUMPI PUSH2 0xA1D PUSH2 0x1C17 JUMP JUMPDEST PUSH1 0x20 MUL PUSH1 0x20 ADD ADD MLOAD DUP6 DUP4 PUSH1 0x1 PUSH1 0x3 DUP2 LT PUSH2 0xA39 JUMPI PUSH2 0xA39 PUSH2 0x1C17 JUMP JUMPDEST PUSH1 0x20 MUL ADD MLOAD DUP2 MLOAD DUP2 LT PUSH2 0xA4E JUMPI PUSH2 0xA4E PUSH2 0x1C17 JUMP JUMPDEST PUSH1 0x20 SWAP1 DUP2 MUL SWAP2 SWAP1 SWAP2 ADD ADD MSTORE DUP8 DUP3 PUSH1 0x1 PUSH1 0x20 MUL ADD MLOAD PUSH1 0x64 DUP2 LT PUSH2 0xA72 JUMPI PUSH2 0xA72 PUSH2 0x1C17 JUMP JUMPDEST PUSH1 0x20 MUL ADD MLOAD PUSH2 0xB0B JUMPI DUP1 DUP6 DUP4 PUSH1 0x1 PUSH1 0x20 MUL ADD MLOAD DUP2 MLOAD DUP2 LT PUSH2 0xA95 JUMPI PUSH2 0xA95 PUSH2 0x1C17 JUMP JUMPDEST PUSH1 0x20 MUL PUSH1 0x20 ADD ADD MLOAD GT PUSH2 0xAD5 JUMPI PUSH1 0x1 DUP1 DUP4 MSTORE PUSH1 0x0 SWAP1 DUP7 SWAP1 DUP5 SWAP1 JUMPDEST PUSH1 0x20 MUL ADD MLOAD DUP2 MLOAD DUP2 LT PUSH2 0xAC4 JUMPI PUSH2 0xAC4 PUSH2 0x1C17 JUMP JUMPDEST PUSH1 0x20 MUL PUSH1 0x20 ADD ADD DUP2 DUP2 MSTORE POP POP PUSH2 0xB75 JUMP JUMPDEST DUP1 DUP6 DUP4 PUSH1 0x1 PUSH1 0x20 MUL ADD MLOAD DUP2 MLOAD DUP2 LT PUSH2 0xAEF JUMPI PUSH2 0xAEF PUSH2 0x1C17 JUMP JUMPDEST PUSH1 0x20 MUL PUSH1 0x20 ADD ADD DUP2 DUP2 MLOAD PUSH2 0xB03 SWAP2 SWAP1 PUSH2 0x1C00 JUMP JUMPDEST SWAP1 MSTORE POP PUSH2 0xB75 JUMP JUMPDEST DUP1 DUP7 DUP4 PUSH1 0x1 PUSH1 0x20 MUL ADD MLOAD DUP2 MLOAD DUP2 LT PUSH2 0xB25 JUMPI PUSH2 0xB25 PUSH2 0x1C17 JUMP JUMPDEST PUSH1 0x20 MUL PUSH1 0x20 ADD ADD MLOAD GT PUSH2 0xB43 JUMPI PUSH1 0x1 DUP1 DUP4 MSTORE PUSH1 0x0 SWAP1 DUP8 SWAP1 DUP5 SWAP1 PUSH2 0xAAF JUMP JUMPDEST DUP1 DUP7 DUP4 PUSH1 0x1 PUSH1 0x20 MUL ADD MLOAD DUP2 MLOAD DUP2 LT PUSH2 0xB5D JUMPI PUSH2 0xB5D PUSH2 0x1C17 JUMP JUMPDEST PUSH1 0x20 MUL PUSH1 0x20 ADD ADD DUP2 DUP2 MLOAD PUSH2 0xB71 SWAP2 SWAP1 PUSH2 0x1C00 JUMP JUMPDEST SWAP1 MSTORE POP JUMPDEST DUP2 MLOAD PUSH1 0x1 EQ ISZERO PUSH2 0xBA9 JUMPI PUSH1 0x1 DUP10 DUP4 DUP3 PUSH1 0x20 MUL ADD MLOAD PUSH1 0x64 DUP2 LT PUSH2 0xB99 JUMPI PUSH2 0xB99 PUSH2 0x1C17 JUMP JUMPDEST SWAP2 ISZERO ISZERO PUSH1 0x20 SWAP1 SWAP3 MUL ADD MSTORE POP PUSH2 0xBC0 JUMP JUMPDEST POP PUSH1 0x20 DUP2 ADD DUP1 MLOAD PUSH2 0xBB9 SWAP1 PUSH2 0x1BAA JUMP JUMPDEST SWAP1 MSTORE PUSH2 0x768 JUMP JUMPDEST PUSH1 0x20 DUP2 ADD MLOAD PUSH1 0x32 GT PUSH2 0xC06 JUMPI PUSH1 0x1 DUP9 PUSH2 0xBDA DUP3 PUSH1 0x32 PUSH2 0x1C00 JUMP JUMPDEST PUSH1 0x64 DUP2 LT PUSH2 0xBEA JUMPI PUSH2 0xBEA PUSH2 0x1C17 JUMP JUMPDEST SWAP2 ISZERO ISZERO PUSH1 0x20 SWAP1 SWAP3 MUL ADD MSTORE PUSH2 0xC00 PUSH1 0x1 PUSH1 0x32 PUSH2 0x1C00 JUMP JUMPDEST PUSH1 0x20 DUP3 ADD MSTORE JUMPDEST DUP4 DUP2 PUSH1 0x1 PUSH1 0x20 MUL ADD MLOAD DUP2 MLOAD DUP2 LT PUSH2 0xC1F JUMPI PUSH2 0xC1F PUSH2 0x1C17 JUMP JUMPDEST PUSH1 0x20 MUL PUSH1 0x20 ADD ADD MLOAD DUP6 DUP3 PUSH1 0x1 PUSH1 0x3 DUP2 LT PUSH2 0xC3B JUMPI PUSH2 0xC3B PUSH2 0x1C17 JUMP JUMPDEST PUSH1 0x20 MUL ADD MLOAD DUP2 MLOAD DUP2 LT PUSH2 0xC50 JUMPI PUSH2 0xC50 PUSH2 0x1C17 JUMP JUMPDEST PUSH1 0x20 MUL PUSH1 0x20 ADD ADD MLOAD LT SWAP10 POP POP POP POP SWAP2 SWAP4 SWAP6 SWAP8 POP SWAP2 SWAP4 SWAP6 SWAP8 JUMP JUMPDEST PUSH1 0x1 SLOAD PUSH1 0x40 MLOAD PUSH4 0x31A9108F PUSH1 0xE1 SHL DUP2 MSTORE PUSH1 0x4 DUP2 ADD DUP6 SWAP1 MSTORE PUSH1 0x0 SWAP2 CALLER SWAP2 PUSH1 0x1 PUSH1 0x1 PUSH1 0xA0 SHL SUB SWAP1 SWAP2 AND SWAP1 PUSH4 0x6352211E SWAP1 PUSH1 0x24 ADD PUSH1 0x20 PUSH1 0x40 MLOAD DUP1 DUP4 SUB DUP2 DUP7 DUP1 EXTCODESIZE ISZERO DUP1 ISZERO PUSH2 0xCB2 JUMPI PUSH1 0x0 DUP1 REVERT JUMPDEST POP GAS STATICCALL ISZERO DUP1 ISZERO PUSH2 0xCC6 JUMPI RETURNDATASIZE PUSH1 0x0 DUP1 RETURNDATACOPY RETURNDATASIZE PUSH1 0x0 REVERT JUMPDEST POP POP POP POP PUSH1 0x40 MLOAD RETURNDATASIZE PUSH1 0x1F NOT PUSH1 0x1F DUP3 ADD AND DUP3 ADD DUP1 PUSH1 0x40 MSTORE POP DUP2 ADD SWAP1 PUSH2 0xCEA SWAP2 SWAP1 PUSH2 0x1C67 JUMP JUMPDEST PUSH1 0x1 PUSH1 0x1 PUSH1 0xA0 SHL SUB AND EQ PUSH2 0xD51 JUMPI PUSH1 0x40 MLOAD PUSH3 0x461BCD PUSH1 0xE5 SHL DUP2 MSTORE PUSH1 0x20 PUSH1 0x4 DUP3 ADD MSTORE PUSH1 0x28 PUSH1 0x24 DUP3 ADD MSTORE PUSH32 0x4F6E6C7920746F6B656E206F776E65722063616E2063616C6C2074686973206D PUSH1 0x44 DUP3 ADD MSTORE PUSH8 0x6574686F64212121 PUSH1 0xC0 SHL PUSH1 0x64 DUP3 ADD MSTORE PUSH1 0x84 ADD PUSH2 0x441 JUMP JUMPDEST PUSH1 0x1 SLOAD PUSH1 0x40 MLOAD PUSH4 0xBB86E8CD PUSH1 0xE0 SHL DUP2 MSTORE PUSH1 0x4 DUP2 ADD DUP7 SWAP1 MSTORE PUSH1 0x0 SWAP2 PUSH1 0x2 SWAP2 PUSH1 0x1 PUSH1 0x1 PUSH1 0xA0 SHL SUB SWAP1 SWAP2 AND SWAP1 PUSH4 0xBB86E8CD SWAP1 PUSH1 0x24 ADD PUSH1 0x20 PUSH1 0x40 MLOAD DUP1 DUP4 SUB DUP2 DUP7 DUP1 EXTCODESIZE ISZERO DUP1 ISZERO PUSH2 0xD9B JUMPI PUSH1 0x0 DUP1 REVERT JUMPDEST POP GAS STATICCALL ISZERO DUP1 ISZERO PUSH2 0xDAF JUMPI RETURNDATASIZE PUSH1 0x0 DUP1 RETURNDATACOPY RETURNDATASIZE PUSH1 0x0 REVERT JUMPDEST POP POP POP POP PUSH1 0x40 MLOAD RETURNDATASIZE PUSH1 0x1F NOT PUSH1 0x1F DUP3 ADD AND DUP3 ADD DUP1 PUSH1 0x40 MSTORE POP DUP2 ADD SWAP1 PUSH2 0xDD3 SWAP2 SWAP1 PUSH2 0x1B46 JUMP JUMPDEST PUSH2 0xDDD SWAP2 SWAP1 PUSH2 0x1C2D JUMP JUMPDEST SWAP1 POP PUSH1 0x2 SLOAD DUP2 LT PUSH2 0xE40 JUMPI PUSH1 0x40 MLOAD PUSH3 0x461BCD PUSH1 0xE5 SHL DUP2 MSTORE PUSH1 0x20 PUSH1 0x4 DUP3 ADD MSTORE PUSH1 0x27 PUSH1 0x24 DUP3 ADD MSTORE PUSH32 0x54686174206C6576656C20686173206E6F7420796574206265656E2063726561 PUSH1 0x44 DUP3 ADD MSTORE PUSH7 0x74656420212121 PUSH1 0xC8 SHL PUSH1 0x64 DUP3 ADD MSTORE PUSH1 0x84 ADD PUSH2 0x441 JUMP JUMPDEST PUSH1 0x2 SLOAD DUP5 LT DUP1 ISZERO PUSH2 0xE51 JUMPI POP DUP1 DUP5 GT ISZERO JUMPDEST PUSH2 0xE9D JUMPI PUSH1 0x40 MLOAD PUSH3 0x461BCD PUSH1 0xE5 SHL DUP2 MSTORE PUSH1 0x20 PUSH1 0x4 DUP3 ADD DUP2 SWAP1 MSTORE PUSH1 0x24 DUP3 ADD MSTORE PUSH32 0x596F752063616E6E6F74207573652074686174206D6F6E737465722021212120 PUSH1 0x44 DUP3 ADD MSTORE PUSH1 0x64 ADD PUSH2 0x441 JUMP JUMPDEST PUSH2 0xEA5 PUSH2 0x150E JUMP JUMPDEST PUSH1 0x4 SLOAD PUSH1 0x40 DUP1 MLOAD PUSH1 0xA0 DUP2 ADD DUP3 MSTORE DUP9 DUP2 MSTORE PUSH1 0x20 DUP1 DUP3 ADD DUP7 DUP2 MSTORE DUP3 DUP5 ADD DUP7 DUP2 MSTORE PUSH1 0x60 DUP5 ADD DUP12 SWAP1 MSTORE PUSH1 0x80 DUP5 ADD DUP11 SWAP1 MSTORE PUSH1 0x0 DUP7 DUP2 MSTORE PUSH1 0x7 SWAP1 SWAP4 MSTORE SWAP4 SWAP1 SWAP2 KECCAK256 DUP3 MLOAD DUP2 SSTORE SWAP1 MLOAD PUSH1 0x1 DUP3 ADD SSTORE SWAP2 MLOAD SWAP3 SWAP6 POP SWAP2 PUSH2 0xF00 SWAP1 PUSH1 0x2 DUP4 ADD SWAP1 PUSH1 0x5 PUSH2 0x153B JUMP JUMPDEST POP PUSH1 0x60 DUP3 ADD MLOAD PUSH1 0x11 DUP3 ADD SSTORE PUSH1 0x80 DUP3 ADD MLOAD PUSH2 0xF20 SWAP1 PUSH1 0x12 DUP4 ADD SWAP1 PUSH1 0x5 PUSH2 0x153B JUMP JUMPDEST POP SWAP1 POP POP PUSH1 0x0 JUMPDEST PUSH1 0x3 DUP2 LT ISZERO PUSH2 0xFEC JUMPI PUSH1 0x40 DUP1 MLOAD PUSH1 0x0 DUP1 DUP3 MSTORE PUSH1 0x20 DUP1 DUP4 ADD DUP1 DUP6 MSTORE DUP9 DUP4 MSTORE PUSH1 0xA DUP3 MSTORE DUP5 DUP4 KECCAK256 DUP7 DUP5 MSTORE SWAP1 SWAP2 MSTORE SWAP3 SWAP1 KECCAK256 SWAP1 MLOAD PUSH2 0xF60 SWAP3 SWAP1 PUSH2 0x1582 JUMP JUMPDEST POP PUSH1 0x0 JUMPDEST PUSH1 0x5 DUP2 LT ISZERO PUSH2 0xFDB JUMPI PUSH1 0x0 DUP6 DUP2 MSTORE PUSH1 0xA PUSH1 0x20 SWAP1 DUP2 MSTORE PUSH1 0x40 DUP1 DUP4 KECCAK256 DUP6 DUP5 MSTORE SWAP1 SWAP2 MSTORE SWAP1 KECCAK256 DUP7 DUP3 PUSH1 0x5 DUP2 LT PUSH2 0xF98 JUMPI PUSH2 0xF98 PUSH2 0x1C17 JUMP JUMPDEST PUSH1 0x20 MUL ADD MLOAD DUP4 PUSH1 0x3 DUP2 LT PUSH2 0xFAE JUMPI PUSH2 0xFAE PUSH2 0x1C17 JUMP JUMPDEST PUSH1 0x20 SWAP1 DUP2 MUL SWAP2 SWAP1 SWAP2 ADD MLOAD DUP3 SLOAD PUSH1 0x1 DUP2 ADD DUP5 SSTORE PUSH1 0x0 SWAP4 DUP5 MSTORE SWAP2 SWAP1 SWAP3 KECCAK256 ADD SSTORE PUSH2 0xFD4 DUP2 PUSH2 0x1BAA JUMP JUMPDEST SWAP1 POP PUSH2 0xF64 JUMP JUMPDEST POP PUSH2 0xFE5 DUP2 PUSH2 0x1BAA JUMP JUMPDEST SWAP1 POP PUSH2 0xF27 JUMP JUMPDEST POP PUSH1 0x4 SLOAD PUSH1 0x0 DUP5 DUP2 MSTORE PUSH1 0xB PUSH1 0x20 MSTORE PUSH1 0x40 SWAP1 KECCAK256 SSTORE PUSH2 0x1008 DUP4 PUSH2 0x136C JUMP JUMPDEST PUSH1 0x0 PUSH2 0x1013 DUP5 PUSH2 0x5EF JUMP JUMPDEST POP POP POP POP POP POP SWAP2 POP POP DUP1 ISZERO PUSH2 0x102B JUMPI PUSH2 0x102B DUP8 PUSH2 0x13CB JUMP JUMPDEST PUSH1 0x1 PUSH1 0x4 PUSH1 0x0 DUP3 DUP3 SLOAD PUSH2 0x103E SWAP2 SWAP1 PUSH2 0x1C2D JUMP JUMPDEST SWAP1 SWAP2 SSTORE POP SWAP4 SWAP8 SWAP7 POP POP POP POP POP POP POP JUMP JUMPDEST PUSH1 0x0 SLOAD PUSH1 0x1 PUSH1 0x1 PUSH1 0xA0 SHL SUB AND CALLER EQ PUSH2 0x1078 JUMPI PUSH1 0x40 MLOAD PUSH3 0x461BCD PUSH1 0xE5 SHL DUP2 MSTORE PUSH1 0x4 ADD PUSH2 0x441 SWAP1 PUSH2 0x1B5F JUMP JUMPDEST PUSH1 0x0 DUP1 JUMPDEST PUSH1 0x5 DUP2 LT ISZERO PUSH2 0x1170 JUMPI PUSH1 0x3 SLOAD DUP4 DUP3 PUSH1 0x5 DUP2 LT PUSH2 0x109A JUMPI PUSH2 0x109A PUSH2 0x1C17 JUMP JUMPDEST PUSH1 0x20 MUL ADD MLOAD LT DUP1 PUSH2 0x10C2 JUMPI POP PUSH2 0xFFF DUP4 DUP3 PUSH1 0x5 DUP2 LT PUSH2 0x10BB JUMPI PUSH2 0x10BB PUSH2 0x1C17 JUMP JUMPDEST PUSH1 0x20 MUL ADD MLOAD EQ JUMPDEST PUSH2 0x1127 JUMPI PUSH1 0x40 MLOAD PUSH3 0x461BCD PUSH1 0xE5 SHL DUP2 MSTORE PUSH1 0x20 PUSH1 0x4 DUP3 ADD MSTORE PUSH1 0x30 PUSH1 0x24 DUP3 ADD MSTORE PUSH32 0x536B696C6C2068617320656974686572206E6F74206265656E20637265617465 PUSH1 0x44 DUP3 ADD MSTORE PUSH16 0x19081BDC881A5CC81B9BDD081D5CD959 PUSH1 0x82 SHL PUSH1 0x64 DUP3 ADD MSTORE PUSH1 0x84 ADD PUSH2 0x441 JUMP JUMPDEST PUSH2 0xFFF DUP4 DUP3 PUSH1 0x5 DUP2 LT PUSH2 0x113C JUMPI PUSH2 0x113C PUSH2 0x1C17 JUMP JUMPDEST PUSH1 0x20 MUL ADD MLOAD EQ ISZERO PUSH2 0x114E JUMPI PUSH1 0x0 PUSH2 0x1151 JUMP JUMPDEST PUSH1 0x1 JUMPDEST PUSH2 0x115E SWAP1 PUSH1 0xFF AND DUP4 PUSH2 0x1C2D JUMP JUMPDEST SWAP2 POP PUSH2 0x1169 DUP2 PUSH2 0x1BAA JUMP JUMPDEST SWAP1 POP PUSH2 0x107C JUMP JUMPDEST POP PUSH1 0x0 DUP2 GT PUSH2 0x11CD JUMPI PUSH1 0x40 MLOAD PUSH3 0x461BCD PUSH1 0xE5 SHL DUP2 MSTORE PUSH1 0x20 PUSH1 0x4 DUP3 ADD MSTORE PUSH1 0x23 PUSH1 0x24 DUP3 ADD MSTORE PUSH32 0x4D6F6E73746572206D75737420757365206174206C65617374206F6E6520736B PUSH1 0x44 DUP3 ADD MSTORE PUSH3 0x1A5B1B PUSH1 0xEA SHL PUSH1 0x64 DUP3 ADD MSTORE PUSH1 0x84 ADD PUSH2 0x441 JUMP JUMPDEST PUSH1 0x40 DUP1 MLOAD PUSH1 0xC0 DUP2 ADD DUP3 MSTORE DUP8 DUP2 MSTORE PUSH1 0x20 DUP1 DUP3 ADD DUP9 SWAP1 MSTORE DUP2 DUP4 ADD DUP8 SWAP1 MSTORE PUSH1 0x60 DUP3 ADD DUP7 SWAP1 MSTORE PUSH1 0x80 DUP3 ADD DUP6 SWAP1 MSTORE PUSH1 0xA0 DUP3 ADD DUP5 SWAP1 MSTORE PUSH1 0x2 SLOAD PUSH1 0x0 SWAP1 DUP2 MSTORE PUSH1 0x6 DUP3 MSTORE SWAP3 SWAP1 SWAP3 KECCAK256 DUP2 MLOAD DUP1 MLOAD SWAP3 SWAP4 DUP5 SWAP4 PUSH2 0x1222 SWAP3 DUP5 SWAP3 ADD SWAP1 PUSH2 0x144D JUMP JUMPDEST POP PUSH1 0x20 DUP3 ADD MLOAD PUSH1 0x1 DUP3 ADD SSTORE PUSH1 0x40 DUP3 ADD MLOAD PUSH1 0x2 DUP3 ADD SSTORE PUSH1 0x60 DUP3 ADD MLOAD PUSH1 0x3 DUP3 ADD SSTORE PUSH1 0x80 DUP3 ADD MLOAD PUSH2 0x1256 SWAP1 PUSH1 0x4 DUP4 ADD SWAP1 PUSH1 0x5 PUSH2 0x15BC JUMP JUMPDEST POP PUSH1 0xA0 SWAP2 SWAP1 SWAP2 ADD MLOAD PUSH1 0x9 SWAP1 SWAP2 ADD SSTORE PUSH1 0x80 DUP2 ADD MLOAD PUSH1 0x2 SLOAD PUSH1 0x0 SWAP1 DUP2 MSTORE PUSH1 0x8 PUSH1 0x20 MSTORE PUSH1 0x40 SWAP1 KECCAK256 PUSH2 0x1285 SWAP2 PUSH1 0x5 PUSH2 0x15BC JUMP JUMPDEST POP PUSH1 0x2 DUP1 SLOAD PUSH1 0x0 SWAP1 DUP2 MSTORE PUSH1 0x9 PUSH1 0x20 MSTORE PUSH1 0x40 DUP2 KECCAK256 DUP5 SWAP1 SSTORE DUP2 SLOAD SWAP2 SWAP1 PUSH2 0x12A8 DUP4 PUSH2 0x1BAA JUMP JUMPDEST SWAP2 SWAP1 POP SSTORE POP POP POP POP POP POP POP POP JUMP JUMPDEST PUSH1 0x6 PUSH1 0x20 MSTORE PUSH1 0x0 SWAP1 DUP2 MSTORE PUSH1 0x40 SWAP1 KECCAK256 DUP1 SLOAD DUP2 SWAP1 PUSH2 0x12D1 SWAP1 PUSH2 0x1BC5 JUMP JUMPDEST DUP1 PUSH1 0x1F ADD PUSH1 0x20 DUP1 SWAP2 DIV MUL PUSH1 0x20 ADD PUSH1 0x40 MLOAD SWAP1 DUP2 ADD PUSH1 0x40 MSTORE DUP1 SWAP3 SWAP2 SWAP1 DUP2 DUP2 MSTORE PUSH1 0x20 ADD DUP3 DUP1 SLOAD PUSH2 0x12FD SWAP1 PUSH2 0x1BC5 JUMP JUMPDEST DUP1 ISZERO PUSH2 0x134A JUMPI DUP1 PUSH1 0x1F LT PUSH2 0x131F JUMPI PUSH2 0x100 DUP1 DUP4 SLOAD DIV MUL DUP4 MSTORE SWAP2 PUSH1 0x20 ADD SWAP2 PUSH2 0x134A JUMP JUMPDEST DUP3 ADD SWAP2 SWAP1 PUSH1 0x0 MSTORE PUSH1 0x20 PUSH1 0x0 KECCAK256 SWAP1 JUMPDEST DUP2 SLOAD DUP2 MSTORE SWAP1 PUSH1 0x1 ADD SWAP1 PUSH1 0x20 ADD DUP1 DUP4 GT PUSH2 0x132D JUMPI DUP3 SWAP1 SUB PUSH1 0x1F AND DUP3 ADD SWAP2 JUMPDEST POP POP POP POP POP SWAP1 DUP1 PUSH1 0x1 ADD SLOAD SWAP1 DUP1 PUSH1 0x2 ADD SLOAD SWAP1 DUP1 PUSH1 0x3 ADD SLOAD SWAP1 DUP1 PUSH1 0x9 ADD SLOAD SWAP1 POP DUP6 JUMP JUMPDEST PUSH1 0x0 PUSH2 0x1379 DUP3 PUSH1 0xD PUSH2 0x1C84 JUMP JUMPDEST PUSH1 0x40 DUP1 MLOAD NUMBER BLOCKHASH PUSH1 0x20 DUP3 ADD MSTORE ADD PUSH1 0x40 MLOAD PUSH1 0x20 DUP2 DUP4 SUB SUB DUP2 MSTORE SWAP1 PUSH1 0x40 MSTORE DUP1 MLOAD SWAP1 PUSH1 0x20 ADD KECCAK256 PUSH1 0x0 SHR PUSH2 0x13A8 SWAP2 SWAP1 PUSH2 0x1C2D JUMP JUMPDEST PUSH1 0x0 SWAP3 DUP4 MSTORE PUSH1 0xB PUSH1 0x20 SWAP1 DUP2 MSTORE PUSH1 0x40 DUP1 DUP6 KECCAK256 SLOAD DUP6 MSTORE PUSH1 0xC SWAP1 SWAP2 MSTORE SWAP1 SWAP3 KECCAK256 SWAP2 SWAP1 SWAP2 SSTORE POP JUMP JUMPDEST PUSH1 0x1 SLOAD PUSH1 0x40 MLOAD PUSH4 0x6748761 PUSH1 0xE1 SHL DUP2 MSTORE PUSH1 0x4 DUP2 ADD DUP4 SWAP1 MSTORE PUSH1 0x1 PUSH1 0x1 PUSH1 0xA0 SHL SUB SWAP1 SWAP2 AND SWAP1 PUSH4 0xCE90EC2 SWAP1 PUSH1 0x24 ADD PUSH1 0x20 PUSH1 0x40 MLOAD DUP1 DUP4 SUB DUP2 PUSH1 0x0 DUP8 DUP1 EXTCODESIZE ISZERO DUP1 ISZERO PUSH2 0x1411 JUMPI PUSH1 0x0 DUP1 REVERT JUMPDEST POP GAS CALL ISZERO DUP1 ISZERO PUSH2 0x1425 JUMPI RETURNDATASIZE PUSH1 0x0 DUP1 RETURNDATACOPY RETURNDATASIZE PUSH1 0x0 REVERT JUMPDEST POP POP POP POP PUSH1 0x40 MLOAD RETURNDATASIZE PUSH1 0x1F NOT PUSH1 0x1F DUP3 ADD AND DUP3 ADD DUP1 PUSH1 0x40 MSTORE POP DUP2 ADD SWAP1 PUSH2 0x1449 SWAP2 SWAP1 PUSH2 0x1CA3 JUMP JUMPDEST POP POP JUMP JUMPDEST DUP3 DUP1 SLOAD PUSH2 0x1459 SWAP1 PUSH2 0x1BC5 JUMP JUMPDEST SWAP1 PUSH1 0x0 MSTORE PUSH1 0x20 PUSH1 0x0 KECCAK256 SWAP1 PUSH1 0x1F ADD PUSH1 0x20 SWAP1 DIV DUP2 ADD SWAP3 DUP3 PUSH2 0x147B JUMPI PUSH1 0x0 DUP6 SSTORE PUSH2 0x14C1 JUMP JUMPDEST DUP3 PUSH1 0x1F LT PUSH2 0x1494 JUMPI DUP1 MLOAD PUSH1 0xFF NOT AND DUP4 DUP1 ADD OR DUP6 SSTORE PUSH2 0x14C1 JUMP JUMPDEST DUP3 DUP1 ADD PUSH1 0x1 ADD DUP6 SSTORE DUP3 ISZERO PUSH2 0x14C1 JUMPI SWAP2 DUP3 ADD JUMPDEST DUP3 DUP2 GT ISZERO PUSH2 0x14C1 JUMPI DUP3 MLOAD DUP3 SSTORE SWAP2 PUSH1 0x20 ADD SWAP2 SWAP1 PUSH1 0x1 ADD SWAP1 PUSH2 0x14A6 JUMP JUMPDEST POP PUSH2 0x14CD SWAP3 SWAP2 POP PUSH2 0x15E9 JUMP JUMPDEST POP SWAP1 JUMP JUMPDEST PUSH1 0x40 MLOAD DUP1 PUSH2 0xC80 ADD PUSH1 0x40 MSTORE DUP1 PUSH1 0x64 SWAP1 PUSH1 0x20 DUP3 MUL DUP1 CALLDATASIZE DUP4 CALLDATACOPY POP SWAP2 SWAP3 SWAP2 POP POP JUMP JUMPDEST PUSH1 0x40 MLOAD DUP1 PUSH1 0x60 ADD PUSH1 0x40 MSTORE DUP1 PUSH1 0x3 SWAP1 PUSH1 0x20 DUP3 MUL DUP1 CALLDATASIZE DUP4 CALLDATACOPY POP SWAP2 SWAP3 SWAP2 POP POP JUMP JUMPDEST PUSH1 0x40 MLOAD DUP1 PUSH1 0xA0 ADD PUSH1 0x40 MSTORE DUP1 PUSH1 0x5 SWAP1 JUMPDEST PUSH2 0x1525 PUSH2 0x14F0 JUMP JUMPDEST DUP2 MSTORE PUSH1 0x20 ADD SWAP1 PUSH1 0x1 SWAP1 SUB SWAP1 DUP2 PUSH2 0x151D JUMPI SWAP1 POP POP SWAP1 JUMP JUMPDEST PUSH1 0xF DUP4 ADD SWAP2 DUP4 SWAP1 DUP3 ISZERO PUSH2 0x1576 JUMPI SWAP2 PUSH1 0x20 MUL DUP3 ADD JUMPDEST DUP3 DUP2 GT ISZERO PUSH2 0x1576 JUMPI DUP3 MLOAD PUSH2 0x1566 SWAP1 DUP4 SWAP1 PUSH1 0x3 PUSH2 0x15FE JUMP JUMPDEST POP SWAP2 PUSH1 0x20 ADD SWAP2 SWAP1 PUSH1 0x3 ADD SWAP1 PUSH2 0x154F JUMP JUMPDEST POP PUSH2 0x14CD SWAP3 SWAP2 POP PUSH2 0x162B JUMP JUMPDEST DUP3 DUP1 SLOAD DUP3 DUP3 SSTORE SWAP1 PUSH1 0x0 MSTORE PUSH1 0x20 PUSH1 0x0 KECCAK256 SWAP1 DUP2 ADD SWAP3 DUP3 ISZERO PUSH2 0x14C1 JUMPI SWAP2 PUSH1 0x20 MUL DUP3 ADD DUP3 DUP2 GT ISZERO PUSH2 0x14C1 JUMPI DUP3 MLOAD DUP3 SSTORE SWAP2 PUSH1 0x20 ADD SWAP2 SWAP1 PUSH1 0x1 ADD SWAP1 PUSH2 0x14A6 JUMP JUMPDEST DUP3 PUSH1 0x5 DUP2 ADD SWAP3 DUP3 ISZERO PUSH2 0x14C1 JUMPI SWAP2 PUSH1 0x20 MUL DUP3 ADD DUP3 DUP2 GT ISZERO PUSH2 0x14C1 JUMPI DUP3 MLOAD DUP3 SSTORE SWAP2 PUSH1 0x20 ADD SWAP2 SWAP1 PUSH1 0x1 ADD SWAP1 PUSH2 0x14A6 JUMP JUMPDEST JUMPDEST DUP1 DUP3 GT ISZERO PUSH2 0x14CD JUMPI PUSH1 0x0 DUP2 SSTORE PUSH1 0x1 ADD PUSH2 0x15EA JUMP JUMPDEST DUP3 PUSH1 0x3 DUP2 ADD SWAP3 DUP3 ISZERO PUSH2 0x14C1 JUMPI SWAP2 PUSH1 0x20 MUL DUP3 ADD DUP3 DUP2 GT ISZERO PUSH2 0x14C1 JUMPI DUP3 MLOAD DUP3 SSTORE SWAP2 PUSH1 0x20 ADD SWAP2 SWAP1 PUSH1 0x1 ADD SWAP1 PUSH2 0x14A6 JUMP JUMPDEST DUP1 DUP3 GT ISZERO PUSH2 0x14CD JUMPI PUSH1 0x0 DUP1 DUP3 SSTORE PUSH1 0x1 DUP3 ADD DUP2 SWAP1 SSTORE PUSH1 0x2 DUP3 ADD SSTORE PUSH1 0x3 ADD PUSH2 0x162B JUMP JUMPDEST PUSH1 0x0 DUP1 PUSH1 0x40 DUP4 DUP6 SUB SLT ISZERO PUSH2 0x165F JUMPI PUSH1 0x0 DUP1 REVERT JUMPDEST POP POP DUP1 CALLDATALOAD SWAP3 PUSH1 0x20 SWAP1 SWAP2 ADD CALLDATALOAD SWAP2 POP JUMP JUMPDEST PUSH4 0x4E487B71 PUSH1 0xE0 SHL PUSH1 0x0 MSTORE PUSH1 0x41 PUSH1 0x4 MSTORE PUSH1 0x24 PUSH1 0x0 REVERT JUMPDEST PUSH1 0x40 MLOAD PUSH1 0xA0 DUP2 ADD PUSH8 0xFFFFFFFFFFFFFFFF DUP2 GT DUP3 DUP3 LT OR ISZERO PUSH2 0x16A7 JUMPI PUSH2 0x16A7 PUSH2 0x166E JUMP JUMPDEST PUSH1 0x40 MSTORE SWAP1 JUMP JUMPDEST PUSH1 0x0 DUP3 PUSH1 0x1F DUP4 ADD SLT PUSH2 0x16BE JUMPI PUSH1 0x0 DUP1 REVERT JUMPDEST DUP2 CALLDATALOAD PUSH8 0xFFFFFFFFFFFFFFFF DUP1 DUP3 GT ISZERO PUSH2 0x16D9 JUMPI PUSH2 0x16D9 PUSH2 0x166E JUMP JUMPDEST PUSH1 0x40 MLOAD PUSH1 0x1F DUP4 ADD PUSH1 0x1F NOT SWAP1 DUP2 AND PUSH1 0x3F ADD AND DUP2 ADD SWAP1 DUP3 DUP3 GT DUP2 DUP4 LT OR ISZERO PUSH2 0x1701 JUMPI PUSH2 0x1701 PUSH2 0x166E JUMP JUMPDEST DUP2 PUSH1 0x40 MSTORE DUP4 DUP2 MSTORE DUP7 PUSH1 0x20 DUP6 DUP9 ADD ADD GT ISZERO PUSH2 0x171A JUMPI PUSH1 0x0 DUP1 REVERT JUMPDEST DUP4 PUSH1 0x20 DUP8 ADD PUSH1 0x20 DUP4 ADD CALLDATACOPY PUSH1 0x0 PUSH1 0x20 DUP6 DUP4 ADD ADD MSTORE DUP1 SWAP5 POP POP POP POP POP SWAP3 SWAP2 POP POP JUMP JUMPDEST PUSH1 0x0 DUP1 PUSH1 0x0 PUSH1 0x60 DUP5 DUP7 SUB SLT ISZERO PUSH2 0x174F JUMPI PUSH1 0x0 DUP1 REVERT JUMPDEST DUP4 CALLDATALOAD PUSH8 0xFFFFFFFFFFFFFFFF DUP2 GT ISZERO PUSH2 0x1766 JUMPI PUSH1 0x0 DUP1 REVERT JUMPDEST PUSH2 0x1772 DUP7 DUP3 DUP8 ADD PUSH2 0x16AD JUMP JUMPDEST SWAP7 PUSH1 0x20 DUP7 ADD CALLDATALOAD SWAP7 POP PUSH1 0x40 SWAP1 SWAP6 ADD CALLDATALOAD SWAP5 SWAP4 POP POP POP POP JUMP JUMPDEST PUSH1 0x0 PUSH1 0x20 DUP3 DUP5 SUB SLT ISZERO PUSH2 0x179A JUMPI PUSH1 0x0 DUP1 REVERT JUMPDEST POP CALLDATALOAD SWAP2 SWAP1 POP JUMP JUMPDEST PUSH1 0x0 DUP2 MLOAD DUP1 DUP5 MSTORE PUSH1 0x0 JUMPDEST DUP2 DUP2 LT ISZERO PUSH2 0x17C7 JUMPI PUSH1 0x20 DUP2 DUP6 ADD DUP2 ADD MLOAD DUP7 DUP4 ADD DUP3 ADD MSTORE ADD PUSH2 0x17AB JUMP JUMPDEST DUP2 DUP2 GT ISZERO PUSH2 0x17D9 JUMPI PUSH1 0x0 PUSH1 0x20 DUP4 DUP8 ADD ADD MSTORE JUMPDEST POP PUSH1 0x1F ADD PUSH1 0x1F NOT AND SWAP3 SWAP1 SWAP3 ADD PUSH1 0x20 ADD SWAP3 SWAP2 POP POP JUMP JUMPDEST PUSH1 0x60 DUP2 MSTORE PUSH1 0x0 PUSH2 0x1801 PUSH1 0x60 DUP4 ADD DUP7 PUSH2 0x17A1 JUMP JUMPDEST PUSH1 0x20 DUP4 ADD SWAP5 SWAP1 SWAP5 MSTORE POP PUSH1 0x40 ADD MSTORE SWAP2 SWAP1 POP JUMP JUMPDEST PUSH1 0x0 DUP1 PUSH1 0x0 PUSH1 0x60 DUP5 DUP7 SUB SLT ISZERO PUSH2 0x1828 JUMPI PUSH1 0x0 DUP1 REVERT JUMPDEST POP POP DUP2 CALLDATALOAD SWAP4 PUSH1 0x20 DUP4 ADD CALLDATALOAD SWAP4 POP PUSH1 0x40 SWAP1 SWAP3 ADD CALLDATALOAD SWAP2 SWAP1 POP JUMP JUMPDEST PUSH1 0x1 PUSH1 0x1 PUSH1 0xA0 SHL SUB DUP2 AND DUP2 EQ PUSH2 0x414 JUMPI PUSH1 0x0 DUP1 REVERT JUMPDEST PUSH1 0x0 PUSH1 0x20 DUP3 DUP5 SUB SLT ISZERO PUSH2 0x1866 JUMPI PUSH1 0x0 DUP1 REVERT JUMPDEST DUP2 CALLDATALOAD PUSH2 0x1871 DUP2 PUSH2 0x183F JUMP JUMPDEST SWAP4 SWAP3 POP POP POP JUMP JUMPDEST DUP1 PUSH1 0x0 JUMPDEST PUSH1 0x64 DUP2 LT ISZERO PUSH2 0x189B JUMPI DUP2 MLOAD DUP5 MSTORE PUSH1 0x20 SWAP4 DUP5 ADD SWAP4 SWAP1 SWAP2 ADD SWAP1 PUSH1 0x1 ADD PUSH2 0x187C JUMP JUMPDEST POP POP POP POP JUMP JUMPDEST PUSH1 0x0 DUP2 MLOAD DUP1 DUP5 MSTORE PUSH1 0x20 DUP1 DUP6 ADD SWAP5 POP DUP1 DUP5 ADD PUSH1 0x0 JUMPDEST DUP4 DUP2 LT ISZERO PUSH2 0x18D1 JUMPI DUP2 MLOAD DUP8 MSTORE SWAP6 DUP3 ADD SWAP6 SWAP1 DUP3 ADD SWAP1 PUSH1 0x1 ADD PUSH2 0x18B5 JUMP JUMPDEST POP SWAP5 SWAP6 SWAP5 POP POP POP POP POP JUMP JUMPDEST PUSH1 0x0 PUSH2 0x2620 DUP11 ISZERO ISZERO DUP4 MSTORE PUSH1 0x20 DUP11 ISZERO ISZERO DUP2 DUP6 ADD MSTORE DUP10 PUSH1 0x40 DUP6 ADD MSTORE PUSH1 0x60 DUP5 ADD DUP10 PUSH1 0x0 JUMPDEST PUSH1 0x64 DUP2 LT ISZERO PUSH2 0x191C JUMPI DUP2 MLOAD ISZERO ISZERO DUP4 MSTORE SWAP2 DUP4 ADD SWAP2 SWAP1 DUP4 ADD SWAP1 PUSH1 0x1 ADD PUSH2 0x18FD JUMP JUMPDEST POP POP POP POP PUSH2 0x192E PUSH2 0xCE0 DUP5 ADD DUP9 PUSH2 0x1878 JUMP JUMPDEST PUSH2 0x193C PUSH2 0x1960 DUP5 ADD DUP8 PUSH2 0x1878 JUMP JUMPDEST DUP1 PUSH2 0x25E0 DUP5 ADD MSTORE PUSH2 0x194F DUP2 DUP5 ADD DUP7 PUSH2 0x18A1 JUMP JUMPDEST SWAP1 POP DUP3 DUP2 SUB PUSH2 0x2600 DUP5 ADD MSTORE PUSH2 0x1964 DUP2 DUP6 PUSH2 0x18A1 JUMP JUMPDEST SWAP12 SWAP11 POP POP POP POP POP POP POP POP POP POP POP JUMP JUMPDEST PUSH1 0x0 PUSH1 0x40 MLOAD PUSH1 0x60 DUP2 ADD DUP2 DUP2 LT PUSH8 0xFFFFFFFFFFFFFFFF DUP3 GT OR ISZERO PUSH2 0x1998 JUMPI PUSH2 0x1998 PUSH2 0x166E JUMP JUMPDEST PUSH1 0x40 MSTORE SWAP1 POP DUP1 PUSH1 0x60 DUP4 ADD DUP5 DUP2 GT ISZERO PUSH2 0x19AF JUMPI PUSH1 0x0 DUP1 REVERT JUMPDEST DUP4 JUMPDEST DUP2 DUP2 LT ISZERO PUSH2 0x19C9 JUMPI DUP1 CALLDATALOAD DUP4 MSTORE PUSH1 0x20 SWAP3 DUP4 ADD SWAP3 ADD PUSH2 0x19B1 JUMP JUMPDEST POP POP POP SWAP3 SWAP2 POP POP JUMP JUMPDEST PUSH1 0x0 DUP1 PUSH1 0x0 PUSH2 0x220 DUP1 DUP6 DUP8 SUB SLT ISZERO PUSH2 0x19E9 JUMPI PUSH1 0x0 DUP1 REVERT JUMPDEST DUP5 CALLDATALOAD SWAP4 POP PUSH1 0x20 DUP1 DUP7 ADD CALLDATALOAD SWAP4 POP DUP7 PUSH1 0x5F DUP8 ADD SLT PUSH2 0x1A04 JUMPI PUSH1 0x0 DUP1 REVERT JUMPDEST PUSH2 0x1A0C PUSH2 0x1684 JUMP JUMPDEST SWAP2 DUP7 ADD SWAP2 DUP1 DUP9 DUP5 GT ISZERO PUSH2 0x1A1E JUMPI PUSH1 0x0 DUP1 REVERT JUMPDEST PUSH1 0x40 DUP9 ADD JUMPDEST DUP5 DUP2 LT ISZERO PUSH2 0x1A53 JUMPI DUP10 PUSH1 0x1F DUP3 ADD SLT PUSH2 0x1A3B JUMPI PUSH1 0x0 DUP1 DUP2 REVERT JUMPDEST PUSH2 0x1A45 DUP11 DUP3 PUSH2 0x1973 JUMP JUMPDEST DUP4 MSTORE SWAP2 DUP4 ADD SWAP2 PUSH1 0x60 ADD PUSH2 0x1A23 JUMP JUMPDEST POP DUP1 SWAP5 POP POP POP POP POP SWAP3 POP SWAP3 POP SWAP3 JUMP JUMPDEST PUSH1 0x0 DUP1 PUSH1 0x0 DUP1 PUSH1 0x0 PUSH2 0x120 DUP1 DUP8 DUP10 SUB SLT ISZERO PUSH2 0x1A7C JUMPI PUSH1 0x0 DUP1 REVERT JUMPDEST DUP7 CALLDATALOAD PUSH8 0xFFFFFFFFFFFFFFFF DUP2 GT ISZERO PUSH2 0x1A93 JUMPI PUSH1 0x0 DUP1 REVERT JUMPDEST PUSH2 0x1A9F DUP10 DUP3 DUP11 ADD PUSH2 0x16AD JUMP JUMPDEST SWAP7 POP POP PUSH1 0x20 DUP1 DUP9 ADD CALLDATALOAD SWAP6 POP PUSH1 0x40 DUP9 ADD CALLDATALOAD SWAP5 POP PUSH1 0x60 DUP9 ADD CALLDATALOAD SWAP4 POP DUP9 PUSH1 0x9F DUP10 ADD SLT PUSH2 0x1AC7 JUMPI PUSH1 0x0 DUP1 REVERT JUMPDEST PUSH2 0x1ACF PUSH2 0x1684 JUMP JUMPDEST SWAP2 DUP9 ADD SWAP2 DUP1 DUP11 DUP5 GT ISZERO PUSH2 0x1AE1 JUMPI PUSH1 0x0 DUP1 REVERT JUMPDEST PUSH1 0x80 DUP11 ADD JUMPDEST DUP5 DUP2 LT ISZERO PUSH2 0x1AFD JUMPI DUP1 CALLDATALOAD DUP4 MSTORE SWAP2 DUP4 ADD SWAP2 DUP4 ADD PUSH2 0x1AE6 JUMP JUMPDEST POP DUP1 SWAP5 POP POP POP POP POP SWAP3 SWAP6 POP SWAP3 SWAP6 SWAP1 SWAP4 POP JUMP JUMPDEST PUSH1 0xA0 DUP2 MSTORE PUSH1 0x0 PUSH2 0x1B22 PUSH1 0xA0 DUP4 ADD DUP9 PUSH2 0x17A1 JUMP JUMPDEST SWAP1 POP DUP6 PUSH1 0x20 DUP4 ADD MSTORE DUP5 PUSH1 0x40 DUP4 ADD MSTORE DUP4 PUSH1 0x60 DUP4 ADD MSTORE DUP3 PUSH1 0x80 DUP4 ADD MSTORE SWAP7 SWAP6 POP POP POP POP POP POP JUMP JUMPDEST PUSH1 0x0 PUSH1 0x20 DUP3 DUP5 SUB SLT ISZERO PUSH2 0x1B58 JUMPI PUSH1 0x0 DUP1 REVERT JUMPDEST POP MLOAD SWAP2 SWAP1 POP JUMP JUMPDEST PUSH1 0x20 DUP1 DUP3 MSTORE DUP2 DUP2 ADD MSTORE PUSH32 0x4F6E6C79206F776E65722063616E2063616C6C2074686973206D6574686F6421 PUSH1 0x40 DUP3 ADD MSTORE PUSH1 0x60 ADD SWAP1 JUMP JUMPDEST PUSH4 0x4E487B71 PUSH1 0xE0 SHL PUSH1 0x0 MSTORE PUSH1 0x11 PUSH1 0x4 MSTORE PUSH1 0x24 PUSH1 0x0 REVERT JUMPDEST PUSH1 0x0 PUSH1 0x0 NOT DUP3 EQ ISZERO PUSH2 0x1BBE JUMPI PUSH2 0x1BBE PUSH2 0x1B94 JUMP JUMPDEST POP PUSH1 0x1 ADD SWAP1 JUMP JUMPDEST PUSH1 0x1 DUP2 DUP2 SHR SWAP1 DUP3 AND DUP1 PUSH2 0x1BD9 JUMPI PUSH1 0x7F DUP3 AND SWAP2 POP JUMPDEST PUSH1 0x20 DUP3 LT DUP2 EQ ISZERO PUSH2 0x1BFA JUMPI PUSH4 0x4E487B71 PUSH1 0xE0 SHL PUSH1 0x0 MSTORE PUSH1 0x22 PUSH1 0x4 MSTORE PUSH1 0x24 PUSH1 0x0 REVERT JUMPDEST POP SWAP2 SWAP1 POP JUMP JUMPDEST PUSH1 0x0 DUP3 DUP3 LT ISZERO PUSH2 0x1C12 JUMPI PUSH2 0x1C12 PUSH2 0x1B94 JUMP JUMPDEST POP SUB SWAP1 JUMP JUMPDEST PUSH4 0x4E487B71 PUSH1 0xE0 SHL PUSH1 0x0 MSTORE PUSH1 0x32 PUSH1 0x4 MSTORE PUSH1 0x24 PUSH1 0x0 REVERT JUMPDEST PUSH1 0x0 DUP3 NOT DUP3 GT ISZERO PUSH2 0x1C40 JUMPI PUSH2 0x1C40 PUSH2 0x1B94 JUMP JUMPDEST POP ADD SWAP1 JUMP JUMPDEST PUSH1 0x0 DUP3 PUSH2 0x1C62 JUMPI PUSH4 0x4E487B71 PUSH1 0xE0 SHL PUSH1 0x0 MSTORE PUSH1 0x12 PUSH1 0x4 MSTORE PUSH1 0x24 PUSH1 0x0 REVERT JUMPDEST POP MOD SWAP1 JUMP JUMPDEST PUSH1 0x0 PUSH1 0x20 DUP3 DUP5 SUB SLT ISZERO PUSH2 0x1C79 JUMPI PUSH1 0x0 DUP1 REVERT JUMPDEST DUP2 MLOAD PUSH2 0x1871 DUP2 PUSH2 0x183F JUMP JUMPDEST PUSH1 0x0 DUP2 PUSH1 0x0 NOT DIV DUP4 GT DUP3 ISZERO ISZERO AND ISZERO PUSH2 0x1C9E JUMPI PUSH2 0x1C9E PUSH2 0x1B94 JUMP JUMPDEST POP MUL SWAP1 JUMP JUMPDEST PUSH1 0x0 PUSH1 0x20 DUP3 DUP5 SUB SLT ISZERO PUSH2 0x1CB5 JUMPI PUSH1 0x0 DUP1 REVERT JUMPDEST DUP2 MLOAD DUP1 ISZERO ISZERO DUP2 EQ PUSH2 0x1871 JUMPI PUSH1 0x0 DUP1 REVERT INVALID LOG2 PUSH5 0x6970667358 0x22 SLT KECCAK256 LOG0 0x2A ISZERO SLT 0xC0 0xD6 SDIV PUSH12 0xA02173C30F028C7CA9709BD4 POP DUP8 DUP13 0xDE CREATE SWAP13 SGT DUP2 CALLVALUE PUSH17 0xA31864736F6C634300080900334F6E6C79 KECCAK256 PUSH16 0x776E65722063616E2063616C6C207468 PUSH10 0x73206D6574686F642100 "},"methodIdentifiers":{"N_MAX_MOVES()":"cdc773ef","N_MONSTER_SKEW()":"0ff56693","STAMINA_REGENERATION_RATE()":"0a45af25","UNUSED_SKILL()":"3e26f96f","addMonster(string,uint256,uint256,uint256,uint256[5])":"b5b662af","addSkill(string,uint256,uint256)":"20f9eb3c","battle(uint256,uint256,uint256[3][5])":"a4482de5","matchCounter()":"01fd1951","matchIdToMonster1Sequences(uint256,uint256,uint256)":"539dc37e","matchIdToRandomnessRequestId(uint256)":"316990c1","matches(uint256)":"4768d4ef","monsterCount()":"b693bff8","monsterIdToSkillCount(uint256)":"9b1fec3f","monsterIdToSkillIds(uint256,uint256)":"136deb12","monsters(uint256)":"c0576b73","owner()":"8da5cb5b","progressNFT()":"bc0d27a0","randomnessRequestIdToRNG(uint256)":"444f2ec5","register()":"1aa3a008","setProgressNFT(address)":"7c7c984b","skillCount()":"b82c1b4a","skills(uint256)":"50d15fbe","viewPlayOut(uint256)":"85c74889"}}}}}