{"contracts/BatMon.sol":{"BatMon":{"abi":[{"inputs":[],"stateMutability":"nonpayable","type":"constructor"},{"inputs":[{"internalType":"address","name":"have","type":"address"},{"internalType":"address","name":"want","type":"address"}],"name":"OnlyCoordinatorCanFulfill","type":"error"},{"anonymous":false,"inputs":[{"indexed":true,"internalType":"address","name":"from","type":"address"},{"indexed":true,"internalType":"address","name":"to","type":"address"}],"name":"OwnershipTransferRequested","type":"event"},{"anonymous":false,"inputs":[{"indexed":true,"internalType":"address","name":"from","type":"address"},{"indexed":true,"internalType":"address","name":"to","type":"address"}],"name":"OwnershipTransferred","type":"event"},{"anonymous":false,"inputs":[{"indexed":false,"internalType":"uint256","name":"requestId","type":"uint256"},{"indexed":false,"internalType":"uint256[]","name":"randomWords","type":"uint256[]"}],"name":"RequestFulfilled","type":"event"},{"anonymous":false,"inputs":[{"indexed":false,"internalType":"uint256","name":"requestId","type":"uint256"},{"indexed":false,"internalType":"uint32","name":"numWords","type":"uint32"}],"name":"RequestSent","type":"event"},{"inputs":[],"name":"N_MAX_MOVES","outputs":[{"internalType":"uint256","name":"","type":"uint256"}],"stateMutability":"view","type":"function"},{"inputs":[],"name":"N_MONSTER_SKEW","outputs":[{"internalType":"uint256","name":"","type":"uint256"}],"stateMutability":"view","type":"function"},{"inputs":[],"name":"STAMINA_REGENERATION_RATE","outputs":[{"internalType":"uint256","name":"","type":"uint256"}],"stateMutability":"view","type":"function"},{"inputs":[],"name":"UNUSED_SKILL","outputs":[{"internalType":"uint256","name":"","type":"uint256"}],"stateMutability":"view","type":"function"},{"inputs":[],"name":"acceptOwnership","outputs":[],"stateMutability":"nonpayable","type":"function"},{"inputs":[{"internalType":"string","name":"_name","type":"string"},{"internalType":"uint256","name":"_health","type":"uint256"},{"internalType":"uint256","name":"_speed","type":"uint256"},{"internalType":"uint256","name":"_stamina","type":"uint256"},{"internalType":"uint256[5]","name":"_skillsIds","type":"uint256[5]"}],"name":"addMonster","outputs":[],"stateMutability":"nonpayable","type":"function"},{"inputs":[{"internalType":"string","name":"_name","type":"string"},{"internalType":"uint256","name":"_damage","type":"uint256"},{"internalType":"uint256","name":"_staminaRequirement","type":"uint256"}],"name":"addSkill","outputs":[],"stateMutability":"nonpayable","type":"function"},{"inputs":[{"internalType":"uint256","name":"_progressNFT_Id","type":"uint256"},{"internalType":"uint256","name":"_monsterId","type":"uint256"},{"internalType":"uint256[3][5]","name":"_sequences","type":"uint256[3][5]"}],"name":"battle","outputs":[{"internalType":"uint256","name":"matchId","type":"uint256"}],"stateMutability":"nonpayable","type":"function"},{"inputs":[{"internalType":"uint256","name":"_requestId","type":"uint256"}],"name":"getRequestStatus","outputs":[{"internalType":"bool","name":"fulfilled","type":"bool"},{"internalType":"uint256[]","name":"randomWords","type":"uint256[]"}],"stateMutability":"view","type":"function"},{"inputs":[],"name":"lastRequestId","outputs":[{"internalType":"uint256","name":"","type":"uint256"}],"stateMutability":"view","type":"function"},{"inputs":[],"name":"matchCounter","outputs":[{"internalType":"uint256","name":"","type":"uint256"}],"stateMutability":"view","type":"function"},{"inputs":[{"internalType":"uint256","name":"","type":"uint256"},{"internalType":"uint256","name":"","type":"uint256"},{"internalType":"uint256","name":"","type":"uint256"}],"name":"matchIdToMonster1Sequences","outputs":[{"internalType":"uint256","name":"","type":"uint256"}],"stateMutability":"view","type":"function"},{"inputs":[{"internalType":"uint256","name":"","type":"uint256"}],"name":"matchIdToRandomnessRequestId","outputs":[{"internalType":"uint256","name":"","type":"uint256"}],"stateMutability":"view","type":"function"},{"inputs":[{"internalType":"uint256","name":"","type":"uint256"}],"name":"matches","outputs":[{"internalType":"uint256","name":"progressNFT_Id","type":"uint256"},{"internalType":"uint256","name":"monster0_Id","type":"uint256"},{"internalType":"uint256","name":"monster1_Id","type":"uint256"}],"stateMutability":"view","type":"function"},{"inputs":[],"name":"monsterCount","outputs":[{"internalType":"uint256","name":"","type":"uint256"}],"stateMutability":"view","type":"function"},{"inputs":[{"internalType":"uint256","name":"","type":"uint256"}],"name":"monsterIdToSkillCount","outputs":[{"internalType":"uint256","name":"","type":"uint256"}],"stateMutability":"view","type":"function"},{"inputs":[{"internalType":"uint256","name":"","type":"uint256"},{"internalType":"uint256","name":"","type":"uint256"}],"name":"monsterIdToSkillIds","outputs":[{"internalType":"uint256","name":"","type":"uint256"}],"stateMutability":"view","type":"function"},{"inputs":[{"internalType":"uint256","name":"","type":"uint256"}],"name":"monsters","outputs":[{"internalType":"string","name":"name","type":"string"},{"internalType":"uint256","name":"health","type":"uint256"},{"internalType":"uint256","name":"speed","type":"uint256"},{"internalType":"uint256","name":"stamina","type":"uint256"},{"internalType":"uint256","name":"skillCount","type":"uint256"}],"stateMutability":"view","type":"function"},{"inputs":[],"name":"owner","outputs":[{"internalType":"address","name":"","type":"address"}],"stateMutability":"view","type":"function"},{"inputs":[],"name":"progressNFT","outputs":[{"internalType":"address","name":"","type":"address"}],"stateMutability":"view","type":"function"},{"inputs":[{"internalType":"uint256","name":"","type":"uint256"}],"name":"randomnessRequestIdToRNG","outputs":[{"internalType":"uint256","name":"","type":"uint256"}],"stateMutability":"view","type":"function"},{"inputs":[{"internalType":"uint256","name":"requestId","type":"uint256"},{"internalType":"uint256[]","name":"randomWords","type":"uint256[]"}],"name":"rawFulfillRandomWords","outputs":[],"stateMutability":"nonpayable","type":"function"},{"inputs":[],"name":"register","outputs":[],"stateMutability":"nonpayable","type":"function"},{"inputs":[{"internalType":"uint256","name":"","type":"uint256"}],"name":"requestIds","outputs":[{"internalType":"uint256","name":"","type":"uint256"}],"stateMutability":"view","type":"function"},{"inputs":[{"internalType":"uint256","name":"","type":"uint256"}],"name":"s_requests","outputs":[{"internalType":"bool","name":"fulfilled","type":"bool"},{"internalType":"bool","name":"exists","type":"bool"}],"stateMutability":"view","type":"function"},{"inputs":[{"internalType":"address","name":"_progressNFT","type":"address"}],"name":"setProgressNFT","outputs":[],"stateMutability":"nonpayable","type":"function"},{"inputs":[],"name":"skillCount","outputs":[{"internalType":"uint256","name":"","type":"uint256"}],"stateMutability":"view","type":"function"},{"inputs":[{"internalType":"uint256","name":"","type":"uint256"}],"name":"skills","outputs":[{"internalType":"string","name":"name","type":"string"},{"internalType":"uint256","name":"damage","type":"uint256"},{"internalType":"uint256","name":"staminaRequirement","type":"uint256"}],"stateMutability":"view","type":"function"},{"inputs":[{"internalType":"address","name":"to","type":"address"}],"name":"transferOwnership","outputs":[],"stateMutability":"nonpayable","type":"function"},{"inputs":[{"internalType":"uint256","name":"matchId","type":"uint256"}],"name":"viewPlayOut","outputs":[{"internalType":"bool","name":"randomnessFullfiled","type":"bool"},{"internalType":"bool","name":"canClaim","type":"bool"},{"internalType":"uint256","name":"RNG","type":"uint256"},{"internalType":"bool[100]","name":"isFinal","type":"bool[100]"},{"internalType":"uint256[100]","name":"turn","type":"uint256[100]"},{"internalType":"uint256[100]","name":"skillId","type":"uint256[100]"},{"internalType":"uint256[]","name":"monster0_health","type":"uint256[]"},{"internalType":"uint256[]","name":"monster1_health","type":"uint256[]"}],"stateMutability":"view","type":"function"}],"evm":{"bytecode":{"linkReferences":{},"object":"60a06040527f4b09e658ed251bcafeebbc69400383d49f344ace09b9576fe248bb02c003fe9f600655600780546001600160501b03191666010003000186a01790553480156200004e57600080fd5b50737a1bac17ccc5b313516c5e16fb24f7659aa5ebed608052610a423380600081620000c15760405162461bcd60e51b815260206004820152601860248201527f43616e6e6f7420736574206f776e657220746f207a65726f000000000000000060448201526064015b60405180910390fd5b600080546001600160a01b0319166001600160a01b0384811691909117909155811615620000f457620000f48162000385565b5050600380546001600160401b03909316600160a01b026001600160e01b031990931692909217737a1bac17ccc5b313516c5e16fb24f7659aa5ebed17909155506040805180820190915260048152636669726560e01b60208201526200015f906002600a62000431565b62000191604051806040016040528060058152602001643630b9b2b960d91b815250600560086200043160201b60201c565b6040805180820190915260078152663a343ab73232b960c91b6020820152620001be906008600362000431565b60006040518060a00160405280600081526020016001815260200160028152602001610fff8152602001610fff81525090506200022860405180604001604052806008815260200167283937ba32bd30b960c11b81525060c8601e600a85620004b060201b60201c565b610fff6040808301919091528051808201909152600581526414985c995d60da1b6020820152620002609060dc6028601485620004b0565b610fff816001602002018181525050620002a7604051806040016040528060088152602001672a3930b83732b0b960c11b81525060966014600a85620004b060201b60201c565b600081526002602080830191909152610fff60408084019190915280518082019091526006815265556e7572616b60d01b91810191909152620002f19060b4601e600185620004b0565b600281526001602080830191909152610fff604080840191909152805180820190915260078152662bb0b93bb2b0b960c91b918101919091526200033c9060fa6028600385620004b0565b60028152610fff60208083019190915260408051808201909152600681526515da5e9ad95d60d21b918101919091526200037e906101c26014600585620004b0565b50620008ec565b6001600160a01b038116331415620003e05760405162461bcd60e51b815260206004820152601760248201527f43616e6e6f74207472616e7366657220746f2073656c660000000000000000006044820152606401620000b8565b600180546001600160a01b0319166001600160a01b0383811691821790925560008054604051929316917fed8889f560326eb138920d842192f0eb3dd22b4f139c87a2c57538e05bae12789190a350565b6200043b62000716565b6040805160608101825284815260208082018590528183018490526009546000908152600b82529290922081518051929391926200047d928492019062000774565b506020820151600182015560409091015160029091015560098054906000620004a68362000876565b9190505550505050565b620004ba62000716565b6000805b6005811015620005c657600954838260058110620004e057620004e06200084a565b602002015110806200050c5750610fff8382600581106200050557620005056200084a565b6020020151145b620005735760405162461bcd60e51b815260206004820152603060248201527f536b696c6c2068617320656974686572206e6f74206265656e2063726561746560448201526f19081bdc881a5cc81b9bdd081d5cd95960821b6064820152608401620000b8565b610fff8382600581106200058b576200058b6200084a565b602002015114156200059f576000620005a2565b60015b620005b19060ff168362000894565b9150620005be8162000876565b9050620004be565b5060008111620006255760405162461bcd60e51b815260206004820152602360248201527f4d6f6e73746572206d75737420757365206174206c65617374206f6e6520736b6044820152621a5b1b60ea1b6064820152608401620000b8565b6040805160c0810182528781526020808201889052818301879052606082018690526080820185905260a082018490526008546000908152600c82529290922081518051929384936200067c928492019062000774565b506020820151600182015560408201516002820155606082015160038201556080820151620006b2906004830190600562000803565b5060a0919091015160099091015560808101516008546000908152600e60205260409020620006e391600562000803565b50600880546000908152600f6020526040812084905581549190620007088362000876565b919050555050505050505050565b6000546001600160a01b03163314620007725760405162461bcd60e51b815260206004820152601660248201527f4f6e6c792063616c6c61626c65206279206f776e6572000000000000000000006044820152606401620000b8565b565b8280546200078290620008af565b90600052602060002090601f016020900481019282620007a65760008555620007f1565b82601f10620007c157805160ff1916838001178555620007f1565b82800160010185558215620007f1579182015b82811115620007f1578251825591602001919060010190620007d4565b50620007ff92915062000833565b5090565b8260058101928215620007f15791602002820182811115620007f1578251825591602001919060010190620007d4565b5b80821115620007ff576000815560010162000834565b634e487b7160e01b600052603260045260246000fd5b634e487b7160e01b600052601160045260246000fd5b60006000198214156200088d576200088d62000860565b5060010190565b60008219821115620008aa57620008aa62000860565b500190565b600181811c90821680620008c457607f821691505b60208210811415620008e657634e487b7160e01b600052602260045260246000fd5b50919050565b6080516123926200090f6000396000818161056401526105a601526123926000f3fe608060405234801561001057600080fd5b50600436106101da5760003560e01c806385c7488911610104578063b693bff8116100a2578063cdc773ef11610071578063cdc773ef14610469578063d8a4676f14610471578063f2fde38b14610492578063fc2a88c3146104a557600080fd5b8063b693bff814610419578063b82c1b4a14610422578063bc0d27a01461042b578063c0576b731461044557600080fd5b80639b1fec3f116100de5780639b1fec3f14610390578063a168fa89146103b0578063a4482de5146103f3578063b5b662af1461040657600080fd5b806385c74889146103315780638796ba8c146103585780638da5cb5b1461036b57600080fd5b8063316990c11161017c57806350d15fbe1161014b57806350d15fbe146102e1578063539dc37e1461030357806379ba5097146103165780637c7c984b1461031e57600080fd5b8063316990c11461024e5780633e26f96f1461026e578063444f2ec5146102775780634768d4ef1461029757600080fd5b8063136deb12116101b8578063136deb121461020b5780631aa3a0081461021e5780631fe543e31461022857806320f9eb3c1461023b57600080fd5b806301fd1951146101df5780630a45af25146101fb5780630ff5669314610203575b600080fd5b6101e8600a5481565b6040519081526020015b60405180910390f35b6101e8600a81565b6101e8600281565b6101e8610219366004611c57565b6104ae565b6102266104d3565b005b610226610236366004611ce9565b610559565b610226610249366004611e0b565b6105e6565b6101e861025c366004611e59565b60116020526000908152604090205481565b6101e8610fff81565b6101e8610285366004611e59565b60126020526000908152604090205481565b6102c66102a5366004611e59565b600d6020526000908152604090208054600182015460119092015490919083565b604080519384526020840192909252908201526060016101f2565b6102f46102ef366004611e59565b61065f565b6040516101f293929190611ebf565b6101e8610311366004611ee4565b610709565b610226610747565b61022661032c366004611f25565b6107f1565b61034461033f366004611e59565b61083a565b6040516101f2989796959493929190611fad565b6101e8610366366004611e59565b610ed2565b6000546001600160a01b03165b6040516001600160a01b0390911681526020016101f2565b6101e861039e366004611e59565b600f6020526000908152604090205481565b6103dc6103be366004611e59565b60026020526000908152604090205460ff8082169161010090041682565b6040805192151583529015156020830152016101f2565b6101e86104013660046120a3565b610ef3565b610226610414366004612133565b6112c7565b6101e860085481565b6101e860095481565b60075461037890600160501b90046001600160a01b031681565b610458610453366004611e59565b61150d565b6040516101f29594939291906121e0565b6101e8603281565b61048461047f366004611e59565b6115c3565b6040516101f2929190612217565b6102266104a0366004611f25565b6116b7565b6101e860055481565b600e60205281600052604060002081600581106104ca57600080fd5b01549150829050565b6007546040516335313c2160e11b8152336004820152600160501b9091046001600160a01b031690636a62784290602401602060405180830381600087803b15801561051e57600080fd5b505af1158015610532573d6000803e3d6000fd5b505050506040513d601f19601f82011682018060405250810190610556919061223a565b50565b336001600160a01b037f000000000000000000000000000000000000000000000000000000000000000016146105d85760405163073e64fd60e21b81523360048201526001600160a01b037f00000000000000000000000000000000000000000000000000000000000000001660248201526044015b60405180910390fd5b6105e282826116c8565b5050565b6105ee61178e565b6040805160608101825284815260208082018590528183018490526009546000908152600b825292909220815180519293919261062e9284920190611a58565b50602082015160018201556040909101516002909101556009805490600061065583612269565b9190505550505050565b600b6020526000908152604090208054819061067a90612284565b80601f01602080910402602001604051908101604052809291908181526020018280546106a690612284565b80156106f35780601f106106c8576101008083540402835291602001916106f3565b820191906000526020600020905b8154815290600101906020018083116106d657829003601f168201915b5050505050908060010154908060020154905083565b6010602052826000526040600020602052816000526040600020818154811061073157600080fd5b9060005260206000200160009250925050505481565b6001546001600160a01b0316331461079a5760405162461bcd60e51b815260206004820152601660248201527526bab9ba10313290383937b837b9b2b21037bbb732b960511b60448201526064016105cf565b60008054336001600160a01b0319808316821784556001805490911690556040516001600160a01b0390921692909183917f8be0079c531659141344cd1fd0a4f28419497f9722a3daafe3b4186f6b6457e091a350565b6107f961178e565b600780546001600160a01b03909216600160501b027fffff0000000000000000000000000000000000000000ffffffffffffffffffff909216919091179055565b6000806000610847611adc565b61084f611adc565b610857611adc565b6000878152601160209081526040808320548352600290915281206001018054606092839291610889576108896122bf565b60009182526020808320909101548b8352600d825260408084206001908101548552600c9093528320600901548115159b50909850600a916108ca916122d5565b604080516064808252610ca082019092529190921b600590811793509160208201610c80803683375050604080516064808252610ca08201909252929650905060208201610c808036833750505060008c8152600d602090815260408083206001908101548452600c9092528220015486519295509186919061094f5761094f6122bf565b60209081029190910181019190915260008c8152600d82526040808220601101548252600c90925290812060010154845190918591610990576109906122bf565b6020026020010181815250506109a4611afb565b60008082528c8152600d602090815260408083206001908101548452600f83529281902054908401528201525b602081015160321115610e2957602081015160018a821c16908890606481106109fc576109fc6122bf565b602002015286816001602002015160648110610a1a57610a1a6122bf565b6020020151610a695760408101516020820151610a389060016122ec565b8a901c610a459190612304565b868260015b602002015160648110610a5f57610a5f6122bf565b6020020152610c01565b60008c815260106020908152604080832083805290915281208054909190610a9357610a936122bf565b60009182526020909120015486826001602002015160648110610ab857610ab86122bf565b60200201526005821415610b2e5760038160015b6020020151610adc9060026122ec565b8a901c610ae99190612304565b60008d815260106020908152604080832084845290915281208054929550909350908390610b1957610b196122bf565b60009182526020909120015486826001610a4a565b610b396001836122ec565b60008d815260106020908152604080832087845290915290205490925082101580610b9c575060008c815260106020908152604080832086845290915290208054610fff919084908110610b8f57610b8f6122bf565b9060005260206000200154145b15610bab576003816001610acc565b60008c81526010602090815260408083208684529091529020805483908110610bd657610bd66122bf565b60009182526020909120015486826001602002015160648110610bfb57610bfb6122bf565b60200201525b6001858183816020020151610c1691906122d5565b81518110610c2657610c266122bf565b60200260200101518683600160038110610c4257610c426122bf565b602002015181518110610c5757610c576122bf565b602090810291909101015284600183816020020151610c7691906122d5565b81518110610c8657610c866122bf565b60200260200101518583600160038110610ca257610ca26122bf565b602002015181518110610cb757610cb76122bf565b602090810291909101015287826001602002015160648110610cdb57610cdb6122bf565b6020020151610d74578085836001602002015181518110610cfe57610cfe6122bf565b602002602001015111610d3e576001808352600090869084905b602002015181518110610d2d57610d2d6122bf565b602002602001018181525050610dde565b8085836001602002015181518110610d5857610d586122bf565b60200260200101818151610d6c91906122d5565b905250610dde565b8086836001602002015181518110610d8e57610d8e6122bf565b602002602001015111610dac57600180835260009087908490610d18565b8086836001602002015181518110610dc657610dc66122bf565b60200260200101818151610dda91906122d5565b9052505b815160011415610e12576001898382602002015160648110610e0257610e026122bf565b9115156020909202015250610e29565b50602081018051610e2290612269565b90526109d1565b6020810151603211610e6f57600188610e438260326122d5565b60648110610e5357610e536122bf565b91151560209092020152610e69600160326122d5565b60208201525b83816001602002015181518110610e8857610e886122bf565b60200260200101518582600160038110610ea457610ea46122bf565b602002015181518110610eb957610eb96122bf565b6020026020010151109950505050919395975091939597565b60048181548110610ee257600080fd5b600091825260209091200154905081565b6007546040516331a9108f60e11b81526000913391600160501b9091046001600160a01b031690636352211e90610f3290889060040190815260200190565b60206040518083038186803b158015610f4a57600080fd5b505afa158015610f5e573d6000803e3d6000fd5b505050506040513d601f19601f82011682018060405250810190610f829190612326565b6001600160a01b031614610fe95760405162461bcd60e51b815260206004820152602860248201527f4f6e6c7920746f6b656e206f776e65722063616e2063616c6c2074686973206d6044820152676574686f6421212160c01b60648201526084016105cf565b60075460405163bb86e8cd60e01b815260048101869052600091600291600160501b9091046001600160a01b03169063bb86e8cd9060240160206040518083038186803b15801561103957600080fd5b505afa15801561104d573d6000803e3d6000fd5b505050506040513d601f19601f82011682018060405250810190611071919061223a565b61107b91906122ec565b905060085481106110de5760405162461bcd60e51b815260206004820152602760248201527f54686174206c6576656c20686173206e6f7420796574206265656e20637265616044820152667465642021212160c81b60648201526084016105cf565b600854841080156110ef5750808411155b61113b5760405162461bcd60e51b815260206004820181905260248201527f596f752063616e6e6f74207573652074686174206d6f6e73746572202121212060448201526064016105cf565b611143611b19565b600a546040805160a0810182528881526020808201868152828401868152606084018b9052608084018a90526000868152600d90935293909120825181559051600182015591519295509161119e9060028301906005611b46565b506060820151601182015560808201516111be9060128301906005611b46565b5090505060005b600381101561128a5760408051600080825260208083018085528883526010825284832086845290915292902090516111fe9290611b8d565b5060005b60058110156112795760008581526010602090815260408083208584529091529020868260058110611236576112366122bf565b6020020151836003811061124c5761124c6122bf565b602090810291909101518254600181018455600093845291909220015561127281612269565b9050611202565b5061128381612269565b90506111c5565b506112936117e3565b600084815260116020526040812091909155600a8054600192906112b89084906122ec565b90915550929695505050505050565b6112cf61178e565b6000805b60058110156113c7576009548382600581106112f1576112f16122bf565b602002015110806113195750610fff838260058110611312576113126122bf565b6020020151145b61137e5760405162461bcd60e51b815260206004820152603060248201527f536b696c6c2068617320656974686572206e6f74206265656e2063726561746560448201526f19081bdc881a5cc81b9bdd081d5cd95960821b60648201526084016105cf565b610fff838260058110611393576113936122bf565b602002015114156113a55760006113a8565b60015b6113b59060ff16836122ec565b91506113c081612269565b90506112d3565b50600081116114245760405162461bcd60e51b815260206004820152602360248201527f4d6f6e73746572206d75737420757365206174206c65617374206f6e6520736b6044820152621a5b1b60ea1b60648201526084016105cf565b6040805160c0810182528781526020808201889052818301879052606082018690526080820185905260a082018490526008546000908152600c82529290922081518051929384936114799284920190611a58565b5060208201516001820155604082015160028201556060820151600382015560808201516114ad9060048301906005611bc7565b5060a0919091015160099091015560808101516008546000908152600e602052604090206114dc916005611bc7565b50600880546000908152600f60205260408120849055815491906114ff83612269565b919050555050505050505050565b600c6020526000908152604090208054819061152890612284565b80601f016020809104026020016040519081016040528092919081815260200182805461155490612284565b80156115a15780601f10611576576101008083540402835291602001916115a1565b820191906000526020600020905b81548152906001019060200180831161158457829003601f168201915b5050505050908060010154908060020154908060030154908060090154905085565b600081815260026020526040812054606090610100900460ff1661161d5760405162461bcd60e51b81526020600482015260116024820152701c995c5d595cdd081b9bdd08199bdd5b99607a1b60448201526064016105cf565b60008381526002602090815260408083208151606081018352815460ff808216151583526101009091041615158185015260018201805484518187028101870186528181529295939486019383018282801561169857602002820191906000526020600020905b815481526020019060010190808311611684575b5050505050815250509050806000015181604001519250925050915091565b6116bf61178e565b610556816119ae565b600082815260026020526040902054610100900460ff1661171f5760405162461bcd60e51b81526020600482015260116024820152701c995c5d595cdd081b9bdd08199bdd5b99607a1b60448201526064016105cf565b6000828152600260209081526040909120805460ff1916600190811782558351611750939290910191840190611b8d565b507ffe2e2d779dba245964d4e3ef9b994be63856fd568bf7d3ca9e224755cb1bd54d8282604051611782929190612343565b60405180910390a15050565b6000546001600160a01b031633146117e15760405162461bcd60e51b815260206004820152601660248201527527b7363c9031b0b63630b1363290313c9037bbb732b960511b60448201526064016105cf565b565b6003546006546007546040516305d3b1d360e41b81526004810192909252600160a01b830467ffffffffffffffff166024830152640100000000810461ffff16604483015263ffffffff808216606484015266010000000000009091041660848201526000916001600160a01b031690635d3b1d309060a401602060405180830381600087803b15801561187657600080fd5b505af115801561188a573d6000803e3d6000fd5b505050506040513d601f19601f820116820180604052508101906118ae919061223a565b6040805160608101825260008082526001602080840182815285518481528083018752858701908152878552600283529590932084518154945161ffff1990951690151561ff001916176101009415159490940293909317835593518051959650929491936119239391850192910190611b8d565b5050600480546001810182556000919091527f8a35acfbc15ff81a39ae7d344fd709f28e8600b4aa8c65c6b64bfe7fe36bd19b0182905550600581905560075460408051838152660100000000000090920463ffffffff1660208301527fcc58b13ad3eab50626c6a6300b1d139cd6ebb1688a7cced9461c2f7e762665ee910160405180910390a190565b6001600160a01b038116331415611a075760405162461bcd60e51b815260206004820152601760248201527f43616e6e6f74207472616e7366657220746f2073656c6600000000000000000060448201526064016105cf565b600180546001600160a01b0319166001600160a01b0383811691821790925560008054604051929316917fed8889f560326eb138920d842192f0eb3dd22b4f139c87a2c57538e05bae12789190a350565b828054611a6490612284565b90600052602060002090601f016020900481019282611a865760008555611acc565b82601f10611a9f57805160ff1916838001178555611acc565b82800160010185558215611acc579182015b82811115611acc578251825591602001919060010190611ab1565b50611ad8929150611bf4565b5090565b60405180610c8001604052806064906020820280368337509192915050565b60405180606001604052806003906020820280368337509192915050565b6040518060a001604052806005905b611b30611afb565b815260200190600190039081611b285790505090565b600f83019183908215611b81579160200282015b82811115611b81578251611b719083906003611c09565b5091602001919060030190611b5a565b50611ad8929150611c36565b828054828255906000526020600020908101928215611acc5791602002820182811115611acc578251825591602001919060010190611ab1565b8260058101928215611acc5791602002820182811115611acc578251825591602001919060010190611ab1565b5b80821115611ad85760008155600101611bf5565b8260038101928215611acc5791602002820182811115611acc578251825591602001919060010190611ab1565b80821115611ad8576000808255600182018190556002820155600301611c36565b60008060408385031215611c6a57600080fd5b50508035926020909101359150565b634e487b7160e01b600052604160045260246000fd5b60405160a0810167ffffffffffffffff81118282101715611cb257611cb2611c79565b60405290565b604051601f8201601f1916810167ffffffffffffffff81118282101715611ce157611ce1611c79565b604052919050565b60008060408385031215611cfc57600080fd5b8235915060208084013567ffffffffffffffff80821115611d1c57600080fd5b818601915086601f830112611d3057600080fd5b813581811115611d4257611d42611c79565b8060051b9150611d53848301611cb8565b8181529183018401918481019089841115611d6d57600080fd5b938501935b83851015611d8b57843582529385019390850190611d72565b8096505050505050509250929050565b600082601f830112611dac57600080fd5b813567ffffffffffffffff811115611dc657611dc6611c79565b611dd9601f8201601f1916602001611cb8565b818152846020838601011115611dee57600080fd5b816020850160208301376000918101602001919091529392505050565b600080600060608486031215611e2057600080fd5b833567ffffffffffffffff811115611e3757600080fd5b611e4386828701611d9b565b9660208601359650604090950135949350505050565b600060208284031215611e6b57600080fd5b5035919050565b6000815180845260005b81811015611e9857602081850181015186830182015201611e7c565b81811115611eaa576000602083870101525b50601f01601f19169290920160200192915050565b606081526000611ed26060830186611e72565b60208301949094525060400152919050565b600080600060608486031215611ef957600080fd5b505081359360208301359350604090920135919050565b6001600160a01b038116811461055657600080fd5b600060208284031215611f3757600080fd5b8135611f4281611f10565b9392505050565b8060005b6064811015611f6c578151845260209384019390910190600101611f4d565b50505050565b600081518084526020808501945080840160005b83811015611fa257815187529582019590820190600101611f86565b509495945050505050565b60006126208a1515835260208a151581850152896040850152606084018960005b6064811015611fed578151151583529183019190830190600101611fce565b50505050611fff610ce0840188611f49565b61200d611960840187611f49565b806125e084015261202081840186611f72565b90508281036126008401526120358185611f72565b9b9a5050505050505050505050565b60006040516060810181811067ffffffffffffffff8211171561206957612069611c79565b604052905080606083018481111561208057600080fd5b835b8181101561209a578035835260209283019201612082565b50505092915050565b60008060006102208085870312156120ba57600080fd5b84359350602080860135935086605f8701126120d557600080fd5b6120dd611c8f565b9186019180888411156120ef57600080fd5b604088015b848110156121245789601f82011261210c5760008081fd5b6121168a82612044565b8352918301916060016120f4565b50809450505050509250925092565b600080600080600061012080878903121561214d57600080fd5b863567ffffffffffffffff81111561216457600080fd5b61217089828a01611d9b565b9650506020808801359550604088013594506060880135935088609f89011261219857600080fd5b6121a0611c8f565b91880191808a8411156121b257600080fd5b60808a015b848110156121ce57803583529183019183016121b7565b50809450505050509295509295909350565b60a0815260006121f360a0830188611e72565b90508560208301528460408301528360608301528260808301529695505050505050565b82151581526040602082015260006122326040830184611f72565b949350505050565b60006020828403121561224c57600080fd5b5051919050565b634e487b7160e01b600052601160045260246000fd5b600060001982141561227d5761227d612253565b5060010190565b600181811c9082168061229857607f821691505b602082108114156122b957634e487b7160e01b600052602260045260246000fd5b50919050565b634e487b7160e01b600052603260045260246000fd5b6000828210156122e7576122e7612253565b500390565b600082198211156122ff576122ff612253565b500190565b60008261232157634e487b7160e01b600052601260045260246000fd5b500690565b60006020828403121561233857600080fd5b8151611f4281611f10565b8281526040602082015260006122326040830184611f7256fea26469706673582212209fcf99502b07dbacdc3e3e3d6d2fc1b06dd9baa9959069a7ab464a6c82b0e60b64736f6c63430008090033","opcodes":"PUSH1 0xA0 PUSH1 0x40 MSTORE PUSH32 0x4B09E658ED251BCAFEEBBC69400383D49F344ACE09B9576FE248BB02C003FE9F PUSH1 0x6 SSTORE PUSH1 0x7 DUP1 SLOAD PUSH1 0x1 PUSH1 0x1 PUSH1 0x50 SHL SUB NOT AND PUSH7 0x10003000186A0 OR SWAP1 SSTORE CALLVALUE DUP1 ISZERO PUSH3 0x4E JUMPI PUSH1 0x0 DUP1 REVERT JUMPDEST POP PUSH20 0x7A1BAC17CCC5B313516C5E16FB24F7659AA5EBED PUSH1 0x80 MSTORE PUSH2 0xA42 CALLER DUP1 PUSH1 0x0 DUP2 PUSH3 0xC1 JUMPI PUSH1 0x40 MLOAD PUSH3 0x461BCD PUSH1 0xE5 SHL DUP2 MSTORE PUSH1 0x20 PUSH1 0x4 DUP3 ADD MSTORE PUSH1 0x18 PUSH1 0x24 DUP3 ADD MSTORE PUSH32 0x43616E6E6F7420736574206F776E657220746F207A65726F0000000000000000 PUSH1 0x44 DUP3 ADD MSTORE PUSH1 0x64 ADD JUMPDEST PUSH1 0x40 MLOAD DUP1 SWAP2 SUB SWAP1 REVERT JUMPDEST PUSH1 0x0 DUP1 SLOAD PUSH1 0x1 PUSH1 0x1 PUSH1 0xA0 SHL SUB NOT AND PUSH1 0x1 PUSH1 0x1 PUSH1 0xA0 SHL SUB DUP5 DUP2 AND SWAP2 SWAP1 SWAP2 OR SWAP1 SWAP2 SSTORE DUP2 AND ISZERO PUSH3 0xF4 JUMPI PUSH3 0xF4 DUP2 PUSH3 0x385 JUMP JUMPDEST POP POP PUSH1 0x3 DUP1 SLOAD PUSH1 0x1 PUSH1 0x1 PUSH1 0x40 SHL SUB SWAP1 SWAP4 AND PUSH1 0x1 PUSH1 0xA0 SHL MUL PUSH1 0x1 PUSH1 0x1 PUSH1 0xE0 SHL SUB NOT SWAP1 SWAP4 AND SWAP3 SWAP1 SWAP3 OR PUSH20 0x7A1BAC17CCC5B313516C5E16FB24F7659AA5EBED OR SWAP1 SWAP2 SSTORE POP PUSH1 0x40 DUP1 MLOAD DUP1 DUP3 ADD SWAP1 SWAP2 MSTORE PUSH1 0x4 DUP2 MSTORE PUSH4 0x66697265 PUSH1 0xE0 SHL PUSH1 0x20 DUP3 ADD MSTORE PUSH3 0x15F SWAP1 PUSH1 0x2 PUSH1 0xA PUSH3 0x431 JUMP JUMPDEST PUSH3 0x191 PUSH1 0x40 MLOAD DUP1 PUSH1 0x40 ADD PUSH1 0x40 MSTORE DUP1 PUSH1 0x5 DUP2 MSTORE PUSH1 0x20 ADD PUSH5 0x3630B9B2B9 PUSH1 0xD9 SHL DUP2 MSTORE POP PUSH1 0x5 PUSH1 0x8 PUSH3 0x431 PUSH1 0x20 SHL PUSH1 0x20 SHR JUMP JUMPDEST PUSH1 0x40 DUP1 MLOAD DUP1 DUP3 ADD SWAP1 SWAP2 MSTORE PUSH1 0x7 DUP2 MSTORE PUSH7 0x3A343AB73232B9 PUSH1 0xC9 SHL PUSH1 0x20 DUP3 ADD MSTORE PUSH3 0x1BE SWAP1 PUSH1 0x8 PUSH1 0x3 PUSH3 0x431 JUMP JUMPDEST PUSH1 0x0 PUSH1 0x40 MLOAD DUP1 PUSH1 0xA0 ADD PUSH1 0x40 MSTORE DUP1 PUSH1 0x0 DUP2 MSTORE PUSH1 0x20 ADD PUSH1 0x1 DUP2 MSTORE PUSH1 0x20 ADD PUSH1 0x2 DUP2 MSTORE PUSH1 0x20 ADD PUSH2 0xFFF DUP2 MSTORE PUSH1 0x20 ADD PUSH2 0xFFF DUP2 MSTORE POP SWAP1 POP PUSH3 0x228 PUSH1 0x40 MLOAD DUP1 PUSH1 0x40 ADD PUSH1 0x40 MSTORE DUP1 PUSH1 0x8 DUP2 MSTORE PUSH1 0x20 ADD PUSH8 0x283937BA32BD30B9 PUSH1 0xC1 SHL DUP2 MSTORE POP PUSH1 0xC8 PUSH1 0x1E PUSH1 0xA DUP6 PUSH3 0x4B0 PUSH1 0x20 SHL PUSH1 0x20 SHR JUMP JUMPDEST PUSH2 0xFFF PUSH1 0x40 DUP1 DUP4 ADD SWAP2 SWAP1 SWAP2 MSTORE DUP1 MLOAD DUP1 DUP3 ADD SWAP1 SWAP2 MSTORE PUSH1 0x5 DUP2 MSTORE PUSH5 0x14985C995D PUSH1 0xDA SHL PUSH1 0x20 DUP3 ADD MSTORE PUSH3 0x260 SWAP1 PUSH1 0xDC PUSH1 0x28 PUSH1 0x14 DUP6 PUSH3 0x4B0 JUMP JUMPDEST PUSH2 0xFFF DUP2 PUSH1 0x1 PUSH1 0x20 MUL ADD DUP2 DUP2 MSTORE POP POP PUSH3 0x2A7 PUSH1 0x40 MLOAD DUP1 PUSH1 0x40 ADD PUSH1 0x40 MSTORE DUP1 PUSH1 0x8 DUP2 MSTORE PUSH1 0x20 ADD PUSH8 0x2A3930B83732B0B9 PUSH1 0xC1 SHL DUP2 MSTORE POP PUSH1 0x96 PUSH1 0x14 PUSH1 0xA DUP6 PUSH3 0x4B0 PUSH1 0x20 SHL PUSH1 0x20 SHR JUMP JUMPDEST PUSH1 0x0 DUP2 MSTORE PUSH1 0x2 PUSH1 0x20 DUP1 DUP4 ADD SWAP2 SWAP1 SWAP2 MSTORE PUSH2 0xFFF PUSH1 0x40 DUP1 DUP5 ADD SWAP2 SWAP1 SWAP2 MSTORE DUP1 MLOAD DUP1 DUP3 ADD SWAP1 SWAP2 MSTORE PUSH1 0x6 DUP2 MSTORE PUSH6 0x556E7572616B PUSH1 0xD0 SHL SWAP2 DUP2 ADD SWAP2 SWAP1 SWAP2 MSTORE PUSH3 0x2F1 SWAP1 PUSH1 0xB4 PUSH1 0x1E PUSH1 0x1 DUP6 PUSH3 0x4B0 JUMP JUMPDEST PUSH1 0x2 DUP2 MSTORE PUSH1 0x1 PUSH1 0x20 DUP1 DUP4 ADD SWAP2 SWAP1 SWAP2 MSTORE PUSH2 0xFFF PUSH1 0x40 DUP1 DUP5 ADD SWAP2 SWAP1 SWAP2 MSTORE DUP1 MLOAD DUP1 DUP3 ADD SWAP1 SWAP2 MSTORE PUSH1 0x7 DUP2 MSTORE PUSH7 0x2BB0B93BB2B0B9 PUSH1 0xC9 SHL SWAP2 DUP2 ADD SWAP2 SWAP1 SWAP2 MSTORE PUSH3 0x33C SWAP1 PUSH1 0xFA PUSH1 0x28 PUSH1 0x3 DUP6 PUSH3 0x4B0 JUMP JUMPDEST PUSH1 0x2 DUP2 MSTORE PUSH2 0xFFF PUSH1 0x20 DUP1 DUP4 ADD SWAP2 SWAP1 SWAP2 MSTORE PUSH1 0x40 DUP1 MLOAD DUP1 DUP3 ADD SWAP1 SWAP2 MSTORE PUSH1 0x6 DUP2 MSTORE PUSH6 0x15DA5E9AD95D PUSH1 0xD2 SHL SWAP2 DUP2 ADD SWAP2 SWAP1 SWAP2 MSTORE PUSH3 0x37E SWAP1 PUSH2 0x1C2 PUSH1 0x14 PUSH1 0x5 DUP6 PUSH3 0x4B0 JUMP JUMPDEST POP PUSH3 0x8EC JUMP JUMPDEST PUSH1 0x1 PUSH1 0x1 PUSH1 0xA0 SHL SUB DUP2 AND CALLER EQ ISZERO PUSH3 0x3E0 JUMPI PUSH1 0x40 MLOAD PUSH3 0x461BCD PUSH1 0xE5 SHL DUP2 MSTORE PUSH1 0x20 PUSH1 0x4 DUP3 ADD MSTORE PUSH1 0x17 PUSH1 0x24 DUP3 ADD MSTORE PUSH32 0x43616E6E6F74207472616E7366657220746F2073656C66000000000000000000 PUSH1 0x44 DUP3 ADD MSTORE PUSH1 0x64 ADD PUSH3 0xB8 JUMP JUMPDEST PUSH1 0x1 DUP1 SLOAD PUSH1 0x1 PUSH1 0x1 PUSH1 0xA0 SHL SUB NOT AND PUSH1 0x1 PUSH1 0x1 PUSH1 0xA0 SHL SUB DUP4 DUP2 AND SWAP2 DUP3 OR SWAP1 SWAP3 SSTORE PUSH1 0x0 DUP1 SLOAD PUSH1 0x40 MLOAD SWAP3 SWAP4 AND SWAP2 PUSH32 0xED8889F560326EB138920D842192F0EB3DD22B4F139C87A2C57538E05BAE1278 SWAP2 SWAP1 LOG3 POP JUMP JUMPDEST PUSH3 0x43B PUSH3 0x716 JUMP JUMPDEST PUSH1 0x40 DUP1 MLOAD PUSH1 0x60 DUP2 ADD DUP3 MSTORE DUP5 DUP2 MSTORE PUSH1 0x20 DUP1 DUP3 ADD DUP6 SWAP1 MSTORE DUP2 DUP4 ADD DUP5 SWAP1 MSTORE PUSH1 0x9 SLOAD PUSH1 0x0 SWAP1 DUP2 MSTORE PUSH1 0xB DUP3 MSTORE SWAP3 SWAP1 SWAP3 KECCAK256 DUP2 MLOAD DUP1 MLOAD SWAP3 SWAP4 SWAP2 SWAP3 PUSH3 0x47D SWAP3 DUP5 SWAP3 ADD SWAP1 PUSH3 0x774 JUMP JUMPDEST POP PUSH1 0x20 DUP3 ADD MLOAD PUSH1 0x1 DUP3 ADD SSTORE PUSH1 0x40 SWAP1 SWAP2 ADD MLOAD PUSH1 0x2 SWAP1 SWAP2 ADD SSTORE PUSH1 0x9 DUP1 SLOAD SWAP1 PUSH1 0x0 PUSH3 0x4A6 DUP4 PUSH3 0x876 JUMP JUMPDEST SWAP2 SWAP1 POP SSTORE POP POP POP POP JUMP JUMPDEST PUSH3 0x4BA PUSH3 0x716 JUMP JUMPDEST PUSH1 0x0 DUP1 JUMPDEST PUSH1 0x5 DUP2 LT ISZERO PUSH3 0x5C6 JUMPI PUSH1 0x9 SLOAD DUP4 DUP3 PUSH1 0x5 DUP2 LT PUSH3 0x4E0 JUMPI PUSH3 0x4E0 PUSH3 0x84A JUMP JUMPDEST PUSH1 0x20 MUL ADD MLOAD LT DUP1 PUSH3 0x50C JUMPI POP PUSH2 0xFFF DUP4 DUP3 PUSH1 0x5 DUP2 LT PUSH3 0x505 JUMPI PUSH3 0x505 PUSH3 0x84A JUMP JUMPDEST PUSH1 0x20 MUL ADD MLOAD EQ JUMPDEST PUSH3 0x573 JUMPI PUSH1 0x40 MLOAD PUSH3 0x461BCD PUSH1 0xE5 SHL DUP2 MSTORE PUSH1 0x20 PUSH1 0x4 DUP3 ADD MSTORE PUSH1 0x30 PUSH1 0x24 DUP3 ADD MSTORE PUSH32 0x536B696C6C2068617320656974686572206E6F74206265656E20637265617465 PUSH1 0x44 DUP3 ADD MSTORE PUSH16 0x19081BDC881A5CC81B9BDD081D5CD959 PUSH1 0x82 SHL PUSH1 0x64 DUP3 ADD MSTORE PUSH1 0x84 ADD PUSH3 0xB8 JUMP JUMPDEST PUSH2 0xFFF DUP4 DUP3 PUSH1 0x5 DUP2 LT PUSH3 0x58B JUMPI PUSH3 0x58B PUSH3 0x84A JUMP JUMPDEST PUSH1 0x20 MUL ADD MLOAD EQ ISZERO PUSH3 0x59F JUMPI PUSH1 0x0 PUSH3 0x5A2 JUMP JUMPDEST PUSH1 0x1 JUMPDEST PUSH3 0x5B1 SWAP1 PUSH1 0xFF AND DUP4 PUSH3 0x894 JUMP JUMPDEST SWAP2 POP PUSH3 0x5BE DUP2 PUSH3 0x876 JUMP JUMPDEST SWAP1 POP PUSH3 0x4BE JUMP JUMPDEST POP PUSH1 0x0 DUP2 GT PUSH3 0x625 JUMPI PUSH1 0x40 MLOAD PUSH3 0x461BCD PUSH1 0xE5 SHL DUP2 MSTORE PUSH1 0x20 PUSH1 0x4 DUP3 ADD MSTORE PUSH1 0x23 PUSH1 0x24 DUP3 ADD MSTORE PUSH32 0x4D6F6E73746572206D75737420757365206174206C65617374206F6E6520736B PUSH1 0x44 DUP3 ADD MSTORE PUSH3 0x1A5B1B PUSH1 0xEA SHL PUSH1 0x64 DUP3 ADD MSTORE PUSH1 0x84 ADD PUSH3 0xB8 JUMP JUMPDEST PUSH1 0x40 DUP1 MLOAD PUSH1 0xC0 DUP2 ADD DUP3 MSTORE DUP8 DUP2 MSTORE PUSH1 0x20 DUP1 DUP3 ADD DUP9 SWAP1 MSTORE DUP2 DUP4 ADD DUP8 SWAP1 MSTORE PUSH1 0x60 DUP3 ADD DUP7 SWAP1 MSTORE PUSH1 0x80 DUP3 ADD DUP6 SWAP1 MSTORE PUSH1 0xA0 DUP3 ADD DUP5 SWAP1 MSTORE PUSH1 0x8 SLOAD PUSH1 0x0 SWAP1 DUP2 MSTORE PUSH1 0xC DUP3 MSTORE SWAP3 SWAP1 SWAP3 KECCAK256 DUP2 MLOAD DUP1 MLOAD SWAP3 SWAP4 DUP5 SWAP4 PUSH3 0x67C SWAP3 DUP5 SWAP3 ADD SWAP1 PUSH3 0x774 JUMP JUMPDEST POP PUSH1 0x20 DUP3 ADD MLOAD PUSH1 0x1 DUP3 ADD SSTORE PUSH1 0x40 DUP3 ADD MLOAD PUSH1 0x2 DUP3 ADD SSTORE PUSH1 0x60 DUP3 ADD MLOAD PUSH1 0x3 DUP3 ADD SSTORE PUSH1 0x80 DUP3 ADD MLOAD PUSH3 0x6B2 SWAP1 PUSH1 0x4 DUP4 ADD SWAP1 PUSH1 0x5 PUSH3 0x803 JUMP JUMPDEST POP PUSH1 0xA0 SWAP2 SWAP1 SWAP2 ADD MLOAD PUSH1 0x9 SWAP1 SWAP2 ADD SSTORE PUSH1 0x80 DUP2 ADD MLOAD PUSH1 0x8 SLOAD PUSH1 0x0 SWAP1 DUP2 MSTORE PUSH1 0xE PUSH1 0x20 MSTORE PUSH1 0x40 SWAP1 KECCAK256 PUSH3 0x6E3 SWAP2 PUSH1 0x5 PUSH3 0x803 JUMP JUMPDEST POP PUSH1 0x8 DUP1 SLOAD PUSH1 0x0 SWAP1 DUP2 MSTORE PUSH1 0xF PUSH1 0x20 MSTORE PUSH1 0x40 DUP2 KECCAK256 DUP5 SWAP1 SSTORE DUP2 SLOAD SWAP2 SWAP1 PUSH3 0x708 DUP4 PUSH3 0x876 JUMP JUMPDEST SWAP2 SWAP1 POP SSTORE POP POP POP POP POP POP POP POP JUMP JUMPDEST PUSH1 0x0 SLOAD PUSH1 0x1 PUSH1 0x1 PUSH1 0xA0 SHL SUB AND CALLER EQ PUSH3 0x772 JUMPI PUSH1 0x40 MLOAD PUSH3 0x461BCD PUSH1 0xE5 SHL DUP2 MSTORE PUSH1 0x20 PUSH1 0x4 DUP3 ADD MSTORE PUSH1 0x16 PUSH1 0x24 DUP3 ADD MSTORE PUSH32 0x4F6E6C792063616C6C61626C65206279206F776E657200000000000000000000 PUSH1 0x44 DUP3 ADD MSTORE PUSH1 0x64 ADD PUSH3 0xB8 JUMP JUMPDEST JUMP JUMPDEST DUP3 DUP1 SLOAD PUSH3 0x782 SWAP1 PUSH3 0x8AF JUMP JUMPDEST SWAP1 PUSH1 0x0 MSTORE PUSH1 0x20 PUSH1 0x0 KECCAK256 SWAP1 PUSH1 0x1F ADD PUSH1 0x20 SWAP1 DIV DUP2 ADD SWAP3 DUP3 PUSH3 0x7A6 JUMPI PUSH1 0x0 DUP6 SSTORE PUSH3 0x7F1 JUMP JUMPDEST DUP3 PUSH1 0x1F LT PUSH3 0x7C1 JUMPI DUP1 MLOAD PUSH1 0xFF NOT AND DUP4 DUP1 ADD OR DUP6 SSTORE PUSH3 0x7F1 JUMP JUMPDEST DUP3 DUP1 ADD PUSH1 0x1 ADD DUP6 SSTORE DUP3 ISZERO PUSH3 0x7F1 JUMPI SWAP2 DUP3 ADD JUMPDEST DUP3 DUP2 GT ISZERO PUSH3 0x7F1 JUMPI DUP3 MLOAD DUP3 SSTORE SWAP2 PUSH1 0x20 ADD SWAP2 SWAP1 PUSH1 0x1 ADD SWAP1 PUSH3 0x7D4 JUMP JUMPDEST POP PUSH3 0x7FF SWAP3 SWAP2 POP PUSH3 0x833 JUMP JUMPDEST POP SWAP1 JUMP JUMPDEST DUP3 PUSH1 0x5 DUP2 ADD SWAP3 DUP3 ISZERO PUSH3 0x7F1 JUMPI SWAP2 PUSH1 0x20 MUL DUP3 ADD DUP3 DUP2 GT ISZERO PUSH3 0x7F1 JUMPI DUP3 MLOAD DUP3 SSTORE SWAP2 PUSH1 0x20 ADD SWAP2 SWAP1 PUSH1 0x1 ADD SWAP1 PUSH3 0x7D4 JUMP JUMPDEST JUMPDEST DUP1 DUP3 GT ISZERO PUSH3 0x7FF JUMPI PUSH1 0x0 DUP2 SSTORE PUSH1 0x1 ADD PUSH3 0x834 JUMP JUMPDEST PUSH4 0x4E487B71 PUSH1 0xE0 SHL PUSH1 0x0 MSTORE PUSH1 0x32 PUSH1 0x4 MSTORE PUSH1 0x24 PUSH1 0x0 REVERT JUMPDEST PUSH4 0x4E487B71 PUSH1 0xE0 SHL PUSH1 0x0 MSTORE PUSH1 0x11 PUSH1 0x4 MSTORE PUSH1 0x24 PUSH1 0x0 REVERT JUMPDEST PUSH1 0x0 PUSH1 0x0 NOT DUP3 EQ ISZERO PUSH3 0x88D JUMPI PUSH3 0x88D PUSH3 0x860 JUMP JUMPDEST POP PUSH1 0x1 ADD SWAP1 JUMP JUMPDEST PUSH1 0x0 DUP3 NOT DUP3 GT ISZERO PUSH3 0x8AA JUMPI PUSH3 0x8AA PUSH3 0x860 JUMP JUMPDEST POP ADD SWAP1 JUMP JUMPDEST PUSH1 0x1 DUP2 DUP2 SHR SWAP1 DUP3 AND DUP1 PUSH3 0x8C4 JUMPI PUSH1 0x7F DUP3 AND SWAP2 POP JUMPDEST PUSH1 0x20 DUP3 LT DUP2 EQ ISZERO PUSH3 0x8E6 JUMPI PUSH4 0x4E487B71 PUSH1 0xE0 SHL PUSH1 0x0 MSTORE PUSH1 0x22 PUSH1 0x4 MSTORE PUSH1 0x24 PUSH1 0x0 REVERT JUMPDEST POP SWAP2 SWAP1 POP JUMP JUMPDEST PUSH1 0x80 MLOAD PUSH2 0x2392 PUSH3 0x90F PUSH1 0x0 CODECOPY PUSH1 0x0 DUP2 DUP2 PUSH2 0x564 ADD MSTORE PUSH2 0x5A6 ADD MSTORE PUSH2 0x2392 PUSH1 0x0 RETURN INVALID PUSH1 0x80 PUSH1 0x40 MSTORE CALLVALUE DUP1 ISZERO PUSH2 0x10 JUMPI PUSH1 0x0 DUP1 REVERT JUMPDEST POP PUSH1 0x4 CALLDATASIZE LT PUSH2 0x1DA JUMPI PUSH1 0x0 CALLDATALOAD PUSH1 0xE0 SHR DUP1 PUSH4 0x85C74889 GT PUSH2 0x104 JUMPI DUP1 PUSH4 0xB693BFF8 GT PUSH2 0xA2 JUMPI DUP1 PUSH4 0xCDC773EF GT PUSH2 0x71 JUMPI DUP1 PUSH4 0xCDC773EF EQ PUSH2 0x469 JUMPI DUP1 PUSH4 0xD8A4676F EQ PUSH2 0x471 JUMPI DUP1 PUSH4 0xF2FDE38B EQ PUSH2 0x492 JUMPI DUP1 PUSH4 0xFC2A88C3 EQ PUSH2 0x4A5 JUMPI PUSH1 0x0 DUP1 REVERT JUMPDEST DUP1 PUSH4 0xB693BFF8 EQ PUSH2 0x419 JUMPI DUP1 PUSH4 0xB82C1B4A EQ PUSH2 0x422 JUMPI DUP1 PUSH4 0xBC0D27A0 EQ PUSH2 0x42B JUMPI DUP1 PUSH4 0xC0576B73 EQ PUSH2 0x445 JUMPI PUSH1 0x0 DUP1 REVERT JUMPDEST DUP1 PUSH4 0x9B1FEC3F GT PUSH2 0xDE JUMPI DUP1 PUSH4 0x9B1FEC3F EQ PUSH2 0x390 JUMPI DUP1 PUSH4 0xA168FA89 EQ PUSH2 0x3B0 JUMPI DUP1 PUSH4 0xA4482DE5 EQ PUSH2 0x3F3 JUMPI DUP1 PUSH4 0xB5B662AF EQ PUSH2 0x406 JUMPI PUSH1 0x0 DUP1 REVERT JUMPDEST DUP1 PUSH4 0x85C74889 EQ PUSH2 0x331 JUMPI DUP1 PUSH4 0x8796BA8C EQ PUSH2 0x358 JUMPI DUP1 PUSH4 0x8DA5CB5B EQ PUSH2 0x36B JUMPI PUSH1 0x0 DUP1 REVERT JUMPDEST DUP1 PUSH4 0x316990C1 GT PUSH2 0x17C JUMPI DUP1 PUSH4 0x50D15FBE GT PUSH2 0x14B JUMPI DUP1 PUSH4 0x50D15FBE EQ PUSH2 0x2E1 JUMPI DUP1 PUSH4 0x539DC37E EQ PUSH2 0x303 JUMPI DUP1 PUSH4 0x79BA5097 EQ PUSH2 0x316 JUMPI DUP1 PUSH4 0x7C7C984B EQ PUSH2 0x31E JUMPI PUSH1 0x0 DUP1 REVERT JUMPDEST DUP1 PUSH4 0x316990C1 EQ PUSH2 0x24E JUMPI DUP1 PUSH4 0x3E26F96F EQ PUSH2 0x26E JUMPI DUP1 PUSH4 0x444F2EC5 EQ PUSH2 0x277 JUMPI DUP1 PUSH4 0x4768D4EF EQ PUSH2 0x297 JUMPI PUSH1 0x0 DUP1 REVERT JUMPDEST DUP1 PUSH4 0x136DEB12 GT PUSH2 0x1B8 JUMPI DUP1 PUSH4 0x136DEB12 EQ PUSH2 0x20B JUMPI DUP1 PUSH4 0x1AA3A008 EQ PUSH2 0x21E JUMPI DUP1 PUSH4 0x1FE543E3 EQ PUSH2 0x228 JUMPI DUP1 PUSH4 0x20F9EB3C EQ PUSH2 0x23B JUMPI PUSH1 0x0 DUP1 REVERT JUMPDEST DUP1 PUSH4 0x1FD1951 EQ PUSH2 0x1DF JUMPI DUP1 PUSH4 0xA45AF25 EQ PUSH2 0x1FB JUMPI DUP1 PUSH4 0xFF56693 EQ PUSH2 0x203 JUMPI JUMPDEST PUSH1 0x0 DUP1 REVERT JUMPDEST PUSH2 0x1E8 PUSH1 0xA SLOAD DUP2 JUMP JUMPDEST PUSH1 0x40 MLOAD SWAP1 DUP2 MSTORE PUSH1 0x20 ADD JUMPDEST PUSH1 0x40 MLOAD DUP1 SWAP2 SUB SWAP1 RETURN JUMPDEST PUSH2 0x1E8 PUSH1 0xA DUP2 JUMP JUMPDEST PUSH2 0x1E8 PUSH1 0x2 DUP2 JUMP JUMPDEST PUSH2 0x1E8 PUSH2 0x219 CALLDATASIZE PUSH1 0x4 PUSH2 0x1C57 JUMP JUMPDEST PUSH2 0x4AE JUMP JUMPDEST PUSH2 0x226 PUSH2 0x4D3 JUMP JUMPDEST STOP JUMPDEST PUSH2 0x226 PUSH2 0x236 CALLDATASIZE PUSH1 0x4 PUSH2 0x1CE9 JUMP JUMPDEST PUSH2 0x559 JUMP JUMPDEST PUSH2 0x226 PUSH2 0x249 CALLDATASIZE PUSH1 0x4 PUSH2 0x1E0B JUMP JUMPDEST PUSH2 0x5E6 JUMP JUMPDEST PUSH2 0x1E8 PUSH2 0x25C CALLDATASIZE PUSH1 0x4 PUSH2 0x1E59 JUMP JUMPDEST PUSH1 0x11 PUSH1 0x20 MSTORE PUSH1 0x0 SWAP1 DUP2 MSTORE PUSH1 0x40 SWAP1 KECCAK256 SLOAD DUP2 JUMP JUMPDEST PUSH2 0x1E8 PUSH2 0xFFF DUP2 JUMP JUMPDEST PUSH2 0x1E8 PUSH2 0x285 CALLDATASIZE PUSH1 0x4 PUSH2 0x1E59 JUMP JUMPDEST PUSH1 0x12 PUSH1 0x20 MSTORE PUSH1 0x0 SWAP1 DUP2 MSTORE PUSH1 0x40 SWAP1 KECCAK256 SLOAD DUP2 JUMP JUMPDEST PUSH2 0x2C6 PUSH2 0x2A5 CALLDATASIZE PUSH1 0x4 PUSH2 0x1E59 JUMP JUMPDEST PUSH1 0xD PUSH1 0x20 MSTORE PUSH1 0x0 SWAP1 DUP2 MSTORE PUSH1 0x40 SWAP1 KECCAK256 DUP1 SLOAD PUSH1 0x1 DUP3 ADD SLOAD PUSH1 0x11 SWAP1 SWAP3 ADD SLOAD SWAP1 SWAP2 SWAP1 DUP4 JUMP JUMPDEST PUSH1 0x40 DUP1 MLOAD SWAP4 DUP5 MSTORE PUSH1 0x20 DUP5 ADD SWAP3 SWAP1 SWAP3 MSTORE SWAP1 DUP3 ADD MSTORE PUSH1 0x60 ADD PUSH2 0x1F2 JUMP JUMPDEST PUSH2 0x2F4 PUSH2 0x2EF CALLDATASIZE PUSH1 0x4 PUSH2 0x1E59 JUMP JUMPDEST PUSH2 0x65F JUMP JUMPDEST PUSH1 0x40 MLOAD PUSH2 0x1F2 SWAP4 SWAP3 SWAP2 SWAP1 PUSH2 0x1EBF JUMP JUMPDEST PUSH2 0x1E8 PUSH2 0x311 CALLDATASIZE PUSH1 0x4 PUSH2 0x1EE4 JUMP JUMPDEST PUSH2 0x709 JUMP JUMPDEST PUSH2 0x226 PUSH2 0x747 JUMP JUMPDEST PUSH2 0x226 PUSH2 0x32C CALLDATASIZE PUSH1 0x4 PUSH2 0x1F25 JUMP JUMPDEST PUSH2 0x7F1 JUMP JUMPDEST PUSH2 0x344 PUSH2 0x33F CALLDATASIZE PUSH1 0x4 PUSH2 0x1E59 JUMP JUMPDEST PUSH2 0x83A JUMP JUMPDEST PUSH1 0x40 MLOAD PUSH2 0x1F2 SWAP9 SWAP8 SWAP7 SWAP6 SWAP5 SWAP4 SWAP3 SWAP2 SWAP1 PUSH2 0x1FAD JUMP JUMPDEST PUSH2 0x1E8 PUSH2 0x366 CALLDATASIZE PUSH1 0x4 PUSH2 0x1E59 JUMP JUMPDEST PUSH2 0xED2 JUMP JUMPDEST PUSH1 0x0 SLOAD PUSH1 0x1 PUSH1 0x1 PUSH1 0xA0 SHL SUB AND JUMPDEST PUSH1 0x40 MLOAD PUSH1 0x1 PUSH1 0x1 PUSH1 0xA0 SHL SUB SWAP1 SWAP2 AND DUP2 MSTORE PUSH1 0x20 ADD PUSH2 0x1F2 JUMP JUMPDEST PUSH2 0x1E8 PUSH2 0x39E CALLDATASIZE PUSH1 0x4 PUSH2 0x1E59 JUMP JUMPDEST PUSH1 0xF PUSH1 0x20 MSTORE PUSH1 0x0 SWAP1 DUP2 MSTORE PUSH1 0x40 SWAP1 KECCAK256 SLOAD DUP2 JUMP JUMPDEST PUSH2 0x3DC PUSH2 0x3BE CALLDATASIZE PUSH1 0x4 PUSH2 0x1E59 JUMP JUMPDEST PUSH1 0x2 PUSH1 0x20 MSTORE PUSH1 0x0 SWAP1 DUP2 MSTORE PUSH1 0x40 SWAP1 KECCAK256 SLOAD PUSH1 0xFF DUP1 DUP3 AND SWAP2 PUSH2 0x100 SWAP1 DIV AND DUP3 JUMP JUMPDEST PUSH1 0x40 DUP1 MLOAD SWAP3 ISZERO ISZERO DUP4 MSTORE SWAP1 ISZERO ISZERO PUSH1 0x20 DUP4 ADD MSTORE ADD PUSH2 0x1F2 JUMP JUMPDEST PUSH2 0x1E8 PUSH2 0x401 CALLDATASIZE PUSH1 0x4 PUSH2 0x20A3 JUMP JUMPDEST PUSH2 0xEF3 JUMP JUMPDEST PUSH2 0x226 PUSH2 0x414 CALLDATASIZE PUSH1 0x4 PUSH2 0x2133 JUMP JUMPDEST PUSH2 0x12C7 JUMP JUMPDEST PUSH2 0x1E8 PUSH1 0x8 SLOAD DUP2 JUMP JUMPDEST PUSH2 0x1E8 PUSH1 0x9 SLOAD DUP2 JUMP JUMPDEST PUSH1 0x7 SLOAD PUSH2 0x378 SWAP1 PUSH1 0x1 PUSH1 0x50 SHL SWAP1 DIV PUSH1 0x1 PUSH1 0x1 PUSH1 0xA0 SHL SUB AND DUP2 JUMP JUMPDEST PUSH2 0x458 PUSH2 0x453 CALLDATASIZE PUSH1 0x4 PUSH2 0x1E59 JUMP JUMPDEST PUSH2 0x150D JUMP JUMPDEST PUSH1 0x40 MLOAD PUSH2 0x1F2 SWAP6 SWAP5 SWAP4 SWAP3 SWAP2 SWAP1 PUSH2 0x21E0 JUMP JUMPDEST PUSH2 0x1E8 PUSH1 0x32 DUP2 JUMP JUMPDEST PUSH2 0x484 PUSH2 0x47F CALLDATASIZE PUSH1 0x4 PUSH2 0x1E59 JUMP JUMPDEST PUSH2 0x15C3 JUMP JUMPDEST PUSH1 0x40 MLOAD PUSH2 0x1F2 SWAP3 SWAP2 SWAP1 PUSH2 0x2217 JUMP JUMPDEST PUSH2 0x226 PUSH2 0x4A0 CALLDATASIZE PUSH1 0x4 PUSH2 0x1F25 JUMP JUMPDEST PUSH2 0x16B7 JUMP JUMPDEST PUSH2 0x1E8 PUSH1 0x5 SLOAD DUP2 JUMP JUMPDEST PUSH1 0xE PUSH1 0x20 MSTORE DUP2 PUSH1 0x0 MSTORE PUSH1 0x40 PUSH1 0x0 KECCAK256 DUP2 PUSH1 0x5 DUP2 LT PUSH2 0x4CA JUMPI PUSH1 0x0 DUP1 REVERT JUMPDEST ADD SLOAD SWAP2 POP DUP3 SWAP1 POP JUMP JUMPDEST PUSH1 0x7 SLOAD PUSH1 0x40 MLOAD PUSH4 0x35313C21 PUSH1 0xE1 SHL DUP2 MSTORE CALLER PUSH1 0x4 DUP3 ADD MSTORE PUSH1 0x1 PUSH1 0x50 SHL SWAP1 SWAP2 DIV PUSH1 0x1 PUSH1 0x1 PUSH1 0xA0 SHL SUB AND SWAP1 PUSH4 0x6A627842 SWAP1 PUSH1 0x24 ADD PUSH1 0x20 PUSH1 0x40 MLOAD DUP1 DUP4 SUB DUP2 PUSH1 0x0 DUP8 DUP1 EXTCODESIZE ISZERO DUP1 ISZERO PUSH2 0x51E JUMPI PUSH1 0x0 DUP1 REVERT JUMPDEST POP GAS CALL ISZERO DUP1 ISZERO PUSH2 0x532 JUMPI RETURNDATASIZE PUSH1 0x0 DUP1 RETURNDATACOPY RETURNDATASIZE PUSH1 0x0 REVERT JUMPDEST POP POP POP POP PUSH1 0x40 MLOAD RETURNDATASIZE PUSH1 0x1F NOT PUSH1 0x1F DUP3 ADD AND DUP3 ADD DUP1 PUSH1 0x40 MSTORE POP DUP2 ADD SWAP1 PUSH2 0x556 SWAP2 SWAP1 PUSH2 0x223A JUMP JUMPDEST POP JUMP JUMPDEST CALLER PUSH1 0x1 PUSH1 0x1 PUSH1 0xA0 SHL SUB PUSH32 0x0 AND EQ PUSH2 0x5D8 JUMPI PUSH1 0x40 MLOAD PUSH4 0x73E64FD PUSH1 0xE2 SHL DUP2 MSTORE CALLER PUSH1 0x4 DUP3 ADD MSTORE PUSH1 0x1 PUSH1 0x1 PUSH1 0xA0 SHL SUB PUSH32 0x0 AND PUSH1 0x24 DUP3 ADD MSTORE PUSH1 0x44 ADD JUMPDEST PUSH1 0x40 MLOAD DUP1 SWAP2 SUB SWAP1 REVERT JUMPDEST PUSH2 0x5E2 DUP3 DUP3 PUSH2 0x16C8 JUMP JUMPDEST POP POP JUMP JUMPDEST PUSH2 0x5EE PUSH2 0x178E JUMP JUMPDEST PUSH1 0x40 DUP1 MLOAD PUSH1 0x60 DUP2 ADD DUP3 MSTORE DUP5 DUP2 MSTORE PUSH1 0x20 DUP1 DUP3 ADD DUP6 SWAP1 MSTORE DUP2 DUP4 ADD DUP5 SWAP1 MSTORE PUSH1 0x9 SLOAD PUSH1 0x0 SWAP1 DUP2 MSTORE PUSH1 0xB DUP3 MSTORE SWAP3 SWAP1 SWAP3 KECCAK256 DUP2 MLOAD DUP1 MLOAD SWAP3 SWAP4 SWAP2 SWAP3 PUSH2 0x62E SWAP3 DUP5 SWAP3 ADD SWAP1 PUSH2 0x1A58 JUMP JUMPDEST POP PUSH1 0x20 DUP3 ADD MLOAD PUSH1 0x1 DUP3 ADD SSTORE PUSH1 0x40 SWAP1 SWAP2 ADD MLOAD PUSH1 0x2 SWAP1 SWAP2 ADD SSTORE PUSH1 0x9 DUP1 SLOAD SWAP1 PUSH1 0x0 PUSH2 0x655 DUP4 PUSH2 0x2269 JUMP JUMPDEST SWAP2 SWAP1 POP SSTORE POP POP POP POP JUMP JUMPDEST PUSH1 0xB PUSH1 0x20 MSTORE PUSH1 0x0 SWAP1 DUP2 MSTORE PUSH1 0x40 SWAP1 KECCAK256 DUP1 SLOAD DUP2 SWAP1 PUSH2 0x67A SWAP1 PUSH2 0x2284 JUMP JUMPDEST DUP1 PUSH1 0x1F ADD PUSH1 0x20 DUP1 SWAP2 DIV MUL PUSH1 0x20 ADD PUSH1 0x40 MLOAD SWAP1 DUP2 ADD PUSH1 0x40 MSTORE DUP1 SWAP3 SWAP2 SWAP1 DUP2 DUP2 MSTORE PUSH1 0x20 ADD DUP3 DUP1 SLOAD PUSH2 0x6A6 SWAP1 PUSH2 0x2284 JUMP JUMPDEST DUP1 ISZERO PUSH2 0x6F3 JUMPI DUP1 PUSH1 0x1F LT PUSH2 0x6C8 JUMPI PUSH2 0x100 DUP1 DUP4 SLOAD DIV MUL DUP4 MSTORE SWAP2 PUSH1 0x20 ADD SWAP2 PUSH2 0x6F3 JUMP JUMPDEST DUP3 ADD SWAP2 SWAP1 PUSH1 0x0 MSTORE PUSH1 0x20 PUSH1 0x0 KECCAK256 SWAP1 JUMPDEST DUP2 SLOAD DUP2 MSTORE SWAP1 PUSH1 0x1 ADD SWAP1 PUSH1 0x20 ADD DUP1 DUP4 GT PUSH2 0x6D6 JUMPI DUP3 SWAP1 SUB PUSH1 0x1F AND DUP3 ADD SWAP2 JUMPDEST POP POP POP POP POP SWAP1 DUP1 PUSH1 0x1 ADD SLOAD SWAP1 DUP1 PUSH1 0x2 ADD SLOAD SWAP1 POP DUP4 JUMP JUMPDEST PUSH1 0x10 PUSH1 0x20 MSTORE DUP3 PUSH1 0x0 MSTORE PUSH1 0x40 PUSH1 0x0 KECCAK256 PUSH1 0x20 MSTORE DUP2 PUSH1 0x0 MSTORE PUSH1 0x40 PUSH1 0x0 KECCAK256 DUP2 DUP2 SLOAD DUP2 LT PUSH2 0x731 JUMPI PUSH1 0x0 DUP1 REVERT JUMPDEST SWAP1 PUSH1 0x0 MSTORE PUSH1 0x20 PUSH1 0x0 KECCAK256 ADD PUSH1 0x0 SWAP3 POP SWAP3 POP POP POP SLOAD DUP2 JUMP JUMPDEST PUSH1 0x1 SLOAD PUSH1 0x1 PUSH1 0x1 PUSH1 0xA0 SHL SUB AND CALLER EQ PUSH2 0x79A JUMPI PUSH1 0x40 MLOAD PUSH3 0x461BCD PUSH1 0xE5 SHL DUP2 MSTORE PUSH1 0x20 PUSH1 0x4 DUP3 ADD MSTORE PUSH1 0x16 PUSH1 0x24 DUP3 ADD MSTORE PUSH22 0x26BAB9BA10313290383937B837B9B2B21037BBB732B9 PUSH1 0x51 SHL PUSH1 0x44 DUP3 ADD MSTORE PUSH1 0x64 ADD PUSH2 0x5CF JUMP JUMPDEST PUSH1 0x0 DUP1 SLOAD CALLER PUSH1 0x1 PUSH1 0x1 PUSH1 0xA0 SHL SUB NOT DUP1 DUP4 AND DUP3 OR DUP5 SSTORE PUSH1 0x1 DUP1 SLOAD SWAP1 SWAP2 AND SWAP1 SSTORE PUSH1 0x40 MLOAD PUSH1 0x1 PUSH1 0x1 PUSH1 0xA0 SHL SUB SWAP1 SWAP3 AND SWAP3 SWAP1 SWAP2 DUP4 SWAP2 PUSH32 0x8BE0079C531659141344CD1FD0A4F28419497F9722A3DAAFE3B4186F6B6457E0 SWAP2 LOG3 POP JUMP JUMPDEST PUSH2 0x7F9 PUSH2 0x178E JUMP JUMPDEST PUSH1 0x7 DUP1 SLOAD PUSH1 0x1 PUSH1 0x1 PUSH1 0xA0 SHL SUB SWAP1 SWAP3 AND PUSH1 0x1 PUSH1 0x50 SHL MUL PUSH32 0xFFFF0000000000000000000000000000000000000000FFFFFFFFFFFFFFFFFFFF SWAP1 SWAP3 AND SWAP2 SWAP1 SWAP2 OR SWAP1 SSTORE JUMP JUMPDEST PUSH1 0x0 DUP1 PUSH1 0x0 PUSH2 0x847 PUSH2 0x1ADC JUMP JUMPDEST PUSH2 0x84F PUSH2 0x1ADC JUMP JUMPDEST PUSH2 0x857 PUSH2 0x1ADC JUMP JUMPDEST PUSH1 0x0 DUP8 DUP2 MSTORE PUSH1 0x11 PUSH1 0x20 SWAP1 DUP2 MSTORE PUSH1 0x40 DUP1 DUP4 KECCAK256 SLOAD DUP4 MSTORE PUSH1 0x2 SWAP1 SWAP2 MSTORE DUP2 KECCAK256 PUSH1 0x1 ADD DUP1 SLOAD PUSH1 0x60 SWAP3 DUP4 SWAP3 SWAP2 PUSH2 0x889 JUMPI PUSH2 0x889 PUSH2 0x22BF JUMP JUMPDEST PUSH1 0x0 SWAP2 DUP3 MSTORE PUSH1 0x20 DUP1 DUP4 KECCAK256 SWAP1 SWAP2 ADD SLOAD DUP12 DUP4 MSTORE PUSH1 0xD DUP3 MSTORE PUSH1 0x40 DUP1 DUP5 KECCAK256 PUSH1 0x1 SWAP1 DUP2 ADD SLOAD DUP6 MSTORE PUSH1 0xC SWAP1 SWAP4 MSTORE DUP4 KECCAK256 PUSH1 0x9 ADD SLOAD DUP2 ISZERO ISZERO SWAP12 POP SWAP1 SWAP9 POP PUSH1 0xA SWAP2 PUSH2 0x8CA SWAP2 PUSH2 0x22D5 JUMP JUMPDEST PUSH1 0x40 DUP1 MLOAD PUSH1 0x64 DUP1 DUP3 MSTORE PUSH2 0xCA0 DUP3 ADD SWAP1 SWAP3 MSTORE SWAP2 SWAP1 SWAP3 SHL PUSH1 0x5 SWAP1 DUP2 OR SWAP4 POP SWAP2 PUSH1 0x20 DUP3 ADD PUSH2 0xC80 DUP1 CALLDATASIZE DUP4 CALLDATACOPY POP POP PUSH1 0x40 DUP1 MLOAD PUSH1 0x64 DUP1 DUP3 MSTORE PUSH2 0xCA0 DUP3 ADD SWAP1 SWAP3 MSTORE SWAP3 SWAP7 POP SWAP1 POP PUSH1 0x20 DUP3 ADD PUSH2 0xC80 DUP1 CALLDATASIZE DUP4 CALLDATACOPY POP POP POP PUSH1 0x0 DUP13 DUP2 MSTORE PUSH1 0xD PUSH1 0x20 SWAP1 DUP2 MSTORE PUSH1 0x40 DUP1 DUP4 KECCAK256 PUSH1 0x1 SWAP1 DUP2 ADD SLOAD DUP5 MSTORE PUSH1 0xC SWAP1 SWAP3 MSTORE DUP3 KECCAK256 ADD SLOAD DUP7 MLOAD SWAP3 SWAP6 POP SWAP2 DUP7 SWAP2 SWAP1 PUSH2 0x94F JUMPI PUSH2 0x94F PUSH2 0x22BF JUMP JUMPDEST PUSH1 0x20 SWAP1 DUP2 MUL SWAP2 SWAP1 SWAP2 ADD DUP2 ADD SWAP2 SWAP1 SWAP2 MSTORE PUSH1 0x0 DUP13 DUP2 MSTORE PUSH1 0xD DUP3 MSTORE PUSH1 0x40 DUP1 DUP3 KECCAK256 PUSH1 0x11 ADD SLOAD DUP3 MSTORE PUSH1 0xC SWAP1 SWAP3 MSTORE SWAP1 DUP2 KECCAK256 PUSH1 0x1 ADD SLOAD DUP5 MLOAD SWAP1 SWAP2 DUP6 SWAP2 PUSH2 0x990 JUMPI PUSH2 0x990 PUSH2 0x22BF JUMP JUMPDEST PUSH1 0x20 MUL PUSH1 0x20 ADD ADD DUP2 DUP2 MSTORE POP POP PUSH2 0x9A4 PUSH2 0x1AFB JUMP JUMPDEST PUSH1 0x0 DUP1 DUP3 MSTORE DUP13 DUP2 MSTORE PUSH1 0xD PUSH1 0x20 SWAP1 DUP2 MSTORE PUSH1 0x40 DUP1 DUP4 KECCAK256 PUSH1 0x1 SWAP1 DUP2 ADD SLOAD DUP5 MSTORE PUSH1 0xF DUP4 MSTORE SWAP3 DUP2 SWAP1 KECCAK256 SLOAD SWAP1 DUP5 ADD MSTORE DUP3 ADD MSTORE JUMPDEST PUSH1 0x20 DUP2 ADD MLOAD PUSH1 0x32 GT ISZERO PUSH2 0xE29 JUMPI PUSH1 0x20 DUP2 ADD MLOAD PUSH1 0x1 DUP11 DUP3 SHR AND SWAP1 DUP9 SWAP1 PUSH1 0x64 DUP2 LT PUSH2 0x9FC JUMPI PUSH2 0x9FC PUSH2 0x22BF JUMP JUMPDEST PUSH1 0x20 MUL ADD MSTORE DUP7 DUP2 PUSH1 0x1 PUSH1 0x20 MUL ADD MLOAD PUSH1 0x64 DUP2 LT PUSH2 0xA1A JUMPI PUSH2 0xA1A PUSH2 0x22BF JUMP JUMPDEST PUSH1 0x20 MUL ADD MLOAD PUSH2 0xA69 JUMPI PUSH1 0x40 DUP2 ADD MLOAD PUSH1 0x20 DUP3 ADD MLOAD PUSH2 0xA38 SWAP1 PUSH1 0x1 PUSH2 0x22EC JUMP JUMPDEST DUP11 SWAP1 SHR PUSH2 0xA45 SWAP2 SWAP1 PUSH2 0x2304 JUMP JUMPDEST DUP7 DUP3 PUSH1 0x1 JUMPDEST PUSH1 0x20 MUL ADD MLOAD PUSH1 0x64 DUP2 LT PUSH2 0xA5F JUMPI PUSH2 0xA5F PUSH2 0x22BF JUMP JUMPDEST PUSH1 0x20 MUL ADD MSTORE PUSH2 0xC01 JUMP JUMPDEST PUSH1 0x0 DUP13 DUP2 MSTORE PUSH1 0x10 PUSH1 0x20 SWAP1 DUP2 MSTORE PUSH1 0x40 DUP1 DUP4 KECCAK256 DUP4 DUP1 MSTORE SWAP1 SWAP2 MSTORE DUP2 KECCAK256 DUP1 SLOAD SWAP1 SWAP2 SWAP1 PUSH2 0xA93 JUMPI PUSH2 0xA93 PUSH2 0x22BF JUMP JUMPDEST PUSH1 0x0 SWAP2 DUP3 MSTORE PUSH1 0x20 SWAP1 SWAP2 KECCAK256 ADD SLOAD DUP7 DUP3 PUSH1 0x1 PUSH1 0x20 MUL ADD MLOAD PUSH1 0x64 DUP2 LT PUSH2 0xAB8 JUMPI PUSH2 0xAB8 PUSH2 0x22BF JUMP JUMPDEST PUSH1 0x20 MUL ADD MSTORE PUSH1 0x5 DUP3 EQ ISZERO PUSH2 0xB2E JUMPI PUSH1 0x3 DUP2 PUSH1 0x1 JUMPDEST PUSH1 0x20 MUL ADD MLOAD PUSH2 0xADC SWAP1 PUSH1 0x2 PUSH2 0x22EC JUMP JUMPDEST DUP11 SWAP1 SHR PUSH2 0xAE9 SWAP2 SWAP1 PUSH2 0x2304 JUMP JUMPDEST PUSH1 0x0 DUP14 DUP2 MSTORE PUSH1 0x10 PUSH1 0x20 SWAP1 DUP2 MSTORE PUSH1 0x40 DUP1 DUP4 KECCAK256 DUP5 DUP5 MSTORE SWAP1 SWAP2 MSTORE DUP2 KECCAK256 DUP1 SLOAD SWAP3 SWAP6 POP SWAP1 SWAP4 POP SWAP1 DUP4 SWAP1 PUSH2 0xB19 JUMPI PUSH2 0xB19 PUSH2 0x22BF JUMP JUMPDEST PUSH1 0x0 SWAP2 DUP3 MSTORE PUSH1 0x20 SWAP1 SWAP2 KECCAK256 ADD SLOAD DUP7 DUP3 PUSH1 0x1 PUSH2 0xA4A JUMP JUMPDEST PUSH2 0xB39 PUSH1 0x1 DUP4 PUSH2 0x22EC JUMP JUMPDEST PUSH1 0x0 DUP14 DUP2 MSTORE PUSH1 0x10 PUSH1 0x20 SWAP1 DUP2 MSTORE PUSH1 0x40 DUP1 DUP4 KECCAK256 DUP8 DUP5 MSTORE SWAP1 SWAP2 MSTORE SWAP1 KECCAK256 SLOAD SWAP1 SWAP3 POP DUP3 LT ISZERO DUP1 PUSH2 0xB9C JUMPI POP PUSH1 0x0 DUP13 DUP2 MSTORE PUSH1 0x10 PUSH1 0x20 SWAP1 DUP2 MSTORE PUSH1 0x40 DUP1 DUP4 KECCAK256 DUP7 DUP5 MSTORE SWAP1 SWAP2 MSTORE SWAP1 KECCAK256 DUP1 SLOAD PUSH2 0xFFF SWAP2 SWAP1 DUP5 SWAP1 DUP2 LT PUSH2 0xB8F JUMPI PUSH2 0xB8F PUSH2 0x22BF JUMP JUMPDEST SWAP1 PUSH1 0x0 MSTORE PUSH1 0x20 PUSH1 0x0 KECCAK256 ADD SLOAD EQ JUMPDEST ISZERO PUSH2 0xBAB JUMPI PUSH1 0x3 DUP2 PUSH1 0x1 PUSH2 0xACC JUMP JUMPDEST PUSH1 0x0 DUP13 DUP2 MSTORE PUSH1 0x10 PUSH1 0x20 SWAP1 DUP2 MSTORE PUSH1 0x40 DUP1 DUP4 KECCAK256 DUP7 DUP5 MSTORE SWAP1 SWAP2 MSTORE SWAP1 KECCAK256 DUP1 SLOAD DUP4 SWAP1 DUP2 LT PUSH2 0xBD6 JUMPI PUSH2 0xBD6 PUSH2 0x22BF JUMP JUMPDEST PUSH1 0x0 SWAP2 DUP3 MSTORE PUSH1 0x20 SWAP1 SWAP2 KECCAK256 ADD SLOAD DUP7 DUP3 PUSH1 0x1 PUSH1 0x20 MUL ADD MLOAD PUSH1 0x64 DUP2 LT PUSH2 0xBFB JUMPI PUSH2 0xBFB PUSH2 0x22BF JUMP JUMPDEST PUSH1 0x20 MUL ADD MSTORE JUMPDEST PUSH1 0x1 DUP6 DUP2 DUP4 DUP2 PUSH1 0x20 MUL ADD MLOAD PUSH2 0xC16 SWAP2 SWAP1 PUSH2 0x22D5 JUMP JUMPDEST DUP2 MLOAD DUP2 LT PUSH2 0xC26 JUMPI PUSH2 0xC26 PUSH2 0x22BF JUMP JUMPDEST PUSH1 0x20 MUL PUSH1 0x20 ADD ADD MLOAD DUP7 DUP4 PUSH1 0x1 PUSH1 0x3 DUP2 LT PUSH2 0xC42 JUMPI PUSH2 0xC42 PUSH2 0x22BF JUMP JUMPDEST PUSH1 0x20 MUL ADD MLOAD DUP2 MLOAD DUP2 LT PUSH2 0xC57 JUMPI PUSH2 0xC57 PUSH2 0x22BF JUMP JUMPDEST PUSH1 0x20 SWAP1 DUP2 MUL SWAP2 SWAP1 SWAP2 ADD ADD MSTORE DUP5 PUSH1 0x1 DUP4 DUP2 PUSH1 0x20 MUL ADD MLOAD PUSH2 0xC76 SWAP2 SWAP1 PUSH2 0x22D5 JUMP JUMPDEST DUP2 MLOAD DUP2 LT PUSH2 0xC86 JUMPI PUSH2 0xC86 PUSH2 0x22BF JUMP JUMPDEST PUSH1 0x20 MUL PUSH1 0x20 ADD ADD MLOAD DUP6 DUP4 PUSH1 0x1 PUSH1 0x3 DUP2 LT PUSH2 0xCA2 JUMPI PUSH2 0xCA2 PUSH2 0x22BF JUMP JUMPDEST PUSH1 0x20 MUL ADD MLOAD DUP2 MLOAD DUP2 LT PUSH2 0xCB7 JUMPI PUSH2 0xCB7 PUSH2 0x22BF JUMP JUMPDEST PUSH1 0x20 SWAP1 DUP2 MUL SWAP2 SWAP1 SWAP2 ADD ADD MSTORE DUP8 DUP3 PUSH1 0x1 PUSH1 0x20 MUL ADD MLOAD PUSH1 0x64 DUP2 LT PUSH2 0xCDB JUMPI PUSH2 0xCDB PUSH2 0x22BF JUMP JUMPDEST PUSH1 0x20 MUL ADD MLOAD PUSH2 0xD74 JUMPI DUP1 DUP6 DUP4 PUSH1 0x1 PUSH1 0x20 MUL ADD MLOAD DUP2 MLOAD DUP2 LT PUSH2 0xCFE JUMPI PUSH2 0xCFE PUSH2 0x22BF JUMP JUMPDEST PUSH1 0x20 MUL PUSH1 0x20 ADD ADD MLOAD GT PUSH2 0xD3E JUMPI PUSH1 0x1 DUP1 DUP4 MSTORE PUSH1 0x0 SWAP1 DUP7 SWAP1 DUP5 SWAP1 JUMPDEST PUSH1 0x20 MUL ADD MLOAD DUP2 MLOAD DUP2 LT PUSH2 0xD2D JUMPI PUSH2 0xD2D PUSH2 0x22BF JUMP JUMPDEST PUSH1 0x20 MUL PUSH1 0x20 ADD ADD DUP2 DUP2 MSTORE POP POP PUSH2 0xDDE JUMP JUMPDEST DUP1 DUP6 DUP4 PUSH1 0x1 PUSH1 0x20 MUL ADD MLOAD DUP2 MLOAD DUP2 LT PUSH2 0xD58 JUMPI PUSH2 0xD58 PUSH2 0x22BF JUMP JUMPDEST PUSH1 0x20 MUL PUSH1 0x20 ADD ADD DUP2 DUP2 MLOAD PUSH2 0xD6C SWAP2 SWAP1 PUSH2 0x22D5 JUMP JUMPDEST SWAP1 MSTORE POP PUSH2 0xDDE JUMP JUMPDEST DUP1 DUP7 DUP4 PUSH1 0x1 PUSH1 0x20 MUL ADD MLOAD DUP2 MLOAD DUP2 LT PUSH2 0xD8E JUMPI PUSH2 0xD8E PUSH2 0x22BF JUMP JUMPDEST PUSH1 0x20 MUL PUSH1 0x20 ADD ADD MLOAD GT PUSH2 0xDAC JUMPI PUSH1 0x1 DUP1 DUP4 MSTORE PUSH1 0x0 SWAP1 DUP8 SWAP1 DUP5 SWAP1 PUSH2 0xD18 JUMP JUMPDEST DUP1 DUP7 DUP4 PUSH1 0x1 PUSH1 0x20 MUL ADD MLOAD DUP2 MLOAD DUP2 LT PUSH2 0xDC6 JUMPI PUSH2 0xDC6 PUSH2 0x22BF JUMP JUMPDEST PUSH1 0x20 MUL PUSH1 0x20 ADD ADD DUP2 DUP2 MLOAD PUSH2 0xDDA SWAP2 SWAP1 PUSH2 0x22D5 JUMP JUMPDEST SWAP1 MSTORE POP JUMPDEST DUP2 MLOAD PUSH1 0x1 EQ ISZERO PUSH2 0xE12 JUMPI PUSH1 0x1 DUP10 DUP4 DUP3 PUSH1 0x20 MUL ADD MLOAD PUSH1 0x64 DUP2 LT PUSH2 0xE02 JUMPI PUSH2 0xE02 PUSH2 0x22BF JUMP JUMPDEST SWAP2 ISZERO ISZERO PUSH1 0x20 SWAP1 SWAP3 MUL ADD MSTORE POP PUSH2 0xE29 JUMP JUMPDEST POP PUSH1 0x20 DUP2 ADD DUP1 MLOAD PUSH2 0xE22 SWAP1 PUSH2 0x2269 JUMP JUMPDEST SWAP1 MSTORE PUSH2 0x9D1 JUMP JUMPDEST PUSH1 0x20 DUP2 ADD MLOAD PUSH1 0x32 GT PUSH2 0xE6F JUMPI PUSH1 0x1 DUP9 PUSH2 0xE43 DUP3 PUSH1 0x32 PUSH2 0x22D5 JUMP JUMPDEST PUSH1 0x64 DUP2 LT PUSH2 0xE53 JUMPI PUSH2 0xE53 PUSH2 0x22BF JUMP JUMPDEST SWAP2 ISZERO ISZERO PUSH1 0x20 SWAP1 SWAP3 MUL ADD MSTORE PUSH2 0xE69 PUSH1 0x1 PUSH1 0x32 PUSH2 0x22D5 JUMP JUMPDEST PUSH1 0x20 DUP3 ADD MSTORE JUMPDEST DUP4 DUP2 PUSH1 0x1 PUSH1 0x20 MUL ADD MLOAD DUP2 MLOAD DUP2 LT PUSH2 0xE88 JUMPI PUSH2 0xE88 PUSH2 0x22BF JUMP JUMPDEST PUSH1 0x20 MUL PUSH1 0x20 ADD ADD MLOAD DUP6 DUP3 PUSH1 0x1 PUSH1 0x3 DUP2 LT PUSH2 0xEA4 JUMPI PUSH2 0xEA4 PUSH2 0x22BF JUMP JUMPDEST PUSH1 0x20 MUL ADD MLOAD DUP2 MLOAD DUP2 LT PUSH2 0xEB9 JUMPI PUSH2 0xEB9 PUSH2 0x22BF JUMP JUMPDEST PUSH1 0x20 MUL PUSH1 0x20 ADD ADD MLOAD LT SWAP10 POP POP POP POP SWAP2 SWAP4 SWAP6 SWAP8 POP SWAP2 SWAP4 SWAP6 SWAP8 JUMP JUMPDEST PUSH1 0x4 DUP2 DUP2 SLOAD DUP2 LT PUSH2 0xEE2 JUMPI PUSH1 0x0 DUP1 REVERT JUMPDEST PUSH1 0x0 SWAP2 DUP3 MSTORE PUSH1 0x20 SWAP1 SWAP2 KECCAK256 ADD SLOAD SWAP1 POP DUP2 JUMP JUMPDEST PUSH1 0x7 SLOAD PUSH1 0x40 MLOAD PUSH4 0x31A9108F PUSH1 0xE1 SHL DUP2 MSTORE PUSH1 0x0 SWAP2 CALLER SWAP2 PUSH1 0x1 PUSH1 0x50 SHL SWAP1 SWAP2 DIV PUSH1 0x1 PUSH1 0x1 PUSH1 0xA0 SHL SUB AND SWAP1 PUSH4 0x6352211E SWAP1 PUSH2 0xF32 SWAP1 DUP9 SWAP1 PUSH1 0x4 ADD SWAP1 DUP2 MSTORE PUSH1 0x20 ADD SWAP1 JUMP JUMPDEST PUSH1 0x20 PUSH1 0x40 MLOAD DUP1 DUP4 SUB DUP2 DUP7 DUP1 EXTCODESIZE ISZERO DUP1 ISZERO PUSH2 0xF4A JUMPI PUSH1 0x0 DUP1 REVERT JUMPDEST POP GAS STATICCALL ISZERO DUP1 ISZERO PUSH2 0xF5E JUMPI RETURNDATASIZE PUSH1 0x0 DUP1 RETURNDATACOPY RETURNDATASIZE PUSH1 0x0 REVERT JUMPDEST POP POP POP POP PUSH1 0x40 MLOAD RETURNDATASIZE PUSH1 0x1F NOT PUSH1 0x1F DUP3 ADD AND DUP3 ADD DUP1 PUSH1 0x40 MSTORE POP DUP2 ADD SWAP1 PUSH2 0xF82 SWAP2 SWAP1 PUSH2 0x2326 JUMP JUMPDEST PUSH1 0x1 PUSH1 0x1 PUSH1 0xA0 SHL SUB AND EQ PUSH2 0xFE9 JUMPI PUSH1 0x40 MLOAD PUSH3 0x461BCD PUSH1 0xE5 SHL DUP2 MSTORE PUSH1 0x20 PUSH1 0x4 DUP3 ADD MSTORE PUSH1 0x28 PUSH1 0x24 DUP3 ADD MSTORE PUSH32 0x4F6E6C7920746F6B656E206F776E65722063616E2063616C6C2074686973206D PUSH1 0x44 DUP3 ADD MSTORE PUSH8 0x6574686F64212121 PUSH1 0xC0 SHL PUSH1 0x64 DUP3 ADD MSTORE PUSH1 0x84 ADD PUSH2 0x5CF JUMP JUMPDEST PUSH1 0x7 SLOAD PUSH1 0x40 MLOAD PUSH4 0xBB86E8CD PUSH1 0xE0 SHL DUP2 MSTORE PUSH1 0x4 DUP2 ADD DUP7 SWAP1 MSTORE PUSH1 0x0 SWAP2 PUSH1 0x2 SWAP2 PUSH1 0x1 PUSH1 0x50 SHL SWAP1 SWAP2 DIV PUSH1 0x1 PUSH1 0x1 PUSH1 0xA0 SHL SUB AND SWAP1 PUSH4 0xBB86E8CD SWAP1 PUSH1 0x24 ADD PUSH1 0x20 PUSH1 0x40 MLOAD DUP1 DUP4 SUB DUP2 DUP7 DUP1 EXTCODESIZE ISZERO DUP1 ISZERO PUSH2 0x1039 JUMPI PUSH1 0x0 DUP1 REVERT JUMPDEST POP GAS STATICCALL ISZERO DUP1 ISZERO PUSH2 0x104D JUMPI RETURNDATASIZE PUSH1 0x0 DUP1 RETURNDATACOPY RETURNDATASIZE PUSH1 0x0 REVERT JUMPDEST POP POP POP POP PUSH1 0x40 MLOAD RETURNDATASIZE PUSH1 0x1F NOT PUSH1 0x1F DUP3 ADD AND DUP3 ADD DUP1 PUSH1 0x40 MSTORE POP DUP2 ADD SWAP1 PUSH2 0x1071 SWAP2 SWAP1 PUSH2 0x223A JUMP JUMPDEST PUSH2 0x107B SWAP2 SWAP1 PUSH2 0x22EC JUMP JUMPDEST SWAP1 POP PUSH1 0x8 SLOAD DUP2 LT PUSH2 0x10DE JUMPI PUSH1 0x40 MLOAD PUSH3 0x461BCD PUSH1 0xE5 SHL DUP2 MSTORE PUSH1 0x20 PUSH1 0x4 DUP3 ADD MSTORE PUSH1 0x27 PUSH1 0x24 DUP3 ADD MSTORE PUSH32 0x54686174206C6576656C20686173206E6F7420796574206265656E2063726561 PUSH1 0x44 DUP3 ADD MSTORE PUSH7 0x74656420212121 PUSH1 0xC8 SHL PUSH1 0x64 DUP3 ADD MSTORE PUSH1 0x84 ADD PUSH2 0x5CF JUMP JUMPDEST PUSH1 0x8 SLOAD DUP5 LT DUP1 ISZERO PUSH2 0x10EF JUMPI POP DUP1 DUP5 GT ISZERO JUMPDEST PUSH2 0x113B JUMPI PUSH1 0x40 MLOAD PUSH3 0x461BCD PUSH1 0xE5 SHL DUP2 MSTORE PUSH1 0x20 PUSH1 0x4 DUP3 ADD DUP2 SWAP1 MSTORE PUSH1 0x24 DUP3 ADD MSTORE PUSH32 0x596F752063616E6E6F74207573652074686174206D6F6E737465722021212120 PUSH1 0x44 DUP3 ADD MSTORE PUSH1 0x64 ADD PUSH2 0x5CF JUMP JUMPDEST PUSH2 0x1143 PUSH2 0x1B19 JUMP JUMPDEST PUSH1 0xA SLOAD PUSH1 0x40 DUP1 MLOAD PUSH1 0xA0 DUP2 ADD DUP3 MSTORE DUP9 DUP2 MSTORE PUSH1 0x20 DUP1 DUP3 ADD DUP7 DUP2 MSTORE DUP3 DUP5 ADD DUP7 DUP2 MSTORE PUSH1 0x60 DUP5 ADD DUP12 SWAP1 MSTORE PUSH1 0x80 DUP5 ADD DUP11 SWAP1 MSTORE PUSH1 0x0 DUP7 DUP2 MSTORE PUSH1 0xD SWAP1 SWAP4 MSTORE SWAP4 SWAP1 SWAP2 KECCAK256 DUP3 MLOAD DUP2 SSTORE SWAP1 MLOAD PUSH1 0x1 DUP3 ADD SSTORE SWAP2 MLOAD SWAP3 SWAP6 POP SWAP2 PUSH2 0x119E SWAP1 PUSH1 0x2 DUP4 ADD SWAP1 PUSH1 0x5 PUSH2 0x1B46 JUMP JUMPDEST POP PUSH1 0x60 DUP3 ADD MLOAD PUSH1 0x11 DUP3 ADD SSTORE PUSH1 0x80 DUP3 ADD MLOAD PUSH2 0x11BE SWAP1 PUSH1 0x12 DUP4 ADD SWAP1 PUSH1 0x5 PUSH2 0x1B46 JUMP JUMPDEST POP SWAP1 POP POP PUSH1 0x0 JUMPDEST PUSH1 0x3 DUP2 LT ISZERO PUSH2 0x128A JUMPI PUSH1 0x40 DUP1 MLOAD PUSH1 0x0 DUP1 DUP3 MSTORE PUSH1 0x20 DUP1 DUP4 ADD DUP1 DUP6 MSTORE DUP9 DUP4 MSTORE PUSH1 0x10 DUP3 MSTORE DUP5 DUP4 KECCAK256 DUP7 DUP5 MSTORE SWAP1 SWAP2 MSTORE SWAP3 SWAP1 KECCAK256 SWAP1 MLOAD PUSH2 0x11FE SWAP3 SWAP1 PUSH2 0x1B8D JUMP JUMPDEST POP PUSH1 0x0 JUMPDEST PUSH1 0x5 DUP2 LT ISZERO PUSH2 0x1279 JUMPI PUSH1 0x0 DUP6 DUP2 MSTORE PUSH1 0x10 PUSH1 0x20 SWAP1 DUP2 MSTORE PUSH1 0x40 DUP1 DUP4 KECCAK256 DUP6 DUP5 MSTORE SWAP1 SWAP2 MSTORE SWAP1 KECCAK256 DUP7 DUP3 PUSH1 0x5 DUP2 LT PUSH2 0x1236 JUMPI PUSH2 0x1236 PUSH2 0x22BF JUMP JUMPDEST PUSH1 0x20 MUL ADD MLOAD DUP4 PUSH1 0x3 DUP2 LT PUSH2 0x124C JUMPI PUSH2 0x124C PUSH2 0x22BF JUMP JUMPDEST PUSH1 0x20 SWAP1 DUP2 MUL SWAP2 SWAP1 SWAP2 ADD MLOAD DUP3 SLOAD PUSH1 0x1 DUP2 ADD DUP5 SSTORE PUSH1 0x0 SWAP4 DUP5 MSTORE SWAP2 SWAP1 SWAP3 KECCAK256 ADD SSTORE PUSH2 0x1272 DUP2 PUSH2 0x2269 JUMP JUMPDEST SWAP1 POP PUSH2 0x1202 JUMP JUMPDEST POP PUSH2 0x1283 DUP2 PUSH2 0x2269 JUMP JUMPDEST SWAP1 POP PUSH2 0x11C5 JUMP JUMPDEST POP PUSH2 0x1293 PUSH2 0x17E3 JUMP JUMPDEST PUSH1 0x0 DUP5 DUP2 MSTORE PUSH1 0x11 PUSH1 0x20 MSTORE PUSH1 0x40 DUP2 KECCAK256 SWAP2 SWAP1 SWAP2 SSTORE PUSH1 0xA DUP1 SLOAD PUSH1 0x1 SWAP3 SWAP1 PUSH2 0x12B8 SWAP1 DUP5 SWAP1 PUSH2 0x22EC JUMP JUMPDEST SWAP1 SWAP2 SSTORE POP SWAP3 SWAP7 SWAP6 POP POP POP POP POP POP JUMP JUMPDEST PUSH2 0x12CF PUSH2 0x178E JUMP JUMPDEST PUSH1 0x0 DUP1 JUMPDEST PUSH1 0x5 DUP2 LT ISZERO PUSH2 0x13C7 JUMPI PUSH1 0x9 SLOAD DUP4 DUP3 PUSH1 0x5 DUP2 LT PUSH2 0x12F1 JUMPI PUSH2 0x12F1 PUSH2 0x22BF JUMP JUMPDEST PUSH1 0x20 MUL ADD MLOAD LT DUP1 PUSH2 0x1319 JUMPI POP PUSH2 0xFFF DUP4 DUP3 PUSH1 0x5 DUP2 LT PUSH2 0x1312 JUMPI PUSH2 0x1312 PUSH2 0x22BF JUMP JUMPDEST PUSH1 0x20 MUL ADD MLOAD EQ JUMPDEST PUSH2 0x137E JUMPI PUSH1 0x40 MLOAD PUSH3 0x461BCD PUSH1 0xE5 SHL DUP2 MSTORE PUSH1 0x20 PUSH1 0x4 DUP3 ADD MSTORE PUSH1 0x30 PUSH1 0x24 DUP3 ADD MSTORE PUSH32 0x536B696C6C2068617320656974686572206E6F74206265656E20637265617465 PUSH1 0x44 DUP3 ADD MSTORE PUSH16 0x19081BDC881A5CC81B9BDD081D5CD959 PUSH1 0x82 SHL PUSH1 0x64 DUP3 ADD MSTORE PUSH1 0x84 ADD PUSH2 0x5CF JUMP JUMPDEST PUSH2 0xFFF DUP4 DUP3 PUSH1 0x5 DUP2 LT PUSH2 0x1393 JUMPI PUSH2 0x1393 PUSH2 0x22BF JUMP JUMPDEST PUSH1 0x20 MUL ADD MLOAD EQ ISZERO PUSH2 0x13A5 JUMPI PUSH1 0x0 PUSH2 0x13A8 JUMP JUMPDEST PUSH1 0x1 JUMPDEST PUSH2 0x13B5 SWAP1 PUSH1 0xFF AND DUP4 PUSH2 0x22EC JUMP JUMPDEST SWAP2 POP PUSH2 0x13C0 DUP2 PUSH2 0x2269 JUMP JUMPDEST SWAP1 POP PUSH2 0x12D3 JUMP JUMPDEST POP PUSH1 0x0 DUP2 GT PUSH2 0x1424 JUMPI PUSH1 0x40 MLOAD PUSH3 0x461BCD PUSH1 0xE5 SHL DUP2 MSTORE PUSH1 0x20 PUSH1 0x4 DUP3 ADD MSTORE PUSH1 0x23 PUSH1 0x24 DUP3 ADD MSTORE PUSH32 0x4D6F6E73746572206D75737420757365206174206C65617374206F6E6520736B PUSH1 0x44 DUP3 ADD MSTORE PUSH3 0x1A5B1B PUSH1 0xEA SHL PUSH1 0x64 DUP3 ADD MSTORE PUSH1 0x84 ADD PUSH2 0x5CF JUMP JUMPDEST PUSH1 0x40 DUP1 MLOAD PUSH1 0xC0 DUP2 ADD DUP3 MSTORE DUP8 DUP2 MSTORE PUSH1 0x20 DUP1 DUP3 ADD DUP9 SWAP1 MSTORE DUP2 DUP4 ADD DUP8 SWAP1 MSTORE PUSH1 0x60 DUP3 ADD DUP7 SWAP1 MSTORE PUSH1 0x80 DUP3 ADD DUP6 SWAP1 MSTORE PUSH1 0xA0 DUP3 ADD DUP5 SWAP1 MSTORE PUSH1 0x8 SLOAD PUSH1 0x0 SWAP1 DUP2 MSTORE PUSH1 0xC DUP3 MSTORE SWAP3 SWAP1 SWAP3 KECCAK256 DUP2 MLOAD DUP1 MLOAD SWAP3 SWAP4 DUP5 SWAP4 PUSH2 0x1479 SWAP3 DUP5 SWAP3 ADD SWAP1 PUSH2 0x1A58 JUMP JUMPDEST POP PUSH1 0x20 DUP3 ADD MLOAD PUSH1 0x1 DUP3 ADD SSTORE PUSH1 0x40 DUP3 ADD MLOAD PUSH1 0x2 DUP3 ADD SSTORE PUSH1 0x60 DUP3 ADD MLOAD PUSH1 0x3 DUP3 ADD SSTORE PUSH1 0x80 DUP3 ADD MLOAD PUSH2 0x14AD SWAP1 PUSH1 0x4 DUP4 ADD SWAP1 PUSH1 0x5 PUSH2 0x1BC7 JUMP JUMPDEST POP PUSH1 0xA0 SWAP2 SWAP1 SWAP2 ADD MLOAD PUSH1 0x9 SWAP1 SWAP2 ADD SSTORE PUSH1 0x80 DUP2 ADD MLOAD PUSH1 0x8 SLOAD PUSH1 0x0 SWAP1 DUP2 MSTORE PUSH1 0xE PUSH1 0x20 MSTORE PUSH1 0x40 SWAP1 KECCAK256 PUSH2 0x14DC SWAP2 PUSH1 0x5 PUSH2 0x1BC7 JUMP JUMPDEST POP PUSH1 0x8 DUP1 SLOAD PUSH1 0x0 SWAP1 DUP2 MSTORE PUSH1 0xF PUSH1 0x20 MSTORE PUSH1 0x40 DUP2 KECCAK256 DUP5 SWAP1 SSTORE DUP2 SLOAD SWAP2 SWAP1 PUSH2 0x14FF DUP4 PUSH2 0x2269 JUMP JUMPDEST SWAP2 SWAP1 POP SSTORE POP POP POP POP POP POP POP POP JUMP JUMPDEST PUSH1 0xC PUSH1 0x20 MSTORE PUSH1 0x0 SWAP1 DUP2 MSTORE PUSH1 0x40 SWAP1 KECCAK256 DUP1 SLOAD DUP2 SWAP1 PUSH2 0x1528 SWAP1 PUSH2 0x2284 JUMP JUMPDEST DUP1 PUSH1 0x1F ADD PUSH1 0x20 DUP1 SWAP2 DIV MUL PUSH1 0x20 ADD PUSH1 0x40 MLOAD SWAP1 DUP2 ADD PUSH1 0x40 MSTORE DUP1 SWAP3 SWAP2 SWAP1 DUP2 DUP2 MSTORE PUSH1 0x20 ADD DUP3 DUP1 SLOAD PUSH2 0x1554 SWAP1 PUSH2 0x2284 JUMP JUMPDEST DUP1 ISZERO PUSH2 0x15A1 JUMPI DUP1 PUSH1 0x1F LT PUSH2 0x1576 JUMPI PUSH2 0x100 DUP1 DUP4 SLOAD DIV MUL DUP4 MSTORE SWAP2 PUSH1 0x20 ADD SWAP2 PUSH2 0x15A1 JUMP JUMPDEST DUP3 ADD SWAP2 SWAP1 PUSH1 0x0 MSTORE PUSH1 0x20 PUSH1 0x0 KECCAK256 SWAP1 JUMPDEST DUP2 SLOAD DUP2 MSTORE SWAP1 PUSH1 0x1 ADD SWAP1 PUSH1 0x20 ADD DUP1 DUP4 GT PUSH2 0x1584 JUMPI DUP3 SWAP1 SUB PUSH1 0x1F AND DUP3 ADD SWAP2 JUMPDEST POP POP POP POP POP SWAP1 DUP1 PUSH1 0x1 ADD SLOAD SWAP1 DUP1 PUSH1 0x2 ADD SLOAD SWAP1 DUP1 PUSH1 0x3 ADD SLOAD SWAP1 DUP1 PUSH1 0x9 ADD SLOAD SWAP1 POP DUP6 JUMP JUMPDEST PUSH1 0x0 DUP2 DUP2 MSTORE PUSH1 0x2 PUSH1 0x20 MSTORE PUSH1 0x40 DUP2 KECCAK256 SLOAD PUSH1 0x60 SWAP1 PUSH2 0x100 SWAP1 DIV PUSH1 0xFF AND PUSH2 0x161D JUMPI PUSH1 0x40 MLOAD PUSH3 0x461BCD PUSH1 0xE5 SHL DUP2 MSTORE PUSH1 0x20 PUSH1 0x4 DUP3 ADD MSTORE PUSH1 0x11 PUSH1 0x24 DUP3 ADD MSTORE PUSH17 0x1C995C5D595CDD081B9BDD08199BDD5B99 PUSH1 0x7A SHL PUSH1 0x44 DUP3 ADD MSTORE PUSH1 0x64 ADD PUSH2 0x5CF JUMP JUMPDEST PUSH1 0x0 DUP4 DUP2 MSTORE PUSH1 0x2 PUSH1 0x20 SWAP1 DUP2 MSTORE PUSH1 0x40 DUP1 DUP4 KECCAK256 DUP2 MLOAD PUSH1 0x60 DUP2 ADD DUP4 MSTORE DUP2 SLOAD PUSH1 0xFF DUP1 DUP3 AND ISZERO ISZERO DUP4 MSTORE PUSH2 0x100 SWAP1 SWAP2 DIV AND ISZERO ISZERO DUP2 DUP6 ADD MSTORE PUSH1 0x1 DUP3 ADD DUP1 SLOAD DUP5 MLOAD DUP2 DUP8 MUL DUP2 ADD DUP8 ADD DUP7 MSTORE DUP2 DUP2 MSTORE SWAP3 SWAP6 SWAP4 SWAP5 DUP7 ADD SWAP4 DUP4 ADD DUP3 DUP3 DUP1 ISZERO PUSH2 0x1698 JUMPI PUSH1 0x20 MUL DUP3 ADD SWAP2 SWAP1 PUSH1 0x0 MSTORE PUSH1 0x20 PUSH1 0x0 KECCAK256 SWAP1 JUMPDEST DUP2 SLOAD DUP2 MSTORE PUSH1 0x20 ADD SWAP1 PUSH1 0x1 ADD SWAP1 DUP1 DUP4 GT PUSH2 0x1684 JUMPI JUMPDEST POP POP POP POP POP DUP2 MSTORE POP POP SWAP1 POP DUP1 PUSH1 0x0 ADD MLOAD DUP2 PUSH1 0x40 ADD MLOAD SWAP3 POP SWAP3 POP POP SWAP2 POP SWAP2 JUMP JUMPDEST PUSH2 0x16BF PUSH2 0x178E JUMP JUMPDEST PUSH2 0x556 DUP2 PUSH2 0x19AE JUMP JUMPDEST PUSH1 0x0 DUP3 DUP2 MSTORE PUSH1 0x2 PUSH1 0x20 MSTORE PUSH1 0x40 SWAP1 KECCAK256 SLOAD PUSH2 0x100 SWAP1 DIV PUSH1 0xFF AND PUSH2 0x171F JUMPI PUSH1 0x40 MLOAD PUSH3 0x461BCD PUSH1 0xE5 SHL DUP2 MSTORE PUSH1 0x20 PUSH1 0x4 DUP3 ADD MSTORE PUSH1 0x11 PUSH1 0x24 DUP3 ADD MSTORE PUSH17 0x1C995C5D595CDD081B9BDD08199BDD5B99 PUSH1 0x7A SHL PUSH1 0x44 DUP3 ADD MSTORE PUSH1 0x64 ADD PUSH2 0x5CF JUMP JUMPDEST PUSH1 0x0 DUP3 DUP2 MSTORE PUSH1 0x2 PUSH1 0x20 SWAP1 DUP2 MSTORE PUSH1 0x40 SWAP1 SWAP2 KECCAK256 DUP1 SLOAD PUSH1 0xFF NOT AND PUSH1 0x1 SWAP1 DUP2 OR DUP3 SSTORE DUP4 MLOAD PUSH2 0x1750 SWAP4 SWAP3 SWAP1 SWAP2 ADD SWAP2 DUP5 ADD SWAP1 PUSH2 0x1B8D JUMP JUMPDEST POP PUSH32 0xFE2E2D779DBA245964D4E3EF9B994BE63856FD568BF7D3CA9E224755CB1BD54D DUP3 DUP3 PUSH1 0x40 MLOAD PUSH2 0x1782 SWAP3 SWAP2 SWAP1 PUSH2 0x2343 JUMP JUMPDEST PUSH1 0x40 MLOAD DUP1 SWAP2 SUB SWAP1 LOG1 POP POP JUMP JUMPDEST PUSH1 0x0 SLOAD PUSH1 0x1 PUSH1 0x1 PUSH1 0xA0 SHL SUB AND CALLER EQ PUSH2 0x17E1 JUMPI PUSH1 0x40 MLOAD PUSH3 0x461BCD PUSH1 0xE5 SHL DUP2 MSTORE PUSH1 0x20 PUSH1 0x4 DUP3 ADD MSTORE PUSH1 0x16 PUSH1 0x24 DUP3 ADD MSTORE PUSH22 0x27B7363C9031B0B63630B1363290313C9037BBB732B9 PUSH1 0x51 SHL PUSH1 0x44 DUP3 ADD MSTORE PUSH1 0x64 ADD PUSH2 0x5CF JUMP JUMPDEST JUMP JUMPDEST PUSH1 0x3 SLOAD PUSH1 0x6 SLOAD PUSH1 0x7 SLOAD PUSH1 0x40 MLOAD PUSH4 0x5D3B1D3 PUSH1 0xE4 SHL DUP2 MSTORE PUSH1 0x4 DUP2 ADD SWAP3 SWAP1 SWAP3 MSTORE PUSH1 0x1 PUSH1 0xA0 SHL DUP4 DIV PUSH8 0xFFFFFFFFFFFFFFFF AND PUSH1 0x24 DUP4 ADD MSTORE PUSH5 0x100000000 DUP2 DIV PUSH2 0xFFFF AND PUSH1 0x44 DUP4 ADD MSTORE PUSH4 0xFFFFFFFF DUP1 DUP3 AND PUSH1 0x64 DUP5 ADD MSTORE PUSH7 0x1000000000000 SWAP1 SWAP2 DIV AND PUSH1 0x84 DUP3 ADD MSTORE PUSH1 0x0 SWAP2 PUSH1 0x1 PUSH1 0x1 PUSH1 0xA0 SHL SUB AND SWAP1 PUSH4 0x5D3B1D30 SWAP1 PUSH1 0xA4 ADD PUSH1 0x20 PUSH1 0x40 MLOAD DUP1 DUP4 SUB DUP2 PUSH1 0x0 DUP8 DUP1 EXTCODESIZE ISZERO DUP1 ISZERO PUSH2 0x1876 JUMPI PUSH1 0x0 DUP1 REVERT JUMPDEST POP GAS CALL ISZERO DUP1 ISZERO PUSH2 0x188A JUMPI RETURNDATASIZE PUSH1 0x0 DUP1 RETURNDATACOPY RETURNDATASIZE PUSH1 0x0 REVERT JUMPDEST POP POP POP POP PUSH1 0x40 MLOAD RETURNDATASIZE PUSH1 0x1F NOT PUSH1 0x1F DUP3 ADD AND DUP3 ADD DUP1 PUSH1 0x40 MSTORE POP DUP2 ADD SWAP1 PUSH2 0x18AE SWAP2 SWAP1 PUSH2 0x223A JUMP JUMPDEST PUSH1 0x40 DUP1 MLOAD PUSH1 0x60 DUP2 ADD DUP3 MSTORE PUSH1 0x0 DUP1 DUP3 MSTORE PUSH1 0x1 PUSH1 0x20 DUP1 DUP5 ADD DUP3 DUP2 MSTORE DUP6 MLOAD DUP5 DUP2 MSTORE DUP1 DUP4 ADD DUP8 MSTORE DUP6 DUP8 ADD SWAP1 DUP2 MSTORE DUP8 DUP6 MSTORE PUSH1 0x2 DUP4 MSTORE SWAP6 SWAP1 SWAP4 KECCAK256 DUP5 MLOAD DUP2 SLOAD SWAP5 MLOAD PUSH2 0xFFFF NOT SWAP1 SWAP6 AND SWAP1 ISZERO ISZERO PUSH2 0xFF00 NOT AND OR PUSH2 0x100 SWAP5 ISZERO ISZERO SWAP5 SWAP1 SWAP5 MUL SWAP4 SWAP1 SWAP4 OR DUP4 SSTORE SWAP4 MLOAD DUP1 MLOAD SWAP6 SWAP7 POP SWAP3 SWAP5 SWAP2 SWAP4 PUSH2 0x1923 SWAP4 SWAP2 DUP6 ADD SWAP3 SWAP2 ADD SWAP1 PUSH2 0x1B8D JUMP JUMPDEST POP POP PUSH1 0x4 DUP1 SLOAD PUSH1 0x1 DUP2 ADD DUP3 SSTORE PUSH1 0x0 SWAP2 SWAP1 SWAP2 MSTORE PUSH32 0x8A35ACFBC15FF81A39AE7D344FD709F28E8600B4AA8C65C6B64BFE7FE36BD19B ADD DUP3 SWAP1 SSTORE POP PUSH1 0x5 DUP2 SWAP1 SSTORE PUSH1 0x7 SLOAD PUSH1 0x40 DUP1 MLOAD DUP4 DUP2 MSTORE PUSH7 0x1000000000000 SWAP1 SWAP3 DIV PUSH4 0xFFFFFFFF AND PUSH1 0x20 DUP4 ADD MSTORE PUSH32 0xCC58B13AD3EAB50626C6A6300B1D139CD6EBB1688A7CCED9461C2F7E762665EE SWAP2 ADD PUSH1 0x40 MLOAD DUP1 SWAP2 SUB SWAP1 LOG1 SWAP1 JUMP JUMPDEST PUSH1 0x1 PUSH1 0x1 PUSH1 0xA0 SHL SUB DUP2 AND CALLER EQ ISZERO PUSH2 0x1A07 JUMPI PUSH1 0x40 MLOAD PUSH3 0x461BCD PUSH1 0xE5 SHL DUP2 MSTORE PUSH1 0x20 PUSH1 0x4 DUP3 ADD MSTORE PUSH1 0x17 PUSH1 0x24 DUP3 ADD MSTORE PUSH32 0x43616E6E6F74207472616E7366657220746F2073656C66000000000000000000 PUSH1 0x44 DUP3 ADD MSTORE PUSH1 0x64 ADD PUSH2 0x5CF JUMP JUMPDEST PUSH1 0x1 DUP1 SLOAD PUSH1 0x1 PUSH1 0x1 PUSH1 0xA0 SHL SUB NOT AND PUSH1 0x1 PUSH1 0x1 PUSH1 0xA0 SHL SUB DUP4 DUP2 AND SWAP2 DUP3 OR SWAP1 SWAP3 SSTORE PUSH1 0x0 DUP1 SLOAD PUSH1 0x40 MLOAD SWAP3 SWAP4 AND SWAP2 PUSH32 0xED8889F560326EB138920D842192F0EB3DD22B4F139C87A2C57538E05BAE1278 SWAP2 SWAP1 LOG3 POP JUMP JUMPDEST DUP3 DUP1 SLOAD PUSH2 0x1A64 SWAP1 PUSH2 0x2284 JUMP JUMPDEST SWAP1 PUSH1 0x0 MSTORE PUSH1 0x20 PUSH1 0x0 KECCAK256 SWAP1 PUSH1 0x1F ADD PUSH1 0x20 SWAP1 DIV DUP2 ADD SWAP3 DUP3 PUSH2 0x1A86 JUMPI PUSH1 0x0 DUP6 SSTORE PUSH2 0x1ACC JUMP JUMPDEST DUP3 PUSH1 0x1F LT PUSH2 0x1A9F JUMPI DUP1 MLOAD PUSH1 0xFF NOT AND DUP4 DUP1 ADD OR DUP6 SSTORE PUSH2 0x1ACC JUMP JUMPDEST DUP3 DUP1 ADD PUSH1 0x1 ADD DUP6 SSTORE DUP3 ISZERO PUSH2 0x1ACC JUMPI SWAP2 DUP3 ADD JUMPDEST DUP3 DUP2 GT ISZERO PUSH2 0x1ACC JUMPI DUP3 MLOAD DUP3 SSTORE SWAP2 PUSH1 0x20 ADD SWAP2 SWAP1 PUSH1 0x1 ADD SWAP1 PUSH2 0x1AB1 JUMP JUMPDEST POP PUSH2 0x1AD8 SWAP3 SWAP2 POP PUSH2 0x1BF4 JUMP JUMPDEST POP SWAP1 JUMP JUMPDEST PUSH1 0x40 MLOAD DUP1 PUSH2 0xC80 ADD PUSH1 0x40 MSTORE DUP1 PUSH1 0x64 SWAP1 PUSH1 0x20 DUP3 MUL DUP1 CALLDATASIZE DUP4 CALLDATACOPY POP SWAP2 SWAP3 SWAP2 POP POP JUMP JUMPDEST PUSH1 0x40 MLOAD DUP1 PUSH1 0x60 ADD PUSH1 0x40 MSTORE DUP1 PUSH1 0x3 SWAP1 PUSH1 0x20 DUP3 MUL DUP1 CALLDATASIZE DUP4 CALLDATACOPY POP SWAP2 SWAP3 SWAP2 POP POP JUMP JUMPDEST PUSH1 0x40 MLOAD DUP1 PUSH1 0xA0 ADD PUSH1 0x40 MSTORE DUP1 PUSH1 0x5 SWAP1 JUMPDEST PUSH2 0x1B30 PUSH2 0x1AFB JUMP JUMPDEST DUP2 MSTORE PUSH1 0x20 ADD SWAP1 PUSH1 0x1 SWAP1 SUB SWAP1 DUP2 PUSH2 0x1B28 JUMPI SWAP1 POP POP SWAP1 JUMP JUMPDEST PUSH1 0xF DUP4 ADD SWAP2 DUP4 SWAP1 DUP3 ISZERO PUSH2 0x1B81 JUMPI SWAP2 PUSH1 0x20 MUL DUP3 ADD JUMPDEST DUP3 DUP2 GT ISZERO PUSH2 0x1B81 JUMPI DUP3 MLOAD PUSH2 0x1B71 SWAP1 DUP4 SWAP1 PUSH1 0x3 PUSH2 0x1C09 JUMP JUMPDEST POP SWAP2 PUSH1 0x20 ADD SWAP2 SWAP1 PUSH1 0x3 ADD SWAP1 PUSH2 0x1B5A JUMP JUMPDEST POP PUSH2 0x1AD8 SWAP3 SWAP2 POP PUSH2 0x1C36 JUMP JUMPDEST DUP3 DUP1 SLOAD DUP3 DUP3 SSTORE SWAP1 PUSH1 0x0 MSTORE PUSH1 0x20 PUSH1 0x0 KECCAK256 SWAP1 DUP2 ADD SWAP3 DUP3 ISZERO PUSH2 0x1ACC JUMPI SWAP2 PUSH1 0x20 MUL DUP3 ADD DUP3 DUP2 GT ISZERO PUSH2 0x1ACC JUMPI DUP3 MLOAD DUP3 SSTORE SWAP2 PUSH1 0x20 ADD SWAP2 SWAP1 PUSH1 0x1 ADD SWAP1 PUSH2 0x1AB1 JUMP JUMPDEST DUP3 PUSH1 0x5 DUP2 ADD SWAP3 DUP3 ISZERO PUSH2 0x1ACC JUMPI SWAP2 PUSH1 0x20 MUL DUP3 ADD DUP3 DUP2 GT ISZERO PUSH2 0x1ACC JUMPI DUP3 MLOAD DUP3 SSTORE SWAP2 PUSH1 0x20 ADD SWAP2 SWAP1 PUSH1 0x1 ADD SWAP1 PUSH2 0x1AB1 JUMP JUMPDEST JUMPDEST DUP1 DUP3 GT ISZERO PUSH2 0x1AD8 JUMPI PUSH1 0x0 DUP2 SSTORE PUSH1 0x1 ADD PUSH2 0x1BF5 JUMP JUMPDEST DUP3 PUSH1 0x3 DUP2 ADD SWAP3 DUP3 ISZERO PUSH2 0x1ACC JUMPI SWAP2 PUSH1 0x20 MUL DUP3 ADD DUP3 DUP2 GT ISZERO PUSH2 0x1ACC JUMPI DUP3 MLOAD DUP3 SSTORE SWAP2 PUSH1 0x20 ADD SWAP2 SWAP1 PUSH1 0x1 ADD SWAP1 PUSH2 0x1AB1 JUMP JUMPDEST DUP1 DUP3 GT ISZERO PUSH2 0x1AD8 JUMPI PUSH1 0x0 DUP1 DUP3 SSTORE PUSH1 0x1 DUP3 ADD DUP2 SWAP1 SSTORE PUSH1 0x2 DUP3 ADD SSTORE PUSH1 0x3 ADD PUSH2 0x1C36 JUMP JUMPDEST PUSH1 0x0 DUP1 PUSH1 0x40 DUP4 DUP6 SUB SLT ISZERO PUSH2 0x1C6A JUMPI PUSH1 0x0 DUP1 REVERT JUMPDEST POP POP DUP1 CALLDATALOAD SWAP3 PUSH1 0x20 SWAP1 SWAP2 ADD CALLDATALOAD SWAP2 POP JUMP JUMPDEST PUSH4 0x4E487B71 PUSH1 0xE0 SHL PUSH1 0x0 MSTORE PUSH1 0x41 PUSH1 0x4 MSTORE PUSH1 0x24 PUSH1 0x0 REVERT JUMPDEST PUSH1 0x40 MLOAD PUSH1 0xA0 DUP2 ADD PUSH8 0xFFFFFFFFFFFFFFFF DUP2 GT DUP3 DUP3 LT OR ISZERO PUSH2 0x1CB2 JUMPI PUSH2 0x1CB2 PUSH2 0x1C79 JUMP JUMPDEST PUSH1 0x40 MSTORE SWAP1 JUMP JUMPDEST PUSH1 0x40 MLOAD PUSH1 0x1F DUP3 ADD PUSH1 0x1F NOT AND DUP2 ADD PUSH8 0xFFFFFFFFFFFFFFFF DUP2 GT DUP3 DUP3 LT OR ISZERO PUSH2 0x1CE1 JUMPI PUSH2 0x1CE1 PUSH2 0x1C79 JUMP JUMPDEST PUSH1 0x40 MSTORE SWAP2 SWAP1 POP JUMP JUMPDEST PUSH1 0x0 DUP1 PUSH1 0x40 DUP4 DUP6 SUB SLT ISZERO PUSH2 0x1CFC JUMPI PUSH1 0x0 DUP1 REVERT JUMPDEST DUP3 CALLDATALOAD SWAP2 POP PUSH1 0x20 DUP1 DUP5 ADD CALLDATALOAD PUSH8 0xFFFFFFFFFFFFFFFF DUP1 DUP3 GT ISZERO PUSH2 0x1D1C JUMPI PUSH1 0x0 DUP1 REVERT JUMPDEST DUP2 DUP7 ADD SWAP2 POP DUP7 PUSH1 0x1F DUP4 ADD SLT PUSH2 0x1D30 JUMPI PUSH1 0x0 DUP1 REVERT JUMPDEST DUP2 CALLDATALOAD DUP2 DUP2 GT ISZERO PUSH2 0x1D42 JUMPI PUSH2 0x1D42 PUSH2 0x1C79 JUMP JUMPDEST DUP1 PUSH1 0x5 SHL SWAP2 POP PUSH2 0x1D53 DUP5 DUP4 ADD PUSH2 0x1CB8 JUMP JUMPDEST DUP2 DUP2 MSTORE SWAP2 DUP4 ADD DUP5 ADD SWAP2 DUP5 DUP2 ADD SWAP1 DUP10 DUP5 GT ISZERO PUSH2 0x1D6D JUMPI PUSH1 0x0 DUP1 REVERT JUMPDEST SWAP4 DUP6 ADD SWAP4 JUMPDEST DUP4 DUP6 LT ISZERO PUSH2 0x1D8B JUMPI DUP5 CALLDATALOAD DUP3 MSTORE SWAP4 DUP6 ADD SWAP4 SWAP1 DUP6 ADD SWAP1 PUSH2 0x1D72 JUMP JUMPDEST DUP1 SWAP7 POP POP POP POP POP POP POP SWAP3 POP SWAP3 SWAP1 POP JUMP JUMPDEST PUSH1 0x0 DUP3 PUSH1 0x1F DUP4 ADD SLT PUSH2 0x1DAC JUMPI PUSH1 0x0 DUP1 REVERT JUMPDEST DUP2 CALLDATALOAD PUSH8 0xFFFFFFFFFFFFFFFF DUP2 GT ISZERO PUSH2 0x1DC6 JUMPI PUSH2 0x1DC6 PUSH2 0x1C79 JUMP JUMPDEST PUSH2 0x1DD9 PUSH1 0x1F DUP3 ADD PUSH1 0x1F NOT AND PUSH1 0x20 ADD PUSH2 0x1CB8 JUMP JUMPDEST DUP2 DUP2 MSTORE DUP5 PUSH1 0x20 DUP4 DUP7 ADD ADD GT ISZERO PUSH2 0x1DEE JUMPI PUSH1 0x0 DUP1 REVERT JUMPDEST DUP2 PUSH1 0x20 DUP6 ADD PUSH1 0x20 DUP4 ADD CALLDATACOPY PUSH1 0x0 SWAP2 DUP2 ADD PUSH1 0x20 ADD SWAP2 SWAP1 SWAP2 MSTORE SWAP4 SWAP3 POP POP POP JUMP JUMPDEST PUSH1 0x0 DUP1 PUSH1 0x0 PUSH1 0x60 DUP5 DUP7 SUB SLT ISZERO PUSH2 0x1E20 JUMPI PUSH1 0x0 DUP1 REVERT JUMPDEST DUP4 CALLDATALOAD PUSH8 0xFFFFFFFFFFFFFFFF DUP2 GT ISZERO PUSH2 0x1E37 JUMPI PUSH1 0x0 DUP1 REVERT JUMPDEST PUSH2 0x1E43 DUP7 DUP3 DUP8 ADD PUSH2 0x1D9B JUMP JUMPDEST SWAP7 PUSH1 0x20 DUP7 ADD CALLDATALOAD SWAP7 POP PUSH1 0x40 SWAP1 SWAP6 ADD CALLDATALOAD SWAP5 SWAP4 POP POP POP POP JUMP JUMPDEST PUSH1 0x0 PUSH1 0x20 DUP3 DUP5 SUB SLT ISZERO PUSH2 0x1E6B JUMPI PUSH1 0x0 DUP1 REVERT JUMPDEST POP CALLDATALOAD SWAP2 SWAP1 POP JUMP JUMPDEST PUSH1 0x0 DUP2 MLOAD DUP1 DUP5 MSTORE PUSH1 0x0 JUMPDEST DUP2 DUP2 LT ISZERO PUSH2 0x1E98 JUMPI PUSH1 0x20 DUP2 DUP6 ADD DUP2 ADD MLOAD DUP7 DUP4 ADD DUP3 ADD MSTORE ADD PUSH2 0x1E7C JUMP JUMPDEST DUP2 DUP2 GT ISZERO PUSH2 0x1EAA JUMPI PUSH1 0x0 PUSH1 0x20 DUP4 DUP8 ADD ADD MSTORE JUMPDEST POP PUSH1 0x1F ADD PUSH1 0x1F NOT AND SWAP3 SWAP1 SWAP3 ADD PUSH1 0x20 ADD SWAP3 SWAP2 POP POP JUMP JUMPDEST PUSH1 0x60 DUP2 MSTORE PUSH1 0x0 PUSH2 0x1ED2 PUSH1 0x60 DUP4 ADD DUP7 PUSH2 0x1E72 JUMP JUMPDEST PUSH1 0x20 DUP4 ADD SWAP5 SWAP1 SWAP5 MSTORE POP PUSH1 0x40 ADD MSTORE SWAP2 SWAP1 POP JUMP JUMPDEST PUSH1 0x0 DUP1 PUSH1 0x0 PUSH1 0x60 DUP5 DUP7 SUB SLT ISZERO PUSH2 0x1EF9 JUMPI PUSH1 0x0 DUP1 REVERT JUMPDEST POP POP DUP2 CALLDATALOAD SWAP4 PUSH1 0x20 DUP4 ADD CALLDATALOAD SWAP4 POP PUSH1 0x40 SWAP1 SWAP3 ADD CALLDATALOAD SWAP2 SWAP1 POP JUMP JUMPDEST PUSH1 0x1 PUSH1 0x1 PUSH1 0xA0 SHL SUB DUP2 AND DUP2 EQ PUSH2 0x556 JUMPI PUSH1 0x0 DUP1 REVERT JUMPDEST PUSH1 0x0 PUSH1 0x20 DUP3 DUP5 SUB SLT ISZERO PUSH2 0x1F37 JUMPI PUSH1 0x0 DUP1 REVERT JUMPDEST DUP2 CALLDATALOAD PUSH2 0x1F42 DUP2 PUSH2 0x1F10 JUMP JUMPDEST SWAP4 SWAP3 POP POP POP JUMP JUMPDEST DUP1 PUSH1 0x0 JUMPDEST PUSH1 0x64 DUP2 LT ISZERO PUSH2 0x1F6C JUMPI DUP2 MLOAD DUP5 MSTORE PUSH1 0x20 SWAP4 DUP5 ADD SWAP4 SWAP1 SWAP2 ADD SWAP1 PUSH1 0x1 ADD PUSH2 0x1F4D JUMP JUMPDEST POP POP POP POP JUMP JUMPDEST PUSH1 0x0 DUP2 MLOAD DUP1 DUP5 MSTORE PUSH1 0x20 DUP1 DUP6 ADD SWAP5 POP DUP1 DUP5 ADD PUSH1 0x0 JUMPDEST DUP4 DUP2 LT ISZERO PUSH2 0x1FA2 JUMPI DUP2 MLOAD DUP8 MSTORE SWAP6 DUP3 ADD SWAP6 SWAP1 DUP3 ADD SWAP1 PUSH1 0x1 ADD PUSH2 0x1F86 JUMP JUMPDEST POP SWAP5 SWAP6 SWAP5 POP POP POP POP POP JUMP JUMPDEST PUSH1 0x0 PUSH2 0x2620 DUP11 ISZERO ISZERO DUP4 MSTORE PUSH1 0x20 DUP11 ISZERO ISZERO DUP2 DUP6 ADD MSTORE DUP10 PUSH1 0x40 DUP6 ADD MSTORE PUSH1 0x60 DUP5 ADD DUP10 PUSH1 0x0 JUMPDEST PUSH1 0x64 DUP2 LT ISZERO PUSH2 0x1FED JUMPI DUP2 MLOAD ISZERO ISZERO DUP4 MSTORE SWAP2 DUP4 ADD SWAP2 SWAP1 DUP4 ADD SWAP1 PUSH1 0x1 ADD PUSH2 0x1FCE JUMP JUMPDEST POP POP POP POP PUSH2 0x1FFF PUSH2 0xCE0 DUP5 ADD DUP9 PUSH2 0x1F49 JUMP JUMPDEST PUSH2 0x200D PUSH2 0x1960 DUP5 ADD DUP8 PUSH2 0x1F49 JUMP JUMPDEST DUP1 PUSH2 0x25E0 DUP5 ADD MSTORE PUSH2 0x2020 DUP2 DUP5 ADD DUP7 PUSH2 0x1F72 JUMP JUMPDEST SWAP1 POP DUP3 DUP2 SUB PUSH2 0x2600 DUP5 ADD MSTORE PUSH2 0x2035 DUP2 DUP6 PUSH2 0x1F72 JUMP JUMPDEST SWAP12 SWAP11 POP POP POP POP POP POP POP POP POP POP POP JUMP JUMPDEST PUSH1 0x0 PUSH1 0x40 MLOAD PUSH1 0x60 DUP2 ADD DUP2 DUP2 LT PUSH8 0xFFFFFFFFFFFFFFFF DUP3 GT OR ISZERO PUSH2 0x2069 JUMPI PUSH2 0x2069 PUSH2 0x1C79 JUMP JUMPDEST PUSH1 0x40 MSTORE SWAP1 POP DUP1 PUSH1 0x60 DUP4 ADD DUP5 DUP2 GT ISZERO PUSH2 0x2080 JUMPI PUSH1 0x0 DUP1 REVERT JUMPDEST DUP4 JUMPDEST DUP2 DUP2 LT ISZERO PUSH2 0x209A JUMPI DUP1 CALLDATALOAD DUP4 MSTORE PUSH1 0x20 SWAP3 DUP4 ADD SWAP3 ADD PUSH2 0x2082 JUMP JUMPDEST POP POP POP SWAP3 SWAP2 POP POP JUMP JUMPDEST PUSH1 0x0 DUP1 PUSH1 0x0 PUSH2 0x220 DUP1 DUP6 DUP8 SUB SLT ISZERO PUSH2 0x20BA JUMPI PUSH1 0x0 DUP1 REVERT JUMPDEST DUP5 CALLDATALOAD SWAP4 POP PUSH1 0x20 DUP1 DUP7 ADD CALLDATALOAD SWAP4 POP DUP7 PUSH1 0x5F DUP8 ADD SLT PUSH2 0x20D5 JUMPI PUSH1 0x0 DUP1 REVERT JUMPDEST PUSH2 0x20DD PUSH2 0x1C8F JUMP JUMPDEST SWAP2 DUP7 ADD SWAP2 DUP1 DUP9 DUP5 GT ISZERO PUSH2 0x20EF JUMPI PUSH1 0x0 DUP1 REVERT JUMPDEST PUSH1 0x40 DUP9 ADD JUMPDEST DUP5 DUP2 LT ISZERO PUSH2 0x2124 JUMPI DUP10 PUSH1 0x1F DUP3 ADD SLT PUSH2 0x210C JUMPI PUSH1 0x0 DUP1 DUP2 REVERT JUMPDEST PUSH2 0x2116 DUP11 DUP3 PUSH2 0x2044 JUMP JUMPDEST DUP4 MSTORE SWAP2 DUP4 ADD SWAP2 PUSH1 0x60 ADD PUSH2 0x20F4 JUMP JUMPDEST POP DUP1 SWAP5 POP POP POP POP POP SWAP3 POP SWAP3 POP SWAP3 JUMP JUMPDEST PUSH1 0x0 DUP1 PUSH1 0x0 DUP1 PUSH1 0x0 PUSH2 0x120 DUP1 DUP8 DUP10 SUB SLT ISZERO PUSH2 0x214D JUMPI PUSH1 0x0 DUP1 REVERT JUMPDEST DUP7 CALLDATALOAD PUSH8 0xFFFFFFFFFFFFFFFF DUP2 GT ISZERO PUSH2 0x2164 JUMPI PUSH1 0x0 DUP1 REVERT JUMPDEST PUSH2 0x2170 DUP10 DUP3 DUP11 ADD PUSH2 0x1D9B JUMP JUMPDEST SWAP7 POP POP PUSH1 0x20 DUP1 DUP9 ADD CALLDATALOAD SWAP6 POP PUSH1 0x40 DUP9 ADD CALLDATALOAD SWAP5 POP PUSH1 0x60 DUP9 ADD CALLDATALOAD SWAP4 POP DUP9 PUSH1 0x9F DUP10 ADD SLT PUSH2 0x2198 JUMPI PUSH1 0x0 DUP1 REVERT JUMPDEST PUSH2 0x21A0 PUSH2 0x1C8F JUMP JUMPDEST SWAP2 DUP9 ADD SWAP2 DUP1 DUP11 DUP5 GT ISZERO PUSH2 0x21B2 JUMPI PUSH1 0x0 DUP1 REVERT JUMPDEST PUSH1 0x80 DUP11 ADD JUMPDEST DUP5 DUP2 LT ISZERO PUSH2 0x21CE JUMPI DUP1 CALLDATALOAD DUP4 MSTORE SWAP2 DUP4 ADD SWAP2 DUP4 ADD PUSH2 0x21B7 JUMP JUMPDEST POP DUP1 SWAP5 POP POP POP POP POP SWAP3 SWAP6 POP SWAP3 SWAP6 SWAP1 SWAP4 POP JUMP JUMPDEST PUSH1 0xA0 DUP2 MSTORE PUSH1 0x0 PUSH2 0x21F3 PUSH1 0xA0 DUP4 ADD DUP9 PUSH2 0x1E72 JUMP JUMPDEST SWAP1 POP DUP6 PUSH1 0x20 DUP4 ADD MSTORE DUP5 PUSH1 0x40 DUP4 ADD MSTORE DUP4 PUSH1 0x60 DUP4 ADD MSTORE DUP3 PUSH1 0x80 DUP4 ADD MSTORE SWAP7 SWAP6 POP POP POP POP POP POP JUMP JUMPDEST DUP3 ISZERO ISZERO DUP2 MSTORE PUSH1 0x40 PUSH1 0x20 DUP3 ADD MSTORE PUSH1 0x0 PUSH2 0x2232 PUSH1 0x40 DUP4 ADD DUP5 PUSH2 0x1F72 JUMP JUMPDEST SWAP5 SWAP4 POP POP POP POP JUMP JUMPDEST PUSH1 0x0 PUSH1 0x20 DUP3 DUP5 SUB SLT ISZERO PUSH2 0x224C JUMPI PUSH1 0x0 DUP1 REVERT JUMPDEST POP MLOAD SWAP2 SWAP1 POP JUMP JUMPDEST PUSH4 0x4E487B71 PUSH1 0xE0 SHL PUSH1 0x0 MSTORE PUSH1 0x11 PUSH1 0x4 MSTORE PUSH1 0x24 PUSH1 0x0 REVERT JUMPDEST PUSH1 0x0 PUSH1 0x0 NOT DUP3 EQ ISZERO PUSH2 0x227D JUMPI PUSH2 0x227D PUSH2 0x2253 JUMP JUMPDEST POP PUSH1 0x1 ADD SWAP1 JUMP JUMPDEST PUSH1 0x1 DUP2 DUP2 SHR SWAP1 DUP3 AND DUP1 PUSH2 0x2298 JUMPI PUSH1 0x7F DUP3 AND SWAP2 POP JUMPDEST PUSH1 0x20 DUP3 LT DUP2 EQ ISZERO PUSH2 0x22B9 JUMPI PUSH4 0x4E487B71 PUSH1 0xE0 SHL PUSH1 0x0 MSTORE PUSH1 0x22 PUSH1 0x4 MSTORE PUSH1 0x24 PUSH1 0x0 REVERT JUMPDEST POP SWAP2 SWAP1 POP JUMP JUMPDEST PUSH4 0x4E487B71 PUSH1 0xE0 SHL PUSH1 0x0 MSTORE PUSH1 0x32 PUSH1 0x4 MSTORE PUSH1 0x24 PUSH1 0x0 REVERT JUMPDEST PUSH1 0x0 DUP3 DUP3 LT ISZERO PUSH2 0x22E7 JUMPI PUSH2 0x22E7 PUSH2 0x2253 JUMP JUMPDEST POP SUB SWAP1 JUMP JUMPDEST PUSH1 0x0 DUP3 NOT DUP3 GT ISZERO PUSH2 0x22FF JUMPI PUSH2 0x22FF PUSH2 0x2253 JUMP JUMPDEST POP ADD SWAP1 JUMP JUMPDEST PUSH1 0x0 DUP3 PUSH2 0x2321 JUMPI PUSH4 0x4E487B71 PUSH1 0xE0 SHL PUSH1 0x0 MSTORE PUSH1 0x12 PUSH1 0x4 MSTORE PUSH1 0x24 PUSH1 0x0 REVERT JUMPDEST POP MOD SWAP1 JUMP JUMPDEST PUSH1 0x0 PUSH1 0x20 DUP3 DUP5 SUB SLT ISZERO PUSH2 0x2338 JUMPI PUSH1 0x0 DUP1 REVERT JUMPDEST DUP2 MLOAD PUSH2 0x1F42 DUP2 PUSH2 0x1F10 JUMP JUMPDEST DUP3 DUP2 MSTORE PUSH1 0x40 PUSH1 0x20 DUP3 ADD MSTORE PUSH1 0x0 PUSH2 0x2232 PUSH1 0x40 DUP4 ADD DUP5 PUSH2 0x1F72 JUMP INVALID LOG2 PUSH5 0x6970667358 0x22 SLT KECCAK256 SWAP16 0xCF SWAP10 POP 0x2B SMOD 0xDB 0xAC 0xDC RETURNDATACOPY RETURNDATACOPY RETURNDATASIZE PUSH14 0x2FC1B06DD9BAA9959069A7AB464A PUSH13 0x82B0E60B64736F6C6343000809 STOP CALLER "},"methodIdentifiers":{"N_MAX_MOVES()":"cdc773ef","N_MONSTER_SKEW()":"0ff56693","STAMINA_REGENERATION_RATE()":"0a45af25","UNUSED_SKILL()":"3e26f96f","acceptOwnership()":"79ba5097","addMonster(string,uint256,uint256,uint256,uint256[5])":"b5b662af","addSkill(string,uint256,uint256)":"20f9eb3c","battle(uint256,uint256,uint256[3][5])":"a4482de5","getRequestStatus(uint256)":"d8a4676f","lastRequestId()":"fc2a88c3","matchCounter()":"01fd1951","matchIdToMonster1Sequences(uint256,uint256,uint256)":"539dc37e","matchIdToRandomnessRequestId(uint256)":"316990c1","matches(uint256)":"4768d4ef","monsterCount()":"b693bff8","monsterIdToSkillCount(uint256)":"9b1fec3f","monsterIdToSkillIds(uint256,uint256)":"136deb12","monsters(uint256)":"c0576b73","owner()":"8da5cb5b","progressNFT()":"bc0d27a0","randomnessRequestIdToRNG(uint256)":"444f2ec5","rawFulfillRandomWords(uint256,uint256[])":"1fe543e3","register()":"1aa3a008","requestIds(uint256)":"8796ba8c","s_requests(uint256)":"a168fa89","setProgressNFT(address)":"7c7c984b","skillCount()":"b82c1b4a","skills(uint256)":"50d15fbe","transferOwnership(address)":"f2fde38b","viewPlayOut(uint256)":"85c74889"}}}}}