{"contracts/BatMon.sol":{"BatMon":{"abi":[{"inputs":[],"stateMutability":"nonpayable","type":"constructor"},{"inputs":[{"internalType":"address","name":"have","type":"address"},{"internalType":"address","name":"want","type":"address"}],"name":"OnlyCoordinatorCanFulfill","type":"error"},{"anonymous":false,"inputs":[{"indexed":true,"internalType":"address","name":"from","type":"address"},{"indexed":true,"internalType":"address","name":"to","type":"address"}],"name":"OwnershipTransferRequested","type":"event"},{"anonymous":false,"inputs":[{"indexed":true,"internalType":"address","name":"from","type":"address"},{"indexed":true,"internalType":"address","name":"to","type":"address"}],"name":"OwnershipTransferred","type":"event"},{"anonymous":false,"inputs":[{"indexed":false,"internalType":"uint256","name":"requestId","type":"uint256"},{"indexed":false,"internalType":"uint256[]","name":"randomWords","type":"uint256[]"}],"name":"RequestFulfilled","type":"event"},{"anonymous":false,"inputs":[{"indexed":false,"internalType":"uint256","name":"requestId","type":"uint256"},{"indexed":false,"internalType":"uint32","name":"numWords","type":"uint32"}],"name":"RequestSent","type":"event"},{"inputs":[],"name":"N_MAX_MOVES","outputs":[{"internalType":"uint256","name":"","type":"uint256"}],"stateMutability":"view","type":"function"},{"inputs":[],"name":"N_MONSTER_SKEW","outputs":[{"internalType":"uint256","name":"","type":"uint256"}],"stateMutability":"view","type":"function"},{"inputs":[],"name":"STAMINA_REGENERATION_RATE","outputs":[{"internalType":"uint256","name":"","type":"uint256"}],"stateMutability":"view","type":"function"},{"inputs":[],"name":"UNUSED_SKILL","outputs":[{"internalType":"uint256","name":"","type":"uint256"}],"stateMutability":"view","type":"function"},{"inputs":[],"name":"acceptOwnership","outputs":[],"stateMutability":"nonpayable","type":"function"},{"inputs":[{"internalType":"string","name":"_name","type":"string"},{"internalType":"uint256","name":"_health","type":"uint256"},{"internalType":"uint256","name":"_speed","type":"uint256"},{"internalType":"uint256","name":"_stamina","type":"uint256"},{"internalType":"uint256[5]","name":"_skillsIds","type":"uint256[5]"}],"name":"addMonster","outputs":[],"stateMutability":"nonpayable","type":"function"},{"inputs":[{"internalType":"string","name":"_name","type":"string"},{"internalType":"uint256","name":"_damage","type":"uint256"},{"internalType":"uint256","name":"_staminaRequirement","type":"uint256"}],"name":"addSkill","outputs":[],"stateMutability":"nonpayable","type":"function"},{"inputs":[{"internalType":"uint256","name":"_progressNFT_Id","type":"uint256"},{"internalType":"uint256","name":"_monsterId","type":"uint256"},{"internalType":"uint256[3][5]","name":"_sequences","type":"uint256[3][5]"}],"name":"battle","outputs":[{"internalType":"uint256","name":"matchId","type":"uint256"}],"stateMutability":"nonpayable","type":"function"},{"inputs":[{"internalType":"uint256","name":"_matchId","type":"uint256"}],"name":"claim","outputs":[{"internalType":"bool","name":"","type":"bool"}],"stateMutability":"nonpayable","type":"function"},{"inputs":[{"internalType":"uint256","name":"_requestId","type":"uint256"}],"name":"getRequestStatus","outputs":[{"internalType":"bool","name":"fulfilled","type":"bool"},{"internalType":"uint256[]","name":"randomWords","type":"uint256[]"}],"stateMutability":"view","type":"function"},{"inputs":[],"name":"lastRequestId","outputs":[{"internalType":"uint256","name":"","type":"uint256"}],"stateMutability":"view","type":"function"},{"inputs":[],"name":"matchCounter","outputs":[{"internalType":"uint256","name":"","type":"uint256"}],"stateMutability":"view","type":"function"},{"inputs":[{"internalType":"uint256","name":"","type":"uint256"},{"internalType":"uint256","name":"","type":"uint256"},{"internalType":"uint256","name":"","type":"uint256"}],"name":"matchIdToMonster1Sequences","outputs":[{"internalType":"uint256","name":"","type":"uint256"}],"stateMutability":"view","type":"function"},{"inputs":[{"internalType":"uint256","name":"","type":"uint256"}],"name":"matchIdToRandomnessRequestId","outputs":[{"internalType":"uint256","name":"","type":"uint256"}],"stateMutability":"view","type":"function"},{"inputs":[{"internalType":"uint256","name":"","type":"uint256"}],"name":"matches","outputs":[{"internalType":"uint256","name":"progressNFT_Id","type":"uint256"},{"internalType":"uint256","name":"monster0_Id","type":"uint256"},{"internalType":"uint256","name":"monster1_Id","type":"uint256"}],"stateMutability":"view","type":"function"},{"inputs":[],"name":"monsterCount","outputs":[{"internalType":"uint256","name":"","type":"uint256"}],"stateMutability":"view","type":"function"},{"inputs":[{"internalType":"uint256","name":"","type":"uint256"}],"name":"monsterIdToSkillCount","outputs":[{"internalType":"uint256","name":"","type":"uint256"}],"stateMutability":"view","type":"function"},{"inputs":[{"internalType":"uint256","name":"","type":"uint256"},{"internalType":"uint256","name":"","type":"uint256"}],"name":"monsterIdToSkillIds","outputs":[{"internalType":"uint256","name":"","type":"uint256"}],"stateMutability":"view","type":"function"},{"inputs":[{"internalType":"uint256","name":"","type":"uint256"}],"name":"monsters","outputs":[{"internalType":"string","name":"name","type":"string"},{"internalType":"uint256","name":"health","type":"uint256"},{"internalType":"uint256","name":"speed","type":"uint256"},{"internalType":"uint256","name":"stamina","type":"uint256"},{"internalType":"uint256","name":"skillCount","type":"uint256"}],"stateMutability":"view","type":"function"},{"inputs":[],"name":"owner","outputs":[{"internalType":"address","name":"","type":"address"}],"stateMutability":"view","type":"function"},{"inputs":[],"name":"progressNFT","outputs":[{"internalType":"address","name":"","type":"address"}],"stateMutability":"view","type":"function"},{"inputs":[{"internalType":"uint256","name":"","type":"uint256"}],"name":"randomnessRequestIdToRNG","outputs":[{"internalType":"uint256","name":"","type":"uint256"}],"stateMutability":"view","type":"function"},{"inputs":[{"internalType":"uint256","name":"requestId","type":"uint256"},{"internalType":"uint256[]","name":"randomWords","type":"uint256[]"}],"name":"rawFulfillRandomWords","outputs":[],"stateMutability":"nonpayable","type":"function"},{"inputs":[],"name":"register","outputs":[],"stateMutability":"nonpayable","type":"function"},{"inputs":[{"internalType":"uint256","name":"","type":"uint256"}],"name":"requestIds","outputs":[{"internalType":"uint256","name":"","type":"uint256"}],"stateMutability":"view","type":"function"},{"inputs":[{"internalType":"uint256","name":"","type":"uint256"}],"name":"s_requests","outputs":[{"internalType":"bool","name":"fulfilled","type":"bool"},{"internalType":"bool","name":"exists","type":"bool"}],"stateMutability":"view","type":"function"},{"inputs":[{"internalType":"address","name":"_progressNFT","type":"address"}],"name":"setProgressNFT","outputs":[],"stateMutability":"nonpayable","type":"function"},{"inputs":[],"name":"skillCount","outputs":[{"internalType":"uint256","name":"","type":"uint256"}],"stateMutability":"view","type":"function"},{"inputs":[{"internalType":"uint256","name":"","type":"uint256"}],"name":"skills","outputs":[{"internalType":"string","name":"name","type":"string"},{"internalType":"uint256","name":"damage","type":"uint256"},{"internalType":"uint256","name":"staminaRequirement","type":"uint256"}],"stateMutability":"view","type":"function"},{"inputs":[{"internalType":"address","name":"to","type":"address"}],"name":"transferOwnership","outputs":[],"stateMutability":"nonpayable","type":"function"},{"inputs":[{"internalType":"uint256","name":"matchId","type":"uint256"}],"name":"viewPlayOut","outputs":[{"internalType":"bool","name":"randomnessFullfiled","type":"bool"},{"internalType":"bool","name":"canClaim","type":"bool"},{"internalType":"uint256","name":"RNG","type":"uint256"},{"internalType":"bool[100]","name":"isFinal","type":"bool[100]"},{"internalType":"uint256[100]","name":"turn","type":"uint256[100]"},{"internalType":"uint256[100]","name":"skillId","type":"uint256[100]"},{"internalType":"uint256[]","name":"monster0_health","type":"uint256[]"},{"internalType":"uint256[]","name":"monster1_health","type":"uint256[]"}],"stateMutability":"view","type":"function"}],"evm":{"bytecode":{"linkReferences":{},"object":"60a06040527f4b09e658ed251bcafeebbc69400383d49f344ace09b9576fe248bb02c003fe9f600655600780546001600160501b03191666010003000186a01790553480156200004e57600080fd5b50737a1bac17ccc5b313516c5e16fb24f7659aa5ebed608052610a423380600081620000c15760405162461bcd60e51b815260206004820152601860248201527f43616e6e6f7420736574206f776e657220746f207a65726f000000000000000060448201526064015b60405180910390fd5b600080546001600160a01b0319166001600160a01b0384811691909117909155811615620000f457620000f48162000385565b5050600380546001600160401b03909316600160a01b026001600160e01b031990931692909217737a1bac17ccc5b313516c5e16fb24f7659aa5ebed17909155506040805180820190915260048152636669726560e01b60208201526200015f906002600a62000431565b62000191604051806040016040528060058152602001643630b9b2b960d91b815250600560086200043160201b60201c565b6040805180820190915260078152663a343ab73232b960c91b6020820152620001be906008600362000431565b60006040518060a00160405280600081526020016001815260200160028152602001610fff8152602001610fff81525090506200022860405180604001604052806008815260200167283937ba32bd30b960c11b81525060c8601e600a85620004b060201b60201c565b610fff6040808301919091528051808201909152600581526414985c995d60da1b6020820152620002609060dc6028601485620004b0565b610fff816001602002018181525050620002a7604051806040016040528060088152602001672a3930b83732b0b960c11b81525060966014600a85620004b060201b60201c565b600081526002602080830191909152610fff60408084019190915280518082019091526006815265556e7572616b60d01b91810191909152620002f19060b4601e600185620004b0565b600281526001602080830191909152610fff604080840191909152805180820190915260078152662bb0b93bb2b0b960c91b918101919091526200033c9060fa6028600385620004b0565b60028152610fff60208083019190915260408051808201909152600681526515da5e9ad95d60d21b918101919091526200037e906101c26014600585620004b0565b50620008ec565b6001600160a01b038116331415620003e05760405162461bcd60e51b815260206004820152601760248201527f43616e6e6f74207472616e7366657220746f2073656c660000000000000000006044820152606401620000b8565b600180546001600160a01b0319166001600160a01b0383811691821790925560008054604051929316917fed8889f560326eb138920d842192f0eb3dd22b4f139c87a2c57538e05bae12789190a350565b6200043b62000716565b6040805160608101825284815260208082018590528183018490526009546000908152600b82529290922081518051929391926200047d928492019062000774565b506020820151600182015560409091015160029091015560098054906000620004a68362000876565b9190505550505050565b620004ba62000716565b6000805b6005811015620005c657600954838260058110620004e057620004e06200084a565b602002015110806200050c5750610fff8382600581106200050557620005056200084a565b6020020151145b620005735760405162461bcd60e51b815260206004820152603060248201527f536b696c6c2068617320656974686572206e6f74206265656e2063726561746560448201526f19081bdc881a5cc81b9bdd081d5cd95960821b6064820152608401620000b8565b610fff8382600581106200058b576200058b6200084a565b602002015114156200059f576000620005a2565b60015b620005b19060ff168362000894565b9150620005be8162000876565b9050620004be565b5060008111620006255760405162461bcd60e51b815260206004820152602360248201527f4d6f6e73746572206d75737420757365206174206c65617374206f6e6520736b6044820152621a5b1b60ea1b6064820152608401620000b8565b6040805160c0810182528781526020808201889052818301879052606082018690526080820185905260a082018490526008546000908152600c82529290922081518051929384936200067c928492019062000774565b506020820151600182015560408201516002820155606082015160038201556080820151620006b2906004830190600562000803565b5060a0919091015160099091015560808101516008546000908152600e60205260409020620006e391600562000803565b50600880546000908152600f6020526040812084905581549190620007088362000876565b919050555050505050505050565b6000546001600160a01b03163314620007725760405162461bcd60e51b815260206004820152601660248201527f4f6e6c792063616c6c61626c65206279206f776e6572000000000000000000006044820152606401620000b8565b565b8280546200078290620008af565b90600052602060002090601f016020900481019282620007a65760008555620007f1565b82601f10620007c157805160ff1916838001178555620007f1565b82800160010185558215620007f1579182015b82811115620007f1578251825591602001919060010190620007d4565b50620007ff92915062000833565b5090565b8260058101928215620007f15791602002820182811115620007f1578251825591602001919060010190620007d4565b5b80821115620007ff576000815560010162000834565b634e487b7160e01b600052603260045260246000fd5b634e487b7160e01b600052601160045260246000fd5b60006000198214156200088d576200088d62000860565b5060010190565b60008219821115620008aa57620008aa62000860565b500190565b600181811c90821680620008c457607f821691505b60208210811415620008e657634e487b7160e01b600052602260045260246000fd5b50919050565b60805161266d6200090f6000396000818161059201526105d4015261266d6000f3fe608060405234801561001057600080fd5b50600436106101e55760003560e01c80637c7c984b1161010f578063b693bff8116100a2578063cdc773ef11610071578063cdc773ef14610497578063d8a4676f1461049f578063f2fde38b146104c0578063fc2a88c3146104d357600080fd5b8063b693bff814610447578063b82c1b4a14610450578063bc0d27a014610459578063c0576b731461047357600080fd5b80639b1fec3f116100de5780639b1fec3f146103be578063a168fa89146103de578063a4482de514610421578063b5b662af1461043457600080fd5b80637c7c984b1461034c57806385c748891461035f5780638796ba8c146103865780638da5cb5b1461039957600080fd5b8063316990c1116101875780634768d4ef116101565780634768d4ef146102c557806350d15fbe1461030f578063539dc37e1461033157806379ba50971461034457600080fd5b8063316990c114610259578063379607f5146102795780633e26f96f1461029c578063444f2ec5146102a557600080fd5b8063136deb12116101c3578063136deb12146102165780631aa3a008146102295780631fe543e31461023357806320f9eb3c1461024657600080fd5b806301fd1951146101ea5780630a45af25146102065780630ff566931461020e575b600080fd5b6101f3600a5481565b6040519081526020015b60405180910390f35b6101f3600a81565b6101f3600281565b6101f3610224366004611ec8565b6104dc565b610231610501565b005b610231610241366004611f5a565b610587565b61023161025436600461207c565b610614565b6101f36102673660046120ca565b60116020526000908152604090205481565b61028c6102873660046120ca565b61068d565b60405190151581526020016101fd565b6101f3610fff81565b6101f36102b33660046120ca565b60126020526000908152604090205481565b6102f46102d33660046120ca565b600d6020526000908152604090208054600182015460119092015490919083565b604080519384526020840192909252908201526060016101fd565b61032261031d3660046120ca565b610840565b6040516101fd93929190612130565b6101f361033f366004612155565b6108ea565b610231610928565b61023161035a366004612196565b6109d2565b61037261036d3660046120ca565b610a1b565b6040516101fd98979695949392919061221e565b6101f36103943660046120ca565b611184565b6000546001600160a01b03165b6040516001600160a01b0390911681526020016101fd565b6101f36103cc3660046120ca565b600f6020526000908152604090205481565b61040a6103ec3660046120ca565b60026020526000908152604090205460ff8082169161010090041682565b6040805192151583529015156020830152016101fd565b6101f361042f366004612314565b6111a5565b6102316104423660046123a4565b611538565b6101f360085481565b6101f360095481565b6007546103a690600160501b90046001600160a01b031681565b6104866104813660046120ca565b61177e565b6040516101fd959493929190612451565b6101f3603281565b6104b26104ad3660046120ca565b611834565b6040516101fd929190612488565b6102316104ce366004612196565b611928565b6101f360055481565b600e60205281600052604060002081600581106104f857600080fd5b01549150829050565b6007546040516335313c2160e11b8152336004820152600160501b9091046001600160a01b031690636a62784290602401602060405180830381600087803b15801561054c57600080fd5b505af1158015610560573d6000803e3d6000fd5b505050506040513d601f19601f8201168201806040525081019061058491906124ab565b50565b336001600160a01b037f000000000000000000000000000000000000000000000000000000000000000016146106065760405163073e64fd60e21b81523360048201526001600160a01b037f00000000000000000000000000000000000000000000000000000000000000001660248201526044015b60405180910390fd5b6106108282611939565b5050565b61061c6119ff565b6040805160608101825284815260208082018590528183018490526009546000908152600b825292909220815180519293919261065c9284920190611cc9565b506020820151600182015560409091015160029091015560098054906000610683836124da565b9190505550505050565b6000818152600d60205260408082205460075491516331a9108f60e11b815290913391600160501b9091046001600160a01b031690636352211e906106da90859060040190815260200190565b60206040518083038186803b1580156106f257600080fd5b505afa158015610706573d6000803e3d6000fd5b505050506040513d601f19601f8201168201806040525081019061072a91906124f5565b6001600160a01b0316146107505760405162461bcd60e51b81526004016105fd90612512565b600061075b84610a1b565b505050505050915050806107b15760405162461bcd60e51b815260206004820152601d60248201527f596f752063616e6e6f7420636c61696d2074686973206d6f6e7374657200000060448201526064016105fd565b600754604051630674876160e11b815260048101849052600160501b9091046001600160a01b031690630ce90ec290602401602060405180830381600087803b1580156107fd57600080fd5b505af1158015610811573d6000803e3d6000fd5b505050506040513d601f19601f82011682018060405250810190610835919061255a565b506001949350505050565b600b6020526000908152604090208054819061085b9061257c565b80601f01602080910402602001604051908101604052809291908181526020018280546108879061257c565b80156108d45780601f106108a9576101008083540402835291602001916108d4565b820191906000526020600020905b8154815290600101906020018083116108b757829003601f168201915b5050505050908060010154908060020154905083565b6010602052826000526040600020602052816000526040600020818154811061091257600080fd5b9060005260206000200160009250925050505481565b6001546001600160a01b0316331461097b5760405162461bcd60e51b815260206004820152601660248201527526bab9ba10313290383937b837b9b2b21037bbb732b960511b60448201526064016105fd565b60008054336001600160a01b0319808316821784556001805490911690556040516001600160a01b0390921692909183917f8be0079c531659141344cd1fd0a4f28419497f9722a3daafe3b4186f6b6457e091a350565b6109da6119ff565b600780546001600160a01b03909216600160501b027fffff0000000000000000000000000000000000000000ffffffffffffffffffff909216919091179055565b6000806000610a28611d4d565b610a30611d4d565b610a38611d4d565b600087815260116020908152604080832054835260029091529020546060908190610100900460ff16610aa15760405162461bcd60e51b815260206004820152601160248201527013585d18da081b9bdd0818dc99585d1959607a1b60448201526064016105fd565b6000898152601160209081526040808320548352600290915290205460ff16610b0c5760405162461bcd60e51b815260206004820152601e60248201527f4d617463682072616e646f6d6e657373206e6f742066756c6c66696c6564000060448201526064016105fd565b6000898152601160209081526040808320548352600290915281206001018054909190610b3b57610b3b6125b7565b60009182526020808320909101548b8352600d825260408084206001908101548552600c9093528320600901548115159b50909850600a91610b7c916125cd565b604080516064808252610ca082019092529190921b600590811793509160208201610c80803683375050604080516064808252610ca08201909252929650905060208201610c808036833750505060008c8152600d602090815260408083206001908101548452600c90925282200154865192955091869190610c0157610c016125b7565b60209081029190910181019190915260008c8152600d82526040808220601101548252600c90925290812060010154845190918591610c4257610c426125b7565b602002602001018181525050610c56611d6c565b60008082528c8152600d602090815260408083206001908101548452600f83529281902054908401528201525b6020810151603211156110db57602081015160018a821c1690889060648110610cae57610cae6125b7565b602002015286816001602002015160648110610ccc57610ccc6125b7565b6020020151610d1b5760408101516020820151610cea9060016125e4565b8a901c610cf791906125fc565b868260015b602002015160648110610d1157610d116125b7565b6020020152610eb3565b60008c815260106020908152604080832083805290915281208054909190610d4557610d456125b7565b60009182526020909120015486826001602002015160648110610d6a57610d6a6125b7565b60200201526005821415610de05760038160015b6020020151610d8e9060026125e4565b8a901c610d9b91906125fc565b60008d815260106020908152604080832084845290915281208054929550909350908390610dcb57610dcb6125b7565b60009182526020909120015486826001610cfc565b610deb6001836125e4565b60008d815260106020908152604080832087845290915290205490925082101580610e4e575060008c815260106020908152604080832086845290915290208054610fff919084908110610e4157610e416125b7565b9060005260206000200154145b15610e5d576003816001610d7e565b60008c81526010602090815260408083208684529091529020805483908110610e8857610e886125b7565b60009182526020909120015486826001602002015160648110610ead57610ead6125b7565b60200201525b6001858183816020020151610ec891906125cd565b81518110610ed857610ed86125b7565b60200260200101518683600160038110610ef457610ef46125b7565b602002015181518110610f0957610f096125b7565b602090810291909101015284600183816020020151610f2891906125cd565b81518110610f3857610f386125b7565b60200260200101518583600160038110610f5457610f546125b7565b602002015181518110610f6957610f696125b7565b602090810291909101015287826001602002015160648110610f8d57610f8d6125b7565b6020020151611026578085836001602002015181518110610fb057610fb06125b7565b602002602001015111610ff0576001808352600090869084905b602002015181518110610fdf57610fdf6125b7565b602002602001018181525050611090565b808583600160200201518151811061100a5761100a6125b7565b6020026020010181815161101e91906125cd565b905250611090565b8086836001602002015181518110611040576110406125b7565b60200260200101511161105e57600180835260009087908490610fca565b8086836001602002015181518110611078576110786125b7565b6020026020010181815161108c91906125cd565b9052505b8151600114156110c45760018983826020020151606481106110b4576110b46125b7565b91151560209092020152506110db565b506020810180516110d4906124da565b9052610c83565b6020810151603211611121576001886110f58260326125cd565b60648110611105576111056125b7565b9115156020909202015261111b600160326125cd565b60208201525b8381600160200201518151811061113a5761113a6125b7565b60200260200101518582600160038110611156576111566125b7565b60200201518151811061116b5761116b6125b7565b6020026020010151109950505050919395975091939597565b6004818154811061119457600080fd5b600091825260209091200154905081565b6007546040516331a9108f60e11b81526000913391600160501b9091046001600160a01b031690636352211e906111e490889060040190815260200190565b60206040518083038186803b1580156111fc57600080fd5b505afa158015611210573d6000803e3d6000fd5b505050506040513d601f19601f8201168201806040525081019061123491906124f5565b6001600160a01b03161461125a5760405162461bcd60e51b81526004016105fd90612512565b60075460405163bb86e8cd60e01b815260048101869052600091600291600160501b9091046001600160a01b03169063bb86e8cd9060240160206040518083038186803b1580156112aa57600080fd5b505afa1580156112be573d6000803e3d6000fd5b505050506040513d601f19601f820116820180604052508101906112e291906124ab565b6112ec91906125e4565b9050600854811061134f5760405162461bcd60e51b815260206004820152602760248201527f54686174206c6576656c20686173206e6f7420796574206265656e20637265616044820152667465642021212160c81b60648201526084016105fd565b600854841080156113605750808411155b6113ac5760405162461bcd60e51b815260206004820181905260248201527f596f752063616e6e6f74207573652074686174206d6f6e73746572202121212060448201526064016105fd565b6113b4611d8a565b600a546040805160a0810182528881526020808201868152828401868152606084018b9052608084018a90526000868152600d90935293909120825181559051600182015591519295509161140f9060028301906005611db7565b5060608201516011820155608082015161142f9060128301906005611db7565b5090505060005b60038110156114fb57604080516000808252602080830180855288835260108252848320868452909152929020905161146f9290611dfe565b5060005b60058110156114ea57600085815260106020908152604080832085845290915290208682600581106114a7576114a76125b7565b602002015183600381106114bd576114bd6125b7565b60209081029190910151825460018101845560009384529190922001556114e3816124da565b9050611473565b506114f4816124da565b9050611436565b50611504611a54565b600084815260116020526040812091909155600a8054600192906115299084906125e4565b90915550929695505050505050565b6115406119ff565b6000805b600581101561163857600954838260058110611562576115626125b7565b6020020151108061158a5750610fff838260058110611583576115836125b7565b6020020151145b6115ef5760405162461bcd60e51b815260206004820152603060248201527f536b696c6c2068617320656974686572206e6f74206265656e2063726561746560448201526f19081bdc881a5cc81b9bdd081d5cd95960821b60648201526084016105fd565b610fff838260058110611604576116046125b7565b60200201511415611616576000611619565b60015b6116269060ff16836125e4565b9150611631816124da565b9050611544565b50600081116116955760405162461bcd60e51b815260206004820152602360248201527f4d6f6e73746572206d75737420757365206174206c65617374206f6e6520736b6044820152621a5b1b60ea1b60648201526084016105fd565b6040805160c0810182528781526020808201889052818301879052606082018690526080820185905260a082018490526008546000908152600c82529290922081518051929384936116ea9284920190611cc9565b50602082015160018201556040820151600282015560608201516003820155608082015161171e9060048301906005611e38565b5060a0919091015160099091015560808101516008546000908152600e6020526040902061174d916005611e38565b50600880546000908152600f6020526040812084905581549190611770836124da565b919050555050505050505050565b600c602052600090815260409020805481906117999061257c565b80601f01602080910402602001604051908101604052809291908181526020018280546117c59061257c565b80156118125780601f106117e757610100808354040283529160200191611812565b820191906000526020600020905b8154815290600101906020018083116117f557829003601f168201915b5050505050908060010154908060020154908060030154908060090154905085565b600081815260026020526040812054606090610100900460ff1661188e5760405162461bcd60e51b81526020600482015260116024820152701c995c5d595cdd081b9bdd08199bdd5b99607a1b60448201526064016105fd565b60008381526002602090815260408083208151606081018352815460ff808216151583526101009091041615158185015260018201805484518187028101870186528181529295939486019383018282801561190957602002820191906000526020600020905b8154815260200190600101908083116118f5575b5050505050815250509050806000015181604001519250925050915091565b6119306119ff565b61058481611c1f565b600082815260026020526040902054610100900460ff166119905760405162461bcd60e51b81526020600482015260116024820152701c995c5d595cdd081b9bdd08199bdd5b99607a1b60448201526064016105fd565b6000828152600260209081526040909120805460ff19166001908117825583516119c1939290910191840190611dfe565b507ffe2e2d779dba245964d4e3ef9b994be63856fd568bf7d3ca9e224755cb1bd54d82826040516119f392919061261e565b60405180910390a15050565b6000546001600160a01b03163314611a525760405162461bcd60e51b815260206004820152601660248201527527b7363c9031b0b63630b1363290313c9037bbb732b960511b60448201526064016105fd565b565b6003546006546007546040516305d3b1d360e41b81526004810192909252600160a01b830467ffffffffffffffff166024830152640100000000810461ffff16604483015263ffffffff808216606484015266010000000000009091041660848201526000916001600160a01b031690635d3b1d309060a401602060405180830381600087803b158015611ae757600080fd5b505af1158015611afb573d6000803e3d6000fd5b505050506040513d601f19601f82011682018060405250810190611b1f91906124ab565b6040805160608101825260008082526001602080840182815285518481528083018752858701908152878552600283529590932084518154945161ffff1990951690151561ff00191617610100941515949094029390931783559351805195965092949193611b949391850192910190611dfe565b5050600480546001810182556000919091527f8a35acfbc15ff81a39ae7d344fd709f28e8600b4aa8c65c6b64bfe7fe36bd19b0182905550600581905560075460408051838152660100000000000090920463ffffffff1660208301527fcc58b13ad3eab50626c6a6300b1d139cd6ebb1688a7cced9461c2f7e762665ee910160405180910390a190565b6001600160a01b038116331415611c785760405162461bcd60e51b815260206004820152601760248201527f43616e6e6f74207472616e7366657220746f2073656c6600000000000000000060448201526064016105fd565b600180546001600160a01b0319166001600160a01b0383811691821790925560008054604051929316917fed8889f560326eb138920d842192f0eb3dd22b4f139c87a2c57538e05bae12789190a350565b828054611cd59061257c565b90600052602060002090601f016020900481019282611cf75760008555611d3d565b82601f10611d1057805160ff1916838001178555611d3d565b82800160010185558215611d3d579182015b82811115611d3d578251825591602001919060010190611d22565b50611d49929150611e65565b5090565b60405180610c8001604052806064906020820280368337509192915050565b60405180606001604052806003906020820280368337509192915050565b6040518060a001604052806005905b611da1611d6c565b815260200190600190039081611d995790505090565b600f83019183908215611df2579160200282015b82811115611df2578251611de29083906003611e7a565b5091602001919060030190611dcb565b50611d49929150611ea7565b828054828255906000526020600020908101928215611d3d5791602002820182811115611d3d578251825591602001919060010190611d22565b8260058101928215611d3d5791602002820182811115611d3d578251825591602001919060010190611d22565b5b80821115611d495760008155600101611e66565b8260038101928215611d3d5791602002820182811115611d3d578251825591602001919060010190611d22565b80821115611d49576000808255600182018190556002820155600301611ea7565b60008060408385031215611edb57600080fd5b50508035926020909101359150565b634e487b7160e01b600052604160045260246000fd5b60405160a0810167ffffffffffffffff81118282101715611f2357611f23611eea565b60405290565b604051601f8201601f1916810167ffffffffffffffff81118282101715611f5257611f52611eea565b604052919050565b60008060408385031215611f6d57600080fd5b8235915060208084013567ffffffffffffffff80821115611f8d57600080fd5b818601915086601f830112611fa157600080fd5b813581811115611fb357611fb3611eea565b8060051b9150611fc4848301611f29565b8181529183018401918481019089841115611fde57600080fd5b938501935b83851015611ffc57843582529385019390850190611fe3565b8096505050505050509250929050565b600082601f83011261201d57600080fd5b813567ffffffffffffffff81111561203757612037611eea565b61204a601f8201601f1916602001611f29565b81815284602083860101111561205f57600080fd5b816020850160208301376000918101602001919091529392505050565b60008060006060848603121561209157600080fd5b833567ffffffffffffffff8111156120a857600080fd5b6120b48682870161200c565b9660208601359650604090950135949350505050565b6000602082840312156120dc57600080fd5b5035919050565b6000815180845260005b81811015612109576020818501810151868301820152016120ed565b8181111561211b576000602083870101525b50601f01601f19169290920160200192915050565b60608152600061214360608301866120e3565b60208301949094525060400152919050565b60008060006060848603121561216a57600080fd5b505081359360208301359350604090920135919050565b6001600160a01b038116811461058457600080fd5b6000602082840312156121a857600080fd5b81356121b381612181565b9392505050565b8060005b60648110156121dd5781518452602093840193909101906001016121be565b50505050565b600081518084526020808501945080840160005b83811015612213578151875295820195908201906001016121f7565b509495945050505050565b60006126208a1515835260208a151581850152896040850152606084018960005b606481101561225e57815115158352918301919083019060010161223f565b50505050612270610ce08401886121ba565b61227e6119608401876121ba565b806125e0840152612291818401866121e3565b90508281036126008401526122a681856121e3565b9b9a5050505050505050505050565b60006040516060810181811067ffffffffffffffff821117156122da576122da611eea565b60405290508060608301848111156122f157600080fd5b835b8181101561230b5780358352602092830192016122f3565b50505092915050565b600080600061022080858703121561232b57600080fd5b84359350602080860135935086605f87011261234657600080fd5b61234e611f00565b91860191808884111561236057600080fd5b604088015b848110156123955789601f82011261237d5760008081fd5b6123878a826122b5565b835291830191606001612365565b50809450505050509250925092565b60008060008060006101208087890312156123be57600080fd5b863567ffffffffffffffff8111156123d557600080fd5b6123e189828a0161200c565b9650506020808801359550604088013594506060880135935088609f89011261240957600080fd5b612411611f00565b91880191808a84111561242357600080fd5b60808a015b8481101561243f5780358352918301918301612428565b50809450505050509295509295909350565b60a08152600061246460a08301886120e3565b90508560208301528460408301528360608301528260808301529695505050505050565b82151581526040602082015260006124a360408301846121e3565b949350505050565b6000602082840312156124bd57600080fd5b5051919050565b634e487b7160e01b600052601160045260246000fd5b60006000198214156124ee576124ee6124c4565b5060010190565b60006020828403121561250757600080fd5b81516121b381612181565b60208082526028908201527f4f6e6c7920746f6b656e206f776e65722063616e2063616c6c2074686973206d6040820152676574686f6421212160c01b606082015260800190565b60006020828403121561256c57600080fd5b815180151581146121b357600080fd5b600181811c9082168061259057607f821691505b602082108114156125b157634e487b7160e01b600052602260045260246000fd5b50919050565b634e487b7160e01b600052603260045260246000fd5b6000828210156125df576125df6124c4565b500390565b600082198211156125f7576125f76124c4565b500190565b60008261261957634e487b7160e01b600052601260045260246000fd5b500690565b8281526040602082015260006124a360408301846121e356fea264697066735822122006c782703df507e39adc9e46f365600cda30e0945e9bfed8c9e2c94bfbf9ede664736f6c63430008090033","opcodes":"PUSH1 0xA0 PUSH1 0x40 MSTORE PUSH32 0x4B09E658ED251BCAFEEBBC69400383D49F344ACE09B9576FE248BB02C003FE9F PUSH1 0x6 SSTORE PUSH1 0x7 DUP1 SLOAD PUSH1 0x1 PUSH1 0x1 PUSH1 0x50 SHL SUB NOT AND PUSH7 0x10003000186A0 OR SWAP1 SSTORE CALLVALUE DUP1 ISZERO PUSH3 0x4E JUMPI PUSH1 0x0 DUP1 REVERT JUMPDEST POP PUSH20 0x7A1BAC17CCC5B313516C5E16FB24F7659AA5EBED PUSH1 0x80 MSTORE PUSH2 0xA42 CALLER DUP1 PUSH1 0x0 DUP2 PUSH3 0xC1 JUMPI PUSH1 0x40 MLOAD PUSH3 0x461BCD PUSH1 0xE5 SHL DUP2 MSTORE PUSH1 0x20 PUSH1 0x4 DUP3 ADD MSTORE PUSH1 0x18 PUSH1 0x24 DUP3 ADD MSTORE PUSH32 0x43616E6E6F7420736574206F776E657220746F207A65726F0000000000000000 PUSH1 0x44 DUP3 ADD MSTORE PUSH1 0x64 ADD JUMPDEST PUSH1 0x40 MLOAD DUP1 SWAP2 SUB SWAP1 REVERT JUMPDEST PUSH1 0x0 DUP1 SLOAD PUSH1 0x1 PUSH1 0x1 PUSH1 0xA0 SHL SUB NOT AND PUSH1 0x1 PUSH1 0x1 PUSH1 0xA0 SHL SUB DUP5 DUP2 AND SWAP2 SWAP1 SWAP2 OR SWAP1 SWAP2 SSTORE DUP2 AND ISZERO PUSH3 0xF4 JUMPI PUSH3 0xF4 DUP2 PUSH3 0x385 JUMP JUMPDEST POP POP PUSH1 0x3 DUP1 SLOAD PUSH1 0x1 PUSH1 0x1 PUSH1 0x40 SHL SUB SWAP1 SWAP4 AND PUSH1 0x1 PUSH1 0xA0 SHL MUL PUSH1 0x1 PUSH1 0x1 PUSH1 0xE0 SHL SUB NOT SWAP1 SWAP4 AND SWAP3 SWAP1 SWAP3 OR PUSH20 0x7A1BAC17CCC5B313516C5E16FB24F7659AA5EBED OR SWAP1 SWAP2 SSTORE POP PUSH1 0x40 DUP1 MLOAD DUP1 DUP3 ADD SWAP1 SWAP2 MSTORE PUSH1 0x4 DUP2 MSTORE PUSH4 0x66697265 PUSH1 0xE0 SHL PUSH1 0x20 DUP3 ADD MSTORE PUSH3 0x15F SWAP1 PUSH1 0x2 PUSH1 0xA PUSH3 0x431 JUMP JUMPDEST PUSH3 0x191 PUSH1 0x40 MLOAD DUP1 PUSH1 0x40 ADD PUSH1 0x40 MSTORE DUP1 PUSH1 0x5 DUP2 MSTORE PUSH1 0x20 ADD PUSH5 0x3630B9B2B9 PUSH1 0xD9 SHL DUP2 MSTORE POP PUSH1 0x5 PUSH1 0x8 PUSH3 0x431 PUSH1 0x20 SHL PUSH1 0x20 SHR JUMP JUMPDEST PUSH1 0x40 DUP1 MLOAD DUP1 DUP3 ADD SWAP1 SWAP2 MSTORE PUSH1 0x7 DUP2 MSTORE PUSH7 0x3A343AB73232B9 PUSH1 0xC9 SHL PUSH1 0x20 DUP3 ADD MSTORE PUSH3 0x1BE SWAP1 PUSH1 0x8 PUSH1 0x3 PUSH3 0x431 JUMP JUMPDEST PUSH1 0x0 PUSH1 0x40 MLOAD DUP1 PUSH1 0xA0 ADD PUSH1 0x40 MSTORE DUP1 PUSH1 0x0 DUP2 MSTORE PUSH1 0x20 ADD PUSH1 0x1 DUP2 MSTORE PUSH1 0x20 ADD PUSH1 0x2 DUP2 MSTORE PUSH1 0x20 ADD PUSH2 0xFFF DUP2 MSTORE PUSH1 0x20 ADD PUSH2 0xFFF DUP2 MSTORE POP SWAP1 POP PUSH3 0x228 PUSH1 0x40 MLOAD DUP1 PUSH1 0x40 ADD PUSH1 0x40 MSTORE DUP1 PUSH1 0x8 DUP2 MSTORE PUSH1 0x20 ADD PUSH8 0x283937BA32BD30B9 PUSH1 0xC1 SHL DUP2 MSTORE POP PUSH1 0xC8 PUSH1 0x1E PUSH1 0xA DUP6 PUSH3 0x4B0 PUSH1 0x20 SHL PUSH1 0x20 SHR JUMP JUMPDEST PUSH2 0xFFF PUSH1 0x40 DUP1 DUP4 ADD SWAP2 SWAP1 SWAP2 MSTORE DUP1 MLOAD DUP1 DUP3 ADD SWAP1 SWAP2 MSTORE PUSH1 0x5 DUP2 MSTORE PUSH5 0x14985C995D PUSH1 0xDA SHL PUSH1 0x20 DUP3 ADD MSTORE PUSH3 0x260 SWAP1 PUSH1 0xDC PUSH1 0x28 PUSH1 0x14 DUP6 PUSH3 0x4B0 JUMP JUMPDEST PUSH2 0xFFF DUP2 PUSH1 0x1 PUSH1 0x20 MUL ADD DUP2 DUP2 MSTORE POP POP PUSH3 0x2A7 PUSH1 0x40 MLOAD DUP1 PUSH1 0x40 ADD PUSH1 0x40 MSTORE DUP1 PUSH1 0x8 DUP2 MSTORE PUSH1 0x20 ADD PUSH8 0x2A3930B83732B0B9 PUSH1 0xC1 SHL DUP2 MSTORE POP PUSH1 0x96 PUSH1 0x14 PUSH1 0xA DUP6 PUSH3 0x4B0 PUSH1 0x20 SHL PUSH1 0x20 SHR JUMP JUMPDEST PUSH1 0x0 DUP2 MSTORE PUSH1 0x2 PUSH1 0x20 DUP1 DUP4 ADD SWAP2 SWAP1 SWAP2 MSTORE PUSH2 0xFFF PUSH1 0x40 DUP1 DUP5 ADD SWAP2 SWAP1 SWAP2 MSTORE DUP1 MLOAD DUP1 DUP3 ADD SWAP1 SWAP2 MSTORE PUSH1 0x6 DUP2 MSTORE PUSH6 0x556E7572616B PUSH1 0xD0 SHL SWAP2 DUP2 ADD SWAP2 SWAP1 SWAP2 MSTORE PUSH3 0x2F1 SWAP1 PUSH1 0xB4 PUSH1 0x1E PUSH1 0x1 DUP6 PUSH3 0x4B0 JUMP JUMPDEST PUSH1 0x2 DUP2 MSTORE PUSH1 0x1 PUSH1 0x20 DUP1 DUP4 ADD SWAP2 SWAP1 SWAP2 MSTORE PUSH2 0xFFF PUSH1 0x40 DUP1 DUP5 ADD SWAP2 SWAP1 SWAP2 MSTORE DUP1 MLOAD DUP1 DUP3 ADD SWAP1 SWAP2 MSTORE PUSH1 0x7 DUP2 MSTORE PUSH7 0x2BB0B93BB2B0B9 PUSH1 0xC9 SHL SWAP2 DUP2 ADD SWAP2 SWAP1 SWAP2 MSTORE PUSH3 0x33C SWAP1 PUSH1 0xFA PUSH1 0x28 PUSH1 0x3 DUP6 PUSH3 0x4B0 JUMP JUMPDEST PUSH1 0x2 DUP2 MSTORE PUSH2 0xFFF PUSH1 0x20 DUP1 DUP4 ADD SWAP2 SWAP1 SWAP2 MSTORE PUSH1 0x40 DUP1 MLOAD DUP1 DUP3 ADD SWAP1 SWAP2 MSTORE PUSH1 0x6 DUP2 MSTORE PUSH6 0x15DA5E9AD95D PUSH1 0xD2 SHL SWAP2 DUP2 ADD SWAP2 SWAP1 SWAP2 MSTORE PUSH3 0x37E SWAP1 PUSH2 0x1C2 PUSH1 0x14 PUSH1 0x5 DUP6 PUSH3 0x4B0 JUMP JUMPDEST POP PUSH3 0x8EC JUMP JUMPDEST PUSH1 0x1 PUSH1 0x1 PUSH1 0xA0 SHL SUB DUP2 AND CALLER EQ ISZERO PUSH3 0x3E0 JUMPI PUSH1 0x40 MLOAD PUSH3 0x461BCD PUSH1 0xE5 SHL DUP2 MSTORE PUSH1 0x20 PUSH1 0x4 DUP3 ADD MSTORE PUSH1 0x17 PUSH1 0x24 DUP3 ADD MSTORE PUSH32 0x43616E6E6F74207472616E7366657220746F2073656C66000000000000000000 PUSH1 0x44 DUP3 ADD MSTORE PUSH1 0x64 ADD PUSH3 0xB8 JUMP JUMPDEST PUSH1 0x1 DUP1 SLOAD PUSH1 0x1 PUSH1 0x1 PUSH1 0xA0 SHL SUB NOT AND PUSH1 0x1 PUSH1 0x1 PUSH1 0xA0 SHL SUB DUP4 DUP2 AND SWAP2 DUP3 OR SWAP1 SWAP3 SSTORE PUSH1 0x0 DUP1 SLOAD PUSH1 0x40 MLOAD SWAP3 SWAP4 AND SWAP2 PUSH32 0xED8889F560326EB138920D842192F0EB3DD22B4F139C87A2C57538E05BAE1278 SWAP2 SWAP1 LOG3 POP JUMP JUMPDEST PUSH3 0x43B PUSH3 0x716 JUMP JUMPDEST PUSH1 0x40 DUP1 MLOAD PUSH1 0x60 DUP2 ADD DUP3 MSTORE DUP5 DUP2 MSTORE PUSH1 0x20 DUP1 DUP3 ADD DUP6 SWAP1 MSTORE DUP2 DUP4 ADD DUP5 SWAP1 MSTORE PUSH1 0x9 SLOAD PUSH1 0x0 SWAP1 DUP2 MSTORE PUSH1 0xB DUP3 MSTORE SWAP3 SWAP1 SWAP3 KECCAK256 DUP2 MLOAD DUP1 MLOAD SWAP3 SWAP4 SWAP2 SWAP3 PUSH3 0x47D SWAP3 DUP5 SWAP3 ADD SWAP1 PUSH3 0x774 JUMP JUMPDEST POP PUSH1 0x20 DUP3 ADD MLOAD PUSH1 0x1 DUP3 ADD SSTORE PUSH1 0x40 SWAP1 SWAP2 ADD MLOAD PUSH1 0x2 SWAP1 SWAP2 ADD SSTORE PUSH1 0x9 DUP1 SLOAD SWAP1 PUSH1 0x0 PUSH3 0x4A6 DUP4 PUSH3 0x876 JUMP JUMPDEST SWAP2 SWAP1 POP SSTORE POP POP POP POP JUMP JUMPDEST PUSH3 0x4BA PUSH3 0x716 JUMP JUMPDEST PUSH1 0x0 DUP1 JUMPDEST PUSH1 0x5 DUP2 LT ISZERO PUSH3 0x5C6 JUMPI PUSH1 0x9 SLOAD DUP4 DUP3 PUSH1 0x5 DUP2 LT PUSH3 0x4E0 JUMPI PUSH3 0x4E0 PUSH3 0x84A JUMP JUMPDEST PUSH1 0x20 MUL ADD MLOAD LT DUP1 PUSH3 0x50C JUMPI POP PUSH2 0xFFF DUP4 DUP3 PUSH1 0x5 DUP2 LT PUSH3 0x505 JUMPI PUSH3 0x505 PUSH3 0x84A JUMP JUMPDEST PUSH1 0x20 MUL ADD MLOAD EQ JUMPDEST PUSH3 0x573 JUMPI PUSH1 0x40 MLOAD PUSH3 0x461BCD PUSH1 0xE5 SHL DUP2 MSTORE PUSH1 0x20 PUSH1 0x4 DUP3 ADD MSTORE PUSH1 0x30 PUSH1 0x24 DUP3 ADD MSTORE PUSH32 0x536B696C6C2068617320656974686572206E6F74206265656E20637265617465 PUSH1 0x44 DUP3 ADD MSTORE PUSH16 0x19081BDC881A5CC81B9BDD081D5CD959 PUSH1 0x82 SHL PUSH1 0x64 DUP3 ADD MSTORE PUSH1 0x84 ADD PUSH3 0xB8 JUMP JUMPDEST PUSH2 0xFFF DUP4 DUP3 PUSH1 0x5 DUP2 LT PUSH3 0x58B JUMPI PUSH3 0x58B PUSH3 0x84A JUMP JUMPDEST PUSH1 0x20 MUL ADD MLOAD EQ ISZERO PUSH3 0x59F JUMPI PUSH1 0x0 PUSH3 0x5A2 JUMP JUMPDEST PUSH1 0x1 JUMPDEST PUSH3 0x5B1 SWAP1 PUSH1 0xFF AND DUP4 PUSH3 0x894 JUMP JUMPDEST SWAP2 POP PUSH3 0x5BE DUP2 PUSH3 0x876 JUMP JUMPDEST SWAP1 POP PUSH3 0x4BE JUMP JUMPDEST POP PUSH1 0x0 DUP2 GT PUSH3 0x625 JUMPI PUSH1 0x40 MLOAD PUSH3 0x461BCD PUSH1 0xE5 SHL DUP2 MSTORE PUSH1 0x20 PUSH1 0x4 DUP3 ADD MSTORE PUSH1 0x23 PUSH1 0x24 DUP3 ADD MSTORE PUSH32 0x4D6F6E73746572206D75737420757365206174206C65617374206F6E6520736B PUSH1 0x44 DUP3 ADD MSTORE PUSH3 0x1A5B1B PUSH1 0xEA SHL PUSH1 0x64 DUP3 ADD MSTORE PUSH1 0x84 ADD PUSH3 0xB8 JUMP JUMPDEST PUSH1 0x40 DUP1 MLOAD PUSH1 0xC0 DUP2 ADD DUP3 MSTORE DUP8 DUP2 MSTORE PUSH1 0x20 DUP1 DUP3 ADD DUP9 SWAP1 MSTORE DUP2 DUP4 ADD DUP8 SWAP1 MSTORE PUSH1 0x60 DUP3 ADD DUP7 SWAP1 MSTORE PUSH1 0x80 DUP3 ADD DUP6 SWAP1 MSTORE PUSH1 0xA0 DUP3 ADD DUP5 SWAP1 MSTORE PUSH1 0x8 SLOAD PUSH1 0x0 SWAP1 DUP2 MSTORE PUSH1 0xC DUP3 MSTORE SWAP3 SWAP1 SWAP3 KECCAK256 DUP2 MLOAD DUP1 MLOAD SWAP3 SWAP4 DUP5 SWAP4 PUSH3 0x67C SWAP3 DUP5 SWAP3 ADD SWAP1 PUSH3 0x774 JUMP JUMPDEST POP PUSH1 0x20 DUP3 ADD MLOAD PUSH1 0x1 DUP3 ADD SSTORE PUSH1 0x40 DUP3 ADD MLOAD PUSH1 0x2 DUP3 ADD SSTORE PUSH1 0x60 DUP3 ADD MLOAD PUSH1 0x3 DUP3 ADD SSTORE PUSH1 0x80 DUP3 ADD MLOAD PUSH3 0x6B2 SWAP1 PUSH1 0x4 DUP4 ADD SWAP1 PUSH1 0x5 PUSH3 0x803 JUMP JUMPDEST POP PUSH1 0xA0 SWAP2 SWAP1 SWAP2 ADD MLOAD PUSH1 0x9 SWAP1 SWAP2 ADD SSTORE PUSH1 0x80 DUP2 ADD MLOAD PUSH1 0x8 SLOAD PUSH1 0x0 SWAP1 DUP2 MSTORE PUSH1 0xE PUSH1 0x20 MSTORE PUSH1 0x40 SWAP1 KECCAK256 PUSH3 0x6E3 SWAP2 PUSH1 0x5 PUSH3 0x803 JUMP JUMPDEST POP PUSH1 0x8 DUP1 SLOAD PUSH1 0x0 SWAP1 DUP2 MSTORE PUSH1 0xF PUSH1 0x20 MSTORE PUSH1 0x40 DUP2 KECCAK256 DUP5 SWAP1 SSTORE DUP2 SLOAD SWAP2 SWAP1 PUSH3 0x708 DUP4 PUSH3 0x876 JUMP JUMPDEST SWAP2 SWAP1 POP SSTORE POP POP POP POP POP POP POP POP JUMP JUMPDEST PUSH1 0x0 SLOAD PUSH1 0x1 PUSH1 0x1 PUSH1 0xA0 SHL SUB AND CALLER EQ PUSH3 0x772 JUMPI PUSH1 0x40 MLOAD PUSH3 0x461BCD PUSH1 0xE5 SHL DUP2 MSTORE PUSH1 0x20 PUSH1 0x4 DUP3 ADD MSTORE PUSH1 0x16 PUSH1 0x24 DUP3 ADD MSTORE PUSH32 0x4F6E6C792063616C6C61626C65206279206F776E657200000000000000000000 PUSH1 0x44 DUP3 ADD MSTORE PUSH1 0x64 ADD PUSH3 0xB8 JUMP JUMPDEST JUMP JUMPDEST DUP3 DUP1 SLOAD PUSH3 0x782 SWAP1 PUSH3 0x8AF JUMP JUMPDEST SWAP1 PUSH1 0x0 MSTORE PUSH1 0x20 PUSH1 0x0 KECCAK256 SWAP1 PUSH1 0x1F ADD PUSH1 0x20 SWAP1 DIV DUP2 ADD SWAP3 DUP3 PUSH3 0x7A6 JUMPI PUSH1 0x0 DUP6 SSTORE PUSH3 0x7F1 JUMP JUMPDEST DUP3 PUSH1 0x1F LT PUSH3 0x7C1 JUMPI DUP1 MLOAD PUSH1 0xFF NOT AND DUP4 DUP1 ADD OR DUP6 SSTORE PUSH3 0x7F1 JUMP JUMPDEST DUP3 DUP1 ADD PUSH1 0x1 ADD DUP6 SSTORE DUP3 ISZERO PUSH3 0x7F1 JUMPI SWAP2 DUP3 ADD JUMPDEST DUP3 DUP2 GT ISZERO PUSH3 0x7F1 JUMPI DUP3 MLOAD DUP3 SSTORE SWAP2 PUSH1 0x20 ADD SWAP2 SWAP1 PUSH1 0x1 ADD SWAP1 PUSH3 0x7D4 JUMP JUMPDEST POP PUSH3 0x7FF SWAP3 SWAP2 POP PUSH3 0x833 JUMP JUMPDEST POP SWAP1 JUMP JUMPDEST DUP3 PUSH1 0x5 DUP2 ADD SWAP3 DUP3 ISZERO PUSH3 0x7F1 JUMPI SWAP2 PUSH1 0x20 MUL DUP3 ADD DUP3 DUP2 GT ISZERO PUSH3 0x7F1 JUMPI DUP3 MLOAD DUP3 SSTORE SWAP2 PUSH1 0x20 ADD SWAP2 SWAP1 PUSH1 0x1 ADD SWAP1 PUSH3 0x7D4 JUMP JUMPDEST JUMPDEST DUP1 DUP3 GT ISZERO PUSH3 0x7FF JUMPI PUSH1 0x0 DUP2 SSTORE PUSH1 0x1 ADD PUSH3 0x834 JUMP JUMPDEST PUSH4 0x4E487B71 PUSH1 0xE0 SHL PUSH1 0x0 MSTORE PUSH1 0x32 PUSH1 0x4 MSTORE PUSH1 0x24 PUSH1 0x0 REVERT JUMPDEST PUSH4 0x4E487B71 PUSH1 0xE0 SHL PUSH1 0x0 MSTORE PUSH1 0x11 PUSH1 0x4 MSTORE PUSH1 0x24 PUSH1 0x0 REVERT JUMPDEST PUSH1 0x0 PUSH1 0x0 NOT DUP3 EQ ISZERO PUSH3 0x88D JUMPI PUSH3 0x88D PUSH3 0x860 JUMP JUMPDEST POP PUSH1 0x1 ADD SWAP1 JUMP JUMPDEST PUSH1 0x0 DUP3 NOT DUP3 GT ISZERO PUSH3 0x8AA JUMPI PUSH3 0x8AA PUSH3 0x860 JUMP JUMPDEST POP ADD SWAP1 JUMP JUMPDEST PUSH1 0x1 DUP2 DUP2 SHR SWAP1 DUP3 AND DUP1 PUSH3 0x8C4 JUMPI PUSH1 0x7F DUP3 AND SWAP2 POP JUMPDEST PUSH1 0x20 DUP3 LT DUP2 EQ ISZERO PUSH3 0x8E6 JUMPI PUSH4 0x4E487B71 PUSH1 0xE0 SHL PUSH1 0x0 MSTORE PUSH1 0x22 PUSH1 0x4 MSTORE PUSH1 0x24 PUSH1 0x0 REVERT JUMPDEST POP SWAP2 SWAP1 POP JUMP JUMPDEST PUSH1 0x80 MLOAD PUSH2 0x266D PUSH3 0x90F PUSH1 0x0 CODECOPY PUSH1 0x0 DUP2 DUP2 PUSH2 0x592 ADD MSTORE PUSH2 0x5D4 ADD MSTORE PUSH2 0x266D PUSH1 0x0 RETURN INVALID PUSH1 0x80 PUSH1 0x40 MSTORE CALLVALUE DUP1 ISZERO PUSH2 0x10 JUMPI PUSH1 0x0 DUP1 REVERT JUMPDEST POP PUSH1 0x4 CALLDATASIZE LT PUSH2 0x1E5 JUMPI PUSH1 0x0 CALLDATALOAD PUSH1 0xE0 SHR DUP1 PUSH4 0x7C7C984B GT PUSH2 0x10F JUMPI DUP1 PUSH4 0xB693BFF8 GT PUSH2 0xA2 JUMPI DUP1 PUSH4 0xCDC773EF GT PUSH2 0x71 JUMPI DUP1 PUSH4 0xCDC773EF EQ PUSH2 0x497 JUMPI DUP1 PUSH4 0xD8A4676F EQ PUSH2 0x49F JUMPI DUP1 PUSH4 0xF2FDE38B EQ PUSH2 0x4C0 JUMPI DUP1 PUSH4 0xFC2A88C3 EQ PUSH2 0x4D3 JUMPI PUSH1 0x0 DUP1 REVERT JUMPDEST DUP1 PUSH4 0xB693BFF8 EQ PUSH2 0x447 JUMPI DUP1 PUSH4 0xB82C1B4A EQ PUSH2 0x450 JUMPI DUP1 PUSH4 0xBC0D27A0 EQ PUSH2 0x459 JUMPI DUP1 PUSH4 0xC0576B73 EQ PUSH2 0x473 JUMPI PUSH1 0x0 DUP1 REVERT JUMPDEST DUP1 PUSH4 0x9B1FEC3F GT PUSH2 0xDE JUMPI DUP1 PUSH4 0x9B1FEC3F EQ PUSH2 0x3BE JUMPI DUP1 PUSH4 0xA168FA89 EQ PUSH2 0x3DE JUMPI DUP1 PUSH4 0xA4482DE5 EQ PUSH2 0x421 JUMPI DUP1 PUSH4 0xB5B662AF EQ PUSH2 0x434 JUMPI PUSH1 0x0 DUP1 REVERT JUMPDEST DUP1 PUSH4 0x7C7C984B EQ PUSH2 0x34C JUMPI DUP1 PUSH4 0x85C74889 EQ PUSH2 0x35F JUMPI DUP1 PUSH4 0x8796BA8C EQ PUSH2 0x386 JUMPI DUP1 PUSH4 0x8DA5CB5B EQ PUSH2 0x399 JUMPI PUSH1 0x0 DUP1 REVERT JUMPDEST DUP1 PUSH4 0x316990C1 GT PUSH2 0x187 JUMPI DUP1 PUSH4 0x4768D4EF GT PUSH2 0x156 JUMPI DUP1 PUSH4 0x4768D4EF EQ PUSH2 0x2C5 JUMPI DUP1 PUSH4 0x50D15FBE EQ PUSH2 0x30F JUMPI DUP1 PUSH4 0x539DC37E EQ PUSH2 0x331 JUMPI DUP1 PUSH4 0x79BA5097 EQ PUSH2 0x344 JUMPI PUSH1 0x0 DUP1 REVERT JUMPDEST DUP1 PUSH4 0x316990C1 EQ PUSH2 0x259 JUMPI DUP1 PUSH4 0x379607F5 EQ PUSH2 0x279 JUMPI DUP1 PUSH4 0x3E26F96F EQ PUSH2 0x29C JUMPI DUP1 PUSH4 0x444F2EC5 EQ PUSH2 0x2A5 JUMPI PUSH1 0x0 DUP1 REVERT JUMPDEST DUP1 PUSH4 0x136DEB12 GT PUSH2 0x1C3 JUMPI DUP1 PUSH4 0x136DEB12 EQ PUSH2 0x216 JUMPI DUP1 PUSH4 0x1AA3A008 EQ PUSH2 0x229 JUMPI DUP1 PUSH4 0x1FE543E3 EQ PUSH2 0x233 JUMPI DUP1 PUSH4 0x20F9EB3C EQ PUSH2 0x246 JUMPI PUSH1 0x0 DUP1 REVERT JUMPDEST DUP1 PUSH4 0x1FD1951 EQ PUSH2 0x1EA JUMPI DUP1 PUSH4 0xA45AF25 EQ PUSH2 0x206 JUMPI DUP1 PUSH4 0xFF56693 EQ PUSH2 0x20E JUMPI JUMPDEST PUSH1 0x0 DUP1 REVERT JUMPDEST PUSH2 0x1F3 PUSH1 0xA SLOAD DUP2 JUMP JUMPDEST PUSH1 0x40 MLOAD SWAP1 DUP2 MSTORE PUSH1 0x20 ADD JUMPDEST PUSH1 0x40 MLOAD DUP1 SWAP2 SUB SWAP1 RETURN JUMPDEST PUSH2 0x1F3 PUSH1 0xA DUP2 JUMP JUMPDEST PUSH2 0x1F3 PUSH1 0x2 DUP2 JUMP JUMPDEST PUSH2 0x1F3 PUSH2 0x224 CALLDATASIZE PUSH1 0x4 PUSH2 0x1EC8 JUMP JUMPDEST PUSH2 0x4DC JUMP JUMPDEST PUSH2 0x231 PUSH2 0x501 JUMP JUMPDEST STOP JUMPDEST PUSH2 0x231 PUSH2 0x241 CALLDATASIZE PUSH1 0x4 PUSH2 0x1F5A JUMP JUMPDEST PUSH2 0x587 JUMP JUMPDEST PUSH2 0x231 PUSH2 0x254 CALLDATASIZE PUSH1 0x4 PUSH2 0x207C JUMP JUMPDEST PUSH2 0x614 JUMP JUMPDEST PUSH2 0x1F3 PUSH2 0x267 CALLDATASIZE PUSH1 0x4 PUSH2 0x20CA JUMP JUMPDEST PUSH1 0x11 PUSH1 0x20 MSTORE PUSH1 0x0 SWAP1 DUP2 MSTORE PUSH1 0x40 SWAP1 KECCAK256 SLOAD DUP2 JUMP JUMPDEST PUSH2 0x28C PUSH2 0x287 CALLDATASIZE PUSH1 0x4 PUSH2 0x20CA JUMP JUMPDEST PUSH2 0x68D JUMP JUMPDEST PUSH1 0x40 MLOAD SWAP1 ISZERO ISZERO DUP2 MSTORE PUSH1 0x20 ADD PUSH2 0x1FD JUMP JUMPDEST PUSH2 0x1F3 PUSH2 0xFFF DUP2 JUMP JUMPDEST PUSH2 0x1F3 PUSH2 0x2B3 CALLDATASIZE PUSH1 0x4 PUSH2 0x20CA JUMP JUMPDEST PUSH1 0x12 PUSH1 0x20 MSTORE PUSH1 0x0 SWAP1 DUP2 MSTORE PUSH1 0x40 SWAP1 KECCAK256 SLOAD DUP2 JUMP JUMPDEST PUSH2 0x2F4 PUSH2 0x2D3 CALLDATASIZE PUSH1 0x4 PUSH2 0x20CA JUMP JUMPDEST PUSH1 0xD PUSH1 0x20 MSTORE PUSH1 0x0 SWAP1 DUP2 MSTORE PUSH1 0x40 SWAP1 KECCAK256 DUP1 SLOAD PUSH1 0x1 DUP3 ADD SLOAD PUSH1 0x11 SWAP1 SWAP3 ADD SLOAD SWAP1 SWAP2 SWAP1 DUP4 JUMP JUMPDEST PUSH1 0x40 DUP1 MLOAD SWAP4 DUP5 MSTORE PUSH1 0x20 DUP5 ADD SWAP3 SWAP1 SWAP3 MSTORE SWAP1 DUP3 ADD MSTORE PUSH1 0x60 ADD PUSH2 0x1FD JUMP JUMPDEST PUSH2 0x322 PUSH2 0x31D CALLDATASIZE PUSH1 0x4 PUSH2 0x20CA JUMP JUMPDEST PUSH2 0x840 JUMP JUMPDEST PUSH1 0x40 MLOAD PUSH2 0x1FD SWAP4 SWAP3 SWAP2 SWAP1 PUSH2 0x2130 JUMP JUMPDEST PUSH2 0x1F3 PUSH2 0x33F CALLDATASIZE PUSH1 0x4 PUSH2 0x2155 JUMP JUMPDEST PUSH2 0x8EA JUMP JUMPDEST PUSH2 0x231 PUSH2 0x928 JUMP JUMPDEST PUSH2 0x231 PUSH2 0x35A CALLDATASIZE PUSH1 0x4 PUSH2 0x2196 JUMP JUMPDEST PUSH2 0x9D2 JUMP JUMPDEST PUSH2 0x372 PUSH2 0x36D CALLDATASIZE PUSH1 0x4 PUSH2 0x20CA JUMP JUMPDEST PUSH2 0xA1B JUMP JUMPDEST PUSH1 0x40 MLOAD PUSH2 0x1FD SWAP9 SWAP8 SWAP7 SWAP6 SWAP5 SWAP4 SWAP3 SWAP2 SWAP1 PUSH2 0x221E JUMP JUMPDEST PUSH2 0x1F3 PUSH2 0x394 CALLDATASIZE PUSH1 0x4 PUSH2 0x20CA JUMP JUMPDEST PUSH2 0x1184 JUMP JUMPDEST PUSH1 0x0 SLOAD PUSH1 0x1 PUSH1 0x1 PUSH1 0xA0 SHL SUB AND JUMPDEST PUSH1 0x40 MLOAD PUSH1 0x1 PUSH1 0x1 PUSH1 0xA0 SHL SUB SWAP1 SWAP2 AND DUP2 MSTORE PUSH1 0x20 ADD PUSH2 0x1FD JUMP JUMPDEST PUSH2 0x1F3 PUSH2 0x3CC CALLDATASIZE PUSH1 0x4 PUSH2 0x20CA JUMP JUMPDEST PUSH1 0xF PUSH1 0x20 MSTORE PUSH1 0x0 SWAP1 DUP2 MSTORE PUSH1 0x40 SWAP1 KECCAK256 SLOAD DUP2 JUMP JUMPDEST PUSH2 0x40A PUSH2 0x3EC CALLDATASIZE PUSH1 0x4 PUSH2 0x20CA JUMP JUMPDEST PUSH1 0x2 PUSH1 0x20 MSTORE PUSH1 0x0 SWAP1 DUP2 MSTORE PUSH1 0x40 SWAP1 KECCAK256 SLOAD PUSH1 0xFF DUP1 DUP3 AND SWAP2 PUSH2 0x100 SWAP1 DIV AND DUP3 JUMP JUMPDEST PUSH1 0x40 DUP1 MLOAD SWAP3 ISZERO ISZERO DUP4 MSTORE SWAP1 ISZERO ISZERO PUSH1 0x20 DUP4 ADD MSTORE ADD PUSH2 0x1FD JUMP JUMPDEST PUSH2 0x1F3 PUSH2 0x42F CALLDATASIZE PUSH1 0x4 PUSH2 0x2314 JUMP JUMPDEST PUSH2 0x11A5 JUMP JUMPDEST PUSH2 0x231 PUSH2 0x442 CALLDATASIZE PUSH1 0x4 PUSH2 0x23A4 JUMP JUMPDEST PUSH2 0x1538 JUMP JUMPDEST PUSH2 0x1F3 PUSH1 0x8 SLOAD DUP2 JUMP JUMPDEST PUSH2 0x1F3 PUSH1 0x9 SLOAD DUP2 JUMP JUMPDEST PUSH1 0x7 SLOAD PUSH2 0x3A6 SWAP1 PUSH1 0x1 PUSH1 0x50 SHL SWAP1 DIV PUSH1 0x1 PUSH1 0x1 PUSH1 0xA0 SHL SUB AND DUP2 JUMP JUMPDEST PUSH2 0x486 PUSH2 0x481 CALLDATASIZE PUSH1 0x4 PUSH2 0x20CA JUMP JUMPDEST PUSH2 0x177E JUMP JUMPDEST PUSH1 0x40 MLOAD PUSH2 0x1FD SWAP6 SWAP5 SWAP4 SWAP3 SWAP2 SWAP1 PUSH2 0x2451 JUMP JUMPDEST PUSH2 0x1F3 PUSH1 0x32 DUP2 JUMP JUMPDEST PUSH2 0x4B2 PUSH2 0x4AD CALLDATASIZE PUSH1 0x4 PUSH2 0x20CA JUMP JUMPDEST PUSH2 0x1834 JUMP JUMPDEST PUSH1 0x40 MLOAD PUSH2 0x1FD SWAP3 SWAP2 SWAP1 PUSH2 0x2488 JUMP JUMPDEST PUSH2 0x231 PUSH2 0x4CE CALLDATASIZE PUSH1 0x4 PUSH2 0x2196 JUMP JUMPDEST PUSH2 0x1928 JUMP JUMPDEST PUSH2 0x1F3 PUSH1 0x5 SLOAD DUP2 JUMP JUMPDEST PUSH1 0xE PUSH1 0x20 MSTORE DUP2 PUSH1 0x0 MSTORE PUSH1 0x40 PUSH1 0x0 KECCAK256 DUP2 PUSH1 0x5 DUP2 LT PUSH2 0x4F8 JUMPI PUSH1 0x0 DUP1 REVERT JUMPDEST ADD SLOAD SWAP2 POP DUP3 SWAP1 POP JUMP JUMPDEST PUSH1 0x7 SLOAD PUSH1 0x40 MLOAD PUSH4 0x35313C21 PUSH1 0xE1 SHL DUP2 MSTORE CALLER PUSH1 0x4 DUP3 ADD MSTORE PUSH1 0x1 PUSH1 0x50 SHL SWAP1 SWAP2 DIV PUSH1 0x1 PUSH1 0x1 PUSH1 0xA0 SHL SUB AND SWAP1 PUSH4 0x6A627842 SWAP1 PUSH1 0x24 ADD PUSH1 0x20 PUSH1 0x40 MLOAD DUP1 DUP4 SUB DUP2 PUSH1 0x0 DUP8 DUP1 EXTCODESIZE ISZERO DUP1 ISZERO PUSH2 0x54C JUMPI PUSH1 0x0 DUP1 REVERT JUMPDEST POP GAS CALL ISZERO DUP1 ISZERO PUSH2 0x560 JUMPI RETURNDATASIZE PUSH1 0x0 DUP1 RETURNDATACOPY RETURNDATASIZE PUSH1 0x0 REVERT JUMPDEST POP POP POP POP PUSH1 0x40 MLOAD RETURNDATASIZE PUSH1 0x1F NOT PUSH1 0x1F DUP3 ADD AND DUP3 ADD DUP1 PUSH1 0x40 MSTORE POP DUP2 ADD SWAP1 PUSH2 0x584 SWAP2 SWAP1 PUSH2 0x24AB JUMP JUMPDEST POP JUMP JUMPDEST CALLER PUSH1 0x1 PUSH1 0x1 PUSH1 0xA0 SHL SUB PUSH32 0x0 AND EQ PUSH2 0x606 JUMPI PUSH1 0x40 MLOAD PUSH4 0x73E64FD PUSH1 0xE2 SHL DUP2 MSTORE CALLER PUSH1 0x4 DUP3 ADD MSTORE PUSH1 0x1 PUSH1 0x1 PUSH1 0xA0 SHL SUB PUSH32 0x0 AND PUSH1 0x24 DUP3 ADD MSTORE PUSH1 0x44 ADD JUMPDEST PUSH1 0x40 MLOAD DUP1 SWAP2 SUB SWAP1 REVERT JUMPDEST PUSH2 0x610 DUP3 DUP3 PUSH2 0x1939 JUMP JUMPDEST POP POP JUMP JUMPDEST PUSH2 0x61C PUSH2 0x19FF JUMP JUMPDEST PUSH1 0x40 DUP1 MLOAD PUSH1 0x60 DUP2 ADD DUP3 MSTORE DUP5 DUP2 MSTORE PUSH1 0x20 DUP1 DUP3 ADD DUP6 SWAP1 MSTORE DUP2 DUP4 ADD DUP5 SWAP1 MSTORE PUSH1 0x9 SLOAD PUSH1 0x0 SWAP1 DUP2 MSTORE PUSH1 0xB DUP3 MSTORE SWAP3 SWAP1 SWAP3 KECCAK256 DUP2 MLOAD DUP1 MLOAD SWAP3 SWAP4 SWAP2 SWAP3 PUSH2 0x65C SWAP3 DUP5 SWAP3 ADD SWAP1 PUSH2 0x1CC9 JUMP JUMPDEST POP PUSH1 0x20 DUP3 ADD MLOAD PUSH1 0x1 DUP3 ADD SSTORE PUSH1 0x40 SWAP1 SWAP2 ADD MLOAD PUSH1 0x2 SWAP1 SWAP2 ADD SSTORE PUSH1 0x9 DUP1 SLOAD SWAP1 PUSH1 0x0 PUSH2 0x683 DUP4 PUSH2 0x24DA JUMP JUMPDEST SWAP2 SWAP1 POP SSTORE POP POP POP POP JUMP JUMPDEST PUSH1 0x0 DUP2 DUP2 MSTORE PUSH1 0xD PUSH1 0x20 MSTORE PUSH1 0x40 DUP1 DUP3 KECCAK256 SLOAD PUSH1 0x7 SLOAD SWAP2 MLOAD PUSH4 0x31A9108F PUSH1 0xE1 SHL DUP2 MSTORE SWAP1 SWAP2 CALLER SWAP2 PUSH1 0x1 PUSH1 0x50 SHL SWAP1 SWAP2 DIV PUSH1 0x1 PUSH1 0x1 PUSH1 0xA0 SHL SUB AND SWAP1 PUSH4 0x6352211E SWAP1 PUSH2 0x6DA SWAP1 DUP6 SWAP1 PUSH1 0x4 ADD SWAP1 DUP2 MSTORE PUSH1 0x20 ADD SWAP1 JUMP JUMPDEST PUSH1 0x20 PUSH1 0x40 MLOAD DUP1 DUP4 SUB DUP2 DUP7 DUP1 EXTCODESIZE ISZERO DUP1 ISZERO PUSH2 0x6F2 JUMPI PUSH1 0x0 DUP1 REVERT JUMPDEST POP GAS STATICCALL ISZERO DUP1 ISZERO PUSH2 0x706 JUMPI RETURNDATASIZE PUSH1 0x0 DUP1 RETURNDATACOPY RETURNDATASIZE PUSH1 0x0 REVERT JUMPDEST POP POP POP POP PUSH1 0x40 MLOAD RETURNDATASIZE PUSH1 0x1F NOT PUSH1 0x1F DUP3 ADD AND DUP3 ADD DUP1 PUSH1 0x40 MSTORE POP DUP2 ADD SWAP1 PUSH2 0x72A SWAP2 SWAP1 PUSH2 0x24F5 JUMP JUMPDEST PUSH1 0x1 PUSH1 0x1 PUSH1 0xA0 SHL SUB AND EQ PUSH2 0x750 JUMPI PUSH1 0x40 MLOAD PUSH3 0x461BCD PUSH1 0xE5 SHL DUP2 MSTORE PUSH1 0x4 ADD PUSH2 0x5FD SWAP1 PUSH2 0x2512 JUMP JUMPDEST PUSH1 0x0 PUSH2 0x75B DUP5 PUSH2 0xA1B JUMP JUMPDEST POP POP POP POP POP POP SWAP2 POP POP DUP1 PUSH2 0x7B1 JUMPI PUSH1 0x40 MLOAD PUSH3 0x461BCD PUSH1 0xE5 SHL DUP2 MSTORE PUSH1 0x20 PUSH1 0x4 DUP3 ADD MSTORE PUSH1 0x1D PUSH1 0x24 DUP3 ADD MSTORE PUSH32 0x596F752063616E6E6F7420636C61696D2074686973206D6F6E73746572000000 PUSH1 0x44 DUP3 ADD MSTORE PUSH1 0x64 ADD PUSH2 0x5FD JUMP JUMPDEST PUSH1 0x7 SLOAD PUSH1 0x40 MLOAD PUSH4 0x6748761 PUSH1 0xE1 SHL DUP2 MSTORE PUSH1 0x4 DUP2 ADD DUP5 SWAP1 MSTORE PUSH1 0x1 PUSH1 0x50 SHL SWAP1 SWAP2 DIV PUSH1 0x1 PUSH1 0x1 PUSH1 0xA0 SHL SUB AND SWAP1 PUSH4 0xCE90EC2 SWAP1 PUSH1 0x24 ADD PUSH1 0x20 PUSH1 0x40 MLOAD DUP1 DUP4 SUB DUP2 PUSH1 0x0 DUP8 DUP1 EXTCODESIZE ISZERO DUP1 ISZERO PUSH2 0x7FD JUMPI PUSH1 0x0 DUP1 REVERT JUMPDEST POP GAS CALL ISZERO DUP1 ISZERO PUSH2 0x811 JUMPI RETURNDATASIZE PUSH1 0x0 DUP1 RETURNDATACOPY RETURNDATASIZE PUSH1 0x0 REVERT JUMPDEST POP POP POP POP PUSH1 0x40 MLOAD RETURNDATASIZE PUSH1 0x1F NOT PUSH1 0x1F DUP3 ADD AND DUP3 ADD DUP1 PUSH1 0x40 MSTORE POP DUP2 ADD SWAP1 PUSH2 0x835 SWAP2 SWAP1 PUSH2 0x255A JUMP JUMPDEST POP PUSH1 0x1 SWAP5 SWAP4 POP POP POP POP JUMP JUMPDEST PUSH1 0xB PUSH1 0x20 MSTORE PUSH1 0x0 SWAP1 DUP2 MSTORE PUSH1 0x40 SWAP1 KECCAK256 DUP1 SLOAD DUP2 SWAP1 PUSH2 0x85B SWAP1 PUSH2 0x257C JUMP JUMPDEST DUP1 PUSH1 0x1F ADD PUSH1 0x20 DUP1 SWAP2 DIV MUL PUSH1 0x20 ADD PUSH1 0x40 MLOAD SWAP1 DUP2 ADD PUSH1 0x40 MSTORE DUP1 SWAP3 SWAP2 SWAP1 DUP2 DUP2 MSTORE PUSH1 0x20 ADD DUP3 DUP1 SLOAD PUSH2 0x887 SWAP1 PUSH2 0x257C JUMP JUMPDEST DUP1 ISZERO PUSH2 0x8D4 JUMPI DUP1 PUSH1 0x1F LT PUSH2 0x8A9 JUMPI PUSH2 0x100 DUP1 DUP4 SLOAD DIV MUL DUP4 MSTORE SWAP2 PUSH1 0x20 ADD SWAP2 PUSH2 0x8D4 JUMP JUMPDEST DUP3 ADD SWAP2 SWAP1 PUSH1 0x0 MSTORE PUSH1 0x20 PUSH1 0x0 KECCAK256 SWAP1 JUMPDEST DUP2 SLOAD DUP2 MSTORE SWAP1 PUSH1 0x1 ADD SWAP1 PUSH1 0x20 ADD DUP1 DUP4 GT PUSH2 0x8B7 JUMPI DUP3 SWAP1 SUB PUSH1 0x1F AND DUP3 ADD SWAP2 JUMPDEST POP POP POP POP POP SWAP1 DUP1 PUSH1 0x1 ADD SLOAD SWAP1 DUP1 PUSH1 0x2 ADD SLOAD SWAP1 POP DUP4 JUMP JUMPDEST PUSH1 0x10 PUSH1 0x20 MSTORE DUP3 PUSH1 0x0 MSTORE PUSH1 0x40 PUSH1 0x0 KECCAK256 PUSH1 0x20 MSTORE DUP2 PUSH1 0x0 MSTORE PUSH1 0x40 PUSH1 0x0 KECCAK256 DUP2 DUP2 SLOAD DUP2 LT PUSH2 0x912 JUMPI PUSH1 0x0 DUP1 REVERT JUMPDEST SWAP1 PUSH1 0x0 MSTORE PUSH1 0x20 PUSH1 0x0 KECCAK256 ADD PUSH1 0x0 SWAP3 POP SWAP3 POP POP POP SLOAD DUP2 JUMP JUMPDEST PUSH1 0x1 SLOAD PUSH1 0x1 PUSH1 0x1 PUSH1 0xA0 SHL SUB AND CALLER EQ PUSH2 0x97B JUMPI PUSH1 0x40 MLOAD PUSH3 0x461BCD PUSH1 0xE5 SHL DUP2 MSTORE PUSH1 0x20 PUSH1 0x4 DUP3 ADD MSTORE PUSH1 0x16 PUSH1 0x24 DUP3 ADD MSTORE PUSH22 0x26BAB9BA10313290383937B837B9B2B21037BBB732B9 PUSH1 0x51 SHL PUSH1 0x44 DUP3 ADD MSTORE PUSH1 0x64 ADD PUSH2 0x5FD JUMP JUMPDEST PUSH1 0x0 DUP1 SLOAD CALLER PUSH1 0x1 PUSH1 0x1 PUSH1 0xA0 SHL SUB NOT DUP1 DUP4 AND DUP3 OR DUP5 SSTORE PUSH1 0x1 DUP1 SLOAD SWAP1 SWAP2 AND SWAP1 SSTORE PUSH1 0x40 MLOAD PUSH1 0x1 PUSH1 0x1 PUSH1 0xA0 SHL SUB SWAP1 SWAP3 AND SWAP3 SWAP1 SWAP2 DUP4 SWAP2 PUSH32 0x8BE0079C531659141344CD1FD0A4F28419497F9722A3DAAFE3B4186F6B6457E0 SWAP2 LOG3 POP JUMP JUMPDEST PUSH2 0x9DA PUSH2 0x19FF JUMP JUMPDEST PUSH1 0x7 DUP1 SLOAD PUSH1 0x1 PUSH1 0x1 PUSH1 0xA0 SHL SUB SWAP1 SWAP3 AND PUSH1 0x1 PUSH1 0x50 SHL MUL PUSH32 0xFFFF0000000000000000000000000000000000000000FFFFFFFFFFFFFFFFFFFF SWAP1 SWAP3 AND SWAP2 SWAP1 SWAP2 OR SWAP1 SSTORE JUMP JUMPDEST PUSH1 0x0 DUP1 PUSH1 0x0 PUSH2 0xA28 PUSH2 0x1D4D JUMP JUMPDEST PUSH2 0xA30 PUSH2 0x1D4D JUMP JUMPDEST PUSH2 0xA38 PUSH2 0x1D4D JUMP JUMPDEST PUSH1 0x0 DUP8 DUP2 MSTORE PUSH1 0x11 PUSH1 0x20 SWAP1 DUP2 MSTORE PUSH1 0x40 DUP1 DUP4 KECCAK256 SLOAD DUP4 MSTORE PUSH1 0x2 SWAP1 SWAP2 MSTORE SWAP1 KECCAK256 SLOAD PUSH1 0x60 SWAP1 DUP2 SWAP1 PUSH2 0x100 SWAP1 DIV PUSH1 0xFF AND PUSH2 0xAA1 JUMPI PUSH1 0x40 MLOAD PUSH3 0x461BCD PUSH1 0xE5 SHL DUP2 MSTORE PUSH1 0x20 PUSH1 0x4 DUP3 ADD MSTORE PUSH1 0x11 PUSH1 0x24 DUP3 ADD MSTORE PUSH17 0x13585D18DA081B9BDD0818DC99585D1959 PUSH1 0x7A SHL PUSH1 0x44 DUP3 ADD MSTORE PUSH1 0x64 ADD PUSH2 0x5FD JUMP JUMPDEST PUSH1 0x0 DUP10 DUP2 MSTORE PUSH1 0x11 PUSH1 0x20 SWAP1 DUP2 MSTORE PUSH1 0x40 DUP1 DUP4 KECCAK256 SLOAD DUP4 MSTORE PUSH1 0x2 SWAP1 SWAP2 MSTORE SWAP1 KECCAK256 SLOAD PUSH1 0xFF AND PUSH2 0xB0C JUMPI PUSH1 0x40 MLOAD PUSH3 0x461BCD PUSH1 0xE5 SHL DUP2 MSTORE PUSH1 0x20 PUSH1 0x4 DUP3 ADD MSTORE PUSH1 0x1E PUSH1 0x24 DUP3 ADD MSTORE PUSH32 0x4D617463682072616E646F6D6E657373206E6F742066756C6C66696C65640000 PUSH1 0x44 DUP3 ADD MSTORE PUSH1 0x64 ADD PUSH2 0x5FD JUMP JUMPDEST PUSH1 0x0 DUP10 DUP2 MSTORE PUSH1 0x11 PUSH1 0x20 SWAP1 DUP2 MSTORE PUSH1 0x40 DUP1 DUP4 KECCAK256 SLOAD DUP4 MSTORE PUSH1 0x2 SWAP1 SWAP2 MSTORE DUP2 KECCAK256 PUSH1 0x1 ADD DUP1 SLOAD SWAP1 SWAP2 SWAP1 PUSH2 0xB3B JUMPI PUSH2 0xB3B PUSH2 0x25B7 JUMP JUMPDEST PUSH1 0x0 SWAP2 DUP3 MSTORE PUSH1 0x20 DUP1 DUP4 KECCAK256 SWAP1 SWAP2 ADD SLOAD DUP12 DUP4 MSTORE PUSH1 0xD DUP3 MSTORE PUSH1 0x40 DUP1 DUP5 KECCAK256 PUSH1 0x1 SWAP1 DUP2 ADD SLOAD DUP6 MSTORE PUSH1 0xC SWAP1 SWAP4 MSTORE DUP4 KECCAK256 PUSH1 0x9 ADD SLOAD DUP2 ISZERO ISZERO SWAP12 POP SWAP1 SWAP9 POP PUSH1 0xA SWAP2 PUSH2 0xB7C SWAP2 PUSH2 0x25CD JUMP JUMPDEST PUSH1 0x40 DUP1 MLOAD PUSH1 0x64 DUP1 DUP3 MSTORE PUSH2 0xCA0 DUP3 ADD SWAP1 SWAP3 MSTORE SWAP2 SWAP1 SWAP3 SHL PUSH1 0x5 SWAP1 DUP2 OR SWAP4 POP SWAP2 PUSH1 0x20 DUP3 ADD PUSH2 0xC80 DUP1 CALLDATASIZE DUP4 CALLDATACOPY POP POP PUSH1 0x40 DUP1 MLOAD PUSH1 0x64 DUP1 DUP3 MSTORE PUSH2 0xCA0 DUP3 ADD SWAP1 SWAP3 MSTORE SWAP3 SWAP7 POP SWAP1 POP PUSH1 0x20 DUP3 ADD PUSH2 0xC80 DUP1 CALLDATASIZE DUP4 CALLDATACOPY POP POP POP PUSH1 0x0 DUP13 DUP2 MSTORE PUSH1 0xD PUSH1 0x20 SWAP1 DUP2 MSTORE PUSH1 0x40 DUP1 DUP4 KECCAK256 PUSH1 0x1 SWAP1 DUP2 ADD SLOAD DUP5 MSTORE PUSH1 0xC SWAP1 SWAP3 MSTORE DUP3 KECCAK256 ADD SLOAD DUP7 MLOAD SWAP3 SWAP6 POP SWAP2 DUP7 SWAP2 SWAP1 PUSH2 0xC01 JUMPI PUSH2 0xC01 PUSH2 0x25B7 JUMP JUMPDEST PUSH1 0x20 SWAP1 DUP2 MUL SWAP2 SWAP1 SWAP2 ADD DUP2 ADD SWAP2 SWAP1 SWAP2 MSTORE PUSH1 0x0 DUP13 DUP2 MSTORE PUSH1 0xD DUP3 MSTORE PUSH1 0x40 DUP1 DUP3 KECCAK256 PUSH1 0x11 ADD SLOAD DUP3 MSTORE PUSH1 0xC SWAP1 SWAP3 MSTORE SWAP1 DUP2 KECCAK256 PUSH1 0x1 ADD SLOAD DUP5 MLOAD SWAP1 SWAP2 DUP6 SWAP2 PUSH2 0xC42 JUMPI PUSH2 0xC42 PUSH2 0x25B7 JUMP JUMPDEST PUSH1 0x20 MUL PUSH1 0x20 ADD ADD DUP2 DUP2 MSTORE POP POP PUSH2 0xC56 PUSH2 0x1D6C JUMP JUMPDEST PUSH1 0x0 DUP1 DUP3 MSTORE DUP13 DUP2 MSTORE PUSH1 0xD PUSH1 0x20 SWAP1 DUP2 MSTORE PUSH1 0x40 DUP1 DUP4 KECCAK256 PUSH1 0x1 SWAP1 DUP2 ADD SLOAD DUP5 MSTORE PUSH1 0xF DUP4 MSTORE SWAP3 DUP2 SWAP1 KECCAK256 SLOAD SWAP1 DUP5 ADD MSTORE DUP3 ADD MSTORE JUMPDEST PUSH1 0x20 DUP2 ADD MLOAD PUSH1 0x32 GT ISZERO PUSH2 0x10DB JUMPI PUSH1 0x20 DUP2 ADD MLOAD PUSH1 0x1 DUP11 DUP3 SHR AND SWAP1 DUP9 SWAP1 PUSH1 0x64 DUP2 LT PUSH2 0xCAE JUMPI PUSH2 0xCAE PUSH2 0x25B7 JUMP JUMPDEST PUSH1 0x20 MUL ADD MSTORE DUP7 DUP2 PUSH1 0x1 PUSH1 0x20 MUL ADD MLOAD PUSH1 0x64 DUP2 LT PUSH2 0xCCC JUMPI PUSH2 0xCCC PUSH2 0x25B7 JUMP JUMPDEST PUSH1 0x20 MUL ADD MLOAD PUSH2 0xD1B JUMPI PUSH1 0x40 DUP2 ADD MLOAD PUSH1 0x20 DUP3 ADD MLOAD PUSH2 0xCEA SWAP1 PUSH1 0x1 PUSH2 0x25E4 JUMP JUMPDEST DUP11 SWAP1 SHR PUSH2 0xCF7 SWAP2 SWAP1 PUSH2 0x25FC JUMP JUMPDEST DUP7 DUP3 PUSH1 0x1 JUMPDEST PUSH1 0x20 MUL ADD MLOAD PUSH1 0x64 DUP2 LT PUSH2 0xD11 JUMPI PUSH2 0xD11 PUSH2 0x25B7 JUMP JUMPDEST PUSH1 0x20 MUL ADD MSTORE PUSH2 0xEB3 JUMP JUMPDEST PUSH1 0x0 DUP13 DUP2 MSTORE PUSH1 0x10 PUSH1 0x20 SWAP1 DUP2 MSTORE PUSH1 0x40 DUP1 DUP4 KECCAK256 DUP4 DUP1 MSTORE SWAP1 SWAP2 MSTORE DUP2 KECCAK256 DUP1 SLOAD SWAP1 SWAP2 SWAP1 PUSH2 0xD45 JUMPI PUSH2 0xD45 PUSH2 0x25B7 JUMP JUMPDEST PUSH1 0x0 SWAP2 DUP3 MSTORE PUSH1 0x20 SWAP1 SWAP2 KECCAK256 ADD SLOAD DUP7 DUP3 PUSH1 0x1 PUSH1 0x20 MUL ADD MLOAD PUSH1 0x64 DUP2 LT PUSH2 0xD6A JUMPI PUSH2 0xD6A PUSH2 0x25B7 JUMP JUMPDEST PUSH1 0x20 MUL ADD MSTORE PUSH1 0x5 DUP3 EQ ISZERO PUSH2 0xDE0 JUMPI PUSH1 0x3 DUP2 PUSH1 0x1 JUMPDEST PUSH1 0x20 MUL ADD MLOAD PUSH2 0xD8E SWAP1 PUSH1 0x2 PUSH2 0x25E4 JUMP JUMPDEST DUP11 SWAP1 SHR PUSH2 0xD9B SWAP2 SWAP1 PUSH2 0x25FC JUMP JUMPDEST PUSH1 0x0 DUP14 DUP2 MSTORE PUSH1 0x10 PUSH1 0x20 SWAP1 DUP2 MSTORE PUSH1 0x40 DUP1 DUP4 KECCAK256 DUP5 DUP5 MSTORE SWAP1 SWAP2 MSTORE DUP2 KECCAK256 DUP1 SLOAD SWAP3 SWAP6 POP SWAP1 SWAP4 POP SWAP1 DUP4 SWAP1 PUSH2 0xDCB JUMPI PUSH2 0xDCB PUSH2 0x25B7 JUMP JUMPDEST PUSH1 0x0 SWAP2 DUP3 MSTORE PUSH1 0x20 SWAP1 SWAP2 KECCAK256 ADD SLOAD DUP7 DUP3 PUSH1 0x1 PUSH2 0xCFC JUMP JUMPDEST PUSH2 0xDEB PUSH1 0x1 DUP4 PUSH2 0x25E4 JUMP JUMPDEST PUSH1 0x0 DUP14 DUP2 MSTORE PUSH1 0x10 PUSH1 0x20 SWAP1 DUP2 MSTORE PUSH1 0x40 DUP1 DUP4 KECCAK256 DUP8 DUP5 MSTORE SWAP1 SWAP2 MSTORE SWAP1 KECCAK256 SLOAD SWAP1 SWAP3 POP DUP3 LT ISZERO DUP1 PUSH2 0xE4E JUMPI POP PUSH1 0x0 DUP13 DUP2 MSTORE PUSH1 0x10 PUSH1 0x20 SWAP1 DUP2 MSTORE PUSH1 0x40 DUP1 DUP4 KECCAK256 DUP7 DUP5 MSTORE SWAP1 SWAP2 MSTORE SWAP1 KECCAK256 DUP1 SLOAD PUSH2 0xFFF SWAP2 SWAP1 DUP5 SWAP1 DUP2 LT PUSH2 0xE41 JUMPI PUSH2 0xE41 PUSH2 0x25B7 JUMP JUMPDEST SWAP1 PUSH1 0x0 MSTORE PUSH1 0x20 PUSH1 0x0 KECCAK256 ADD SLOAD EQ JUMPDEST ISZERO PUSH2 0xE5D JUMPI PUSH1 0x3 DUP2 PUSH1 0x1 PUSH2 0xD7E JUMP JUMPDEST PUSH1 0x0 DUP13 DUP2 MSTORE PUSH1 0x10 PUSH1 0x20 SWAP1 DUP2 MSTORE PUSH1 0x40 DUP1 DUP4 KECCAK256 DUP7 DUP5 MSTORE SWAP1 SWAP2 MSTORE SWAP1 KECCAK256 DUP1 SLOAD DUP4 SWAP1 DUP2 LT PUSH2 0xE88 JUMPI PUSH2 0xE88 PUSH2 0x25B7 JUMP JUMPDEST PUSH1 0x0 SWAP2 DUP3 MSTORE PUSH1 0x20 SWAP1 SWAP2 KECCAK256 ADD SLOAD DUP7 DUP3 PUSH1 0x1 PUSH1 0x20 MUL ADD MLOAD PUSH1 0x64 DUP2 LT PUSH2 0xEAD JUMPI PUSH2 0xEAD PUSH2 0x25B7 JUMP JUMPDEST PUSH1 0x20 MUL ADD MSTORE JUMPDEST PUSH1 0x1 DUP6 DUP2 DUP4 DUP2 PUSH1 0x20 MUL ADD MLOAD PUSH2 0xEC8 SWAP2 SWAP1 PUSH2 0x25CD JUMP JUMPDEST DUP2 MLOAD DUP2 LT PUSH2 0xED8 JUMPI PUSH2 0xED8 PUSH2 0x25B7 JUMP JUMPDEST PUSH1 0x20 MUL PUSH1 0x20 ADD ADD MLOAD DUP7 DUP4 PUSH1 0x1 PUSH1 0x3 DUP2 LT PUSH2 0xEF4 JUMPI PUSH2 0xEF4 PUSH2 0x25B7 JUMP JUMPDEST PUSH1 0x20 MUL ADD MLOAD DUP2 MLOAD DUP2 LT PUSH2 0xF09 JUMPI PUSH2 0xF09 PUSH2 0x25B7 JUMP JUMPDEST PUSH1 0x20 SWAP1 DUP2 MUL SWAP2 SWAP1 SWAP2 ADD ADD MSTORE DUP5 PUSH1 0x1 DUP4 DUP2 PUSH1 0x20 MUL ADD MLOAD PUSH2 0xF28 SWAP2 SWAP1 PUSH2 0x25CD JUMP JUMPDEST DUP2 MLOAD DUP2 LT PUSH2 0xF38 JUMPI PUSH2 0xF38 PUSH2 0x25B7 JUMP JUMPDEST PUSH1 0x20 MUL PUSH1 0x20 ADD ADD MLOAD DUP6 DUP4 PUSH1 0x1 PUSH1 0x3 DUP2 LT PUSH2 0xF54 JUMPI PUSH2 0xF54 PUSH2 0x25B7 JUMP JUMPDEST PUSH1 0x20 MUL ADD MLOAD DUP2 MLOAD DUP2 LT PUSH2 0xF69 JUMPI PUSH2 0xF69 PUSH2 0x25B7 JUMP JUMPDEST PUSH1 0x20 SWAP1 DUP2 MUL SWAP2 SWAP1 SWAP2 ADD ADD MSTORE DUP8 DUP3 PUSH1 0x1 PUSH1 0x20 MUL ADD MLOAD PUSH1 0x64 DUP2 LT PUSH2 0xF8D JUMPI PUSH2 0xF8D PUSH2 0x25B7 JUMP JUMPDEST PUSH1 0x20 MUL ADD MLOAD PUSH2 0x1026 JUMPI DUP1 DUP6 DUP4 PUSH1 0x1 PUSH1 0x20 MUL ADD MLOAD DUP2 MLOAD DUP2 LT PUSH2 0xFB0 JUMPI PUSH2 0xFB0 PUSH2 0x25B7 JUMP JUMPDEST PUSH1 0x20 MUL PUSH1 0x20 ADD ADD MLOAD GT PUSH2 0xFF0 JUMPI PUSH1 0x1 DUP1 DUP4 MSTORE PUSH1 0x0 SWAP1 DUP7 SWAP1 DUP5 SWAP1 JUMPDEST PUSH1 0x20 MUL ADD MLOAD DUP2 MLOAD DUP2 LT PUSH2 0xFDF JUMPI PUSH2 0xFDF PUSH2 0x25B7 JUMP JUMPDEST PUSH1 0x20 MUL PUSH1 0x20 ADD ADD DUP2 DUP2 MSTORE POP POP PUSH2 0x1090 JUMP JUMPDEST DUP1 DUP6 DUP4 PUSH1 0x1 PUSH1 0x20 MUL ADD MLOAD DUP2 MLOAD DUP2 LT PUSH2 0x100A JUMPI PUSH2 0x100A PUSH2 0x25B7 JUMP JUMPDEST PUSH1 0x20 MUL PUSH1 0x20 ADD ADD DUP2 DUP2 MLOAD PUSH2 0x101E SWAP2 SWAP1 PUSH2 0x25CD JUMP JUMPDEST SWAP1 MSTORE POP PUSH2 0x1090 JUMP JUMPDEST DUP1 DUP7 DUP4 PUSH1 0x1 PUSH1 0x20 MUL ADD MLOAD DUP2 MLOAD DUP2 LT PUSH2 0x1040 JUMPI PUSH2 0x1040 PUSH2 0x25B7 JUMP JUMPDEST PUSH1 0x20 MUL PUSH1 0x20 ADD ADD MLOAD GT PUSH2 0x105E JUMPI PUSH1 0x1 DUP1 DUP4 MSTORE PUSH1 0x0 SWAP1 DUP8 SWAP1 DUP5 SWAP1 PUSH2 0xFCA JUMP JUMPDEST DUP1 DUP7 DUP4 PUSH1 0x1 PUSH1 0x20 MUL ADD MLOAD DUP2 MLOAD DUP2 LT PUSH2 0x1078 JUMPI PUSH2 0x1078 PUSH2 0x25B7 JUMP JUMPDEST PUSH1 0x20 MUL PUSH1 0x20 ADD ADD DUP2 DUP2 MLOAD PUSH2 0x108C SWAP2 SWAP1 PUSH2 0x25CD JUMP JUMPDEST SWAP1 MSTORE POP JUMPDEST DUP2 MLOAD PUSH1 0x1 EQ ISZERO PUSH2 0x10C4 JUMPI PUSH1 0x1 DUP10 DUP4 DUP3 PUSH1 0x20 MUL ADD MLOAD PUSH1 0x64 DUP2 LT PUSH2 0x10B4 JUMPI PUSH2 0x10B4 PUSH2 0x25B7 JUMP JUMPDEST SWAP2 ISZERO ISZERO PUSH1 0x20 SWAP1 SWAP3 MUL ADD MSTORE POP PUSH2 0x10DB JUMP JUMPDEST POP PUSH1 0x20 DUP2 ADD DUP1 MLOAD PUSH2 0x10D4 SWAP1 PUSH2 0x24DA JUMP JUMPDEST SWAP1 MSTORE PUSH2 0xC83 JUMP JUMPDEST PUSH1 0x20 DUP2 ADD MLOAD PUSH1 0x32 GT PUSH2 0x1121 JUMPI PUSH1 0x1 DUP9 PUSH2 0x10F5 DUP3 PUSH1 0x32 PUSH2 0x25CD JUMP JUMPDEST PUSH1 0x64 DUP2 LT PUSH2 0x1105 JUMPI PUSH2 0x1105 PUSH2 0x25B7 JUMP JUMPDEST SWAP2 ISZERO ISZERO PUSH1 0x20 SWAP1 SWAP3 MUL ADD MSTORE PUSH2 0x111B PUSH1 0x1 PUSH1 0x32 PUSH2 0x25CD JUMP JUMPDEST PUSH1 0x20 DUP3 ADD MSTORE JUMPDEST DUP4 DUP2 PUSH1 0x1 PUSH1 0x20 MUL ADD MLOAD DUP2 MLOAD DUP2 LT PUSH2 0x113A JUMPI PUSH2 0x113A PUSH2 0x25B7 JUMP JUMPDEST PUSH1 0x20 MUL PUSH1 0x20 ADD ADD MLOAD DUP6 DUP3 PUSH1 0x1 PUSH1 0x3 DUP2 LT PUSH2 0x1156 JUMPI PUSH2 0x1156 PUSH2 0x25B7 JUMP JUMPDEST PUSH1 0x20 MUL ADD MLOAD DUP2 MLOAD DUP2 LT PUSH2 0x116B JUMPI PUSH2 0x116B PUSH2 0x25B7 JUMP JUMPDEST PUSH1 0x20 MUL PUSH1 0x20 ADD ADD MLOAD LT SWAP10 POP POP POP POP SWAP2 SWAP4 SWAP6 SWAP8 POP SWAP2 SWAP4 SWAP6 SWAP8 JUMP JUMPDEST PUSH1 0x4 DUP2 DUP2 SLOAD DUP2 LT PUSH2 0x1194 JUMPI PUSH1 0x0 DUP1 REVERT JUMPDEST PUSH1 0x0 SWAP2 DUP3 MSTORE PUSH1 0x20 SWAP1 SWAP2 KECCAK256 ADD SLOAD SWAP1 POP DUP2 JUMP JUMPDEST PUSH1 0x7 SLOAD PUSH1 0x40 MLOAD PUSH4 0x31A9108F PUSH1 0xE1 SHL DUP2 MSTORE PUSH1 0x0 SWAP2 CALLER SWAP2 PUSH1 0x1 PUSH1 0x50 SHL SWAP1 SWAP2 DIV PUSH1 0x1 PUSH1 0x1 PUSH1 0xA0 SHL SUB AND SWAP1 PUSH4 0x6352211E SWAP1 PUSH2 0x11E4 SWAP1 DUP9 SWAP1 PUSH1 0x4 ADD SWAP1 DUP2 MSTORE PUSH1 0x20 ADD SWAP1 JUMP JUMPDEST PUSH1 0x20 PUSH1 0x40 MLOAD DUP1 DUP4 SUB DUP2 DUP7 DUP1 EXTCODESIZE ISZERO DUP1 ISZERO PUSH2 0x11FC JUMPI PUSH1 0x0 DUP1 REVERT JUMPDEST POP GAS STATICCALL ISZERO DUP1 ISZERO PUSH2 0x1210 JUMPI RETURNDATASIZE PUSH1 0x0 DUP1 RETURNDATACOPY RETURNDATASIZE PUSH1 0x0 REVERT JUMPDEST POP POP POP POP PUSH1 0x40 MLOAD RETURNDATASIZE PUSH1 0x1F NOT PUSH1 0x1F DUP3 ADD AND DUP3 ADD DUP1 PUSH1 0x40 MSTORE POP DUP2 ADD SWAP1 PUSH2 0x1234 SWAP2 SWAP1 PUSH2 0x24F5 JUMP JUMPDEST PUSH1 0x1 PUSH1 0x1 PUSH1 0xA0 SHL SUB AND EQ PUSH2 0x125A JUMPI PUSH1 0x40 MLOAD PUSH3 0x461BCD PUSH1 0xE5 SHL DUP2 MSTORE PUSH1 0x4 ADD PUSH2 0x5FD SWAP1 PUSH2 0x2512 JUMP JUMPDEST PUSH1 0x7 SLOAD PUSH1 0x40 MLOAD PUSH4 0xBB86E8CD PUSH1 0xE0 SHL DUP2 MSTORE PUSH1 0x4 DUP2 ADD DUP7 SWAP1 MSTORE PUSH1 0x0 SWAP2 PUSH1 0x2 SWAP2 PUSH1 0x1 PUSH1 0x50 SHL SWAP1 SWAP2 DIV PUSH1 0x1 PUSH1 0x1 PUSH1 0xA0 SHL SUB AND SWAP1 PUSH4 0xBB86E8CD SWAP1 PUSH1 0x24 ADD PUSH1 0x20 PUSH1 0x40 MLOAD DUP1 DUP4 SUB DUP2 DUP7 DUP1 EXTCODESIZE ISZERO DUP1 ISZERO PUSH2 0x12AA JUMPI PUSH1 0x0 DUP1 REVERT JUMPDEST POP GAS STATICCALL ISZERO DUP1 ISZERO PUSH2 0x12BE JUMPI RETURNDATASIZE PUSH1 0x0 DUP1 RETURNDATACOPY RETURNDATASIZE PUSH1 0x0 REVERT JUMPDEST POP POP POP POP PUSH1 0x40 MLOAD RETURNDATASIZE PUSH1 0x1F NOT PUSH1 0x1F DUP3 ADD AND DUP3 ADD DUP1 PUSH1 0x40 MSTORE POP DUP2 ADD SWAP1 PUSH2 0x12E2 SWAP2 SWAP1 PUSH2 0x24AB JUMP JUMPDEST PUSH2 0x12EC SWAP2 SWAP1 PUSH2 0x25E4 JUMP JUMPDEST SWAP1 POP PUSH1 0x8 SLOAD DUP2 LT PUSH2 0x134F JUMPI PUSH1 0x40 MLOAD PUSH3 0x461BCD PUSH1 0xE5 SHL DUP2 MSTORE PUSH1 0x20 PUSH1 0x4 DUP3 ADD MSTORE PUSH1 0x27 PUSH1 0x24 DUP3 ADD MSTORE PUSH32 0x54686174206C6576656C20686173206E6F7420796574206265656E2063726561 PUSH1 0x44 DUP3 ADD MSTORE PUSH7 0x74656420212121 PUSH1 0xC8 SHL PUSH1 0x64 DUP3 ADD MSTORE PUSH1 0x84 ADD PUSH2 0x5FD JUMP JUMPDEST PUSH1 0x8 SLOAD DUP5 LT DUP1 ISZERO PUSH2 0x1360 JUMPI POP DUP1 DUP5 GT ISZERO JUMPDEST PUSH2 0x13AC JUMPI PUSH1 0x40 MLOAD PUSH3 0x461BCD PUSH1 0xE5 SHL DUP2 MSTORE PUSH1 0x20 PUSH1 0x4 DUP3 ADD DUP2 SWAP1 MSTORE PUSH1 0x24 DUP3 ADD MSTORE PUSH32 0x596F752063616E6E6F74207573652074686174206D6F6E737465722021212120 PUSH1 0x44 DUP3 ADD MSTORE PUSH1 0x64 ADD PUSH2 0x5FD JUMP JUMPDEST PUSH2 0x13B4 PUSH2 0x1D8A JUMP JUMPDEST PUSH1 0xA SLOAD PUSH1 0x40 DUP1 MLOAD PUSH1 0xA0 DUP2 ADD DUP3 MSTORE DUP9 DUP2 MSTORE PUSH1 0x20 DUP1 DUP3 ADD DUP7 DUP2 MSTORE DUP3 DUP5 ADD DUP7 DUP2 MSTORE PUSH1 0x60 DUP5 ADD DUP12 SWAP1 MSTORE PUSH1 0x80 DUP5 ADD DUP11 SWAP1 MSTORE PUSH1 0x0 DUP7 DUP2 MSTORE PUSH1 0xD SWAP1 SWAP4 MSTORE SWAP4 SWAP1 SWAP2 KECCAK256 DUP3 MLOAD DUP2 SSTORE SWAP1 MLOAD PUSH1 0x1 DUP3 ADD SSTORE SWAP2 MLOAD SWAP3 SWAP6 POP SWAP2 PUSH2 0x140F SWAP1 PUSH1 0x2 DUP4 ADD SWAP1 PUSH1 0x5 PUSH2 0x1DB7 JUMP JUMPDEST POP PUSH1 0x60 DUP3 ADD MLOAD PUSH1 0x11 DUP3 ADD SSTORE PUSH1 0x80 DUP3 ADD MLOAD PUSH2 0x142F SWAP1 PUSH1 0x12 DUP4 ADD SWAP1 PUSH1 0x5 PUSH2 0x1DB7 JUMP JUMPDEST POP SWAP1 POP POP PUSH1 0x0 JUMPDEST PUSH1 0x3 DUP2 LT ISZERO PUSH2 0x14FB JUMPI PUSH1 0x40 DUP1 MLOAD PUSH1 0x0 DUP1 DUP3 MSTORE PUSH1 0x20 DUP1 DUP4 ADD DUP1 DUP6 MSTORE DUP9 DUP4 MSTORE PUSH1 0x10 DUP3 MSTORE DUP5 DUP4 KECCAK256 DUP7 DUP5 MSTORE SWAP1 SWAP2 MSTORE SWAP3 SWAP1 KECCAK256 SWAP1 MLOAD PUSH2 0x146F SWAP3 SWAP1 PUSH2 0x1DFE JUMP JUMPDEST POP PUSH1 0x0 JUMPDEST PUSH1 0x5 DUP2 LT ISZERO PUSH2 0x14EA JUMPI PUSH1 0x0 DUP6 DUP2 MSTORE PUSH1 0x10 PUSH1 0x20 SWAP1 DUP2 MSTORE PUSH1 0x40 DUP1 DUP4 KECCAK256 DUP6 DUP5 MSTORE SWAP1 SWAP2 MSTORE SWAP1 KECCAK256 DUP7 DUP3 PUSH1 0x5 DUP2 LT PUSH2 0x14A7 JUMPI PUSH2 0x14A7 PUSH2 0x25B7 JUMP JUMPDEST PUSH1 0x20 MUL ADD MLOAD DUP4 PUSH1 0x3 DUP2 LT PUSH2 0x14BD JUMPI PUSH2 0x14BD PUSH2 0x25B7 JUMP JUMPDEST PUSH1 0x20 SWAP1 DUP2 MUL SWAP2 SWAP1 SWAP2 ADD MLOAD DUP3 SLOAD PUSH1 0x1 DUP2 ADD DUP5 SSTORE PUSH1 0x0 SWAP4 DUP5 MSTORE SWAP2 SWAP1 SWAP3 KECCAK256 ADD SSTORE PUSH2 0x14E3 DUP2 PUSH2 0x24DA JUMP JUMPDEST SWAP1 POP PUSH2 0x1473 JUMP JUMPDEST POP PUSH2 0x14F4 DUP2 PUSH2 0x24DA JUMP JUMPDEST SWAP1 POP PUSH2 0x1436 JUMP JUMPDEST POP PUSH2 0x1504 PUSH2 0x1A54 JUMP JUMPDEST PUSH1 0x0 DUP5 DUP2 MSTORE PUSH1 0x11 PUSH1 0x20 MSTORE PUSH1 0x40 DUP2 KECCAK256 SWAP2 SWAP1 SWAP2 SSTORE PUSH1 0xA DUP1 SLOAD PUSH1 0x1 SWAP3 SWAP1 PUSH2 0x1529 SWAP1 DUP5 SWAP1 PUSH2 0x25E4 JUMP JUMPDEST SWAP1 SWAP2 SSTORE POP SWAP3 SWAP7 SWAP6 POP POP POP POP POP POP JUMP JUMPDEST PUSH2 0x1540 PUSH2 0x19FF JUMP JUMPDEST PUSH1 0x0 DUP1 JUMPDEST PUSH1 0x5 DUP2 LT ISZERO PUSH2 0x1638 JUMPI PUSH1 0x9 SLOAD DUP4 DUP3 PUSH1 0x5 DUP2 LT PUSH2 0x1562 JUMPI PUSH2 0x1562 PUSH2 0x25B7 JUMP JUMPDEST PUSH1 0x20 MUL ADD MLOAD LT DUP1 PUSH2 0x158A JUMPI POP PUSH2 0xFFF DUP4 DUP3 PUSH1 0x5 DUP2 LT PUSH2 0x1583 JUMPI PUSH2 0x1583 PUSH2 0x25B7 JUMP JUMPDEST PUSH1 0x20 MUL ADD MLOAD EQ JUMPDEST PUSH2 0x15EF JUMPI PUSH1 0x40 MLOAD PUSH3 0x461BCD PUSH1 0xE5 SHL DUP2 MSTORE PUSH1 0x20 PUSH1 0x4 DUP3 ADD MSTORE PUSH1 0x30 PUSH1 0x24 DUP3 ADD MSTORE PUSH32 0x536B696C6C2068617320656974686572206E6F74206265656E20637265617465 PUSH1 0x44 DUP3 ADD MSTORE PUSH16 0x19081BDC881A5CC81B9BDD081D5CD959 PUSH1 0x82 SHL PUSH1 0x64 DUP3 ADD MSTORE PUSH1 0x84 ADD PUSH2 0x5FD JUMP JUMPDEST PUSH2 0xFFF DUP4 DUP3 PUSH1 0x5 DUP2 LT PUSH2 0x1604 JUMPI PUSH2 0x1604 PUSH2 0x25B7 JUMP JUMPDEST PUSH1 0x20 MUL ADD MLOAD EQ ISZERO PUSH2 0x1616 JUMPI PUSH1 0x0 PUSH2 0x1619 JUMP JUMPDEST PUSH1 0x1 JUMPDEST PUSH2 0x1626 SWAP1 PUSH1 0xFF AND DUP4 PUSH2 0x25E4 JUMP JUMPDEST SWAP2 POP PUSH2 0x1631 DUP2 PUSH2 0x24DA JUMP JUMPDEST SWAP1 POP PUSH2 0x1544 JUMP JUMPDEST POP PUSH1 0x0 DUP2 GT PUSH2 0x1695 JUMPI PUSH1 0x40 MLOAD PUSH3 0x461BCD PUSH1 0xE5 SHL DUP2 MSTORE PUSH1 0x20 PUSH1 0x4 DUP3 ADD MSTORE PUSH1 0x23 PUSH1 0x24 DUP3 ADD MSTORE PUSH32 0x4D6F6E73746572206D75737420757365206174206C65617374206F6E6520736B PUSH1 0x44 DUP3 ADD MSTORE PUSH3 0x1A5B1B PUSH1 0xEA SHL PUSH1 0x64 DUP3 ADD MSTORE PUSH1 0x84 ADD PUSH2 0x5FD JUMP JUMPDEST PUSH1 0x40 DUP1 MLOAD PUSH1 0xC0 DUP2 ADD DUP3 MSTORE DUP8 DUP2 MSTORE PUSH1 0x20 DUP1 DUP3 ADD DUP9 SWAP1 MSTORE DUP2 DUP4 ADD DUP8 SWAP1 MSTORE PUSH1 0x60 DUP3 ADD DUP7 SWAP1 MSTORE PUSH1 0x80 DUP3 ADD DUP6 SWAP1 MSTORE PUSH1 0xA0 DUP3 ADD DUP5 SWAP1 MSTORE PUSH1 0x8 SLOAD PUSH1 0x0 SWAP1 DUP2 MSTORE PUSH1 0xC DUP3 MSTORE SWAP3 SWAP1 SWAP3 KECCAK256 DUP2 MLOAD DUP1 MLOAD SWAP3 SWAP4 DUP5 SWAP4 PUSH2 0x16EA SWAP3 DUP5 SWAP3 ADD SWAP1 PUSH2 0x1CC9 JUMP JUMPDEST POP PUSH1 0x20 DUP3 ADD MLOAD PUSH1 0x1 DUP3 ADD SSTORE PUSH1 0x40 DUP3 ADD MLOAD PUSH1 0x2 DUP3 ADD SSTORE PUSH1 0x60 DUP3 ADD MLOAD PUSH1 0x3 DUP3 ADD SSTORE PUSH1 0x80 DUP3 ADD MLOAD PUSH2 0x171E SWAP1 PUSH1 0x4 DUP4 ADD SWAP1 PUSH1 0x5 PUSH2 0x1E38 JUMP JUMPDEST POP PUSH1 0xA0 SWAP2 SWAP1 SWAP2 ADD MLOAD PUSH1 0x9 SWAP1 SWAP2 ADD SSTORE PUSH1 0x80 DUP2 ADD MLOAD PUSH1 0x8 SLOAD PUSH1 0x0 SWAP1 DUP2 MSTORE PUSH1 0xE PUSH1 0x20 MSTORE PUSH1 0x40 SWAP1 KECCAK256 PUSH2 0x174D SWAP2 PUSH1 0x5 PUSH2 0x1E38 JUMP JUMPDEST POP PUSH1 0x8 DUP1 SLOAD PUSH1 0x0 SWAP1 DUP2 MSTORE PUSH1 0xF PUSH1 0x20 MSTORE PUSH1 0x40 DUP2 KECCAK256 DUP5 SWAP1 SSTORE DUP2 SLOAD SWAP2 SWAP1 PUSH2 0x1770 DUP4 PUSH2 0x24DA JUMP JUMPDEST SWAP2 SWAP1 POP SSTORE POP POP POP POP POP POP POP POP JUMP JUMPDEST PUSH1 0xC PUSH1 0x20 MSTORE PUSH1 0x0 SWAP1 DUP2 MSTORE PUSH1 0x40 SWAP1 KECCAK256 DUP1 SLOAD DUP2 SWAP1 PUSH2 0x1799 SWAP1 PUSH2 0x257C JUMP JUMPDEST DUP1 PUSH1 0x1F ADD PUSH1 0x20 DUP1 SWAP2 DIV MUL PUSH1 0x20 ADD PUSH1 0x40 MLOAD SWAP1 DUP2 ADD PUSH1 0x40 MSTORE DUP1 SWAP3 SWAP2 SWAP1 DUP2 DUP2 MSTORE PUSH1 0x20 ADD DUP3 DUP1 SLOAD PUSH2 0x17C5 SWAP1 PUSH2 0x257C JUMP JUMPDEST DUP1 ISZERO PUSH2 0x1812 JUMPI DUP1 PUSH1 0x1F LT PUSH2 0x17E7 JUMPI PUSH2 0x100 DUP1 DUP4 SLOAD DIV MUL DUP4 MSTORE SWAP2 PUSH1 0x20 ADD SWAP2 PUSH2 0x1812 JUMP JUMPDEST DUP3 ADD SWAP2 SWAP1 PUSH1 0x0 MSTORE PUSH1 0x20 PUSH1 0x0 KECCAK256 SWAP1 JUMPDEST DUP2 SLOAD DUP2 MSTORE SWAP1 PUSH1 0x1 ADD SWAP1 PUSH1 0x20 ADD DUP1 DUP4 GT PUSH2 0x17F5 JUMPI DUP3 SWAP1 SUB PUSH1 0x1F AND DUP3 ADD SWAP2 JUMPDEST POP POP POP POP POP SWAP1 DUP1 PUSH1 0x1 ADD SLOAD SWAP1 DUP1 PUSH1 0x2 ADD SLOAD SWAP1 DUP1 PUSH1 0x3 ADD SLOAD SWAP1 DUP1 PUSH1 0x9 ADD SLOAD SWAP1 POP DUP6 JUMP JUMPDEST PUSH1 0x0 DUP2 DUP2 MSTORE PUSH1 0x2 PUSH1 0x20 MSTORE PUSH1 0x40 DUP2 KECCAK256 SLOAD PUSH1 0x60 SWAP1 PUSH2 0x100 SWAP1 DIV PUSH1 0xFF AND PUSH2 0x188E JUMPI PUSH1 0x40 MLOAD PUSH3 0x461BCD PUSH1 0xE5 SHL DUP2 MSTORE PUSH1 0x20 PUSH1 0x4 DUP3 ADD MSTORE PUSH1 0x11 PUSH1 0x24 DUP3 ADD MSTORE PUSH17 0x1C995C5D595CDD081B9BDD08199BDD5B99 PUSH1 0x7A SHL PUSH1 0x44 DUP3 ADD MSTORE PUSH1 0x64 ADD PUSH2 0x5FD JUMP JUMPDEST PUSH1 0x0 DUP4 DUP2 MSTORE PUSH1 0x2 PUSH1 0x20 SWAP1 DUP2 MSTORE PUSH1 0x40 DUP1 DUP4 KECCAK256 DUP2 MLOAD PUSH1 0x60 DUP2 ADD DUP4 MSTORE DUP2 SLOAD PUSH1 0xFF DUP1 DUP3 AND ISZERO ISZERO DUP4 MSTORE PUSH2 0x100 SWAP1 SWAP2 DIV AND ISZERO ISZERO DUP2 DUP6 ADD MSTORE PUSH1 0x1 DUP3 ADD DUP1 SLOAD DUP5 MLOAD DUP2 DUP8 MUL DUP2 ADD DUP8 ADD DUP7 MSTORE DUP2 DUP2 MSTORE SWAP3 SWAP6 SWAP4 SWAP5 DUP7 ADD SWAP4 DUP4 ADD DUP3 DUP3 DUP1 ISZERO PUSH2 0x1909 JUMPI PUSH1 0x20 MUL DUP3 ADD SWAP2 SWAP1 PUSH1 0x0 MSTORE PUSH1 0x20 PUSH1 0x0 KECCAK256 SWAP1 JUMPDEST DUP2 SLOAD DUP2 MSTORE PUSH1 0x20 ADD SWAP1 PUSH1 0x1 ADD SWAP1 DUP1 DUP4 GT PUSH2 0x18F5 JUMPI JUMPDEST POP POP POP POP POP DUP2 MSTORE POP POP SWAP1 POP DUP1 PUSH1 0x0 ADD MLOAD DUP2 PUSH1 0x40 ADD MLOAD SWAP3 POP SWAP3 POP POP SWAP2 POP SWAP2 JUMP JUMPDEST PUSH2 0x1930 PUSH2 0x19FF JUMP JUMPDEST PUSH2 0x584 DUP2 PUSH2 0x1C1F JUMP JUMPDEST PUSH1 0x0 DUP3 DUP2 MSTORE PUSH1 0x2 PUSH1 0x20 MSTORE PUSH1 0x40 SWAP1 KECCAK256 SLOAD PUSH2 0x100 SWAP1 DIV PUSH1 0xFF AND PUSH2 0x1990 JUMPI PUSH1 0x40 MLOAD PUSH3 0x461BCD PUSH1 0xE5 SHL DUP2 MSTORE PUSH1 0x20 PUSH1 0x4 DUP3 ADD MSTORE PUSH1 0x11 PUSH1 0x24 DUP3 ADD MSTORE PUSH17 0x1C995C5D595CDD081B9BDD08199BDD5B99 PUSH1 0x7A SHL PUSH1 0x44 DUP3 ADD MSTORE PUSH1 0x64 ADD PUSH2 0x5FD JUMP JUMPDEST PUSH1 0x0 DUP3 DUP2 MSTORE PUSH1 0x2 PUSH1 0x20 SWAP1 DUP2 MSTORE PUSH1 0x40 SWAP1 SWAP2 KECCAK256 DUP1 SLOAD PUSH1 0xFF NOT AND PUSH1 0x1 SWAP1 DUP2 OR DUP3 SSTORE DUP4 MLOAD PUSH2 0x19C1 SWAP4 SWAP3 SWAP1 SWAP2 ADD SWAP2 DUP5 ADD SWAP1 PUSH2 0x1DFE JUMP JUMPDEST POP PUSH32 0xFE2E2D779DBA245964D4E3EF9B994BE63856FD568BF7D3CA9E224755CB1BD54D DUP3 DUP3 PUSH1 0x40 MLOAD PUSH2 0x19F3 SWAP3 SWAP2 SWAP1 PUSH2 0x261E JUMP JUMPDEST PUSH1 0x40 MLOAD DUP1 SWAP2 SUB SWAP1 LOG1 POP POP JUMP JUMPDEST PUSH1 0x0 SLOAD PUSH1 0x1 PUSH1 0x1 PUSH1 0xA0 SHL SUB AND CALLER EQ PUSH2 0x1A52 JUMPI PUSH1 0x40 MLOAD PUSH3 0x461BCD PUSH1 0xE5 SHL DUP2 MSTORE PUSH1 0x20 PUSH1 0x4 DUP3 ADD MSTORE PUSH1 0x16 PUSH1 0x24 DUP3 ADD MSTORE PUSH22 0x27B7363C9031B0B63630B1363290313C9037BBB732B9 PUSH1 0x51 SHL PUSH1 0x44 DUP3 ADD MSTORE PUSH1 0x64 ADD PUSH2 0x5FD JUMP JUMPDEST JUMP JUMPDEST PUSH1 0x3 SLOAD PUSH1 0x6 SLOAD PUSH1 0x7 SLOAD PUSH1 0x40 MLOAD PUSH4 0x5D3B1D3 PUSH1 0xE4 SHL DUP2 MSTORE PUSH1 0x4 DUP2 ADD SWAP3 SWAP1 SWAP3 MSTORE PUSH1 0x1 PUSH1 0xA0 SHL DUP4 DIV PUSH8 0xFFFFFFFFFFFFFFFF AND PUSH1 0x24 DUP4 ADD MSTORE PUSH5 0x100000000 DUP2 DIV PUSH2 0xFFFF AND PUSH1 0x44 DUP4 ADD MSTORE PUSH4 0xFFFFFFFF DUP1 DUP3 AND PUSH1 0x64 DUP5 ADD MSTORE PUSH7 0x1000000000000 SWAP1 SWAP2 DIV AND PUSH1 0x84 DUP3 ADD MSTORE PUSH1 0x0 SWAP2 PUSH1 0x1 PUSH1 0x1 PUSH1 0xA0 SHL SUB AND SWAP1 PUSH4 0x5D3B1D30 SWAP1 PUSH1 0xA4 ADD PUSH1 0x20 PUSH1 0x40 MLOAD DUP1 DUP4 SUB DUP2 PUSH1 0x0 DUP8 DUP1 EXTCODESIZE ISZERO DUP1 ISZERO PUSH2 0x1AE7 JUMPI PUSH1 0x0 DUP1 REVERT JUMPDEST POP GAS CALL ISZERO DUP1 ISZERO PUSH2 0x1AFB JUMPI RETURNDATASIZE PUSH1 0x0 DUP1 RETURNDATACOPY RETURNDATASIZE PUSH1 0x0 REVERT JUMPDEST POP POP POP POP PUSH1 0x40 MLOAD RETURNDATASIZE PUSH1 0x1F NOT PUSH1 0x1F DUP3 ADD AND DUP3 ADD DUP1 PUSH1 0x40 MSTORE POP DUP2 ADD SWAP1 PUSH2 0x1B1F SWAP2 SWAP1 PUSH2 0x24AB JUMP JUMPDEST PUSH1 0x40 DUP1 MLOAD PUSH1 0x60 DUP2 ADD DUP3 MSTORE PUSH1 0x0 DUP1 DUP3 MSTORE PUSH1 0x1 PUSH1 0x20 DUP1 DUP5 ADD DUP3 DUP2 MSTORE DUP6 MLOAD DUP5 DUP2 MSTORE DUP1 DUP4 ADD DUP8 MSTORE DUP6 DUP8 ADD SWAP1 DUP2 MSTORE DUP8 DUP6 MSTORE PUSH1 0x2 DUP4 MSTORE SWAP6 SWAP1 SWAP4 KECCAK256 DUP5 MLOAD DUP2 SLOAD SWAP5 MLOAD PUSH2 0xFFFF NOT SWAP1 SWAP6 AND SWAP1 ISZERO ISZERO PUSH2 0xFF00 NOT AND OR PUSH2 0x100 SWAP5 ISZERO ISZERO SWAP5 SWAP1 SWAP5 MUL SWAP4 SWAP1 SWAP4 OR DUP4 SSTORE SWAP4 MLOAD DUP1 MLOAD SWAP6 SWAP7 POP SWAP3 SWAP5 SWAP2 SWAP4 PUSH2 0x1B94 SWAP4 SWAP2 DUP6 ADD SWAP3 SWAP2 ADD SWAP1 PUSH2 0x1DFE JUMP JUMPDEST POP POP PUSH1 0x4 DUP1 SLOAD PUSH1 0x1 DUP2 ADD DUP3 SSTORE PUSH1 0x0 SWAP2 SWAP1 SWAP2 MSTORE PUSH32 0x8A35ACFBC15FF81A39AE7D344FD709F28E8600B4AA8C65C6B64BFE7FE36BD19B ADD DUP3 SWAP1 SSTORE POP PUSH1 0x5 DUP2 SWAP1 SSTORE PUSH1 0x7 SLOAD PUSH1 0x40 DUP1 MLOAD DUP4 DUP2 MSTORE PUSH7 0x1000000000000 SWAP1 SWAP3 DIV PUSH4 0xFFFFFFFF AND PUSH1 0x20 DUP4 ADD MSTORE PUSH32 0xCC58B13AD3EAB50626C6A6300B1D139CD6EBB1688A7CCED9461C2F7E762665EE SWAP2 ADD PUSH1 0x40 MLOAD DUP1 SWAP2 SUB SWAP1 LOG1 SWAP1 JUMP JUMPDEST PUSH1 0x1 PUSH1 0x1 PUSH1 0xA0 SHL SUB DUP2 AND CALLER EQ ISZERO PUSH2 0x1C78 JUMPI PUSH1 0x40 MLOAD PUSH3 0x461BCD PUSH1 0xE5 SHL DUP2 MSTORE PUSH1 0x20 PUSH1 0x4 DUP3 ADD MSTORE PUSH1 0x17 PUSH1 0x24 DUP3 ADD MSTORE PUSH32 0x43616E6E6F74207472616E7366657220746F2073656C66000000000000000000 PUSH1 0x44 DUP3 ADD MSTORE PUSH1 0x64 ADD PUSH2 0x5FD JUMP JUMPDEST PUSH1 0x1 DUP1 SLOAD PUSH1 0x1 PUSH1 0x1 PUSH1 0xA0 SHL SUB NOT AND PUSH1 0x1 PUSH1 0x1 PUSH1 0xA0 SHL SUB DUP4 DUP2 AND SWAP2 DUP3 OR SWAP1 SWAP3 SSTORE PUSH1 0x0 DUP1 SLOAD PUSH1 0x40 MLOAD SWAP3 SWAP4 AND SWAP2 PUSH32 0xED8889F560326EB138920D842192F0EB3DD22B4F139C87A2C57538E05BAE1278 SWAP2 SWAP1 LOG3 POP JUMP JUMPDEST DUP3 DUP1 SLOAD PUSH2 0x1CD5 SWAP1 PUSH2 0x257C JUMP JUMPDEST SWAP1 PUSH1 0x0 MSTORE PUSH1 0x20 PUSH1 0x0 KECCAK256 SWAP1 PUSH1 0x1F ADD PUSH1 0x20 SWAP1 DIV DUP2 ADD SWAP3 DUP3 PUSH2 0x1CF7 JUMPI PUSH1 0x0 DUP6 SSTORE PUSH2 0x1D3D JUMP JUMPDEST DUP3 PUSH1 0x1F LT PUSH2 0x1D10 JUMPI DUP1 MLOAD PUSH1 0xFF NOT AND DUP4 DUP1 ADD OR DUP6 SSTORE PUSH2 0x1D3D JUMP JUMPDEST DUP3 DUP1 ADD PUSH1 0x1 ADD DUP6 SSTORE DUP3 ISZERO PUSH2 0x1D3D JUMPI SWAP2 DUP3 ADD JUMPDEST DUP3 DUP2 GT ISZERO PUSH2 0x1D3D JUMPI DUP3 MLOAD DUP3 SSTORE SWAP2 PUSH1 0x20 ADD SWAP2 SWAP1 PUSH1 0x1 ADD SWAP1 PUSH2 0x1D22 JUMP JUMPDEST POP PUSH2 0x1D49 SWAP3 SWAP2 POP PUSH2 0x1E65 JUMP JUMPDEST POP SWAP1 JUMP JUMPDEST PUSH1 0x40 MLOAD DUP1 PUSH2 0xC80 ADD PUSH1 0x40 MSTORE DUP1 PUSH1 0x64 SWAP1 PUSH1 0x20 DUP3 MUL DUP1 CALLDATASIZE DUP4 CALLDATACOPY POP SWAP2 SWAP3 SWAP2 POP POP JUMP JUMPDEST PUSH1 0x40 MLOAD DUP1 PUSH1 0x60 ADD PUSH1 0x40 MSTORE DUP1 PUSH1 0x3 SWAP1 PUSH1 0x20 DUP3 MUL DUP1 CALLDATASIZE DUP4 CALLDATACOPY POP SWAP2 SWAP3 SWAP2 POP POP JUMP JUMPDEST PUSH1 0x40 MLOAD DUP1 PUSH1 0xA0 ADD PUSH1 0x40 MSTORE DUP1 PUSH1 0x5 SWAP1 JUMPDEST PUSH2 0x1DA1 PUSH2 0x1D6C JUMP JUMPDEST DUP2 MSTORE PUSH1 0x20 ADD SWAP1 PUSH1 0x1 SWAP1 SUB SWAP1 DUP2 PUSH2 0x1D99 JUMPI SWAP1 POP POP SWAP1 JUMP JUMPDEST PUSH1 0xF DUP4 ADD SWAP2 DUP4 SWAP1 DUP3 ISZERO PUSH2 0x1DF2 JUMPI SWAP2 PUSH1 0x20 MUL DUP3 ADD JUMPDEST DUP3 DUP2 GT ISZERO PUSH2 0x1DF2 JUMPI DUP3 MLOAD PUSH2 0x1DE2 SWAP1 DUP4 SWAP1 PUSH1 0x3 PUSH2 0x1E7A JUMP JUMPDEST POP SWAP2 PUSH1 0x20 ADD SWAP2 SWAP1 PUSH1 0x3 ADD SWAP1 PUSH2 0x1DCB JUMP JUMPDEST POP PUSH2 0x1D49 SWAP3 SWAP2 POP PUSH2 0x1EA7 JUMP JUMPDEST DUP3 DUP1 SLOAD DUP3 DUP3 SSTORE SWAP1 PUSH1 0x0 MSTORE PUSH1 0x20 PUSH1 0x0 KECCAK256 SWAP1 DUP2 ADD SWAP3 DUP3 ISZERO PUSH2 0x1D3D JUMPI SWAP2 PUSH1 0x20 MUL DUP3 ADD DUP3 DUP2 GT ISZERO PUSH2 0x1D3D JUMPI DUP3 MLOAD DUP3 SSTORE SWAP2 PUSH1 0x20 ADD SWAP2 SWAP1 PUSH1 0x1 ADD SWAP1 PUSH2 0x1D22 JUMP JUMPDEST DUP3 PUSH1 0x5 DUP2 ADD SWAP3 DUP3 ISZERO PUSH2 0x1D3D JUMPI SWAP2 PUSH1 0x20 MUL DUP3 ADD DUP3 DUP2 GT ISZERO PUSH2 0x1D3D JUMPI DUP3 MLOAD DUP3 SSTORE SWAP2 PUSH1 0x20 ADD SWAP2 SWAP1 PUSH1 0x1 ADD SWAP1 PUSH2 0x1D22 JUMP JUMPDEST JUMPDEST DUP1 DUP3 GT ISZERO PUSH2 0x1D49 JUMPI PUSH1 0x0 DUP2 SSTORE PUSH1 0x1 ADD PUSH2 0x1E66 JUMP JUMPDEST DUP3 PUSH1 0x3 DUP2 ADD SWAP3 DUP3 ISZERO PUSH2 0x1D3D JUMPI SWAP2 PUSH1 0x20 MUL DUP3 ADD DUP3 DUP2 GT ISZERO PUSH2 0x1D3D JUMPI DUP3 MLOAD DUP3 SSTORE SWAP2 PUSH1 0x20 ADD SWAP2 SWAP1 PUSH1 0x1 ADD SWAP1 PUSH2 0x1D22 JUMP JUMPDEST DUP1 DUP3 GT ISZERO PUSH2 0x1D49 JUMPI PUSH1 0x0 DUP1 DUP3 SSTORE PUSH1 0x1 DUP3 ADD DUP2 SWAP1 SSTORE PUSH1 0x2 DUP3 ADD SSTORE PUSH1 0x3 ADD PUSH2 0x1EA7 JUMP JUMPDEST PUSH1 0x0 DUP1 PUSH1 0x40 DUP4 DUP6 SUB SLT ISZERO PUSH2 0x1EDB JUMPI PUSH1 0x0 DUP1 REVERT JUMPDEST POP POP DUP1 CALLDATALOAD SWAP3 PUSH1 0x20 SWAP1 SWAP2 ADD CALLDATALOAD SWAP2 POP JUMP JUMPDEST PUSH4 0x4E487B71 PUSH1 0xE0 SHL PUSH1 0x0 MSTORE PUSH1 0x41 PUSH1 0x4 MSTORE PUSH1 0x24 PUSH1 0x0 REVERT JUMPDEST PUSH1 0x40 MLOAD PUSH1 0xA0 DUP2 ADD PUSH8 0xFFFFFFFFFFFFFFFF DUP2 GT DUP3 DUP3 LT OR ISZERO PUSH2 0x1F23 JUMPI PUSH2 0x1F23 PUSH2 0x1EEA JUMP JUMPDEST PUSH1 0x40 MSTORE SWAP1 JUMP JUMPDEST PUSH1 0x40 MLOAD PUSH1 0x1F DUP3 ADD PUSH1 0x1F NOT AND DUP2 ADD PUSH8 0xFFFFFFFFFFFFFFFF DUP2 GT DUP3 DUP3 LT OR ISZERO PUSH2 0x1F52 JUMPI PUSH2 0x1F52 PUSH2 0x1EEA JUMP JUMPDEST PUSH1 0x40 MSTORE SWAP2 SWAP1 POP JUMP JUMPDEST PUSH1 0x0 DUP1 PUSH1 0x40 DUP4 DUP6 SUB SLT ISZERO PUSH2 0x1F6D JUMPI PUSH1 0x0 DUP1 REVERT JUMPDEST DUP3 CALLDATALOAD SWAP2 POP PUSH1 0x20 DUP1 DUP5 ADD CALLDATALOAD PUSH8 0xFFFFFFFFFFFFFFFF DUP1 DUP3 GT ISZERO PUSH2 0x1F8D JUMPI PUSH1 0x0 DUP1 REVERT JUMPDEST DUP2 DUP7 ADD SWAP2 POP DUP7 PUSH1 0x1F DUP4 ADD SLT PUSH2 0x1FA1 JUMPI PUSH1 0x0 DUP1 REVERT JUMPDEST DUP2 CALLDATALOAD DUP2 DUP2 GT ISZERO PUSH2 0x1FB3 JUMPI PUSH2 0x1FB3 PUSH2 0x1EEA JUMP JUMPDEST DUP1 PUSH1 0x5 SHL SWAP2 POP PUSH2 0x1FC4 DUP5 DUP4 ADD PUSH2 0x1F29 JUMP JUMPDEST DUP2 DUP2 MSTORE SWAP2 DUP4 ADD DUP5 ADD SWAP2 DUP5 DUP2 ADD SWAP1 DUP10 DUP5 GT ISZERO PUSH2 0x1FDE JUMPI PUSH1 0x0 DUP1 REVERT JUMPDEST SWAP4 DUP6 ADD SWAP4 JUMPDEST DUP4 DUP6 LT ISZERO PUSH2 0x1FFC JUMPI DUP5 CALLDATALOAD DUP3 MSTORE SWAP4 DUP6 ADD SWAP4 SWAP1 DUP6 ADD SWAP1 PUSH2 0x1FE3 JUMP JUMPDEST DUP1 SWAP7 POP POP POP POP POP POP POP SWAP3 POP SWAP3 SWAP1 POP JUMP JUMPDEST PUSH1 0x0 DUP3 PUSH1 0x1F DUP4 ADD SLT PUSH2 0x201D JUMPI PUSH1 0x0 DUP1 REVERT JUMPDEST DUP2 CALLDATALOAD PUSH8 0xFFFFFFFFFFFFFFFF DUP2 GT ISZERO PUSH2 0x2037 JUMPI PUSH2 0x2037 PUSH2 0x1EEA JUMP JUMPDEST PUSH2 0x204A PUSH1 0x1F DUP3 ADD PUSH1 0x1F NOT AND PUSH1 0x20 ADD PUSH2 0x1F29 JUMP JUMPDEST DUP2 DUP2 MSTORE DUP5 PUSH1 0x20 DUP4 DUP7 ADD ADD GT ISZERO PUSH2 0x205F JUMPI PUSH1 0x0 DUP1 REVERT JUMPDEST DUP2 PUSH1 0x20 DUP6 ADD PUSH1 0x20 DUP4 ADD CALLDATACOPY PUSH1 0x0 SWAP2 DUP2 ADD PUSH1 0x20 ADD SWAP2 SWAP1 SWAP2 MSTORE SWAP4 SWAP3 POP POP POP JUMP JUMPDEST PUSH1 0x0 DUP1 PUSH1 0x0 PUSH1 0x60 DUP5 DUP7 SUB SLT ISZERO PUSH2 0x2091 JUMPI PUSH1 0x0 DUP1 REVERT JUMPDEST DUP4 CALLDATALOAD PUSH8 0xFFFFFFFFFFFFFFFF DUP2 GT ISZERO PUSH2 0x20A8 JUMPI PUSH1 0x0 DUP1 REVERT JUMPDEST PUSH2 0x20B4 DUP7 DUP3 DUP8 ADD PUSH2 0x200C JUMP JUMPDEST SWAP7 PUSH1 0x20 DUP7 ADD CALLDATALOAD SWAP7 POP PUSH1 0x40 SWAP1 SWAP6 ADD CALLDATALOAD SWAP5 SWAP4 POP POP POP POP JUMP JUMPDEST PUSH1 0x0 PUSH1 0x20 DUP3 DUP5 SUB SLT ISZERO PUSH2 0x20DC JUMPI PUSH1 0x0 DUP1 REVERT JUMPDEST POP CALLDATALOAD SWAP2 SWAP1 POP JUMP JUMPDEST PUSH1 0x0 DUP2 MLOAD DUP1 DUP5 MSTORE PUSH1 0x0 JUMPDEST DUP2 DUP2 LT ISZERO PUSH2 0x2109 JUMPI PUSH1 0x20 DUP2 DUP6 ADD DUP2 ADD MLOAD DUP7 DUP4 ADD DUP3 ADD MSTORE ADD PUSH2 0x20ED JUMP JUMPDEST DUP2 DUP2 GT ISZERO PUSH2 0x211B JUMPI PUSH1 0x0 PUSH1 0x20 DUP4 DUP8 ADD ADD MSTORE JUMPDEST POP PUSH1 0x1F ADD PUSH1 0x1F NOT AND SWAP3 SWAP1 SWAP3 ADD PUSH1 0x20 ADD SWAP3 SWAP2 POP POP JUMP JUMPDEST PUSH1 0x60 DUP2 MSTORE PUSH1 0x0 PUSH2 0x2143 PUSH1 0x60 DUP4 ADD DUP7 PUSH2 0x20E3 JUMP JUMPDEST PUSH1 0x20 DUP4 ADD SWAP5 SWAP1 SWAP5 MSTORE POP PUSH1 0x40 ADD MSTORE SWAP2 SWAP1 POP JUMP JUMPDEST PUSH1 0x0 DUP1 PUSH1 0x0 PUSH1 0x60 DUP5 DUP7 SUB SLT ISZERO PUSH2 0x216A JUMPI PUSH1 0x0 DUP1 REVERT JUMPDEST POP POP DUP2 CALLDATALOAD SWAP4 PUSH1 0x20 DUP4 ADD CALLDATALOAD SWAP4 POP PUSH1 0x40 SWAP1 SWAP3 ADD CALLDATALOAD SWAP2 SWAP1 POP JUMP JUMPDEST PUSH1 0x1 PUSH1 0x1 PUSH1 0xA0 SHL SUB DUP2 AND DUP2 EQ PUSH2 0x584 JUMPI PUSH1 0x0 DUP1 REVERT JUMPDEST PUSH1 0x0 PUSH1 0x20 DUP3 DUP5 SUB SLT ISZERO PUSH2 0x21A8 JUMPI PUSH1 0x0 DUP1 REVERT JUMPDEST DUP2 CALLDATALOAD PUSH2 0x21B3 DUP2 PUSH2 0x2181 JUMP JUMPDEST SWAP4 SWAP3 POP POP POP JUMP JUMPDEST DUP1 PUSH1 0x0 JUMPDEST PUSH1 0x64 DUP2 LT ISZERO PUSH2 0x21DD JUMPI DUP2 MLOAD DUP5 MSTORE PUSH1 0x20 SWAP4 DUP5 ADD SWAP4 SWAP1 SWAP2 ADD SWAP1 PUSH1 0x1 ADD PUSH2 0x21BE JUMP JUMPDEST POP POP POP POP JUMP JUMPDEST PUSH1 0x0 DUP2 MLOAD DUP1 DUP5 MSTORE PUSH1 0x20 DUP1 DUP6 ADD SWAP5 POP DUP1 DUP5 ADD PUSH1 0x0 JUMPDEST DUP4 DUP2 LT ISZERO PUSH2 0x2213 JUMPI DUP2 MLOAD DUP8 MSTORE SWAP6 DUP3 ADD SWAP6 SWAP1 DUP3 ADD SWAP1 PUSH1 0x1 ADD PUSH2 0x21F7 JUMP JUMPDEST POP SWAP5 SWAP6 SWAP5 POP POP POP POP POP JUMP JUMPDEST PUSH1 0x0 PUSH2 0x2620 DUP11 ISZERO ISZERO DUP4 MSTORE PUSH1 0x20 DUP11 ISZERO ISZERO DUP2 DUP6 ADD MSTORE DUP10 PUSH1 0x40 DUP6 ADD MSTORE PUSH1 0x60 DUP5 ADD DUP10 PUSH1 0x0 JUMPDEST PUSH1 0x64 DUP2 LT ISZERO PUSH2 0x225E JUMPI DUP2 MLOAD ISZERO ISZERO DUP4 MSTORE SWAP2 DUP4 ADD SWAP2 SWAP1 DUP4 ADD SWAP1 PUSH1 0x1 ADD PUSH2 0x223F JUMP JUMPDEST POP POP POP POP PUSH2 0x2270 PUSH2 0xCE0 DUP5 ADD DUP9 PUSH2 0x21BA JUMP JUMPDEST PUSH2 0x227E PUSH2 0x1960 DUP5 ADD DUP8 PUSH2 0x21BA JUMP JUMPDEST DUP1 PUSH2 0x25E0 DUP5 ADD MSTORE PUSH2 0x2291 DUP2 DUP5 ADD DUP7 PUSH2 0x21E3 JUMP JUMPDEST SWAP1 POP DUP3 DUP2 SUB PUSH2 0x2600 DUP5 ADD MSTORE PUSH2 0x22A6 DUP2 DUP6 PUSH2 0x21E3 JUMP JUMPDEST SWAP12 SWAP11 POP POP POP POP POP POP POP POP POP POP POP JUMP JUMPDEST PUSH1 0x0 PUSH1 0x40 MLOAD PUSH1 0x60 DUP2 ADD DUP2 DUP2 LT PUSH8 0xFFFFFFFFFFFFFFFF DUP3 GT OR ISZERO PUSH2 0x22DA JUMPI PUSH2 0x22DA PUSH2 0x1EEA JUMP JUMPDEST PUSH1 0x40 MSTORE SWAP1 POP DUP1 PUSH1 0x60 DUP4 ADD DUP5 DUP2 GT ISZERO PUSH2 0x22F1 JUMPI PUSH1 0x0 DUP1 REVERT JUMPDEST DUP4 JUMPDEST DUP2 DUP2 LT ISZERO PUSH2 0x230B JUMPI DUP1 CALLDATALOAD DUP4 MSTORE PUSH1 0x20 SWAP3 DUP4 ADD SWAP3 ADD PUSH2 0x22F3 JUMP JUMPDEST POP POP POP SWAP3 SWAP2 POP POP JUMP JUMPDEST PUSH1 0x0 DUP1 PUSH1 0x0 PUSH2 0x220 DUP1 DUP6 DUP8 SUB SLT ISZERO PUSH2 0x232B JUMPI PUSH1 0x0 DUP1 REVERT JUMPDEST DUP5 CALLDATALOAD SWAP4 POP PUSH1 0x20 DUP1 DUP7 ADD CALLDATALOAD SWAP4 POP DUP7 PUSH1 0x5F DUP8 ADD SLT PUSH2 0x2346 JUMPI PUSH1 0x0 DUP1 REVERT JUMPDEST PUSH2 0x234E PUSH2 0x1F00 JUMP JUMPDEST SWAP2 DUP7 ADD SWAP2 DUP1 DUP9 DUP5 GT ISZERO PUSH2 0x2360 JUMPI PUSH1 0x0 DUP1 REVERT JUMPDEST PUSH1 0x40 DUP9 ADD JUMPDEST DUP5 DUP2 LT ISZERO PUSH2 0x2395 JUMPI DUP10 PUSH1 0x1F DUP3 ADD SLT PUSH2 0x237D JUMPI PUSH1 0x0 DUP1 DUP2 REVERT JUMPDEST PUSH2 0x2387 DUP11 DUP3 PUSH2 0x22B5 JUMP JUMPDEST DUP4 MSTORE SWAP2 DUP4 ADD SWAP2 PUSH1 0x60 ADD PUSH2 0x2365 JUMP JUMPDEST POP DUP1 SWAP5 POP POP POP POP POP SWAP3 POP SWAP3 POP SWAP3 JUMP JUMPDEST PUSH1 0x0 DUP1 PUSH1 0x0 DUP1 PUSH1 0x0 PUSH2 0x120 DUP1 DUP8 DUP10 SUB SLT ISZERO PUSH2 0x23BE JUMPI PUSH1 0x0 DUP1 REVERT JUMPDEST DUP7 CALLDATALOAD PUSH8 0xFFFFFFFFFFFFFFFF DUP2 GT ISZERO PUSH2 0x23D5 JUMPI PUSH1 0x0 DUP1 REVERT JUMPDEST PUSH2 0x23E1 DUP10 DUP3 DUP11 ADD PUSH2 0x200C JUMP JUMPDEST SWAP7 POP POP PUSH1 0x20 DUP1 DUP9 ADD CALLDATALOAD SWAP6 POP PUSH1 0x40 DUP9 ADD CALLDATALOAD SWAP5 POP PUSH1 0x60 DUP9 ADD CALLDATALOAD SWAP4 POP DUP9 PUSH1 0x9F DUP10 ADD SLT PUSH2 0x2409 JUMPI PUSH1 0x0 DUP1 REVERT JUMPDEST PUSH2 0x2411 PUSH2 0x1F00 JUMP JUMPDEST SWAP2 DUP9 ADD SWAP2 DUP1 DUP11 DUP5 GT ISZERO PUSH2 0x2423 JUMPI PUSH1 0x0 DUP1 REVERT JUMPDEST PUSH1 0x80 DUP11 ADD JUMPDEST DUP5 DUP2 LT ISZERO PUSH2 0x243F JUMPI DUP1 CALLDATALOAD DUP4 MSTORE SWAP2 DUP4 ADD SWAP2 DUP4 ADD PUSH2 0x2428 JUMP JUMPDEST POP DUP1 SWAP5 POP POP POP POP POP SWAP3 SWAP6 POP SWAP3 SWAP6 SWAP1 SWAP4 POP JUMP JUMPDEST PUSH1 0xA0 DUP2 MSTORE PUSH1 0x0 PUSH2 0x2464 PUSH1 0xA0 DUP4 ADD DUP9 PUSH2 0x20E3 JUMP JUMPDEST SWAP1 POP DUP6 PUSH1 0x20 DUP4 ADD MSTORE DUP5 PUSH1 0x40 DUP4 ADD MSTORE DUP4 PUSH1 0x60 DUP4 ADD MSTORE DUP3 PUSH1 0x80 DUP4 ADD MSTORE SWAP7 SWAP6 POP POP POP POP POP POP JUMP JUMPDEST DUP3 ISZERO ISZERO DUP2 MSTORE PUSH1 0x40 PUSH1 0x20 DUP3 ADD MSTORE PUSH1 0x0 PUSH2 0x24A3 PUSH1 0x40 DUP4 ADD DUP5 PUSH2 0x21E3 JUMP JUMPDEST SWAP5 SWAP4 POP POP POP POP JUMP JUMPDEST PUSH1 0x0 PUSH1 0x20 DUP3 DUP5 SUB SLT ISZERO PUSH2 0x24BD JUMPI PUSH1 0x0 DUP1 REVERT JUMPDEST POP MLOAD SWAP2 SWAP1 POP JUMP JUMPDEST PUSH4 0x4E487B71 PUSH1 0xE0 SHL PUSH1 0x0 MSTORE PUSH1 0x11 PUSH1 0x4 MSTORE PUSH1 0x24 PUSH1 0x0 REVERT JUMPDEST PUSH1 0x0 PUSH1 0x0 NOT DUP3 EQ ISZERO PUSH2 0x24EE JUMPI PUSH2 0x24EE PUSH2 0x24C4 JUMP JUMPDEST POP PUSH1 0x1 ADD SWAP1 JUMP JUMPDEST PUSH1 0x0 PUSH1 0x20 DUP3 DUP5 SUB SLT ISZERO PUSH2 0x2507 JUMPI PUSH1 0x0 DUP1 REVERT JUMPDEST DUP2 MLOAD PUSH2 0x21B3 DUP2 PUSH2 0x2181 JUMP JUMPDEST PUSH1 0x20 DUP1 DUP3 MSTORE PUSH1 0x28 SWAP1 DUP3 ADD MSTORE PUSH32 0x4F6E6C7920746F6B656E206F776E65722063616E2063616C6C2074686973206D PUSH1 0x40 DUP3 ADD MSTORE PUSH8 0x6574686F64212121 PUSH1 0xC0 SHL PUSH1 0x60 DUP3 ADD MSTORE PUSH1 0x80 ADD SWAP1 JUMP JUMPDEST PUSH1 0x0 PUSH1 0x20 DUP3 DUP5 SUB SLT ISZERO PUSH2 0x256C JUMPI PUSH1 0x0 DUP1 REVERT JUMPDEST DUP2 MLOAD DUP1 ISZERO ISZERO DUP2 EQ PUSH2 0x21B3 JUMPI PUSH1 0x0 DUP1 REVERT JUMPDEST PUSH1 0x1 DUP2 DUP2 SHR SWAP1 DUP3 AND DUP1 PUSH2 0x2590 JUMPI PUSH1 0x7F DUP3 AND SWAP2 POP JUMPDEST PUSH1 0x20 DUP3 LT DUP2 EQ ISZERO PUSH2 0x25B1 JUMPI PUSH4 0x4E487B71 PUSH1 0xE0 SHL PUSH1 0x0 MSTORE PUSH1 0x22 PUSH1 0x4 MSTORE PUSH1 0x24 PUSH1 0x0 REVERT JUMPDEST POP SWAP2 SWAP1 POP JUMP JUMPDEST PUSH4 0x4E487B71 PUSH1 0xE0 SHL PUSH1 0x0 MSTORE PUSH1 0x32 PUSH1 0x4 MSTORE PUSH1 0x24 PUSH1 0x0 REVERT JUMPDEST PUSH1 0x0 DUP3 DUP3 LT ISZERO PUSH2 0x25DF JUMPI PUSH2 0x25DF PUSH2 0x24C4 JUMP JUMPDEST POP SUB SWAP1 JUMP JUMPDEST PUSH1 0x0 DUP3 NOT DUP3 GT ISZERO PUSH2 0x25F7 JUMPI PUSH2 0x25F7 PUSH2 0x24C4 JUMP JUMPDEST POP ADD SWAP1 JUMP JUMPDEST PUSH1 0x0 DUP3 PUSH2 0x2619 JUMPI PUSH4 0x4E487B71 PUSH1 0xE0 SHL PUSH1 0x0 MSTORE PUSH1 0x12 PUSH1 0x4 MSTORE PUSH1 0x24 PUSH1 0x0 REVERT JUMPDEST POP MOD SWAP1 JUMP JUMPDEST DUP3 DUP2 MSTORE PUSH1 0x40 PUSH1 0x20 DUP3 ADD MSTORE PUSH1 0x0 PUSH2 0x24A3 PUSH1 0x40 DUP4 ADD DUP5 PUSH2 0x21E3 JUMP INVALID LOG2 PUSH5 0x6970667358 0x22 SLT KECCAK256 MOD 0xC7 DUP3 PUSH17 0x3DF507E39ADC9E46F365600CDA30E0945E SWAP12 INVALID 0xD8 0xC9 0xE2 0xC9 0x4B 0xFB 0xF9 0xED 0xE6 PUSH5 0x736F6C6343 STOP ADDMOD MULMOD STOP CALLER "},"methodIdentifiers":{"N_MAX_MOVES()":"cdc773ef","N_MONSTER_SKEW()":"0ff56693","STAMINA_REGENERATION_RATE()":"0a45af25","UNUSED_SKILL()":"3e26f96f","acceptOwnership()":"79ba5097","addMonster(string,uint256,uint256,uint256,uint256[5])":"b5b662af","addSkill(string,uint256,uint256)":"20f9eb3c","battle(uint256,uint256,uint256[3][5])":"a4482de5","claim(uint256)":"379607f5","getRequestStatus(uint256)":"d8a4676f","lastRequestId()":"fc2a88c3","matchCounter()":"01fd1951","matchIdToMonster1Sequences(uint256,uint256,uint256)":"539dc37e","matchIdToRandomnessRequestId(uint256)":"316990c1","matches(uint256)":"4768d4ef","monsterCount()":"b693bff8","monsterIdToSkillCount(uint256)":"9b1fec3f","monsterIdToSkillIds(uint256,uint256)":"136deb12","monsters(uint256)":"c0576b73","owner()":"8da5cb5b","progressNFT()":"bc0d27a0","randomnessRequestIdToRNG(uint256)":"444f2ec5","rawFulfillRandomWords(uint256,uint256[])":"1fe543e3","register()":"1aa3a008","requestIds(uint256)":"8796ba8c","s_requests(uint256)":"a168fa89","setProgressNFT(address)":"7c7c984b","skillCount()":"b82c1b4a","skills(uint256)":"50d15fbe","transferOwnership(address)":"f2fde38b","viewPlayOut(uint256)":"85c74889"}}}}}